{"contracts/ZaaNetNetworkV1.sol":{"ZaaNetNetworkV1":{"abi":[{"inputs":[],"stateMutability":"nonpayable","type":"constructor"},{"inputs":[{"internalType":"address","name":"target","type":"address"}],"name":"AddressEmptyCode","type":"error"},{"inputs":[{"internalType":"address","name":"implementation","type":"address"}],"name":"ERC1967InvalidImplementation","type":"error"},{"inputs":[],"name":"ERC1967NonPayable","type":"error"},{"inputs":[],"name":"EnforcedPause","type":"error"},{"inputs":[],"name":"ExpectedPause","type":"error"},{"inputs":[],"name":"FailedCall","type":"error"},{"inputs":[],"name":"InvalidInitialization","type":"error"},{"inputs":[],"name":"NotInitializing","type":"error"},{"inputs":[{"internalType":"address","name":"owner","type":"address"}],"name":"OwnableInvalidOwner","type":"error"},{"inputs":[{"internalType":"address","name":"account","type":"address"}],"name":"OwnableUnauthorizedAccount","type":"error"},{"inputs":[{"internalType":"address","name":"token","type":"address"}],"name":"SafeERC20FailedOperation","type":"error"},{"inputs":[],"name":"UUPSUnauthorizedCallContext","type":"error"},{"inputs":[{"internalType":"bytes32","name":"slot","type":"bytes32"}],"name":"UUPSUnsupportedProxiableUUID","type":"error"},{"anonymous":false,"inputs":[{"indexed":true,"internalType":"address","name":"host","type":"address"}],"name":"HostAdded","type":"event"},{"anonymous":false,"inputs":[{"indexed":true,"internalType":"address","name":"host","type":"address"},{"indexed":false,"internalType":"uint256","name":"amount","type":"uint256"},{"indexed":false,"internalType":"uint256","name":"timestamp","type":"uint256"}],"name":"HostingFeePaid","type":"event"},{"anonymous":false,"inputs":[{"indexed":false,"internalType":"uint64","name":"version","type":"uint64"}],"name":"Initialized","type":"event"},{"anonymous":false,"inputs":[{"indexed":true,"internalType":"uint256","name":"networkId","type":"uint256"},{"indexed":false,"internalType":"uint256","name":"oldPrice","type":"uint256"},{"indexed":false,"internalType":"uint256","name":"newPrice","type":"uint256"}],"name":"NetworkPriceUpdated","type":"event"},{"anonymous":false,"inputs":[{"indexed":true,"internalType":"uint256","name":"networkId","type":"uint256"},{"indexed":true,"internalType":"address","name":"hostAddress","type":"address"},{"indexed":false,"internalType":"string","name":"mongoDataId","type":"string"},{"indexed":false,"internalType":"uint256","name":"pricePerSession","type":"uint256"},{"indexed":false,"internalType":"bool","name":"isActive","type":"bool"},{"indexed":false,"internalType":"uint256","name":"hostingFeePaid","type":"uint256"},{"indexed":false,"internalType":"uint256","name":"timestamp","type":"uint256"}],"name":"NetworkRegistered","type":"event"},{"anonymous":false,"inputs":[{"indexed":true,"internalType":"uint256","name":"networkId","type":"uint256"},{"indexed":false,"internalType":"bool","name":"oldStatus","type":"bool"},{"indexed":false,"internalType":"bool","name":"newStatus","type":"bool"}],"name":"NetworkStatusChanged","type":"event"},{"anonymous":false,"inputs":[{"indexed":true,"internalType":"uint256","name":"networkId","type":"uint256"},{"indexed":true,"internalType":"address","name":"hostAddress","type":"address"},{"indexed":false,"internalType":"uint256","name":"pricePerSession","type":"uint256"},{"indexed":false,"internalType":"string","name":"mongoDataId","type":"string"},{"indexed":false,"internalType":"bool","name":"isActive","type":"bool"}],"name":"NetworkUpdated","type":"event"},{"anonymous":false,"inputs":[{"indexed":true,"internalType":"address","name":"previousOwner","type":"address"},{"indexed":true,"internalType":"address","name":"newOwner","type":"address"}],"name":"OwnershipTransferred","type":"event"},{"anonymous":false,"inputs":[{"indexed":false,"internalType":"address","name":"account","type":"address"}],"name":"Paused","type":"event"},{"anonymous":false,"inputs":[{"indexed":false,"internalType":"address","name":"account","type":"address"}],"name":"Unpaused","type":"event"},{"anonymous":false,"inputs":[{"indexed":true,"internalType":"address","name":"implementation","type":"address"}],"name":"Upgraded","type":"event"},{"inputs":[],"name":"MAX_BATCH_SIZE","outputs":[{"internalType":"uint256","name":"","type":"uint256"}],"stateMutability":"view","type":"function"},{"inputs":[],"name":"MAX_MONGO_DATA_LENGTH","outputs":[{"internalType":"uint256","name":"","type":"uint256"}],"stateMutability":"view","type":"function"},{"inputs":[],"name":"MAX_NETWORKS_PER_HOST","outputs":[{"internalType":"uint256","name":"","type":"uint256"}],"stateMutability":"view","type":"function"},{"inputs":[],"name":"MAX_PRICE_PER_SESSION","outputs":[{"internalType":"uint256","name":"","type":"uint256"}],"stateMutability":"view","type":"function"},{"inputs":[],"name":"MIN_PRICE_PER_SESSION","outputs":[{"internalType":"uint256","name":"","type":"uint256"}],"stateMutability":"view","type":"function"},{"inputs":[],"name":"REGISTRATION_COOLDOWN","outputs":[{"internalType":"uint256","name":"","type":"uint256"}],"stateMutability":"view","type":"function"},{"inputs":[],"name":"UPGRADE_INTERFACE_VERSION","outputs":[{"internalType":"string","name":"","type":"string"}],"stateMutability":"view","type":"function"},{"inputs":[],"name":"adminContract","outputs":[{"internalType":"contract IZaaNetAdmin","name":"","type":"address"}],"stateMutability":"view","type":"function"},{"inputs":[{"internalType":"uint256","name":"_networkId","type":"uint256"}],"name":"deactivateNetwork","outputs":[],"stateMutability":"nonpayable","type":"function"},{"inputs":[{"internalType":"address","name":"hostAddress","type":"address"}],"name":"getActiveHostNetworkCount","outputs":[{"internalType":"uint256","name":"count","type":"uint256"}],"stateMutability":"view","type":"function"},{"inputs":[{"internalType":"address","name":"hostAddress","type":"address"},{"internalType":"uint256","name":"offset","type":"uint256"},{"internalType":"uint256","name":"limit","type":"uint256"}],"name":"getActiveHostNetworks","outputs":[{"components":[{"internalType":"uint256","name":"id","type":"uint256"},{"internalType":"address","name":"hostAddress","type":"address"},{"internalType":"uint256","name":"pricePerSession","type":"uint256"},{"internalType":"string","name":"mongoDataId","type":"string"},{"internalType":"bool","name":"isActive","type":"bool"},{"internalType":"uint256","name":"createdAt","type":"uint256"},{"internalType":"uint256","name":"updatedAt","type":"uint256"}],"internalType":"struct ZaaNetStorageV1.Network[]","name":"","type":"tuple[]"}],"stateMutability":"view","type":"function"},{"inputs":[],"name":"getAllActiveNetworks","outputs":[{"components":[{"internalType":"uint256","name":"id","type":"uint256"},{"internalType":"address","name":"hostAddress","type":"address"},{"internalType":"uint256","name":"pricePerSession","type":"uint256"},{"internalType":"string","name":"mongoDataId","type":"string"},{"internalType":"bool","name":"isActive","type":"bool"},{"internalType":"uint256","name":"createdAt","type":"uint256"},{"internalType":"uint256","name":"updatedAt","type":"uint256"}],"internalType":"struct ZaaNetStorageV1.Network[]","name":"","type":"tuple[]"}],"stateMutability":"view","type":"function"},{"inputs":[],"name":"getContractStats","outputs":[{"internalType":"uint256","name":"totalNetworks","type":"uint256"}],"stateMutability":"view","type":"function"},{"inputs":[],"name":"getCurrentHostingFee","outputs":[{"internalType":"uint256","name":"","type":"uint256"}],"stateMutability":"view","type":"function"},{"inputs":[{"internalType":"address","name":"hostAddress","type":"address"}],"name":"getHostNetworks","outputs":[{"internalType":"uint256[]","name":"","type":"uint256[]"}],"stateMutability":"view","type":"function"},{"inputs":[{"internalType":"address","name":"hostAddress","type":"address"}],"name":"getHostStats","outputs":[{"internalType":"uint256","name":"totalNetworks","type":"uint256"},{"internalType":"uint256","name":"activeNetworks","type":"uint256"},{"internalType":"uint256","name":"totalEarnings","type":"uint256"}],"stateMutability":"view","type":"function"},{"inputs":[{"internalType":"uint256","name":"_networkId","type":"uint256"}],"name":"getHostedNetworkById","outputs":[{"components":[{"internalType":"uint256","name":"id","type":"uint256"},{"internalType":"address","name":"hostAddress","type":"address"},{"internalType":"uint256","name":"pricePerSession","type":"uint256"},{"internalType":"string","name":"mongoDataId","type":"string"},{"internalType":"bool","name":"isActive","type":"bool"},{"internalType":"uint256","name":"createdAt","type":"uint256"},{"internalType":"uint256","name":"updatedAt","type":"uint256"}],"internalType":"struct ZaaNetStorageV1.Network","name":"","type":"tuple"}],"stateMutability":"view","type":"function"},{"inputs":[{"internalType":"uint256","name":"offset","type":"uint256"},{"internalType":"uint256","name":"limit","type":"uint256"}],"name":"getNetworksPaginated","outputs":[{"components":[{"internalType":"uint256","name":"id","type":"uint256"},{"internalType":"address","name":"hostAddress","type":"address"},{"internalType":"uint256","name":"pricePerSession","type":"uint256"},{"internalType":"string","name":"mongoDataId","type":"string"},{"internalType":"bool","name":"isActive","type":"bool"},{"internalType":"uint256","name":"createdAt","type":"uint256"},{"internalType":"uint256","name":"updatedAt","type":"uint256"}],"internalType":"struct ZaaNetStorageV1.Network[]","name":"networks","type":"tuple[]"},{"internalType":"uint256","name":"totalCount","type":"uint256"}],"stateMutability":"view","type":"function"},{"inputs":[],"name":"getTreasuryAddress","outputs":[{"internalType":"address","name":"","type":"address"}],"stateMutability":"view","type":"function"},{"inputs":[{"internalType":"address","name":"_storageContract","type":"address"},{"internalType":"address","name":"_adminContract","type":"address"},{"internalType":"address","name":"_usdt","type":"address"}],"name":"initialize","outputs":[],"stateMutability":"nonpayable","type":"function"},{"inputs":[{"internalType":"address","name":"","type":"address"}],"name":"isHost","outputs":[{"internalType":"bool","name":"","type":"bool"}],"stateMutability":"view","type":"function"},{"inputs":[],"name":"isReentrancyGuardActive","outputs":[{"internalType":"bool","name":"","type":"bool"}],"stateMutability":"view","type":"function"},{"inputs":[{"internalType":"address","name":"hostAddress","type":"address"}],"name":"isRegisteredHost","outputs":[{"internalType":"bool","name":"","type":"bool"}],"stateMutability":"view","type":"function"},{"inputs":[{"internalType":"address","name":"","type":"address"}],"name":"lastRegistrationTime","outputs":[{"internalType":"uint256","name":"","type":"uint256"}],"stateMutability":"view","type":"function"},{"inputs":[{"internalType":"uint256","name":"","type":"uint256"}],"name":"networkToHost","outputs":[{"internalType":"address","name":"","type":"address"}],"stateMutability":"view","type":"function"},{"inputs":[],"name":"owner","outputs":[{"internalType":"address","name":"","type":"address"}],"stateMutability":"view","type":"function"},{"inputs":[],"name":"pause","outputs":[],"stateMutability":"nonpayable","type":"function"},{"inputs":[],"name":"paused","outputs":[{"internalType":"bool","name":"","type":"bool"}],"stateMutability":"view","type":"function"},{"inputs":[],"name":"proxiableUUID","outputs":[{"internalType":"bytes32","name":"","type":"bytes32"}],"stateMutability":"view","type":"function"},{"inputs":[{"internalType":"uint256","name":"_pricePerSession","type":"uint256"},{"internalType":"string","name":"_mongoDataId","type":"string"},{"internalType":"bool","name":"_isActive","type":"bool"}],"name":"registerNetwork","outputs":[],"stateMutability":"nonpayable","type":"function"},{"inputs":[],"name":"renounceOwnership","outputs":[],"stateMutability":"nonpayable","type":"function"},{"inputs":[{"internalType":"address","name":"_newAdminContract","type":"address"}],"name":"setAdminContract","outputs":[],"stateMutability":"nonpayable","type":"function"},{"inputs":[{"internalType":"address","name":"_newUsdt","type":"address"}],"name":"setUsdtContract","outputs":[],"stateMutability":"nonpayable","type":"function"},{"inputs":[],"name":"storageContract","outputs":[{"internalType":"contract ZaaNetStorageV1","name":"","type":"address"}],"stateMutability":"view","type":"function"},{"inputs":[{"internalType":"address","name":"newOwner","type":"address"}],"name":"transferOwnership","outputs":[],"stateMutability":"nonpayable","type":"function"},{"inputs":[],"name":"unpause","outputs":[],"stateMutability":"nonpayable","type":"function"},{"inputs":[{"internalType":"uint256","name":"_networkId","type":"uint256"},{"internalType":"uint256","name":"_pricePerSession","type":"uint256"},{"internalType":"bool","name":"_isActive","type":"bool"}],"name":"updateNetwork","outputs":[],"stateMutability":"nonpayable","type":"function"},{"inputs":[{"internalType":"address","name":"newImplementation","type":"address"},{"internalType":"bytes","name":"data","type":"bytes"}],"name":"upgradeToAndCall","outputs":[],"stateMutability":"payable","type":"function"},{"inputs":[],"name":"usdt","outputs":[{"internalType":"contract IERC20","name":"","type":"address"}],"stateMutability":"view","type":"function"}],"evm":{"bytecode":{"linkReferences":{},"object":"60a0806040523460295730608052612c8f908161002f823960805181818161196c0152611a130152f35b600080fdfe608080604052600436101561001357600080fd5b600090813560e01c90816303d50d66146124a75750806309115e971461153157806311ce02671461247e57806316cb6eff1461235b5780631b63fe67146120835780632f48ab7d1461205a5780633f4ba83a14611fd85780634335521414611fa55780634b9791e814611bb25780634f1ef286146119c157806352d1902d14611959578063576338a5146118d55780635c975abb146118a557806363a812f914611820578063715018a6146117b6578063764ac7341461162457806379f0dc571461156f5780637f6e8cbf1461153657806383195f8c146115315780638456cb59146114bc578063867f1a09146104c457806389ea28d91461146d5780638da5cb5b14611437578063900e41b114610b7d5780639c499eac14610a70578063ad3cb1cc14610a27578063b0ff638314610a0b578063c05c5e94146109e2578063c0c53b8b1461071b578063cd83fb9a14610685578063cfdbf25414610669578063d4f38d041461064a578063dfe6b5d6146105c2578063e00246041461051f578063e67d86f114610503578063eb2931b7146104c4578063f2fde38b14610497578063f8c68f321461027d5763fa9c81a4146101ce57600080fd5b3461027a57604036600319011261027a57603254604051633ea7206960e21b81526004803590820152602480359082015291908190839060449082906001600160a01b03165afa801561026d5761023d92828092610247575b5050604051928392604084526040840190612584565b9060208301520390f35b90915061026692503d8091833e61025e8183612634565b8101906127a3565b3880610227565b50604051903d90823e3d90fd5b80fd5b503461027a57606036600319011261027a576102976125ec565b90602435906044359260018060a01b03168152603660205260408120926040518085602082975493848152019085526020852092855b81811061047e5750506102e292500385612634565b60328111610476575b82018181841161046257845180831161045a575b506032546001600160a01b031690845b8381106103e45750610320906128cd565b9383905b838110610345576040516020808252819061034190820189612584565b0390f35b61034f8188612847565b51604051906395ea571760e01b825260048201528581602481875afa9081156103d95786916103b7575b50608081015161038d575b50600101610324565b826103b09161039f600194958a612847565b526103aa8189612847565b50612871565b9190610384565b6103d391503d8088833e6103cb8183612634565b810190612961565b38610379565b6040513d88823e3d90fd5b6103ee8188612847565b51604051906395ea571760e01b825260048201528581602481875afa9081156103d957906080918791610440575b50015161042c575b60010161030f565b90610438600191612871565b919050610424565b61045491503d8089833e6103cb8183612634565b3861041c565b9150386102ff565b634e487b7160e01b83526011600452602483fd5b5060326102eb565b84548352600194850194899450602090930192016102cd565b503461027a57602036600319011261027a576104c16104b46125ec565b6104bc612ae3565b6129ed565b80f35b503461027a57602036600319011261027a5760209060ff906040906001600160a01b036104ef6125ec565b168152603584522054166040519015158152f35b503461027a578060031936011261027a57602060405160c88152f35b503461027a578060031936011261027a5760335460405163c5f956af60e01b81529190602090839060049082906001600160a01b03165afa9081156105b6578091610579575b6040516001600160a01b0383168152602090f35b90506020823d6020116105ae575b8161059460209383612634565b8101031261027a57506105a86020916126c1565b38610565565b3d9150610587565b604051903d90823e3d90fd5b503461027a578060031936011261027a5760325460405163217c682d60e01b81529190602090839060049082906001600160a01b03165afa9081156105b65790610612575b602090604051908152f35b506020813d602011610642575b8161062c60209383612634565b8101031261063d5760209051610607565b600080fd5b3d915061061f565b503461027a578060031936011261027a5760206040516302faf0808152f35b503461027a578060031936011261027a57602060405160328152f35b503461027a57602036600319011261027a5761069f612896565b506032546040516395ea571760e01b81526004803590820152908290829060249082906001600160a01b03165afa908115610710578261034193926106f5575b5050604051918291602083526020830190612528565b61070992503d8091833e6103cb8183612634565b38806106df565b6040513d84823e3d90fd5b503461027a57606036600319011261027a576107356125ec565b6024356001600160a01b038116908190036109de576044356001600160a01b03811691908290036109da57600080516020612c3a833981519152549260ff8460401c16159367ffffffffffffffff8116801590816109d2575b60011490816109c8575b1590816109bf575b506109b05767ffffffffffffffff198116600117600080516020612c3a8339815191525584610983575b506107d3612b19565b6107db612b19565b6107e4336129ed565b6107ec612b19565b6107f4612b19565b6107fc612b19565b600185556001600160a01b0316801561093f5781156108fa5782156108b5576001600160601b0360a01b60325416176032556001600160601b0360a01b60335416176033556001600160601b0360a01b603454161760345561085b5780f35b68ff000000000000000019600080516020612c3a8339815191525416600080516020612c3a833981519152557fc7f505b2f371ae2175ee4913f4499e1f2633a7b5936321eed1cdaeb6115181d2602060405160018152a180f35b60405162461bcd60e51b815260206004820152601d60248201527f496e76616c6964205553445420636f6e747261637420616464726573730000006044820152606490fd5b60405162461bcd60e51b815260206004820152601e60248201527f496e76616c69642061646d696e20636f6e7472616374206164647265737300006044820152606490fd5b606460405162461bcd60e51b815260206004820152602060248201527f496e76616c69642073746f7261676520636f6e747261637420616464726573736044820152fd5b68ffffffffffffffffff19166801000000000000000117600080516020612c3a83398151915255386107ca565b63f92ee8a960e01b8652600486fd5b905015386107a0565b303b159150610798565b86915061078e565b8380fd5b8280fd5b503461027a578060031936011261027a576033546040516001600160a01b039091168152602090f35b503461027a578060031936011261027a576020604051603c8152f35b503461027a578060031936011261027a5750610341604051610a4a604082612634565b60058152640352e302e360dc1b6020820152604051918291602083526020830190612503565b503461027a57602036600319011261027a57610a8a6125ec565b6001600160a01b0316815260366020908152604080832090518154808252918452828420909284928491820190845b818110610b64575050610ace92500383612634565b6032546001600160a01b0316835b8351811015610b5957610aef8185612847565b51604051906395ea571760e01b825260048201528581602481865afa80156103d9576080918791610b3f575b500151610b2b575b600101610adc565b91610b37600191612871565b929050610b23565b610b5391503d8089833e6103cb8183612634565b38610b1b565b602083604051908152f35b8454835260019485019487945060209093019201610ab9565b503461027a57606036600319011261027a5760043560243567ffffffffffffffff81116109de57366023820112156109de57610bc3903690602481600401359101612672565b610bcb6125dd565b610bd3612a63565b610bdb612a8d565b60335460405162482fab60e51b81526001600160a01b039091169290602081600481875afa80156103d95786906113fc575b610c1891501561291d565b33855260386020526040852054603c81018091116113e85742106113a357606484101580611395575b610c4a9061298a565b80518015159081611389575b501561134457603254604051631e2de79b60e11b81523360048201526001600160a01b039091169390602081602481885afa9081156111b657879161130a575b506112b65785936020600492604051938480926375f3fed560e11b82525afa9182156112ab578592611273575b506020906004604051809781936329487fe360e11b83525af19384156103d957869461123f575b508560018060a01b03603254169360405190610d0582612602565b8682523360208301528760408301528460608301521515948560808301524260a08301524260c0830152803b156109de57604051631430350760e21b81529183918391829084908290610d5c908d600484016129d6565b03925af180156107105761122a575b5050338652603660205260408620805490680100000000000000008210156112165760018201808255821015611202579085918852602088200155838652603760205260408620336001600160601b0360a01b8254161790553386526038602052426040872055338652603560205260ff604087205416156111c1575b80610e48575b7fd93f4aea01982a4687b0d757a8314f57b6a77742cf98d21bc9bdb24ef543a4dc92610e256040519360a0855260a0850190612503565b956020840152604083015260608201524260808201528033940390a36001815580f35b60335460405163c5f956af60e01b815290602090829060049082906001600160a01b03165afa9081156111b6578791611178575b506001600160a01b03168015611133576034546040516370a0823160e01b81523360048201526001600160a01b0390911690602081602481855afa801561109c5784918a916110fe575b50106110a757604051636eb1769f60e11b8152336004820152306024820152602081604481855afa801561109c5784918a91611067575b501061102257604051916323b872dd60e01b8952336004526024528260445260208860648180855af16001895114811615611003575b826040528860605215610ff157506032548791906001600160a01b0316803b156109de5781602481858094632a3ee16b60e21b83528860048401525af1801561071057610fd8575b50507fd93f4aea01982a4687b0d757a8314f57b6a77742cf98d21bc9bdb24ef543a4dc926040518281524260208201527fac5b35db873b0c878683cbeac0fc736acd48ea6480742bafd3ba483dd715882460403392a29250610dee565b81610fe291612634565b610fed578538610f7b565b8580fd5b635274afe760e01b8852600452602487fd5b600181151661101957813b15153d151616610f33565b823d8a823e3d90fd5b60405162461bcd60e51b815260206004820152601860248201527f486f7374696e6720666565206e6f7420617070726f76656400000000000000006044820152606490fd5b9150506020813d602011611094575b8161108360209383612634565b8101031261063d5783905138610efd565b3d9150611076565b6040513d8b823e3d90fd5b60405162461bcd60e51b815260206004820152602960248201527f496e73756666696369656e7420555344542062616c616e636520666f7220686f6044820152687374696e672066656560b81b6064820152608490fd5b9150506020813d60201161112b575b8161111a60209383612634565b8101031261063d5783905138610ec6565b3d915061110d565b60405162461bcd60e51b815260206004820152601760248201527f5472656173757279206e6f7420636f6e666967757265640000000000000000006044820152606490fd5b90506020813d6020116111ae575b8161119360209383612634565b810103126111aa576111a4906126c1565b38610e7c565b8680fd5b3d9150611186565b6040513d89823e3d90fd5b33808752603560205260408720805460ff191660011790557f8ff9310abede1de3c5d3fdbb7cf09c40bc8258ca75c0f949ad92f964deac98b38780a2610de8565b634e487b7160e01b88526032600452602488fd5b634e487b7160e01b88526041600452602488fd5b8161123491612634565b610fed578538610d6b565b9093506020813d60201161126b575b8161125b60209383612634565b8101031261063d57519238610cea565b3d915061124e565b945090506020843d6020116112a3575b8161129060209383612634565b8101031261063d57925185936020610cc3565b3d9150611283565b6040513d87823e3d90fd5b60405162461bcd60e51b815260206004820152602660248201527f486f7374206861732072656163686564206d6178696d756d206e6574776f726b604482015265081b1a5b5a5d60d21b6064820152608490fd5b90506020813d60201161133c575b8161132560209383612634565b810103126111aa57611336906126d5565b38610c96565b3d9150611318565b60405162461bcd60e51b815260206004820152601a60248201527f496e76616c6964204d6f6e676f446174614944206c656e6774680000000000006044820152606490fd5b60c89150111538610c56565b506302faf080841115610c41565b60405162461bcd60e51b815260206004820152601c60248201527f526567697374726174696f6e20636f6f6c646f776e20616374697665000000006044820152606490fd5b634e487b7160e01b86526011600452602486fd5b506020813d60201161142f575b8161141660209383612634565b81010312610fed5761142a610c18916126d5565b610c0d565b3d9150611409565b503461027a578060031936011261027a57600080516020612bda833981519152546040516001600160a01b039091168152602090f35b503461027a578060031936011261027a576033546040516375f3fed560e11b81529190602090839060049082906001600160a01b03165afa9081156105b6579061061257602090604051908152f35b503461027a578060031936011261027a576114d5612ae3565b6114dd612a63565b600160ff19600080516020612c1a833981519152541617600080516020612c1a833981519152557f62e78cea01bee320cd4e420270b5ea74000d11b0c9f74754ebdbfc544b05a2586020604051338152a180f35b6124c4565b503461027a57602036600319011261027a576020906040906001600160a01b0361155e6125ec565b168152603883522054604051908152f35b503461027a57602036600319011261027a576001600160a01b036115916125ec565b168152603660205260408120604051908160208254918281520190819285526020852090855b81811061160e57505050826115cd910383612634565b604051928392602084019060208552518091526040840192915b8181106115f5575050500390f35b82518452859450602093840193909201916001016115e7565b82548452602090930192600192830192016115b7565b503461027a57602036600319011261027a5761163e6125ec565b6001600160a01b03908116808352603660209081526040808520546032549151636d65573f60e01b81526004810185905294869492169290919085602481865afa9485156103d9578695611782575b508552603660205260408520906040518083602082955493848152019089526020892092895b8181106117695750506116c892500383612634565b855b8251811015611752576116dd8184612847565b51604051906395ea571760e01b825260048201528781602481885afa801561174757608091899161172d575b500151611719575b6001016116ca565b93611725600191612871565b949050611711565b61174191503d808b833e6103cb8183612634565b38611709565b6040513d8a823e3d90fd5b606082878760405192835260208301526040820152f35b84548352600194850194879450602090930192016116b3565b9094506020813d6020116117ae575b8161179e60209383612634565b8101031261063d5751933861168d565b3d9150611791565b503461027a578060031936011261027a576117cf612ae3565b600080516020612bda83398151915280546001600160a01b0319811690915581906001600160a01b03167f8be0079c531659141344cd1fd0a4f28419497f9722a3daafe3b4186f6b6457e08280a380f35b503461027a57602036600319011261027a5761183a6125ec565b611842612ae3565b6001600160a01b03168015611867576001600160601b0360a01b603354161760335580f35b60405162461bcd60e51b8152602060048201526016602482015275125b9d985b1a590818591b5a5b8818dbdb9d1c9858dd60521b6044820152606490fd5b503461027a578060031936011261027a57602060ff600080516020612c1a83398151915254166040519015158152f35b503461027a57602036600319011261027a576118ef6125ec565b6118f7612ae3565b6001600160a01b0316801561191c576001600160601b0360a01b603454161760345580f35b60405162461bcd60e51b8152602060048201526015602482015274125b9d985b1a59081554d1150818dbdb9d1c9858dd605a1b6044820152606490fd5b503461027a578060031936011261027a577f00000000000000000000000000000000000000000000000000000000000000006001600160a01b031630036119b2576020604051600080516020612bfa8339815191528152f35b63703e46dd60e11b8152600490fd5b50604036600319011261027a576119d66125ec565b9060243567ffffffffffffffff8111611bae5736602382011215611bae57611a08903690602481600401359101612672565b916001600160a01b037f000000000000000000000000000000000000000000000000000000000000000016308114908115611b8b575b50611b7c57611a4b612ae3565b6040516352d1902d60e01b8152926001600160a01b0382169190602085600481865afa80958596611b44575b50611a9057634c9c8ce360e01b84526004839052602484fd5b909184600080516020612bfa8339815191528103611b325750823b15611b2057600080516020612bfa83398151915280546001600160a01b031916821790557fbc7cd75a20ee27fd9adebab32041f755214dbc6bffa90cc0225b39da2e5c2d3b8480a2805115611b0757611b0391612b47565b5080f35b505034611b115780f35b63b398979f60e01b8152600490fd5b634c9c8ce360e01b8452600452602483fd5b632a87526960e21b8552600452602484fd5b9095506020813d602011611b74575b81611b6060209383612634565b81010312611b7057519438611a77565b8480fd5b3d9150611b53565b63703e46dd60e11b8252600482fd5b600080516020612bfa833981519152546001600160a01b03161415905038611a3e565b5080fd5b503461027a57602036600319011261027a57600435611bcf612a63565b611bd7612a8d565b60335460405162482fab60e51b815290602090829060049082906001600160a01b03165afa8015611f5f578390611f6a575b611c1491501561291d565b6032546040516395ea571760e01b815260048101839052908390829060249082906001600160a01b03165afa908115611f5f578391611f45575b5060208101516001600160a01b03163303611f0057608081015115611ebb5760409081015160325491516395ea571760e01b8152600481018490529092916001600160a01b03168482602481845afa9182156112ab578592611e9f575b506020820151336001600160a01b0390911603611e6357606484101580611e55575b611cd69061298a565b846040830151926080810151151590606081019360a0855192015160405192611cfe84612602565b888452336020850152896040850152606084015284608084015260a08301524260c0830152803b156109da57611d4f8492918392604051968780948193631430350760e21b83528d600484016129d6565b03925af192831561026d578693611e38575b50509081611db693928286897f54505b9e522263d538acc1f6de9658c2ae4fd39b8771f562481c2d375d1c1f2d9803611e01575b5050611dca575b505051604051948552606060208601526060850190612503565b928460408201528033940390a36001815580f35b60407fb061566845b6680f66461fbe29235493f3aa355419d464d868114a32e0e7ae7b918151908152896020820152a28338611d9c565b60407f07d20e42fbc3910f3e2536c15bfb3d2deec361f7b0534c071570af6608429f019181519081528b6020820152a28238611d95565b819294935090611e4791612634565b610fed579083908638611d61565b506302faf080841115611ccd565b60405162461bcd60e51b81526020600482015260146024820152734f6e6c7920686f73742063616e2075706461746560601b6044820152606490fd5b611eb49192503d8087833e6103cb8183612634565b9038611cab565b60405162461bcd60e51b815260206004820152601860248201527f4e6574776f726b20616c726561647920696e61637469766500000000000000006044820152606490fd5b60405162461bcd60e51b815260206004820152601860248201527f4f6e6c7920686f73742063616e206465616374697661746500000000000000006044820152606490fd5b611f5991503d8085833e6103cb8183612634565b38611c4e565b6040513d85823e3d90fd5b506020813d602011611f9d575b81611f8460209383612634565b810103126109de57611f98611c14916126d5565b611c09565b3d9150611f77565b503461027a57602036600319011261027a57602090600435815260378252604060018060a01b0391205416604051908152f35b503461027a578060031936011261027a57611ff1612ae3565b600080516020612c1a8339815191525460ff81161561204b5760ff1916600080516020612c1a833981519152557f5db9ee0a495bf2e6ff9c91a7834c1ba4fdd244a5e8aa4e537bd38aeae4b073aa6020604051338152a180f35b638dfc202b60e01b8252600482fd5b503461027a578060031936011261027a576034546040516001600160a01b039091168152602090f35b503461027a57606036600319011261027a576024356004356120a36125dd565b916120ac612a63565b6120b4612a8d565b60335460405162482fab60e51b815290602090829060049082906001600160a01b03165afa80156112ab578590612320575b6120f191501561291d565b6032546040516395ea571760e01b815260048101849052906001600160a01b03168582602481845afa9182156103d9578692612304575b506020820151336001600160a01b0390911603611e63576064831015806122f6575b6121539061298a565b6040820151866080840151151592606085019460a08651910151986040519161217b83612602565b898352336020840152886040840152606083015215159889608083015260a08201524260c0820152813b156109de5782916121cd91604051948580948193631430350760e21b83528d600484016129d6565b03925af18015611747576122b4575b509184612233928185877f54505b9e522263d538acc1f6de9658c2ae4fd39b8771f562481c2d375d1c1f2d98970361227d575b5050878103612246575b505051604051928352606060208401526060830190612503565b9360408201528033940390a36001815580f35b60407fb061566845b6680f66461fbe29235493f3aa355419d464d868114a32e0e7ae7b918151908152896020820152a28438612219565b60407f07d20e42fbc3910f3e2536c15bfb3d2deec361f7b0534c071570af6608429f01918151908152886020820152a2813861220f565b6122339286896122e97f54505b9e522263d538acc1f6de9658c2ae4fd39b8771f562481c2d375d1c1f2d9897959b8395612634565b99939596505092506121dc565b506302faf08083111561214a565b6123199192503d8088833e6103cb8183612634565b9038612128565b506020813d602011612353575b8161233a60209383612634565b81010312611b705761234e6120f1916126d5565b6120e6565b3d915061232d565b503461027a578060031936011261027a57603254604051633ea7206960e21b8152600481018390526064602482015291908190839060449082906001600160a01b03165afa91821561026d578192612461575b5080815b83518110156123eb5760806123c78286612847565b5101516123d7575b6001016123b2565b906123e3600191612871565b9190506123cf565b506123f5906128cd565b815b835181101561244b57608061240c8286612847565b51015161241c575b6001016123f7565b9161244360019161242d8587612847565b516124388286612847565b526103aa8185612847565b929050612414565b6040516020808252819061034190820185612584565b6124769192503d8084833e61025e8183612634565b5090386123ae565b503461027a578060031936011261027a576032546040516001600160a01b039091168152602090f35b905034611bae5781600319360112611bae57600260209254148152f35b3461063d57600036600319011261063d57602060405160648152f35b60005b8381106124f35750506000910152565b81810151838201526020016124e3565b9060209161251c815180928185528580860191016124e0565b601f01601f1916010190565b908151815260018060a01b0360208301511660208201526040820151604082015260c080612565606085015160e0606086015260e0850190612503565b9360808101511515608085015260a081015160a0850152015191015290565b9080602083519182815201916020808360051b8301019401926000915b8383106125b057505050505090565b90919293946020806125ce600193601f198682030187528951612528565b970193019301919392906125a1565b60443590811515820361063d57565b600435906001600160a01b038216820361063d57565b60e0810190811067ffffffffffffffff82111761261e57604052565b634e487b7160e01b600052604160045260246000fd5b90601f8019910116810190811067ffffffffffffffff82111761261e57604052565b67ffffffffffffffff811161261e57601f01601f191660200190565b92919261267e82612656565b9161268c6040519384612634565b82948184528183011161063d578281602093846000960137010152565b67ffffffffffffffff811161261e5760051b60200190565b51906001600160a01b038216820361063d57565b5190811515820361063d57565b91909160e08184031261063d57604051906126fc82612602565b81938151835261270e602083016126c1565b602084015260408201516040840152606082015167ffffffffffffffff811161063d5782019181601f8401121561063d5782519161274b83612656565b906127596040519283612634565b8382526020848601011161063d5761277c60c094938594602080850191016124e0565b606085015261278d608082016126d5565b608085015260a081015160a08501520151910152565b919060408382031261063d57825167ffffffffffffffff811161063d5783019080601f8301121561063d5781516127d9816126a9565b926127e76040519485612634565b81845260208085019260051b8201019183831161063d5760208201905b83821061281957505050505060209092015190565b815167ffffffffffffffff811161063d5760209161283c878480948801016126e2565b815201910190612804565b805182101561285b5760209160051b010190565b634e487b7160e01b600052603260045260246000fd5b60001981146128805760010190565b634e487b7160e01b600052601160045260246000fd5b604051906128a382612602565b600060c0838281528260208201528260408201526060808201528260808201528260a08201520152565b906128d7826126a9565b6128e46040519182612634565b82815280926128f5601f19916126a9565b019060005b82811061290657505050565b602090612911612896565b828285010152016128fa565b1561292457565b60405162461bcd60e51b8152602060048201526015602482015274456d657267656e6379206d6f64652061637469766560581b6044820152606490fd5b9060208282031261063d57815167ffffffffffffffff811161063d5761298792016126e2565b90565b1561299157565b60405162461bcd60e51b815260206004820152601a60248201527f5072696365206f7574206f6620616c6c6f7765642072616e67650000000000006044820152606490fd5b604090612987939281528160208201520190612528565b6001600160a01b03168015612a4d57600080516020612bda83398151915280546001600160a01b0319811683179091556001600160a01b03167f8be0079c531659141344cd1fd0a4f28419497f9722a3daafe3b4186f6b6457e0600080a3565b631e4fbdf760e01b600052600060045260246000fd5b60ff600080516020612c1a8339815191525416612a7c57565b63d93c066560e01b60005260046000fd5b600260005414612a9e576002600055565b60405162461bcd60e51b815260206004820152601f60248201527f5265656e7472616e637947756172643a207265656e7472616e742063616c6c006044820152606490fd5b600080516020612bda833981519152546001600160a01b03163303612b0457565b63118cdaa760e01b6000523360045260246000fd5b60ff600080516020612c3a8339815191525460401c1615612b3657565b631afcd79f60e31b60005260046000fd5b9060008091602081519101845af48080612bc6575b15612b7d5750506040513d81523d6000602083013e60203d82010160405290565b15612ba357639996b31560e01b60009081526001600160a01b0391909116600452602490fd5b3d15612bb5576040513d6000823e3d90fd5b63d6bda27560e01b60005260046000fd5b503d151580612b5c5750813b1515612b5c56fe9016d09d72d40fdae2fd8ceac6b6234c7706214fd39c1cd1e609a0528c199300360894a13ba1a3210667c828492db98dca3e2076cc3735a920a3ca505d382bbccd5ed15c6e187e77e9aee88184c21f4f2182ab5827cb3b7e07fbedcd63f03300f0c57e16840df040f15088dc2f81fe391c3923bec73e23a9662efc9c229c6a00a2646970667358221220d8553447175dc2352bd44bf7c1e4f29351161daf8fb6cfb21d63151dd964f36d64736f6c634300081a0033","opcodes":"PUSH1 0xA0 DUP1 PUSH1 0x40 MSTORE CALLVALUE PUSH1 0x29 JUMPI ADDRESS PUSH1 0x80 MSTORE PUSH2 0x2C8F SWAP1 DUP2 PUSH2 0x2F DUP3 CODECOPY PUSH1 0x80 MLOAD DUP2 DUP2 DUP2 PUSH2 0x196C ADD MSTORE PUSH2 0x1A13 ADD MSTORE RETURN JUMPDEST PUSH1 0x0 DUP1 REVERT INVALID PUSH1 0x80 DUP1 PUSH1 0x40 MSTORE PUSH1 0x4 CALLDATASIZE LT ISZERO PUSH2 0x13 JUMPI PUSH1 0x0 DUP1 REVERT JUMPDEST PUSH1 0x0 SWAP1 DUP2 CALLDATALOAD PUSH1 0xE0 SHR SWAP1 DUP2 PUSH4 0x3D50D66 EQ PUSH2 0x24A7 JUMPI POP DUP1 PUSH4 0x9115E97 EQ PUSH2 0x1531 JUMPI DUP1 PUSH4 0x11CE0267 EQ PUSH2 0x247E JUMPI DUP1 PUSH4 0x16CB6EFF EQ PUSH2 0x235B JUMPI DUP1 PUSH4 0x1B63FE67 EQ PUSH2 0x2083 JUMPI DUP1 PUSH4 0x2F48AB7D EQ PUSH2 0x205A JUMPI DUP1 PUSH4 0x3F4BA83A EQ PUSH2 0x1FD8 JUMPI DUP1 PUSH4 0x43355214 EQ PUSH2 0x1FA5 JUMPI DUP1 PUSH4 0x4B9791E8 EQ PUSH2 0x1BB2 JUMPI DUP1 PUSH4 0x4F1EF286 EQ PUSH2 0x19C1 JUMPI DUP1 PUSH4 0x52D1902D EQ PUSH2 0x1959 JUMPI DUP1 PUSH4 0x576338A5 EQ PUSH2 0x18D5 JUMPI DUP1 PUSH4 0x5C975ABB EQ PUSH2 0x18A5 JUMPI DUP1 PUSH4 0x63A812F9 EQ PUSH2 0x1820 JUMPI DUP1 PUSH4 0x715018A6 EQ PUSH2 0x17B6 JUMPI DUP1 PUSH4 0x764AC734 EQ PUSH2 0x1624 JUMPI DUP1 PUSH4 0x79F0DC57 EQ PUSH2 0x156F JUMPI DUP1 PUSH4 0x7F6E8CBF EQ PUSH2 0x1536 JUMPI DUP1 PUSH4 0x83195F8C EQ PUSH2 0x1531 JUMPI DUP1 PUSH4 0x8456CB59 EQ PUSH2 0x14BC JUMPI DUP1 PUSH4 0x867F1A09 EQ PUSH2 0x4C4 JUMPI DUP1 PUSH4 0x89EA28D9 EQ PUSH2 0x146D JUMPI DUP1 PUSH4 0x8DA5CB5B EQ PUSH2 0x1437 JUMPI DUP1 PUSH4 0x900E41B1 EQ PUSH2 0xB7D JUMPI DUP1 PUSH4 0x9C499EAC EQ PUSH2 0xA70 JUMPI DUP1 PUSH4 0xAD3CB1CC EQ PUSH2 0xA27 JUMPI DUP1 PUSH4 0xB0FF6383 EQ PUSH2 0xA0B JUMPI DUP1 PUSH4 0xC05C5E94 EQ PUSH2 0x9E2 JUMPI DUP1 PUSH4 0xC0C53B8B EQ PUSH2 0x71B JUMPI DUP1 PUSH4 0xCD83FB9A EQ PUSH2 0x685 JUMPI DUP1 PUSH4 0xCFDBF254 EQ PUSH2 0x669 JUMPI DUP1 PUSH4 0xD4F38D04 EQ PUSH2 0x64A JUMPI DUP1 PUSH4 0xDFE6B5D6 EQ PUSH2 0x5C2 JUMPI DUP1 PUSH4 0xE0024604 EQ PUSH2 0x51F JUMPI DUP1 PUSH4 0xE67D86F1 EQ PUSH2 0x503 JUMPI DUP1 PUSH4 0xEB2931B7 EQ PUSH2 0x4C4 JUMPI DUP1 PUSH4 0xF2FDE38B EQ PUSH2 0x497 JUMPI DUP1 PUSH4 0xF8C68F32 EQ PUSH2 0x27D JUMPI PUSH4 0xFA9C81A4 EQ PUSH2 0x1CE JUMPI PUSH1 0x0 DUP1 REVERT JUMPDEST CALLVALUE PUSH2 0x27A JUMPI PUSH1 0x40 CALLDATASIZE PUSH1 0x3 NOT ADD SLT PUSH2 0x27A JUMPI PUSH1 0x32 SLOAD PUSH1 0x40 MLOAD PUSH4 0x3EA72069 PUSH1 0xE2 SHL DUP2 MSTORE PUSH1 0x4 DUP1 CALLDATALOAD SWAP1 DUP3 ADD MSTORE PUSH1 0x24 DUP1 CALLDATALOAD SWAP1 DUP3 ADD MSTORE SWAP2 SWAP1 DUP2 SWAP1 DUP4 SWAP1 PUSH1 0x44 SWAP1 DUP3 SWAP1 PUSH1 0x1 PUSH1 0x1 PUSH1 0xA0 SHL SUB AND GAS STATICCALL DUP1 ISZERO PUSH2 0x26D JUMPI PUSH2 0x23D SWAP3 DUP3 DUP1 SWAP3 PUSH2 0x247 JUMPI JUMPDEST POP POP PUSH1 0x40 MLOAD SWAP3 DUP4 SWAP3 PUSH1 0x40 DUP5 MSTORE PUSH1 0x40 DUP5 ADD SWAP1 PUSH2 0x2584 JUMP JUMPDEST SWAP1 PUSH1 0x20 DUP4 ADD MSTORE SUB SWAP1 RETURN JUMPDEST SWAP1 SWAP2 POP PUSH2 0x266 SWAP3 POP RETURNDATASIZE DUP1 SWAP2 DUP4 RETURNDATACOPY PUSH2 0x25E DUP2 DUP4 PUSH2 0x2634 JUMP JUMPDEST DUP2 ADD SWAP1 PUSH2 0x27A3 JUMP JUMPDEST CODESIZE DUP1 PUSH2 0x227 JUMP JUMPDEST POP PUSH1 0x40 MLOAD SWAP1 RETURNDATASIZE SWAP1 DUP3 RETURNDATACOPY RETURNDATASIZE SWAP1 REVERT JUMPDEST DUP1 REVERT JUMPDEST POP CALLVALUE PUSH2 0x27A JUMPI PUSH1 0x60 CALLDATASIZE PUSH1 0x3 NOT ADD SLT PUSH2 0x27A JUMPI PUSH2 0x297 PUSH2 0x25EC JUMP JUMPDEST SWAP1 PUSH1 0x24 CALLDATALOAD SWAP1 PUSH1 0x44 CALLDATALOAD SWAP3 PUSH1 0x1 DUP1 PUSH1 0xA0 SHL SUB AND DUP2 MSTORE PUSH1 0x36 PUSH1 0x20 MSTORE PUSH1 0x40 DUP2 KECCAK256 SWAP3 PUSH1 0x40 MLOAD DUP1 DUP6 PUSH1 0x20 DUP3 SWAP8 SLOAD SWAP4 DUP5 DUP2 MSTORE ADD SWAP1 DUP6 MSTORE PUSH1 0x20 DUP6 KECCAK256 SWAP3 DUP6 JUMPDEST DUP2 DUP2 LT PUSH2 0x47E JUMPI POP POP PUSH2 0x2E2 SWAP3 POP SUB DUP6 PUSH2 0x2634 JUMP JUMPDEST PUSH1 0x32 DUP2 GT PUSH2 0x476 JUMPI JUMPDEST DUP3 ADD DUP2 DUP2 DUP5 GT PUSH2 0x462 JUMPI DUP5 MLOAD DUP1 DUP4 GT PUSH2 0x45A JUMPI JUMPDEST POP PUSH1 0x32 SLOAD PUSH1 0x1 PUSH1 0x1 PUSH1 0xA0 SHL SUB AND SWAP1 DUP5 JUMPDEST DUP4 DUP2 LT PUSH2 0x3E4 JUMPI POP PUSH2 0x320 SWAP1 PUSH2 0x28CD JUMP JUMPDEST SWAP4 DUP4 SWAP1 JUMPDEST DUP4 DUP2 LT PUSH2 0x345 JUMPI PUSH1 0x40 MLOAD PUSH1 0x20 DUP1 DUP3 MSTORE DUP2 SWAP1 PUSH2 0x341 SWAP1 DUP3 ADD DUP10 PUSH2 0x2584 JUMP JUMPDEST SUB SWAP1 RETURN JUMPDEST PUSH2 0x34F DUP2 DUP9 PUSH2 0x2847 JUMP JUMPDEST MLOAD PUSH1 0x40 MLOAD SWAP1 PUSH4 0x95EA5717 PUSH1 0xE0 SHL DUP3 MSTORE PUSH1 0x4 DUP3 ADD MSTORE DUP6 DUP2 PUSH1 0x24 DUP2 DUP8 GAS STATICCALL SWAP1 DUP2 ISZERO PUSH2 0x3D9 JUMPI DUP7 SWAP2 PUSH2 0x3B7 JUMPI JUMPDEST POP PUSH1 0x80 DUP2 ADD MLOAD PUSH2 0x38D JUMPI JUMPDEST POP PUSH1 0x1 ADD PUSH2 0x324 JUMP JUMPDEST DUP3 PUSH2 0x3B0 SWAP2 PUSH2 0x39F PUSH1 0x1 SWAP5 SWAP6 DUP11 PUSH2 0x2847 JUMP JUMPDEST MSTORE PUSH2 0x3AA DUP2 DUP10 PUSH2 0x2847 JUMP JUMPDEST POP PUSH2 0x2871 JUMP JUMPDEST SWAP2 SWAP1 PUSH2 0x384 JUMP JUMPDEST PUSH2 0x3D3 SWAP2 POP RETURNDATASIZE DUP1 DUP9 DUP4 RETURNDATACOPY PUSH2 0x3CB DUP2 DUP4 PUSH2 0x2634 JUMP JUMPDEST DUP2 ADD SWAP1 PUSH2 0x2961 JUMP JUMPDEST CODESIZE PUSH2 0x379 JUMP JUMPDEST PUSH1 0x40 MLOAD RETURNDATASIZE DUP9 DUP3 RETURNDATACOPY RETURNDATASIZE SWAP1 REVERT JUMPDEST PUSH2 0x3EE DUP2 DUP9 PUSH2 0x2847 JUMP JUMPDEST MLOAD PUSH1 0x40 MLOAD SWAP1 PUSH4 0x95EA5717 PUSH1 0xE0 SHL DUP3 MSTORE PUSH1 0x4 DUP3 ADD MSTORE DUP6 DUP2 PUSH1 0x24 DUP2 DUP8 GAS STATICCALL SWAP1 DUP2 ISZERO PUSH2 0x3D9 JUMPI SWAP1 PUSH1 0x80 SWAP2 DUP8 SWAP2 PUSH2 0x440 JUMPI JUMPDEST POP ADD MLOAD PUSH2 0x42C JUMPI JUMPDEST PUSH1 0x1 ADD PUSH2 0x30F JUMP JUMPDEST SWAP1 PUSH2 0x438 PUSH1 0x1 SWAP2 PUSH2 0x2871 JUMP JUMPDEST SWAP2 SWAP1 POP PUSH2 0x424 JUMP JUMPDEST PUSH2 0x454 SWAP2 POP RETURNDATASIZE DUP1 DUP10 DUP4 RETURNDATACOPY PUSH2 0x3CB DUP2 DUP4 PUSH2 0x2634 JUMP JUMPDEST CODESIZE PUSH2 0x41C JUMP JUMPDEST SWAP2 POP CODESIZE PUSH2 0x2FF JUMP JUMPDEST PUSH4 0x4E487B71 PUSH1 0xE0 SHL DUP4 MSTORE PUSH1 0x11 PUSH1 0x4 MSTORE PUSH1 0x24 DUP4 REVERT JUMPDEST POP PUSH1 0x32 PUSH2 0x2EB JUMP JUMPDEST DUP5 SLOAD DUP4 MSTORE PUSH1 0x1 SWAP5 DUP6 ADD SWAP5 DUP10 SWAP5 POP PUSH1 0x20 SWAP1 SWAP4 ADD SWAP3 ADD PUSH2 0x2CD JUMP JUMPDEST POP CALLVALUE PUSH2 0x27A JUMPI PUSH1 0x20 CALLDATASIZE PUSH1 0x3 NOT ADD SLT PUSH2 0x27A JUMPI PUSH2 0x4C1 PUSH2 0x4B4 PUSH2 0x25EC JUMP JUMPDEST PUSH2 0x4BC PUSH2 0x2AE3 JUMP JUMPDEST PUSH2 0x29ED JUMP JUMPDEST DUP1 RETURN JUMPDEST POP CALLVALUE PUSH2 0x27A JUMPI PUSH1 0x20 CALLDATASIZE PUSH1 0x3 NOT ADD SLT PUSH2 0x27A JUMPI PUSH1 0x20 SWAP1 PUSH1 0xFF SWAP1 PUSH1 0x40 SWAP1 PUSH1 0x1 PUSH1 0x1 PUSH1 0xA0 SHL SUB PUSH2 0x4EF PUSH2 0x25EC JUMP JUMPDEST AND DUP2 MSTORE PUSH1 0x35 DUP5 MSTORE KECCAK256 SLOAD AND PUSH1 0x40 MLOAD SWAP1 ISZERO ISZERO DUP2 MSTORE RETURN JUMPDEST POP CALLVALUE PUSH2 0x27A JUMPI DUP1 PUSH1 0x3 NOT CALLDATASIZE ADD SLT PUSH2 0x27A JUMPI PUSH1 0x20 PUSH1 0x40 MLOAD PUSH1 0xC8 DUP2 MSTORE RETURN JUMPDEST POP CALLVALUE PUSH2 0x27A JUMPI DUP1 PUSH1 0x3 NOT CALLDATASIZE ADD SLT PUSH2 0x27A JUMPI PUSH1 0x33 SLOAD PUSH1 0x40 MLOAD PUSH4 0xC5F956AF PUSH1 0xE0 SHL DUP2 MSTORE SWAP2 SWAP1 PUSH1 0x20 SWAP1 DUP4 SWAP1 PUSH1 0x4 SWAP1 DUP3 SWAP1 PUSH1 0x1 PUSH1 0x1 PUSH1 0xA0 SHL SUB AND GAS STATICCALL SWAP1 DUP2 ISZERO PUSH2 0x5B6 JUMPI DUP1 SWAP2 PUSH2 0x579 JUMPI JUMPDEST PUSH1 0x40 MLOAD PUSH1 0x1 PUSH1 0x1 PUSH1 0xA0 SHL SUB DUP4 AND DUP2 MSTORE PUSH1 0x20 SWAP1 RETURN JUMPDEST SWAP1 POP PUSH1 0x20 DUP3 RETURNDATASIZE PUSH1 0x20 GT PUSH2 0x5AE JUMPI JUMPDEST DUP2 PUSH2 0x594 PUSH1 0x20 SWAP4 DUP4 PUSH2 0x2634 JUMP JUMPDEST DUP2 ADD SUB SLT PUSH2 0x27A JUMPI POP PUSH2 0x5A8 PUSH1 0x20 SWAP2 PUSH2 0x26C1 JUMP JUMPDEST CODESIZE PUSH2 0x565 JUMP JUMPDEST RETURNDATASIZE SWAP2 POP PUSH2 0x587 JUMP JUMPDEST PUSH1 0x40 MLOAD SWAP1 RETURNDATASIZE SWAP1 DUP3 RETURNDATACOPY RETURNDATASIZE SWAP1 REVERT JUMPDEST POP CALLVALUE PUSH2 0x27A JUMPI DUP1 PUSH1 0x3 NOT CALLDATASIZE ADD SLT PUSH2 0x27A JUMPI PUSH1 0x32 SLOAD PUSH1 0x40 MLOAD PUSH4 0x217C682D PUSH1 0xE0 SHL DUP2 MSTORE SWAP2 SWAP1 PUSH1 0x20 SWAP1 DUP4 SWAP1 PUSH1 0x4 SWAP1 DUP3 SWAP1 PUSH1 0x1 PUSH1 0x1 PUSH1 0xA0 SHL SUB AND GAS STATICCALL SWAP1 DUP2 ISZERO PUSH2 0x5B6 JUMPI SWAP1 PUSH2 0x612 JUMPI JUMPDEST PUSH1 0x20 SWAP1 PUSH1 0x40 MLOAD SWAP1 DUP2 MSTORE RETURN JUMPDEST POP PUSH1 0x20 DUP2 RETURNDATASIZE PUSH1 0x20 GT PUSH2 0x642 JUMPI JUMPDEST DUP2 PUSH2 0x62C PUSH1 0x20 SWAP4 DUP4 PUSH2 0x2634 JUMP JUMPDEST DUP2 ADD SUB SLT PUSH2 0x63D JUMPI PUSH1 0x20 SWAP1 MLOAD PUSH2 0x607 JUMP JUMPDEST PUSH1 0x0 DUP1 REVERT JUMPDEST RETURNDATASIZE SWAP2 POP PUSH2 0x61F JUMP JUMPDEST POP CALLVALUE PUSH2 0x27A JUMPI DUP1 PUSH1 0x3 NOT CALLDATASIZE ADD SLT PUSH2 0x27A JUMPI PUSH1 0x20 PUSH1 0x40 MLOAD PUSH4 0x2FAF080 DUP2 MSTORE RETURN JUMPDEST POP CALLVALUE PUSH2 0x27A JUMPI DUP1 PUSH1 0x3 NOT CALLDATASIZE ADD SLT PUSH2 0x27A JUMPI PUSH1 0x20 PUSH1 0x40 MLOAD PUSH1 0x32 DUP2 MSTORE RETURN JUMPDEST POP CALLVALUE PUSH2 0x27A JUMPI PUSH1 0x20 CALLDATASIZE PUSH1 0x3 NOT ADD SLT PUSH2 0x27A JUMPI PUSH2 0x69F PUSH2 0x2896 JUMP JUMPDEST POP PUSH1 0x32 SLOAD PUSH1 0x40 MLOAD PUSH4 0x95EA5717 PUSH1 0xE0 SHL DUP2 MSTORE PUSH1 0x4 DUP1 CALLDATALOAD SWAP1 DUP3 ADD MSTORE SWAP1 DUP3 SWAP1 DUP3 SWAP1 PUSH1 0x24 SWAP1 DUP3 SWAP1 PUSH1 0x1 PUSH1 0x1 PUSH1 0xA0 SHL SUB AND GAS STATICCALL SWAP1 DUP2 ISZERO PUSH2 0x710 JUMPI DUP3 PUSH2 0x341 SWAP4 SWAP3 PUSH2 0x6F5 JUMPI JUMPDEST POP POP PUSH1 0x40 MLOAD SWAP2 DUP3 SWAP2 PUSH1 0x20 DUP4 MSTORE PUSH1 0x20 DUP4 ADD SWAP1 PUSH2 0x2528 JUMP JUMPDEST PUSH2 0x709 SWAP3 POP RETURNDATASIZE DUP1 SWAP2 DUP4 RETURNDATACOPY PUSH2 0x3CB DUP2 DUP4 PUSH2 0x2634 JUMP JUMPDEST CODESIZE DUP1 PUSH2 0x6DF JUMP JUMPDEST PUSH1 0x40 MLOAD RETURNDATASIZE DUP5 DUP3 RETURNDATACOPY RETURNDATASIZE SWAP1 REVERT JUMPDEST POP CALLVALUE PUSH2 0x27A JUMPI PUSH1 0x60 CALLDATASIZE PUSH1 0x3 NOT ADD SLT PUSH2 0x27A JUMPI PUSH2 0x735 PUSH2 0x25EC JUMP JUMPDEST PUSH1 0x24 CALLDATALOAD PUSH1 0x1 PUSH1 0x1 PUSH1 0xA0 SHL SUB DUP2 AND SWAP1 DUP2 SWAP1 SUB PUSH2 0x9DE JUMPI PUSH1 0x44 CALLDATALOAD PUSH1 0x1 PUSH1 0x1 PUSH1 0xA0 SHL SUB DUP2 AND SWAP2 SWAP1 DUP3 SWAP1 SUB PUSH2 0x9DA JUMPI PUSH1 0x0 DUP1 MLOAD PUSH1 0x20 PUSH2 0x2C3A DUP4 CODECOPY DUP2 MLOAD SWAP2 MSTORE SLOAD SWAP3 PUSH1 0xFF DUP5 PUSH1 0x40 SHR AND ISZERO SWAP4 PUSH8 0xFFFFFFFFFFFFFFFF DUP2 AND DUP1 ISZERO SWAP1 DUP2 PUSH2 0x9D2 JUMPI JUMPDEST PUSH1 0x1 EQ SWAP1 DUP2 PUSH2 0x9C8 JUMPI JUMPDEST ISZERO SWAP1 DUP2 PUSH2 0x9BF JUMPI JUMPDEST POP PUSH2 0x9B0 JUMPI PUSH8 0xFFFFFFFFFFFFFFFF NOT DUP2 AND PUSH1 0x1 OR PUSH1 0x0 DUP1 MLOAD PUSH1 0x20 PUSH2 0x2C3A DUP4 CODECOPY DUP2 MLOAD SWAP2 MSTORE SSTORE DUP5 PUSH2 0x983 JUMPI JUMPDEST POP PUSH2 0x7D3 PUSH2 0x2B19 JUMP JUMPDEST PUSH2 0x7DB PUSH2 0x2B19 JUMP JUMPDEST PUSH2 0x7E4 CALLER PUSH2 0x29ED JUMP JUMPDEST PUSH2 0x7EC PUSH2 0x2B19 JUMP JUMPDEST PUSH2 0x7F4 PUSH2 0x2B19 JUMP JUMPDEST PUSH2 0x7FC PUSH2 0x2B19 JUMP JUMPDEST PUSH1 0x1 DUP6 SSTORE PUSH1 0x1 PUSH1 0x1 PUSH1 0xA0 SHL SUB AND DUP1 ISZERO PUSH2 0x93F JUMPI DUP2 ISZERO PUSH2 0x8FA JUMPI DUP3 ISZERO PUSH2 0x8B5 JUMPI PUSH1 0x1 PUSH1 0x1 PUSH1 0x60 SHL SUB PUSH1 0xA0 SHL PUSH1 0x32 SLOAD AND OR PUSH1 0x32 SSTORE PUSH1 0x1 PUSH1 0x1 PUSH1 0x60 SHL SUB PUSH1 0xA0 SHL PUSH1 0x33 SLOAD AND OR PUSH1 0x33 SSTORE PUSH1 0x1 PUSH1 0x1 PUSH1 0x60 SHL SUB PUSH1 0xA0 SHL PUSH1 0x34 SLOAD AND OR PUSH1 0x34 SSTORE PUSH2 0x85B JUMPI DUP1 RETURN JUMPDEST PUSH9 0xFF0000000000000000 NOT PUSH1 0x0 DUP1 MLOAD PUSH1 0x20 PUSH2 0x2C3A DUP4 CODECOPY DUP2 MLOAD SWAP2 MSTORE SLOAD AND PUSH1 0x0 DUP1 MLOAD PUSH1 0x20 PUSH2 0x2C3A DUP4 CODECOPY DUP2 MLOAD SWAP2 MSTORE SSTORE PUSH32 0xC7F505B2F371AE2175EE4913F4499E1F2633A7B5936321EED1CDAEB6115181D2 PUSH1 0x20 PUSH1 0x40 MLOAD PUSH1 0x1 DUP2 MSTORE LOG1 DUP1 RETURN JUMPDEST PUSH1 0x40 MLOAD PUSH3 0x461BCD PUSH1 0xE5 SHL DUP2 MSTORE PUSH1 0x20 PUSH1 0x4 DUP3 ADD MSTORE PUSH1 0x1D PUSH1 0x24 DUP3 ADD MSTORE PUSH32 0x496E76616C6964205553445420636F6E74726163742061646472657373000000 PUSH1 0x44 DUP3 ADD MSTORE PUSH1 0x64 SWAP1 REVERT JUMPDEST PUSH1 0x40 MLOAD PUSH3 0x461BCD PUSH1 0xE5 SHL DUP2 MSTORE PUSH1 0x20 PUSH1 0x4 DUP3 ADD MSTORE PUSH1 0x1E PUSH1 0x24 DUP3 ADD MSTORE PUSH32 0x496E76616C69642061646D696E20636F6E747261637420616464726573730000 PUSH1 0x44 DUP3 ADD MSTORE PUSH1 0x64 SWAP1 REVERT JUMPDEST PUSH1 0x64 PUSH1 0x40 MLOAD PUSH3 0x461BCD PUSH1 0xE5 SHL DUP2 MSTORE PUSH1 0x20 PUSH1 0x4 DUP3 ADD MSTORE PUSH1 0x20 PUSH1 0x24 DUP3 ADD MSTORE PUSH32 0x496E76616C69642073746F7261676520636F6E74726163742061646472657373 PUSH1 0x44 DUP3 ADD MSTORE REVERT JUMPDEST PUSH9 0xFFFFFFFFFFFFFFFFFF NOT AND PUSH9 0x10000000000000001 OR PUSH1 0x0 DUP1 MLOAD PUSH1 0x20 PUSH2 0x2C3A DUP4 CODECOPY DUP2 MLOAD SWAP2 MSTORE SSTORE CODESIZE PUSH2 0x7CA JUMP JUMPDEST PUSH4 0xF92EE8A9 PUSH1 0xE0 SHL DUP7 MSTORE PUSH1 0x4 DUP7 REVERT JUMPDEST SWAP1 POP ISZERO CODESIZE PUSH2 0x7A0 JUMP JUMPDEST ADDRESS EXTCODESIZE ISZERO SWAP2 POP PUSH2 0x798 JUMP JUMPDEST DUP7 SWAP2 POP PUSH2 0x78E JUMP JUMPDEST DUP4 DUP1 REVERT JUMPDEST DUP3 DUP1 REVERT JUMPDEST POP CALLVALUE PUSH2 0x27A JUMPI DUP1 PUSH1 0x3 NOT CALLDATASIZE ADD SLT PUSH2 0x27A JUMPI PUSH1 0x33 SLOAD PUSH1 0x40 MLOAD PUSH1 0x1 PUSH1 0x1 PUSH1 0xA0 SHL SUB SWAP1 SWAP2 AND DUP2 MSTORE PUSH1 0x20 SWAP1 RETURN JUMPDEST POP CALLVALUE PUSH2 0x27A JUMPI DUP1 PUSH1 0x3 NOT CALLDATASIZE ADD SLT PUSH2 0x27A JUMPI PUSH1 0x20 PUSH1 0x40 MLOAD PUSH1 0x3C DUP2 MSTORE RETURN JUMPDEST POP CALLVALUE PUSH2 0x27A JUMPI DUP1 PUSH1 0x3 NOT CALLDATASIZE ADD SLT PUSH2 0x27A JUMPI POP PUSH2 0x341 PUSH1 0x40 MLOAD PUSH2 0xA4A PUSH1 0x40 DUP3 PUSH2 0x2634 JUMP JUMPDEST PUSH1 0x5 DUP2 MSTORE PUSH5 0x352E302E3 PUSH1 0xDC SHL PUSH1 0x20 DUP3 ADD MSTORE PUSH1 0x40 MLOAD SWAP2 DUP3 SWAP2 PUSH1 0x20 DUP4 MSTORE PUSH1 0x20 DUP4 ADD SWAP1 PUSH2 0x2503 JUMP JUMPDEST POP CALLVALUE PUSH2 0x27A JUMPI PUSH1 0x20 CALLDATASIZE PUSH1 0x3 NOT ADD SLT PUSH2 0x27A JUMPI PUSH2 0xA8A PUSH2 0x25EC JUMP JUMPDEST PUSH1 0x1 PUSH1 0x1 PUSH1 0xA0 SHL SUB AND DUP2 MSTORE PUSH1 0x36 PUSH1 0x20 SWAP1 DUP2 MSTORE PUSH1 0x40 DUP1 DUP4 KECCAK256 SWAP1 MLOAD DUP2 SLOAD DUP1 DUP3 MSTORE SWAP2 DUP5 MSTORE DUP3 DUP5 KECCAK256 SWAP1 SWAP3 DUP5 SWAP3 DUP5 SWAP2 DUP3 ADD SWAP1 DUP5 JUMPDEST DUP2 DUP2 LT PUSH2 0xB64 JUMPI POP POP PUSH2 0xACE SWAP3 POP SUB DUP4 PUSH2 0x2634 JUMP JUMPDEST PUSH1 0x32 SLOAD PUSH1 0x1 PUSH1 0x1 PUSH1 0xA0 SHL SUB AND DUP4 JUMPDEST DUP4 MLOAD DUP2 LT ISZERO PUSH2 0xB59 JUMPI PUSH2 0xAEF DUP2 DUP6 PUSH2 0x2847 JUMP JUMPDEST MLOAD PUSH1 0x40 MLOAD SWAP1 PUSH4 0x95EA5717 PUSH1 0xE0 SHL DUP3 MSTORE PUSH1 0x4 DUP3 ADD MSTORE DUP6 DUP2 PUSH1 0x24 DUP2 DUP7 GAS STATICCALL DUP1 ISZERO PUSH2 0x3D9 JUMPI PUSH1 0x80 SWAP2 DUP8 SWAP2 PUSH2 0xB3F JUMPI JUMPDEST POP ADD MLOAD PUSH2 0xB2B JUMPI JUMPDEST PUSH1 0x1 ADD PUSH2 0xADC JUMP JUMPDEST SWAP2 PUSH2 0xB37 PUSH1 0x1 SWAP2 PUSH2 0x2871 JUMP JUMPDEST SWAP3 SWAP1 POP PUSH2 0xB23 JUMP JUMPDEST PUSH2 0xB53 SWAP2 POP RETURNDATASIZE DUP1 DUP10 DUP4 RETURNDATACOPY PUSH2 0x3CB DUP2 DUP4 PUSH2 0x2634 JUMP JUMPDEST CODESIZE PUSH2 0xB1B JUMP JUMPDEST PUSH1 0x20 DUP4 PUSH1 0x40 MLOAD SWAP1 DUP2 MSTORE RETURN JUMPDEST DUP5 SLOAD DUP4 MSTORE PUSH1 0x1 SWAP5 DUP6 ADD SWAP5 DUP8 SWAP5 POP PUSH1 0x20 SWAP1 SWAP4 ADD SWAP3 ADD PUSH2 0xAB9 JUMP JUMPDEST POP CALLVALUE PUSH2 0x27A JUMPI PUSH1 0x60 CALLDATASIZE PUSH1 0x3 NOT ADD SLT PUSH2 0x27A JUMPI PUSH1 0x4 CALLDATALOAD PUSH1 0x24 CALLDATALOAD PUSH8 0xFFFFFFFFFFFFFFFF DUP2 GT PUSH2 0x9DE JUMPI CALLDATASIZE PUSH1 0x23 DUP3 ADD SLT ISZERO PUSH2 0x9DE JUMPI PUSH2 0xBC3 SWAP1 CALLDATASIZE SWAP1 PUSH1 0x24 DUP2 PUSH1 0x4 ADD CALLDATALOAD SWAP2 ADD PUSH2 0x2672 JUMP JUMPDEST PUSH2 0xBCB PUSH2 0x25DD JUMP JUMPDEST PUSH2 0xBD3 PUSH2 0x2A63 JUMP JUMPDEST PUSH2 0xBDB PUSH2 0x2A8D JUMP JUMPDEST PUSH1 0x33 SLOAD PUSH1 0x40 MLOAD PUSH3 0x482FAB PUSH1 0xE5 SHL DUP2 MSTORE PUSH1 0x1 PUSH1 0x1 PUSH1 0xA0 SHL SUB SWAP1 SWAP2 AND SWAP3 SWAP1 PUSH1 0x20 DUP2 PUSH1 0x4 DUP2 DUP8 GAS STATICCALL DUP1 ISZERO PUSH2 0x3D9 JUMPI DUP7 SWAP1 PUSH2 0x13FC JUMPI JUMPDEST PUSH2 0xC18 SWAP2 POP ISZERO PUSH2 0x291D JUMP JUMPDEST CALLER DUP6 MSTORE PUSH1 0x38 PUSH1 0x20 MSTORE PUSH1 0x40 DUP6 KECCAK256 SLOAD PUSH1 0x3C DUP2 ADD DUP1 SWAP2 GT PUSH2 0x13E8 JUMPI TIMESTAMP LT PUSH2 0x13A3 JUMPI PUSH1 0x64 DUP5 LT ISZERO DUP1 PUSH2 0x1395 JUMPI JUMPDEST PUSH2 0xC4A SWAP1 PUSH2 0x298A JUMP JUMPDEST DUP1 MLOAD DUP1 ISZERO ISZERO SWAP1 DUP2 PUSH2 0x1389 JUMPI JUMPDEST POP ISZERO PUSH2 0x1344 JUMPI PUSH1 0x32 SLOAD PUSH1 0x40 MLOAD PUSH4 0x1E2DE79B PUSH1 0xE1 SHL DUP2 MSTORE CALLER PUSH1 0x4 DUP3 ADD MSTORE PUSH1 0x1 PUSH1 0x1 PUSH1 0xA0 SHL SUB SWAP1 SWAP2 AND SWAP4 SWAP1 PUSH1 0x20 DUP2 PUSH1 0x24 DUP2 DUP9 GAS STATICCALL SWAP1 DUP2 ISZERO PUSH2 0x11B6 JUMPI DUP8 SWAP2 PUSH2 0x130A JUMPI JUMPDEST POP PUSH2 0x12B6 JUMPI DUP6 SWAP4 PUSH1 0x20 PUSH1 0x4 SWAP3 PUSH1 0x40 MLOAD SWAP4 DUP5 DUP1 SWAP3 PUSH4 0x75F3FED5 PUSH1 0xE1 SHL DUP3 MSTORE GAS STATICCALL SWAP2 DUP3 ISZERO PUSH2 0x12AB JUMPI DUP6 SWAP3 PUSH2 0x1273 JUMPI JUMPDEST POP PUSH1 0x20 SWAP1 PUSH1 0x4 PUSH1 0x40 MLOAD DUP1 SWAP8 DUP2 SWAP4 PUSH4 0x29487FE3 PUSH1 0xE1 SHL DUP4 MSTORE GAS CALL SWAP4 DUP5 ISZERO PUSH2 0x3D9 JUMPI DUP7 SWAP5 PUSH2 0x123F JUMPI JUMPDEST POP DUP6 PUSH1 0x1 DUP1 PUSH1 0xA0 SHL SUB PUSH1 0x32 SLOAD AND SWAP4 PUSH1 0x40 MLOAD SWAP1 PUSH2 0xD05 DUP3 PUSH2 0x2602 JUMP JUMPDEST DUP7 DUP3 MSTORE CALLER PUSH1 0x20 DUP4 ADD MSTORE DUP8 PUSH1 0x40 DUP4 ADD MSTORE DUP5 PUSH1 0x60 DUP4 ADD MSTORE ISZERO ISZERO SWAP5 DUP6 PUSH1 0x80 DUP4 ADD MSTORE TIMESTAMP PUSH1 0xA0 DUP4 ADD MSTORE TIMESTAMP PUSH1 0xC0 DUP4 ADD MSTORE DUP1 EXTCODESIZE ISZERO PUSH2 0x9DE JUMPI PUSH1 0x40 MLOAD PUSH4 0x14303507 PUSH1 0xE2 SHL DUP2 MSTORE SWAP2 DUP4 SWAP2 DUP4 SWAP2 DUP3 SWAP1 DUP5 SWAP1 DUP3 SWAP1 PUSH2 0xD5C SWAP1 DUP14 PUSH1 0x4 DUP5 ADD PUSH2 0x29D6 JUMP JUMPDEST SUB SWAP3 GAS CALL DUP1 ISZERO PUSH2 0x710 JUMPI PUSH2 0x122A JUMPI JUMPDEST POP POP CALLER DUP7 MSTORE PUSH1 0x36 PUSH1 0x20 MSTORE PUSH1 0x40 DUP7 KECCAK256 DUP1 SLOAD SWAP1 PUSH9 0x10000000000000000 DUP3 LT ISZERO PUSH2 0x1216 JUMPI PUSH1 0x1 DUP3 ADD DUP1 DUP3 SSTORE DUP3 LT ISZERO PUSH2 0x1202 JUMPI SWAP1 DUP6 SWAP2 DUP9 MSTORE PUSH1 0x20 DUP9 KECCAK256 ADD SSTORE DUP4 DUP7 MSTORE PUSH1 0x37 PUSH1 0x20 MSTORE PUSH1 0x40 DUP7 KECCAK256 CALLER PUSH1 0x1 PUSH1 0x1 PUSH1 0x60 SHL SUB PUSH1 0xA0 SHL DUP3 SLOAD AND OR SWAP1 SSTORE CALLER DUP7 MSTORE PUSH1 0x38 PUSH1 0x20 MSTORE TIMESTAMP PUSH1 0x40 DUP8 KECCAK256 SSTORE CALLER DUP7 MSTORE PUSH1 0x35 PUSH1 0x20 MSTORE PUSH1 0xFF PUSH1 0x40 DUP8 KECCAK256 SLOAD AND ISZERO PUSH2 0x11C1 JUMPI JUMPDEST DUP1 PUSH2 0xE48 JUMPI JUMPDEST PUSH32 0xD93F4AEA01982A4687B0D757A8314F57B6A77742CF98D21BC9BDB24EF543A4DC SWAP3 PUSH2 0xE25 PUSH1 0x40 MLOAD SWAP4 PUSH1 0xA0 DUP6 MSTORE PUSH1 0xA0 DUP6 ADD SWAP1 PUSH2 0x2503 JUMP JUMPDEST SWAP6 PUSH1 0x20 DUP5 ADD MSTORE PUSH1 0x40 DUP4 ADD MSTORE PUSH1 0x60 DUP3 ADD MSTORE TIMESTAMP PUSH1 0x80 DUP3 ADD MSTORE DUP1 CALLER SWAP5 SUB SWAP1 LOG3 PUSH1 0x1 DUP2 SSTORE DUP1 RETURN JUMPDEST PUSH1 0x33 SLOAD PUSH1 0x40 MLOAD PUSH4 0xC5F956AF PUSH1 0xE0 SHL DUP2 MSTORE SWAP1 PUSH1 0x20 SWAP1 DUP3 SWAP1 PUSH1 0x4 SWAP1 DUP3 SWAP1 PUSH1 0x1 PUSH1 0x1 PUSH1 0xA0 SHL SUB AND GAS STATICCALL SWAP1 DUP2 ISZERO PUSH2 0x11B6 JUMPI DUP8 SWAP2 PUSH2 0x1178 JUMPI JUMPDEST POP PUSH1 0x1 PUSH1 0x1 PUSH1 0xA0 SHL SUB AND DUP1 ISZERO PUSH2 0x1133 JUMPI PUSH1 0x34 SLOAD PUSH1 0x40 MLOAD PUSH4 0x70A08231 PUSH1 0xE0 SHL DUP2 MSTORE CALLER PUSH1 0x4 DUP3 ADD MSTORE PUSH1 0x1 PUSH1 0x1 PUSH1 0xA0 SHL SUB SWAP1 SWAP2 AND SWAP1 PUSH1 0x20 DUP2 PUSH1 0x24 DUP2 DUP6 GAS STATICCALL DUP1 ISZERO PUSH2 0x109C JUMPI DUP5 SWAP2 DUP11 SWAP2 PUSH2 0x10FE JUMPI JUMPDEST POP LT PUSH2 0x10A7 JUMPI PUSH1 0x40 MLOAD PUSH4 0x6EB1769F PUSH1 0xE1 SHL DUP2 MSTORE CALLER PUSH1 0x4 DUP3 ADD MSTORE ADDRESS PUSH1 0x24 DUP3 ADD MSTORE PUSH1 0x20 DUP2 PUSH1 0x44 DUP2 DUP6 GAS STATICCALL DUP1 ISZERO PUSH2 0x109C JUMPI DUP5 SWAP2 DUP11 SWAP2 PUSH2 0x1067 JUMPI JUMPDEST POP LT PUSH2 0x1022 JUMPI PUSH1 0x40 MLOAD SWAP2 PUSH4 0x23B872DD PUSH1 0xE0 SHL DUP10 MSTORE CALLER PUSH1 0x4 MSTORE PUSH1 0x24 MSTORE DUP3 PUSH1 0x44 MSTORE PUSH1 0x20 DUP9 PUSH1 0x64 DUP2 DUP1 DUP6 GAS CALL PUSH1 0x1 DUP10 MLOAD EQ DUP2 AND ISZERO PUSH2 0x1003 JUMPI JUMPDEST DUP3 PUSH1 0x40 MSTORE DUP9 PUSH1 0x60 MSTORE ISZERO PUSH2 0xFF1 JUMPI POP PUSH1 0x32 SLOAD DUP8 SWAP2 SWAP1 PUSH1 0x1 PUSH1 0x1 PUSH1 0xA0 SHL SUB AND DUP1 EXTCODESIZE ISZERO PUSH2 0x9DE JUMPI DUP2 PUSH1 0x24 DUP2 DUP6 DUP1 SWAP5 PUSH4 0x2A3EE16B PUSH1 0xE2 SHL DUP4 MSTORE DUP9 PUSH1 0x4 DUP5 ADD MSTORE GAS CALL DUP1 ISZERO PUSH2 0x710 JUMPI PUSH2 0xFD8 JUMPI JUMPDEST POP POP PUSH32 0xD93F4AEA01982A4687B0D757A8314F57B6A77742CF98D21BC9BDB24EF543A4DC SWAP3 PUSH1 0x40 MLOAD DUP3 DUP2 MSTORE TIMESTAMP PUSH1 0x20 DUP3 ADD MSTORE PUSH32 0xAC5B35DB873B0C878683CBEAC0FC736ACD48EA6480742BAFD3BA483DD7158824 PUSH1 0x40 CALLER SWAP3 LOG2 SWAP3 POP PUSH2 0xDEE JUMP JUMPDEST DUP2 PUSH2 0xFE2 SWAP2 PUSH2 0x2634 JUMP JUMPDEST PUSH2 0xFED JUMPI DUP6 CODESIZE PUSH2 0xF7B JUMP JUMPDEST DUP6 DUP1 REVERT JUMPDEST PUSH4 0x5274AFE7 PUSH1 0xE0 SHL DUP9 MSTORE PUSH1 0x4 MSTORE PUSH1 0x24 DUP8 REVERT JUMPDEST PUSH1 0x1 DUP2 ISZERO AND PUSH2 0x1019 JUMPI DUP2 EXTCODESIZE ISZERO ISZERO RETURNDATASIZE ISZERO AND AND PUSH2 0xF33 JUMP JUMPDEST DUP3 RETURNDATASIZE DUP11 DUP3 RETURNDATACOPY RETURNDATASIZE SWAP1 REVERT JUMPDEST PUSH1 0x40 MLOAD PUSH3 0x461BCD PUSH1 0xE5 SHL DUP2 MSTORE PUSH1 0x20 PUSH1 0x4 DUP3 ADD MSTORE PUSH1 0x18 PUSH1 0x24 DUP3 ADD MSTORE PUSH32 0x486F7374696E6720666565206E6F7420617070726F7665640000000000000000 PUSH1 0x44 DUP3 ADD MSTORE PUSH1 0x64 SWAP1 REVERT JUMPDEST SWAP2 POP POP PUSH1 0x20 DUP2 RETURNDATASIZE PUSH1 0x20 GT PUSH2 0x1094 JUMPI JUMPDEST DUP2 PUSH2 0x1083 PUSH1 0x20 SWAP4 DUP4 PUSH2 0x2634 JUMP JUMPDEST DUP2 ADD SUB SLT PUSH2 0x63D JUMPI DUP4 SWAP1 MLOAD CODESIZE PUSH2 0xEFD JUMP JUMPDEST RETURNDATASIZE SWAP2 POP PUSH2 0x1076 JUMP JUMPDEST PUSH1 0x40 MLOAD RETURNDATASIZE DUP12 DUP3 RETURNDATACOPY RETURNDATASIZE SWAP1 REVERT JUMPDEST PUSH1 0x40 MLOAD PUSH3 0x461BCD PUSH1 0xE5 SHL DUP2 MSTORE PUSH1 0x20 PUSH1 0x4 DUP3 ADD MSTORE PUSH1 0x29 PUSH1 0x24 DUP3 ADD MSTORE PUSH32 0x496E73756666696369656E7420555344542062616C616E636520666F7220686F PUSH1 0x44 DUP3 ADD MSTORE PUSH9 0x7374696E6720666565 PUSH1 0xB8 SHL PUSH1 0x64 DUP3 ADD MSTORE PUSH1 0x84 SWAP1 REVERT JUMPDEST SWAP2 POP POP PUSH1 0x20 DUP2 RETURNDATASIZE PUSH1 0x20 GT PUSH2 0x112B JUMPI JUMPDEST DUP2 PUSH2 0x111A PUSH1 0x20 SWAP4 DUP4 PUSH2 0x2634 JUMP JUMPDEST DUP2 ADD SUB SLT PUSH2 0x63D JUMPI DUP4 SWAP1 MLOAD CODESIZE PUSH2 0xEC6 JUMP JUMPDEST RETURNDATASIZE SWAP2 POP PUSH2 0x110D JUMP JUMPDEST PUSH1 0x40 MLOAD PUSH3 0x461BCD PUSH1 0xE5 SHL DUP2 MSTORE PUSH1 0x20 PUSH1 0x4 DUP3 ADD MSTORE PUSH1 0x17 PUSH1 0x24 DUP3 ADD MSTORE PUSH32 0x5472656173757279206E6F7420636F6E66696775726564000000000000000000 PUSH1 0x44 DUP3 ADD MSTORE PUSH1 0x64 SWAP1 REVERT JUMPDEST SWAP1 POP PUSH1 0x20 DUP2 RETURNDATASIZE PUSH1 0x20 GT PUSH2 0x11AE JUMPI JUMPDEST DUP2 PUSH2 0x1193 PUSH1 0x20 SWAP4 DUP4 PUSH2 0x2634 JUMP JUMPDEST DUP2 ADD SUB SLT PUSH2 0x11AA JUMPI PUSH2 0x11A4 SWAP1 PUSH2 0x26C1 JUMP JUMPDEST CODESIZE PUSH2 0xE7C JUMP JUMPDEST DUP7 DUP1 REVERT JUMPDEST RETURNDATASIZE SWAP2 POP PUSH2 0x1186 JUMP JUMPDEST PUSH1 0x40 MLOAD RETURNDATASIZE DUP10 DUP3 RETURNDATACOPY RETURNDATASIZE SWAP1 REVERT JUMPDEST CALLER DUP1 DUP8 MSTORE PUSH1 0x35 PUSH1 0x20 MSTORE PUSH1 0x40 DUP8 KECCAK256 DUP1 SLOAD PUSH1 0xFF NOT AND PUSH1 0x1 OR SWAP1 SSTORE PUSH32 0x8FF9310ABEDE1DE3C5D3FDBB7CF09C40BC8258CA75C0F949AD92F964DEAC98B3 DUP8 DUP1 LOG2 PUSH2 0xDE8 JUMP JUMPDEST PUSH4 0x4E487B71 PUSH1 0xE0 SHL DUP9 MSTORE PUSH1 0x32 PUSH1 0x4 MSTORE PUSH1 0x24 DUP9 REVERT JUMPDEST PUSH4 0x4E487B71 PUSH1 0xE0 SHL DUP9 MSTORE PUSH1 0x41 PUSH1 0x4 MSTORE PUSH1 0x24 DUP9 REVERT JUMPDEST DUP2 PUSH2 0x1234 SWAP2 PUSH2 0x2634 JUMP JUMPDEST PUSH2 0xFED JUMPI DUP6 CODESIZE PUSH2 0xD6B JUMP JUMPDEST SWAP1 SWAP4 POP PUSH1 0x20 DUP2 RETURNDATASIZE PUSH1 0x20 GT PUSH2 0x126B JUMPI JUMPDEST DUP2 PUSH2 0x125B PUSH1 0x20 SWAP4 DUP4 PUSH2 0x2634 JUMP JUMPDEST DUP2 ADD SUB SLT PUSH2 0x63D JUMPI MLOAD SWAP3 CODESIZE PUSH2 0xCEA JUMP JUMPDEST RETURNDATASIZE SWAP2 POP PUSH2 0x124E JUMP JUMPDEST SWAP5 POP SWAP1 POP PUSH1 0x20 DUP5 RETURNDATASIZE PUSH1 0x20 GT PUSH2 0x12A3 JUMPI JUMPDEST DUP2 PUSH2 0x1290 PUSH1 0x20 SWAP4 DUP4 PUSH2 0x2634 JUMP JUMPDEST DUP2 ADD SUB SLT PUSH2 0x63D JUMPI SWAP3 MLOAD DUP6 SWAP4 PUSH1 0x20 PUSH2 0xCC3 JUMP JUMPDEST RETURNDATASIZE SWAP2 POP PUSH2 0x1283 JUMP JUMPDEST PUSH1 0x40 MLOAD RETURNDATASIZE DUP8 DUP3 RETURNDATACOPY RETURNDATASIZE SWAP1 REVERT JUMPDEST PUSH1 0x40 MLOAD PUSH3 0x461BCD PUSH1 0xE5 SHL DUP2 MSTORE PUSH1 0x20 PUSH1 0x4 DUP3 ADD MSTORE PUSH1 0x26 PUSH1 0x24 DUP3 ADD MSTORE PUSH32 0x486F7374206861732072656163686564206D6178696D756D206E6574776F726B PUSH1 0x44 DUP3 ADD MSTORE PUSH6 0x81B1A5B5A5D PUSH1 0xD2 SHL PUSH1 0x64 DUP3 ADD MSTORE PUSH1 0x84 SWAP1 REVERT JUMPDEST SWAP1 POP PUSH1 0x20 DUP2 RETURNDATASIZE PUSH1 0x20 GT PUSH2 0x133C JUMPI JUMPDEST DUP2 PUSH2 0x1325 PUSH1 0x20 SWAP4 DUP4 PUSH2 0x2634 JUMP JUMPDEST DUP2 ADD SUB SLT PUSH2 0x11AA JUMPI PUSH2 0x1336 SWAP1 PUSH2 0x26D5 JUMP JUMPDEST CODESIZE PUSH2 0xC96 JUMP JUMPDEST RETURNDATASIZE SWAP2 POP PUSH2 0x1318 JUMP JUMPDEST PUSH1 0x40 MLOAD PUSH3 0x461BCD PUSH1 0xE5 SHL DUP2 MSTORE PUSH1 0x20 PUSH1 0x4 DUP3 ADD MSTORE PUSH1 0x1A PUSH1 0x24 DUP3 ADD MSTORE PUSH32 0x496E76616C6964204D6F6E676F446174614944206C656E677468000000000000 PUSH1 0x44 DUP3 ADD MSTORE PUSH1 0x64 SWAP1 REVERT JUMPDEST PUSH1 0xC8 SWAP2 POP GT ISZERO CODESIZE PUSH2 0xC56 JUMP JUMPDEST POP PUSH4 0x2FAF080 DUP5 GT ISZERO PUSH2 0xC41 JUMP JUMPDEST PUSH1 0x40 MLOAD PUSH3 0x461BCD PUSH1 0xE5 SHL DUP2 MSTORE PUSH1 0x20 PUSH1 0x4 DUP3 ADD MSTORE PUSH1 0x1C PUSH1 0x24 DUP3 ADD MSTORE PUSH32 0x526567697374726174696F6E20636F6F6C646F776E2061637469766500000000 PUSH1 0x44 DUP3 ADD MSTORE PUSH1 0x64 SWAP1 REVERT JUMPDEST PUSH4 0x4E487B71 PUSH1 0xE0 SHL DUP7 MSTORE PUSH1 0x11 PUSH1 0x4 MSTORE PUSH1 0x24 DUP7 REVERT JUMPDEST POP PUSH1 0x20 DUP2 RETURNDATASIZE PUSH1 0x20 GT PUSH2 0x142F JUMPI JUMPDEST DUP2 PUSH2 0x1416 PUSH1 0x20 SWAP4 DUP4 PUSH2 0x2634 JUMP JUMPDEST DUP2 ADD SUB SLT PUSH2 0xFED JUMPI PUSH2 0x142A PUSH2 0xC18 SWAP2 PUSH2 0x26D5 JUMP JUMPDEST PUSH2 0xC0D JUMP JUMPDEST RETURNDATASIZE SWAP2 POP PUSH2 0x1409 JUMP JUMPDEST POP CALLVALUE PUSH2 0x27A JUMPI DUP1 PUSH1 0x3 NOT CALLDATASIZE ADD SLT PUSH2 0x27A JUMPI PUSH1 0x0 DUP1 MLOAD PUSH1 0x20 PUSH2 0x2BDA DUP4 CODECOPY DUP2 MLOAD SWAP2 MSTORE SLOAD PUSH1 0x40 MLOAD PUSH1 0x1 PUSH1 0x1 PUSH1 0xA0 SHL SUB SWAP1 SWAP2 AND DUP2 MSTORE PUSH1 0x20 SWAP1 RETURN JUMPDEST POP CALLVALUE PUSH2 0x27A JUMPI DUP1 PUSH1 0x3 NOT CALLDATASIZE ADD SLT PUSH2 0x27A JUMPI PUSH1 0x33 SLOAD PUSH1 0x40 MLOAD PUSH4 0x75F3FED5 PUSH1 0xE1 SHL DUP2 MSTORE SWAP2 SWAP1 PUSH1 0x20 SWAP1 DUP4 SWAP1 PUSH1 0x4 SWAP1 DUP3 SWAP1 PUSH1 0x1 PUSH1 0x1 PUSH1 0xA0 SHL SUB AND GAS STATICCALL SWAP1 DUP2 ISZERO PUSH2 0x5B6 JUMPI SWAP1 PUSH2 0x612 JUMPI PUSH1 0x20 SWAP1 PUSH1 0x40 MLOAD SWAP1 DUP2 MSTORE RETURN JUMPDEST POP CALLVALUE PUSH2 0x27A JUMPI DUP1 PUSH1 0x3 NOT CALLDATASIZE ADD SLT PUSH2 0x27A JUMPI PUSH2 0x14D5 PUSH2 0x2AE3 JUMP JUMPDEST PUSH2 0x14DD PUSH2 0x2A63 JUMP JUMPDEST PUSH1 0x1 PUSH1 0xFF NOT PUSH1 0x0 DUP1 MLOAD PUSH1 0x20 PUSH2 0x2C1A DUP4 CODECOPY DUP2 MLOAD SWAP2 MSTORE SLOAD AND OR PUSH1 0x0 DUP1 MLOAD PUSH1 0x20 PUSH2 0x2C1A DUP4 CODECOPY DUP2 MLOAD SWAP2 MSTORE SSTORE PUSH32 0x62E78CEA01BEE320CD4E420270B5EA74000D11B0C9F74754EBDBFC544B05A258 PUSH1 0x20 PUSH1 0x40 MLOAD CALLER DUP2 MSTORE LOG1 DUP1 RETURN JUMPDEST PUSH2 0x24C4 JUMP JUMPDEST POP CALLVALUE PUSH2 0x27A JUMPI PUSH1 0x20 CALLDATASIZE PUSH1 0x3 NOT ADD SLT PUSH2 0x27A JUMPI PUSH1 0x20 SWAP1 PUSH1 0x40 SWAP1 PUSH1 0x1 PUSH1 0x1 PUSH1 0xA0 SHL SUB PUSH2 0x155E PUSH2 0x25EC JUMP JUMPDEST AND DUP2 MSTORE PUSH1 0x38 DUP4 MSTORE KECCAK256 SLOAD PUSH1 0x40 MLOAD SWAP1 DUP2 MSTORE RETURN JUMPDEST POP CALLVALUE PUSH2 0x27A JUMPI PUSH1 0x20 CALLDATASIZE PUSH1 0x3 NOT ADD SLT PUSH2 0x27A JUMPI PUSH1 0x1 PUSH1 0x1 PUSH1 0xA0 SHL SUB PUSH2 0x1591 PUSH2 0x25EC JUMP JUMPDEST AND DUP2 MSTORE PUSH1 0x36 PUSH1 0x20 MSTORE PUSH1 0x40 DUP2 KECCAK256 PUSH1 0x40 MLOAD SWAP1 DUP2 PUSH1 0x20 DUP3 SLOAD SWAP2 DUP3 DUP2 MSTORE ADD SWAP1 DUP2 SWAP3 DUP6 MSTORE PUSH1 0x20 DUP6 KECCAK256 SWAP1 DUP6 JUMPDEST DUP2 DUP2 LT PUSH2 0x160E JUMPI POP POP POP DUP3 PUSH2 0x15CD SWAP2 SUB DUP4 PUSH2 0x2634 JUMP JUMPDEST PUSH1 0x40 MLOAD SWAP3 DUP4 SWAP3 PUSH1 0x20 DUP5 ADD SWAP1 PUSH1 0x20 DUP6 MSTORE MLOAD DUP1 SWAP2 MSTORE PUSH1 0x40 DUP5 ADD SWAP3 SWAP2 JUMPDEST DUP2 DUP2 LT PUSH2 0x15F5 JUMPI POP POP POP SUB SWAP1 RETURN JUMPDEST DUP3 MLOAD DUP5 MSTORE DUP6 SWAP5 POP PUSH1 0x20 SWAP4 DUP5 ADD SWAP4 SWAP1 SWAP3 ADD SWAP2 PUSH1 0x1 ADD PUSH2 0x15E7 JUMP JUMPDEST DUP3 SLOAD DUP5 MSTORE PUSH1 0x20 SWAP1 SWAP4 ADD SWAP3 PUSH1 0x1 SWAP3 DUP4 ADD SWAP3 ADD PUSH2 0x15B7 JUMP JUMPDEST POP CALLVALUE PUSH2 0x27A JUMPI PUSH1 0x20 CALLDATASIZE PUSH1 0x3 NOT ADD SLT PUSH2 0x27A JUMPI PUSH2 0x163E PUSH2 0x25EC JUMP JUMPDEST PUSH1 0x1 PUSH1 0x1 PUSH1 0xA0 SHL SUB SWAP1 DUP2 AND DUP1 DUP4 MSTORE PUSH1 0x36 PUSH1 0x20 SWAP1 DUP2 MSTORE PUSH1 0x40 DUP1 DUP6 KECCAK256 SLOAD PUSH1 0x32 SLOAD SWAP2 MLOAD PUSH4 0x6D65573F PUSH1 0xE0 SHL DUP2 MSTORE PUSH1 0x4 DUP2 ADD DUP6 SWAP1 MSTORE SWAP5 DUP7 SWAP5 SWAP3 AND SWAP3 SWAP1 SWAP2 SWAP1 DUP6 PUSH1 0x24 DUP2 DUP7 GAS STATICCALL SWAP5 DUP6 ISZERO PUSH2 0x3D9 JUMPI DUP7 SWAP6 PUSH2 0x1782 JUMPI JUMPDEST POP DUP6 MSTORE PUSH1 0x36 PUSH1 0x20 MSTORE PUSH1 0x40 DUP6 KECCAK256 SWAP1 PUSH1 0x40 MLOAD DUP1 DUP4 PUSH1 0x20 DUP3 SWAP6 SLOAD SWAP4 DUP5 DUP2 MSTORE ADD SWAP1 DUP10 MSTORE PUSH1 0x20 DUP10 KECCAK256 SWAP3 DUP10 JUMPDEST DUP2 DUP2 LT PUSH2 0x1769 JUMPI POP POP PUSH2 0x16C8 SWAP3 POP SUB DUP4 PUSH2 0x2634 JUMP JUMPDEST DUP6 JUMPDEST DUP3 MLOAD DUP2 LT ISZERO PUSH2 0x1752 JUMPI PUSH2 0x16DD DUP2 DUP5 PUSH2 0x2847 JUMP JUMPDEST MLOAD PUSH1 0x40 MLOAD SWAP1 PUSH4 0x95EA5717 PUSH1 0xE0 SHL DUP3 MSTORE PUSH1 0x4 DUP3 ADD MSTORE DUP8 DUP2 PUSH1 0x24 DUP2 DUP9 GAS STATICCALL DUP1 ISZERO PUSH2 0x1747 JUMPI PUSH1 0x80 SWAP2 DUP10 SWAP2 PUSH2 0x172D JUMPI JUMPDEST POP ADD MLOAD PUSH2 0x1719 JUMPI JUMPDEST PUSH1 0x1 ADD PUSH2 0x16CA JUMP JUMPDEST SWAP4 PUSH2 0x1725 PUSH1 0x1 SWAP2 PUSH2 0x2871 JUMP JUMPDEST SWAP5 SWAP1 POP PUSH2 0x1711 JUMP JUMPDEST PUSH2 0x1741 SWAP2 POP RETURNDATASIZE DUP1 DUP12 DUP4 RETURNDATACOPY PUSH2 0x3CB DUP2 DUP4 PUSH2 0x2634 JUMP JUMPDEST CODESIZE PUSH2 0x1709 JUMP JUMPDEST PUSH1 0x40 MLOAD RETURNDATASIZE DUP11 DUP3 RETURNDATACOPY RETURNDATASIZE SWAP1 REVERT JUMPDEST PUSH1 0x60 DUP3 DUP8 DUP8 PUSH1 0x40 MLOAD SWAP3 DUP4 MSTORE PUSH1 0x20 DUP4 ADD MSTORE PUSH1 0x40 DUP3 ADD MSTORE RETURN JUMPDEST DUP5 SLOAD DUP4 MSTORE PUSH1 0x1 SWAP5 DUP6 ADD SWAP5 DUP8 SWAP5 POP PUSH1 0x20 SWAP1 SWAP4 ADD SWAP3 ADD PUSH2 0x16B3 JUMP JUMPDEST SWAP1 SWAP5 POP PUSH1 0x20 DUP2 RETURNDATASIZE PUSH1 0x20 GT PUSH2 0x17AE JUMPI JUMPDEST DUP2 PUSH2 0x179E PUSH1 0x20 SWAP4 DUP4 PUSH2 0x2634 JUMP JUMPDEST DUP2 ADD SUB SLT PUSH2 0x63D JUMPI MLOAD SWAP4 CODESIZE PUSH2 0x168D JUMP JUMPDEST RETURNDATASIZE SWAP2 POP PUSH2 0x1791 JUMP JUMPDEST POP CALLVALUE PUSH2 0x27A JUMPI DUP1 PUSH1 0x3 NOT CALLDATASIZE ADD SLT PUSH2 0x27A JUMPI PUSH2 0x17CF PUSH2 0x2AE3 JUMP JUMPDEST PUSH1 0x0 DUP1 MLOAD PUSH1 0x20 PUSH2 0x2BDA DUP4 CODECOPY DUP2 MLOAD SWAP2 MSTORE DUP1 SLOAD PUSH1 0x1 PUSH1 0x1 PUSH1 0xA0 SHL SUB NOT DUP2 AND SWAP1 SWAP2 SSTORE DUP2 SWAP1 PUSH1 0x1 PUSH1 0x1 PUSH1 0xA0 SHL SUB AND PUSH32 0x8BE0079C531659141344CD1FD0A4F28419497F9722A3DAAFE3B4186F6B6457E0 DUP3 DUP1 LOG3 DUP1 RETURN JUMPDEST POP CALLVALUE PUSH2 0x27A JUMPI PUSH1 0x20 CALLDATASIZE PUSH1 0x3 NOT ADD SLT PUSH2 0x27A JUMPI PUSH2 0x183A PUSH2 0x25EC JUMP JUMPDEST PUSH2 0x1842 PUSH2 0x2AE3 JUMP JUMPDEST PUSH1 0x1 PUSH1 0x1 PUSH1 0xA0 SHL SUB AND DUP1 ISZERO PUSH2 0x1867 JUMPI PUSH1 0x1 PUSH1 0x1 PUSH1 0x60 SHL SUB PUSH1 0xA0 SHL PUSH1 0x33 SLOAD AND OR PUSH1 0x33 SSTORE DUP1 RETURN JUMPDEST PUSH1 0x40 MLOAD PUSH3 0x461BCD PUSH1 0xE5 SHL DUP2 MSTORE PUSH1 0x20 PUSH1 0x4 DUP3 ADD MSTORE PUSH1 0x16 PUSH1 0x24 DUP3 ADD MSTORE PUSH22 0x125B9D985B1A590818591B5A5B8818DBDB9D1C9858DD PUSH1 0x52 SHL PUSH1 0x44 DUP3 ADD MSTORE PUSH1 0x64 SWAP1 REVERT JUMPDEST POP CALLVALUE PUSH2 0x27A JUMPI DUP1 PUSH1 0x3 NOT CALLDATASIZE ADD SLT PUSH2 0x27A JUMPI PUSH1 0x20 PUSH1 0xFF PUSH1 0x0 DUP1 MLOAD PUSH1 0x20 PUSH2 0x2C1A DUP4 CODECOPY DUP2 MLOAD SWAP2 MSTORE SLOAD AND PUSH1 0x40 MLOAD SWAP1 ISZERO ISZERO DUP2 MSTORE RETURN JUMPDEST POP CALLVALUE PUSH2 0x27A JUMPI PUSH1 0x20 CALLDATASIZE PUSH1 0x3 NOT ADD SLT PUSH2 0x27A JUMPI PUSH2 0x18EF PUSH2 0x25EC JUMP JUMPDEST PUSH2 0x18F7 PUSH2 0x2AE3 JUMP JUMPDEST PUSH1 0x1 PUSH1 0x1 PUSH1 0xA0 SHL SUB AND DUP1 ISZERO PUSH2 0x191C JUMPI PUSH1 0x1 PUSH1 0x1 PUSH1 0x60 SHL SUB PUSH1 0xA0 SHL PUSH1 0x34 SLOAD AND OR PUSH1 0x34 SSTORE DUP1 RETURN JUMPDEST PUSH1 0x40 MLOAD PUSH3 0x461BCD PUSH1 0xE5 SHL DUP2 MSTORE PUSH1 0x20 PUSH1 0x4 DUP3 ADD MSTORE PUSH1 0x15 PUSH1 0x24 DUP3 ADD MSTORE PUSH21 0x125B9D985B1A59081554D1150818DBDB9D1C9858DD PUSH1 0x5A SHL PUSH1 0x44 DUP3 ADD MSTORE PUSH1 0x64 SWAP1 REVERT JUMPDEST POP CALLVALUE PUSH2 0x27A JUMPI DUP1 PUSH1 0x3 NOT CALLDATASIZE ADD SLT PUSH2 0x27A JUMPI PUSH32 0x0 PUSH1 0x1 PUSH1 0x1 PUSH1 0xA0 SHL SUB AND ADDRESS SUB PUSH2 0x19B2 JUMPI PUSH1 0x20 PUSH1 0x40 MLOAD PUSH1 0x0 DUP1 MLOAD PUSH1 0x20 PUSH2 0x2BFA DUP4 CODECOPY DUP2 MLOAD SWAP2 MSTORE DUP2 MSTORE RETURN JUMPDEST PUSH4 0x703E46DD PUSH1 0xE1 SHL DUP2 MSTORE PUSH1 0x4 SWAP1 REVERT JUMPDEST POP PUSH1 0x40 CALLDATASIZE PUSH1 0x3 NOT ADD SLT PUSH2 0x27A JUMPI PUSH2 0x19D6 PUSH2 0x25EC JUMP JUMPDEST SWAP1 PUSH1 0x24 CALLDATALOAD PUSH8 0xFFFFFFFFFFFFFFFF DUP2 GT PUSH2 0x1BAE JUMPI CALLDATASIZE PUSH1 0x23 DUP3 ADD SLT ISZERO PUSH2 0x1BAE JUMPI PUSH2 0x1A08 SWAP1 CALLDATASIZE SWAP1 PUSH1 0x24 DUP2 PUSH1 0x4 ADD CALLDATALOAD SWAP2 ADD PUSH2 0x2672 JUMP JUMPDEST SWAP2 PUSH1 0x1 PUSH1 0x1 PUSH1 0xA0 SHL SUB PUSH32 0x0 AND ADDRESS DUP2 EQ SWAP1 DUP2 ISZERO PUSH2 0x1B8B JUMPI JUMPDEST POP PUSH2 0x1B7C JUMPI PUSH2 0x1A4B PUSH2 0x2AE3 JUMP JUMPDEST PUSH1 0x40 MLOAD PUSH4 0x52D1902D PUSH1 0xE0 SHL DUP2 MSTORE SWAP3 PUSH1 0x1 PUSH1 0x1 PUSH1 0xA0 SHL SUB DUP3 AND SWAP2 SWAP1 PUSH1 0x20 DUP6 PUSH1 0x4 DUP2 DUP7 GAS STATICCALL DUP1 SWAP6 DUP6 SWAP7 PUSH2 0x1B44 JUMPI JUMPDEST POP PUSH2 0x1A90 JUMPI PUSH4 0x4C9C8CE3 PUSH1 0xE0 SHL DUP5 MSTORE PUSH1 0x4 DUP4 SWAP1 MSTORE PUSH1 0x24 DUP5 REVERT JUMPDEST SWAP1 SWAP2 DUP5 PUSH1 0x0 DUP1 MLOAD PUSH1 0x20 PUSH2 0x2BFA DUP4 CODECOPY DUP2 MLOAD SWAP2 MSTORE DUP2 SUB PUSH2 0x1B32 JUMPI POP DUP3 EXTCODESIZE ISZERO PUSH2 0x1B20 JUMPI PUSH1 0x0 DUP1 MLOAD PUSH1 0x20 PUSH2 0x2BFA DUP4 CODECOPY DUP2 MLOAD SWAP2 MSTORE DUP1 SLOAD PUSH1 0x1 PUSH1 0x1 PUSH1 0xA0 SHL SUB NOT AND DUP3 OR SWAP1 SSTORE PUSH32 0xBC7CD75A20EE27FD9ADEBAB32041F755214DBC6BFFA90CC0225B39DA2E5C2D3B DUP5 DUP1 LOG2 DUP1 MLOAD ISZERO PUSH2 0x1B07 JUMPI PUSH2 0x1B03 SWAP2 PUSH2 0x2B47 JUMP JUMPDEST POP DUP1 RETURN JUMPDEST POP POP CALLVALUE PUSH2 0x1B11 JUMPI DUP1 RETURN JUMPDEST PUSH4 0xB398979F PUSH1 0xE0 SHL DUP2 MSTORE PUSH1 0x4 SWAP1 REVERT JUMPDEST PUSH4 0x4C9C8CE3 PUSH1 0xE0 SHL DUP5 MSTORE PUSH1 0x4 MSTORE PUSH1 0x24 DUP4 REVERT JUMPDEST PUSH4 0x2A875269 PUSH1 0xE2 SHL DUP6 MSTORE PUSH1 0x4 MSTORE PUSH1 0x24 DUP5 REVERT JUMPDEST SWAP1 SWAP6 POP PUSH1 0x20 DUP2 RETURNDATASIZE PUSH1 0x20 GT PUSH2 0x1B74 JUMPI JUMPDEST DUP2 PUSH2 0x1B60 PUSH1 0x20 SWAP4 DUP4 PUSH2 0x2634 JUMP JUMPDEST DUP2 ADD SUB SLT PUSH2 0x1B70 JUMPI MLOAD SWAP5 CODESIZE PUSH2 0x1A77 JUMP JUMPDEST DUP5 DUP1 REVERT JUMPDEST RETURNDATASIZE SWAP2 POP PUSH2 0x1B53 JUMP JUMPDEST PUSH4 0x703E46DD PUSH1 0xE1 SHL DUP3 MSTORE PUSH1 0x4 DUP3 REVERT JUMPDEST PUSH1 0x0 DUP1 MLOAD PUSH1 0x20 PUSH2 0x2BFA DUP4 CODECOPY DUP2 MLOAD SWAP2 MSTORE SLOAD PUSH1 0x1 PUSH1 0x1 PUSH1 0xA0 SHL SUB AND EQ ISZERO SWAP1 POP CODESIZE PUSH2 0x1A3E JUMP JUMPDEST POP DUP1 REVERT JUMPDEST POP CALLVALUE PUSH2 0x27A JUMPI PUSH1 0x20 CALLDATASIZE PUSH1 0x3 NOT ADD SLT PUSH2 0x27A JUMPI PUSH1 0x4 CALLDATALOAD PUSH2 0x1BCF PUSH2 0x2A63 JUMP JUMPDEST PUSH2 0x1BD7 PUSH2 0x2A8D JUMP JUMPDEST PUSH1 0x33 SLOAD PUSH1 0x40 MLOAD PUSH3 0x482FAB PUSH1 0xE5 SHL DUP2 MSTORE SWAP1 PUSH1 0x20 SWAP1 DUP3 SWAP1 PUSH1 0x4 SWAP1 DUP3 SWAP1 PUSH1 0x1 PUSH1 0x1 PUSH1 0xA0 SHL SUB AND GAS STATICCALL DUP1 ISZERO PUSH2 0x1F5F JUMPI DUP4 SWAP1 PUSH2 0x1F6A JUMPI JUMPDEST PUSH2 0x1C14 SWAP2 POP ISZERO PUSH2 0x291D JUMP JUMPDEST PUSH1 0x32 SLOAD PUSH1 0x40 MLOAD PUSH4 0x95EA5717 PUSH1 0xE0 SHL DUP2 MSTORE PUSH1 0x4 DUP2 ADD DUP4 SWAP1 MSTORE SWAP1 DUP4 SWAP1 DUP3 SWAP1 PUSH1 0x24 SWAP1 DUP3 SWAP1 PUSH1 0x1 PUSH1 0x1 PUSH1 0xA0 SHL SUB AND GAS STATICCALL SWAP1 DUP2 ISZERO PUSH2 0x1F5F JUMPI DUP4 SWAP2 PUSH2 0x1F45 JUMPI JUMPDEST POP PUSH1 0x20 DUP2 ADD MLOAD PUSH1 0x1 PUSH1 0x1 PUSH1 0xA0 SHL SUB AND CALLER SUB PUSH2 0x1F00 JUMPI PUSH1 0x80 DUP2 ADD MLOAD ISZERO PUSH2 0x1EBB JUMPI PUSH1 0x40 SWAP1 DUP2 ADD MLOAD PUSH1 0x32 SLOAD SWAP2 MLOAD PUSH4 0x95EA5717 PUSH1 0xE0 SHL DUP2 MSTORE PUSH1 0x4 DUP2 ADD DUP5 SWAP1 MSTORE SWAP1 SWAP3 SWAP2 PUSH1 0x1 PUSH1 0x1 PUSH1 0xA0 SHL SUB AND DUP5 DUP3 PUSH1 0x24 DUP2 DUP5 GAS STATICCALL SWAP2 DUP3 ISZERO PUSH2 0x12AB JUMPI DUP6 SWAP3 PUSH2 0x1E9F JUMPI JUMPDEST POP PUSH1 0x20 DUP3 ADD MLOAD CALLER PUSH1 0x1 PUSH1 0x1 PUSH1 0xA0 SHL SUB SWAP1 SWAP2 AND SUB PUSH2 0x1E63 JUMPI PUSH1 0x64 DUP5 LT ISZERO DUP1 PUSH2 0x1E55 JUMPI JUMPDEST PUSH2 0x1CD6 SWAP1 PUSH2 0x298A JUMP JUMPDEST DUP5 PUSH1 0x40 DUP4 ADD MLOAD SWAP3 PUSH1 0x80 DUP2 ADD MLOAD ISZERO ISZERO SWAP1 PUSH1 0x60 DUP2 ADD SWAP4 PUSH1 0xA0 DUP6 MLOAD SWAP3 ADD MLOAD PUSH1 0x40 MLOAD SWAP3 PUSH2 0x1CFE DUP5 PUSH2 0x2602 JUMP JUMPDEST DUP9 DUP5 MSTORE CALLER PUSH1 0x20 DUP6 ADD MSTORE DUP10 PUSH1 0x40 DUP6 ADD MSTORE PUSH1 0x60 DUP5 ADD MSTORE DUP5 PUSH1 0x80 DUP5 ADD MSTORE PUSH1 0xA0 DUP4 ADD MSTORE TIMESTAMP PUSH1 0xC0 DUP4 ADD MSTORE DUP1 EXTCODESIZE ISZERO PUSH2 0x9DA JUMPI PUSH2 0x1D4F DUP5 SWAP3 SWAP2 DUP4 SWAP3 PUSH1 0x40 MLOAD SWAP7 DUP8 DUP1 SWAP5 DUP2 SWAP4 PUSH4 0x14303507 PUSH1 0xE2 SHL DUP4 MSTORE DUP14 PUSH1 0x4 DUP5 ADD PUSH2 0x29D6 JUMP JUMPDEST SUB SWAP3 GAS CALL SWAP3 DUP4 ISZERO PUSH2 0x26D JUMPI DUP7 SWAP4 PUSH2 0x1E38 JUMPI JUMPDEST POP POP SWAP1 DUP2 PUSH2 0x1DB6 SWAP4 SWAP3 DUP3 DUP7 DUP10 PUSH32 0x54505B9E522263D538ACC1F6DE9658C2AE4FD39B8771F562481C2D375D1C1F2D SWAP9 SUB PUSH2 0x1E01 JUMPI JUMPDEST POP POP PUSH2 0x1DCA JUMPI JUMPDEST POP POP MLOAD PUSH1 0x40 MLOAD SWAP5 DUP6 MSTORE PUSH1 0x60 PUSH1 0x20 DUP7 ADD MSTORE PUSH1 0x60 DUP6 ADD SWAP1 PUSH2 0x2503 JUMP JUMPDEST SWAP3 DUP5 PUSH1 0x40 DUP3 ADD MSTORE DUP1 CALLER SWAP5 SUB SWAP1 LOG3 PUSH1 0x1 DUP2 SSTORE DUP1 RETURN JUMPDEST PUSH1 0x40 PUSH32 0xB061566845B6680F66461FBE29235493F3AA355419D464D868114A32E0E7AE7B SWAP2 DUP2 MLOAD SWAP1 DUP2 MSTORE DUP10 PUSH1 0x20 DUP3 ADD MSTORE LOG2 DUP4 CODESIZE PUSH2 0x1D9C JUMP JUMPDEST PUSH1 0x40 PUSH32 0x7D20E42FBC3910F3E2536C15BFB3D2DEEC361F7B0534C071570AF6608429F01 SWAP2 DUP2 MLOAD SWAP1 DUP2 MSTORE DUP12 PUSH1 0x20 DUP3 ADD MSTORE LOG2 DUP3 CODESIZE PUSH2 0x1D95 JUMP JUMPDEST DUP2 SWAP3 SWAP5 SWAP4 POP SWAP1 PUSH2 0x1E47 SWAP2 PUSH2 0x2634 JUMP JUMPDEST PUSH2 0xFED JUMPI SWAP1 DUP4 SWAP1 DUP7 CODESIZE PUSH2 0x1D61 JUMP JUMPDEST POP PUSH4 0x2FAF080 DUP5 GT ISZERO PUSH2 0x1CCD JUMP JUMPDEST PUSH1 0x40 MLOAD PUSH3 0x461BCD PUSH1 0xE5 SHL DUP2 MSTORE PUSH1 0x20 PUSH1 0x4 DUP3 ADD MSTORE PUSH1 0x14 PUSH1 0x24 DUP3 ADD MSTORE PUSH20 0x4F6E6C7920686F73742063616E20757064617465 PUSH1 0x60 SHL PUSH1 0x44 DUP3 ADD MSTORE PUSH1 0x64 SWAP1 REVERT JUMPDEST PUSH2 0x1EB4 SWAP2 SWAP3 POP RETURNDATASIZE DUP1 DUP8 DUP4 RETURNDATACOPY PUSH2 0x3CB DUP2 DUP4 PUSH2 0x2634 JUMP JUMPDEST SWAP1 CODESIZE PUSH2 0x1CAB JUMP JUMPDEST PUSH1 0x40 MLOAD PUSH3 0x461BCD PUSH1 0xE5 SHL DUP2 MSTORE PUSH1 0x20 PUSH1 0x4 DUP3 ADD MSTORE PUSH1 0x18 PUSH1 0x24 DUP3 ADD MSTORE PUSH32 0x4E6574776F726B20616C726561647920696E6163746976650000000000000000 PUSH1 0x44 DUP3 ADD MSTORE PUSH1 0x64 SWAP1 REVERT JUMPDEST PUSH1 0x40 MLOAD PUSH3 0x461BCD PUSH1 0xE5 SHL DUP2 MSTORE PUSH1 0x20 PUSH1 0x4 DUP3 ADD MSTORE PUSH1 0x18 PUSH1 0x24 DUP3 ADD MSTORE PUSH32 0x4F6E6C7920686F73742063616E20646561637469766174650000000000000000 PUSH1 0x44 DUP3 ADD MSTORE PUSH1 0x64 SWAP1 REVERT JUMPDEST PUSH2 0x1F59 SWAP2 POP RETURNDATASIZE DUP1 DUP6 DUP4 RETURNDATACOPY PUSH2 0x3CB DUP2 DUP4 PUSH2 0x2634 JUMP JUMPDEST CODESIZE PUSH2 0x1C4E JUMP JUMPDEST PUSH1 0x40 MLOAD RETURNDATASIZE DUP6 DUP3 RETURNDATACOPY RETURNDATASIZE SWAP1 REVERT JUMPDEST POP PUSH1 0x20 DUP2 RETURNDATASIZE PUSH1 0x20 GT PUSH2 0x1F9D JUMPI JUMPDEST DUP2 PUSH2 0x1F84 PUSH1 0x20 SWAP4 DUP4 PUSH2 0x2634 JUMP JUMPDEST DUP2 ADD SUB SLT PUSH2 0x9DE JUMPI PUSH2 0x1F98 PUSH2 0x1C14 SWAP2 PUSH2 0x26D5 JUMP JUMPDEST PUSH2 0x1C09 JUMP JUMPDEST RETURNDATASIZE SWAP2 POP PUSH2 0x1F77 JUMP JUMPDEST POP CALLVALUE PUSH2 0x27A JUMPI PUSH1 0x20 CALLDATASIZE PUSH1 0x3 NOT ADD SLT PUSH2 0x27A JUMPI PUSH1 0x20 SWAP1 PUSH1 0x4 CALLDATALOAD DUP2 MSTORE PUSH1 0x37 DUP3 MSTORE PUSH1 0x40 PUSH1 0x1 DUP1 PUSH1 0xA0 SHL SUB SWAP2 KECCAK256 SLOAD AND PUSH1 0x40 MLOAD SWAP1 DUP2 MSTORE RETURN JUMPDEST POP CALLVALUE PUSH2 0x27A JUMPI DUP1 PUSH1 0x3 NOT CALLDATASIZE ADD SLT PUSH2 0x27A JUMPI PUSH2 0x1FF1 PUSH2 0x2AE3 JUMP JUMPDEST PUSH1 0x0 DUP1 MLOAD PUSH1 0x20 PUSH2 0x2C1A DUP4 CODECOPY DUP2 MLOAD SWAP2 MSTORE SLOAD PUSH1 0xFF DUP2 AND ISZERO PUSH2 0x204B JUMPI PUSH1 0xFF NOT AND PUSH1 0x0 DUP1 MLOAD PUSH1 0x20 PUSH2 0x2C1A DUP4 CODECOPY DUP2 MLOAD SWAP2 MSTORE SSTORE PUSH32 0x5DB9EE0A495BF2E6FF9C91A7834C1BA4FDD244A5E8AA4E537BD38AEAE4B073AA PUSH1 0x20 PUSH1 0x40 MLOAD CALLER DUP2 MSTORE LOG1 DUP1 RETURN JUMPDEST PUSH4 0x8DFC202B PUSH1 0xE0 SHL DUP3 MSTORE PUSH1 0x4 DUP3 REVERT JUMPDEST POP CALLVALUE PUSH2 0x27A JUMPI DUP1 PUSH1 0x3 NOT CALLDATASIZE ADD SLT PUSH2 0x27A JUMPI PUSH1 0x34 SLOAD PUSH1 0x40 MLOAD PUSH1 0x1 PUSH1 0x1 PUSH1 0xA0 SHL SUB SWAP1 SWAP2 AND DUP2 MSTORE PUSH1 0x20 SWAP1 RETURN JUMPDEST POP CALLVALUE PUSH2 0x27A JUMPI PUSH1 0x60 CALLDATASIZE PUSH1 0x3 NOT ADD SLT PUSH2 0x27A JUMPI PUSH1 0x24 CALLDATALOAD PUSH1 0x4 CALLDATALOAD PUSH2 0x20A3 PUSH2 0x25DD JUMP JUMPDEST SWAP2 PUSH2 0x20AC PUSH2 0x2A63 JUMP JUMPDEST PUSH2 0x20B4 PUSH2 0x2A8D JUMP JUMPDEST PUSH1 0x33 SLOAD PUSH1 0x40 MLOAD PUSH3 0x482FAB PUSH1 0xE5 SHL DUP2 MSTORE SWAP1 PUSH1 0x20 SWAP1 DUP3 SWAP1 PUSH1 0x4 SWAP1 DUP3 SWAP1 PUSH1 0x1 PUSH1 0x1 PUSH1 0xA0 SHL SUB AND GAS STATICCALL DUP1 ISZERO PUSH2 0x12AB JUMPI DUP6 SWAP1 PUSH2 0x2320 JUMPI JUMPDEST PUSH2 0x20F1 SWAP2 POP ISZERO PUSH2 0x291D JUMP JUMPDEST PUSH1 0x32 SLOAD PUSH1 0x40 MLOAD PUSH4 0x95EA5717 PUSH1 0xE0 SHL DUP2 MSTORE PUSH1 0x4 DUP2 ADD DUP5 SWAP1 MSTORE SWAP1 PUSH1 0x1 PUSH1 0x1 PUSH1 0xA0 SHL SUB AND DUP6 DUP3 PUSH1 0x24 DUP2 DUP5 GAS STATICCALL SWAP2 DUP3 ISZERO PUSH2 0x3D9 JUMPI DUP7 SWAP3 PUSH2 0x2304 JUMPI JUMPDEST POP PUSH1 0x20 DUP3 ADD MLOAD CALLER PUSH1 0x1 PUSH1 0x1 PUSH1 0xA0 SHL SUB SWAP1 SWAP2 AND SUB PUSH2 0x1E63 JUMPI PUSH1 0x64 DUP4 LT ISZERO DUP1 PUSH2 0x22F6 JUMPI JUMPDEST PUSH2 0x2153 SWAP1 PUSH2 0x298A JUMP JUMPDEST PUSH1 0x40 DUP3 ADD MLOAD DUP7 PUSH1 0x80 DUP5 ADD MLOAD ISZERO ISZERO SWAP3 PUSH1 0x60 DUP6 ADD SWAP5 PUSH1 0xA0 DUP7 MLOAD SWAP2 ADD MLOAD SWAP9 PUSH1 0x40 MLOAD SWAP2 PUSH2 0x217B DUP4 PUSH2 0x2602 JUMP JUMPDEST DUP10 DUP4 MSTORE CALLER PUSH1 0x20 DUP5 ADD MSTORE DUP9 PUSH1 0x40 DUP5 ADD MSTORE PUSH1 0x60 DUP4 ADD MSTORE ISZERO ISZERO SWAP9 DUP10 PUSH1 0x80 DUP4 ADD MSTORE PUSH1 0xA0 DUP3 ADD MSTORE TIMESTAMP PUSH1 0xC0 DUP3 ADD MSTORE DUP2 EXTCODESIZE ISZERO PUSH2 0x9DE JUMPI DUP3 SWAP2 PUSH2 0x21CD SWAP2 PUSH1 0x40 MLOAD SWAP5 DUP6 DUP1 SWAP5 DUP2 SWAP4 PUSH4 0x14303507 PUSH1 0xE2 SHL DUP4 MSTORE DUP14 PUSH1 0x4 DUP5 ADD PUSH2 0x29D6 JUMP JUMPDEST SUB SWAP3 GAS CALL DUP1 ISZERO PUSH2 0x1747 JUMPI PUSH2 0x22B4 JUMPI JUMPDEST POP SWAP2 DUP5 PUSH2 0x2233 SWAP3 DUP2 DUP6 DUP8 PUSH32 0x54505B9E522263D538ACC1F6DE9658C2AE4FD39B8771F562481C2D375D1C1F2D SWAP9 SWAP8 SUB PUSH2 0x227D JUMPI JUMPDEST POP POP DUP8 DUP2 SUB PUSH2 0x2246 JUMPI JUMPDEST POP POP MLOAD PUSH1 0x40 MLOAD SWAP3 DUP4 MSTORE PUSH1 0x60 PUSH1 0x20 DUP5 ADD MSTORE PUSH1 0x60 DUP4 ADD SWAP1 PUSH2 0x2503 JUMP JUMPDEST SWAP4 PUSH1 0x40 DUP3 ADD MSTORE DUP1 CALLER SWAP5 SUB SWAP1 LOG3 PUSH1 0x1 DUP2 SSTORE DUP1 RETURN JUMPDEST PUSH1 0x40 PUSH32 0xB061566845B6680F66461FBE29235493F3AA355419D464D868114A32E0E7AE7B SWAP2 DUP2 MLOAD SWAP1 DUP2 MSTORE DUP10 PUSH1 0x20 DUP3 ADD MSTORE LOG2 DUP5 CODESIZE PUSH2 0x2219 JUMP JUMPDEST PUSH1 0x40 PUSH32 0x7D20E42FBC3910F3E2536C15BFB3D2DEEC361F7B0534C071570AF6608429F01 SWAP2 DUP2 MLOAD SWAP1 DUP2 MSTORE DUP9 PUSH1 0x20 DUP3 ADD MSTORE LOG2 DUP2 CODESIZE PUSH2 0x220F JUMP JUMPDEST PUSH2 0x2233 SWAP3 DUP7 DUP10 PUSH2 0x22E9 PUSH32 0x54505B9E522263D538ACC1F6DE9658C2AE4FD39B8771F562481C2D375D1C1F2D SWAP9 SWAP8 SWAP6 SWAP12 DUP4 SWAP6 PUSH2 0x2634 JUMP JUMPDEST SWAP10 SWAP4 SWAP6 SWAP7 POP POP SWAP3 POP PUSH2 0x21DC JUMP JUMPDEST POP PUSH4 0x2FAF080 DUP4 GT ISZERO PUSH2 0x214A JUMP JUMPDEST PUSH2 0x2319 SWAP2 SWAP3 POP RETURNDATASIZE DUP1 DUP9 DUP4 RETURNDATACOPY PUSH2 0x3CB DUP2 DUP4 PUSH2 0x2634 JUMP JUMPDEST SWAP1 CODESIZE PUSH2 0x2128 JUMP JUMPDEST POP PUSH1 0x20 DUP2 RETURNDATASIZE PUSH1 0x20 GT PUSH2 0x2353 JUMPI JUMPDEST DUP2 PUSH2 0x233A PUSH1 0x20 SWAP4 DUP4 PUSH2 0x2634 JUMP JUMPDEST DUP2 ADD SUB SLT PUSH2 0x1B70 JUMPI PUSH2 0x234E PUSH2 0x20F1 SWAP2 PUSH2 0x26D5 JUMP JUMPDEST PUSH2 0x20E6 JUMP JUMPDEST RETURNDATASIZE SWAP2 POP PUSH2 0x232D JUMP JUMPDEST POP CALLVALUE PUSH2 0x27A JUMPI DUP1 PUSH1 0x3 NOT CALLDATASIZE ADD SLT PUSH2 0x27A JUMPI PUSH1 0x32 SLOAD PUSH1 0x40 MLOAD PUSH4 0x3EA72069 PUSH1 0xE2 SHL DUP2 MSTORE PUSH1 0x4 DUP2 ADD DUP4 SWAP1 MSTORE PUSH1 0x64 PUSH1 0x24 DUP3 ADD MSTORE SWAP2 SWAP1 DUP2 SWAP1 DUP4 SWAP1 PUSH1 0x44 SWAP1 DUP3 SWAP1 PUSH1 0x1 PUSH1 0x1 PUSH1 0xA0 SHL SUB AND GAS STATICCALL SWAP2 DUP3 ISZERO PUSH2 0x26D JUMPI DUP2 SWAP3 PUSH2 0x2461 JUMPI JUMPDEST POP DUP1 DUP2 JUMPDEST DUP4 MLOAD DUP2 LT ISZERO PUSH2 0x23EB JUMPI PUSH1 0x80 PUSH2 0x23C7 DUP3 DUP7 PUSH2 0x2847 JUMP JUMPDEST MLOAD ADD MLOAD PUSH2 0x23D7 JUMPI JUMPDEST PUSH1 0x1 ADD PUSH2 0x23B2 JUMP JUMPDEST SWAP1 PUSH2 0x23E3 PUSH1 0x1 SWAP2 PUSH2 0x2871 JUMP JUMPDEST SWAP2 SWAP1 POP PUSH2 0x23CF JUMP JUMPDEST POP PUSH2 0x23F5 SWAP1 PUSH2 0x28CD JUMP JUMPDEST DUP2 JUMPDEST DUP4 MLOAD DUP2 LT ISZERO PUSH2 0x244B JUMPI PUSH1 0x80 PUSH2 0x240C DUP3 DUP7 PUSH2 0x2847 JUMP JUMPDEST MLOAD ADD MLOAD PUSH2 0x241C JUMPI JUMPDEST PUSH1 0x1 ADD PUSH2 0x23F7 JUMP JUMPDEST SWAP2 PUSH2 0x2443 PUSH1 0x1 SWAP2 PUSH2 0x242D DUP6 DUP8 PUSH2 0x2847 JUMP JUMPDEST MLOAD PUSH2 0x2438 DUP3 DUP7 PUSH2 0x2847 JUMP JUMPDEST MSTORE PUSH2 0x3AA DUP2 DUP6 PUSH2 0x2847 JUMP JUMPDEST SWAP3 SWAP1 POP PUSH2 0x2414 JUMP JUMPDEST PUSH1 0x40 MLOAD PUSH1 0x20 DUP1 DUP3 MSTORE DUP2 SWAP1 PUSH2 0x341 SWAP1 DUP3 ADD DUP6 PUSH2 0x2584 JUMP JUMPDEST PUSH2 0x2476 SWAP2 SWAP3 POP RETURNDATASIZE DUP1 DUP5 DUP4 RETURNDATACOPY PUSH2 0x25E DUP2 DUP4 PUSH2 0x2634 JUMP JUMPDEST POP SWAP1 CODESIZE PUSH2 0x23AE JUMP JUMPDEST POP CALLVALUE PUSH2 0x27A JUMPI DUP1 PUSH1 0x3 NOT CALLDATASIZE ADD SLT PUSH2 0x27A JUMPI PUSH1 0x32 SLOAD PUSH1 0x40 MLOAD PUSH1 0x1 PUSH1 0x1 PUSH1 0xA0 SHL SUB SWAP1 SWAP2 AND DUP2 MSTORE PUSH1 0x20 SWAP1 RETURN JUMPDEST SWAP1 POP CALLVALUE PUSH2 0x1BAE JUMPI DUP2 PUSH1 0x3 NOT CALLDATASIZE ADD SLT PUSH2 0x1BAE JUMPI PUSH1 0x2 PUSH1 0x20 SWAP3 SLOAD EQ DUP2 MSTORE RETURN JUMPDEST CALLVALUE PUSH2 0x63D JUMPI PUSH1 0x0 CALLDATASIZE PUSH1 0x3 NOT ADD SLT PUSH2 0x63D JUMPI PUSH1 0x20 PUSH1 0x40 MLOAD PUSH1 0x64 DUP2 MSTORE RETURN JUMPDEST PUSH1 0x0 JUMPDEST DUP4 DUP2 LT PUSH2 0x24F3 JUMPI POP POP PUSH1 0x0 SWAP2 ADD MSTORE JUMP JUMPDEST DUP2 DUP2 ADD MLOAD DUP4 DUP3 ADD MSTORE PUSH1 0x20 ADD PUSH2 0x24E3 JUMP JUMPDEST SWAP1 PUSH1 0x20 SWAP2 PUSH2 0x251C DUP2 MLOAD DUP1 SWAP3 DUP2 DUP6 MSTORE DUP6 DUP1 DUP7 ADD SWAP2 ADD PUSH2 0x24E0 JUMP JUMPDEST PUSH1 0x1F ADD PUSH1 0x1F NOT AND ADD ADD SWAP1 JUMP JUMPDEST SWAP1 DUP2 MLOAD DUP2 MSTORE PUSH1 0x1 DUP1 PUSH1 0xA0 SHL SUB PUSH1 0x20 DUP4 ADD MLOAD AND PUSH1 0x20 DUP3 ADD MSTORE PUSH1 0x40 DUP3 ADD MLOAD PUSH1 0x40 DUP3 ADD MSTORE PUSH1 0xC0 DUP1 PUSH2 0x2565 PUSH1 0x60 DUP6 ADD MLOAD PUSH1 0xE0 PUSH1 0x60 DUP7 ADD MSTORE PUSH1 0xE0 DUP6 ADD SWAP1 PUSH2 0x2503 JUMP JUMPDEST SWAP4 PUSH1 0x80 DUP2 ADD MLOAD ISZERO ISZERO PUSH1 0x80 DUP6 ADD MSTORE PUSH1 0xA0 DUP2 ADD MLOAD PUSH1 0xA0 DUP6 ADD MSTORE ADD MLOAD SWAP2 ADD MSTORE SWAP1 JUMP JUMPDEST SWAP1 DUP1 PUSH1 0x20 DUP4 MLOAD SWAP2 DUP3 DUP2 MSTORE ADD SWAP2 PUSH1 0x20 DUP1 DUP4 PUSH1 0x5 SHL DUP4 ADD ADD SWAP5 ADD SWAP3 PUSH1 0x0 SWAP2 JUMPDEST DUP4 DUP4 LT PUSH2 0x25B0 JUMPI POP POP POP POP POP SWAP1 JUMP JUMPDEST SWAP1 SWAP2 SWAP3 SWAP4 SWAP5 PUSH1 0x20 DUP1 PUSH2 0x25CE PUSH1 0x1 SWAP4 PUSH1 0x1F NOT DUP7 DUP3 SUB ADD DUP8 MSTORE DUP10 MLOAD PUSH2 0x2528 JUMP JUMPDEST SWAP8 ADD SWAP4 ADD SWAP4 ADD SWAP2 SWAP4 SWAP3 SWAP1 PUSH2 0x25A1 JUMP JUMPDEST PUSH1 0x44 CALLDATALOAD SWAP1 DUP2 ISZERO ISZERO DUP3 SUB PUSH2 0x63D JUMPI JUMP JUMPDEST PUSH1 0x4 CALLDATALOAD SWAP1 PUSH1 0x1 PUSH1 0x1 PUSH1 0xA0 SHL SUB DUP3 AND DUP3 SUB PUSH2 0x63D JUMPI JUMP JUMPDEST PUSH1 0xE0 DUP2 ADD SWAP1 DUP2 LT PUSH8 0xFFFFFFFFFFFFFFFF DUP3 GT OR PUSH2 0x261E JUMPI PUSH1 0x40 MSTORE JUMP JUMPDEST PUSH4 0x4E487B71 PUSH1 0xE0 SHL PUSH1 0x0 MSTORE PUSH1 0x41 PUSH1 0x4 MSTORE PUSH1 0x24 PUSH1 0x0 REVERT JUMPDEST SWAP1 PUSH1 0x1F DUP1 NOT SWAP2 ADD AND DUP2 ADD SWAP1 DUP2 LT PUSH8 0xFFFFFFFFFFFFFFFF DUP3 GT OR PUSH2 0x261E JUMPI PUSH1 0x40 MSTORE JUMP JUMPDEST PUSH8 0xFFFFFFFFFFFFFFFF DUP2 GT PUSH2 0x261E JUMPI PUSH1 0x1F ADD PUSH1 0x1F NOT AND PUSH1 0x20 ADD SWAP1 JUMP JUMPDEST SWAP3 SWAP2 SWAP3 PUSH2 0x267E DUP3 PUSH2 0x2656 JUMP JUMPDEST SWAP2 PUSH2 0x268C PUSH1 0x40 MLOAD SWAP4 DUP5 PUSH2 0x2634 JUMP JUMPDEST DUP3 SWAP5 DUP2 DUP5 MSTORE DUP2 DUP4 ADD GT PUSH2 0x63D JUMPI DUP3 DUP2 PUSH1 0x20 SWAP4 DUP5 PUSH1 0x0 SWAP7 ADD CALLDATACOPY ADD ADD MSTORE JUMP JUMPDEST PUSH8 0xFFFFFFFFFFFFFFFF DUP2 GT PUSH2 0x261E JUMPI PUSH1 0x5 SHL PUSH1 0x20 ADD SWAP1 JUMP JUMPDEST MLOAD SWAP1 PUSH1 0x1 PUSH1 0x1 PUSH1 0xA0 SHL SUB DUP3 AND DUP3 SUB PUSH2 0x63D JUMPI JUMP JUMPDEST MLOAD SWAP1 DUP2 ISZERO ISZERO DUP3 SUB PUSH2 0x63D JUMPI JUMP JUMPDEST SWAP2 SWAP1 SWAP2 PUSH1 0xE0 DUP2 DUP5 SUB SLT PUSH2 0x63D JUMPI PUSH1 0x40 MLOAD SWAP1 PUSH2 0x26FC DUP3 PUSH2 0x2602 JUMP JUMPDEST DUP2 SWAP4 DUP2 MLOAD DUP4 MSTORE PUSH2 0x270E PUSH1 0x20 DUP4 ADD PUSH2 0x26C1 JUMP JUMPDEST PUSH1 0x20 DUP5 ADD MSTORE PUSH1 0x40 DUP3 ADD MLOAD PUSH1 0x40 DUP5 ADD MSTORE PUSH1 0x60 DUP3 ADD MLOAD PUSH8 0xFFFFFFFFFFFFFFFF DUP2 GT PUSH2 0x63D JUMPI DUP3 ADD SWAP2 DUP2 PUSH1 0x1F DUP5 ADD SLT ISZERO PUSH2 0x63D JUMPI DUP3 MLOAD SWAP2 PUSH2 0x274B DUP4 PUSH2 0x2656 JUMP JUMPDEST SWAP1 PUSH2 0x2759 PUSH1 0x40 MLOAD SWAP3 DUP4 PUSH2 0x2634 JUMP JUMPDEST DUP4 DUP3 MSTORE PUSH1 0x20 DUP5 DUP7 ADD ADD GT PUSH2 0x63D JUMPI PUSH2 0x277C PUSH1 0xC0 SWAP5 SWAP4 DUP6 SWAP5 PUSH1 0x20 DUP1 DUP6 ADD SWAP2 ADD PUSH2 0x24E0 JUMP JUMPDEST PUSH1 0x60 DUP6 ADD MSTORE PUSH2 0x278D PUSH1 0x80 DUP3 ADD PUSH2 0x26D5 JUMP JUMPDEST PUSH1 0x80 DUP6 ADD MSTORE PUSH1 0xA0 DUP2 ADD MLOAD PUSH1 0xA0 DUP6 ADD MSTORE ADD MLOAD SWAP2 ADD MSTORE JUMP JUMPDEST SWAP2 SWAP1 PUSH1 0x40 DUP4 DUP3 SUB SLT PUSH2 0x63D JUMPI DUP3 MLOAD PUSH8 0xFFFFFFFFFFFFFFFF DUP2 GT PUSH2 0x63D JUMPI DUP4 ADD SWAP1 DUP1 PUSH1 0x1F DUP4 ADD SLT ISZERO PUSH2 0x63D JUMPI DUP2 MLOAD PUSH2 0x27D9 DUP2 PUSH2 0x26A9 JUMP JUMPDEST SWAP3 PUSH2 0x27E7 PUSH1 0x40 MLOAD SWAP5 DUP6 PUSH2 0x2634 JUMP JUMPDEST DUP2 DUP5 MSTORE PUSH1 0x20 DUP1 DUP6 ADD SWAP3 PUSH1 0x5 SHL DUP3 ADD ADD SWAP2 DUP4 DUP4 GT PUSH2 0x63D JUMPI PUSH1 0x20 DUP3 ADD SWAP1 JUMPDEST DUP4 DUP3 LT PUSH2 0x2819 JUMPI POP POP POP POP POP PUSH1 0x20 SWAP1 SWAP3 ADD MLOAD SWAP1 JUMP JUMPDEST DUP2 MLOAD PUSH8 0xFFFFFFFFFFFFFFFF DUP2 GT PUSH2 0x63D JUMPI PUSH1 0x20 SWAP2 PUSH2 0x283C DUP8 DUP5 DUP1 SWAP5 DUP9 ADD ADD PUSH2 0x26E2 JUMP JUMPDEST DUP2 MSTORE ADD SWAP2 ADD SWAP1 PUSH2 0x2804 JUMP JUMPDEST DUP1 MLOAD DUP3 LT ISZERO PUSH2 0x285B JUMPI PUSH1 0x20 SWAP2 PUSH1 0x5 SHL ADD ADD SWAP1 JUMP JUMPDEST PUSH4 0x4E487B71 PUSH1 0xE0 SHL PUSH1 0x0 MSTORE PUSH1 0x32 PUSH1 0x4 MSTORE PUSH1 0x24 PUSH1 0x0 REVERT JUMPDEST PUSH1 0x0 NOT DUP2 EQ PUSH2 0x2880 JUMPI PUSH1 0x1 ADD SWAP1 JUMP JUMPDEST PUSH4 0x4E487B71 PUSH1 0xE0 SHL PUSH1 0x0 MSTORE PUSH1 0x11 PUSH1 0x4 MSTORE PUSH1 0x24 PUSH1 0x0 REVERT JUMPDEST PUSH1 0x40 MLOAD SWAP1 PUSH2 0x28A3 DUP3 PUSH2 0x2602 JUMP JUMPDEST PUSH1 0x0 PUSH1 0xC0 DUP4 DUP3 DUP2 MSTORE DUP3 PUSH1 0x20 DUP3 ADD MSTORE DUP3 PUSH1 0x40 DUP3 ADD MSTORE PUSH1 0x60 DUP1 DUP3 ADD MSTORE DUP3 PUSH1 0x80 DUP3 ADD MSTORE DUP3 PUSH1 0xA0 DUP3 ADD MSTORE ADD MSTORE JUMP JUMPDEST SWAP1 PUSH2 0x28D7 DUP3 PUSH2 0x26A9 JUMP JUMPDEST PUSH2 0x28E4 PUSH1 0x40 MLOAD SWAP2 DUP3 PUSH2 0x2634 JUMP JUMPDEST DUP3 DUP2 MSTORE DUP1 SWAP3 PUSH2 0x28F5 PUSH1 0x1F NOT SWAP2 PUSH2 0x26A9 JUMP JUMPDEST ADD SWAP1 PUSH1 0x0 JUMPDEST DUP3 DUP2 LT PUSH2 0x2906 JUMPI POP POP POP JUMP JUMPDEST PUSH1 0x20 SWAP1 PUSH2 0x2911 PUSH2 0x2896 JUMP JUMPDEST DUP3 DUP3 DUP6 ADD ADD MSTORE ADD PUSH2 0x28FA JUMP JUMPDEST ISZERO PUSH2 0x2924 JUMPI JUMP JUMPDEST PUSH1 0x40 MLOAD PUSH3 0x461BCD PUSH1 0xE5 SHL DUP2 MSTORE PUSH1 0x20 PUSH1 0x4 DUP3 ADD MSTORE PUSH1 0x15 PUSH1 0x24 DUP3 ADD MSTORE PUSH21 0x456D657267656E6379206D6F646520616374697665 PUSH1 0x58 SHL PUSH1 0x44 DUP3 ADD MSTORE PUSH1 0x64 SWAP1 REVERT JUMPDEST SWAP1 PUSH1 0x20 DUP3 DUP3 SUB SLT PUSH2 0x63D JUMPI DUP2 MLOAD PUSH8 0xFFFFFFFFFFFFFFFF DUP2 GT PUSH2 0x63D JUMPI PUSH2 0x2987 SWAP3 ADD PUSH2 0x26E2 JUMP JUMPDEST SWAP1 JUMP JUMPDEST ISZERO PUSH2 0x2991 JUMPI JUMP JUMPDEST PUSH1 0x40 MLOAD PUSH3 0x461BCD PUSH1 0xE5 SHL DUP2 MSTORE PUSH1 0x20 PUSH1 0x4 DUP3 ADD MSTORE PUSH1 0x1A PUSH1 0x24 DUP3 ADD MSTORE PUSH32 0x5072696365206F7574206F6620616C6C6F7765642072616E6765000000000000 PUSH1 0x44 DUP3 ADD MSTORE PUSH1 0x64 SWAP1 REVERT JUMPDEST PUSH1 0x40 SWAP1 PUSH2 0x2987 SWAP4 SWAP3 DUP2 MSTORE DUP2 PUSH1 0x20 DUP3 ADD MSTORE ADD SWAP1 PUSH2 0x2528 JUMP JUMPDEST PUSH1 0x1 PUSH1 0x1 PUSH1 0xA0 SHL SUB AND DUP1 ISZERO PUSH2 0x2A4D JUMPI PUSH1 0x0 DUP1 MLOAD PUSH1 0x20 PUSH2 0x2BDA DUP4 CODECOPY DUP2 MLOAD SWAP2 MSTORE DUP1 SLOAD PUSH1 0x1 PUSH1 0x1 PUSH1 0xA0 SHL SUB NOT DUP2 AND DUP4 OR SWAP1 SWAP2 SSTORE PUSH1 0x1 PUSH1 0x1 PUSH1 0xA0 SHL SUB AND PUSH32 0x8BE0079C531659141344CD1FD0A4F28419497F9722A3DAAFE3B4186F6B6457E0 PUSH1 0x0 DUP1 LOG3 JUMP JUMPDEST PUSH4 0x1E4FBDF7 PUSH1 0xE0 SHL PUSH1 0x0 MSTORE PUSH1 0x0 PUSH1 0x4 MSTORE PUSH1 0x24 PUSH1 0x0 REVERT JUMPDEST PUSH1 0xFF PUSH1 0x0 DUP1 MLOAD PUSH1 0x20 PUSH2 0x2C1A DUP4 CODECOPY DUP2 MLOAD SWAP2 MSTORE SLOAD AND PUSH2 0x2A7C JUMPI JUMP JUMPDEST PUSH4 0xD93C0665 PUSH1 0xE0 SHL PUSH1 0x0 MSTORE PUSH1 0x4 PUSH1 0x0 REVERT JUMPDEST PUSH1 0x2 PUSH1 0x0 SLOAD EQ PUSH2 0x2A9E JUMPI PUSH1 0x2 PUSH1 0x0 SSTORE JUMP JUMPDEST PUSH1 0x40 MLOAD PUSH3 0x461BCD PUSH1 0xE5 SHL DUP2 MSTORE PUSH1 0x20 PUSH1 0x4 DUP3 ADD MSTORE PUSH1 0x1F PUSH1 0x24 DUP3 ADD MSTORE PUSH32 0x5265656E7472616E637947756172643A207265656E7472616E742063616C6C00 PUSH1 0x44 DUP3 ADD MSTORE PUSH1 0x64 SWAP1 REVERT JUMPDEST PUSH1 0x0 DUP1 MLOAD PUSH1 0x20 PUSH2 0x2BDA DUP4 CODECOPY DUP2 MLOAD SWAP2 MSTORE SLOAD PUSH1 0x1 PUSH1 0x1 PUSH1 0xA0 SHL SUB AND CALLER SUB PUSH2 0x2B04 JUMPI JUMP JUMPDEST PUSH4 0x118CDAA7 PUSH1 0xE0 SHL PUSH1 0x0 MSTORE CALLER PUSH1 0x4 MSTORE PUSH1 0x24 PUSH1 0x0 REVERT JUMPDEST PUSH1 0xFF PUSH1 0x0 DUP1 MLOAD PUSH1 0x20 PUSH2 0x2C3A DUP4 CODECOPY DUP2 MLOAD SWAP2 MSTORE SLOAD PUSH1 0x40 SHR AND ISZERO PUSH2 0x2B36 JUMPI JUMP JUMPDEST PUSH4 0x1AFCD79F PUSH1 0xE3 SHL PUSH1 0x0 MSTORE PUSH1 0x4 PUSH1 0x0 REVERT JUMPDEST SWAP1 PUSH1 0x0 DUP1 SWAP2 PUSH1 0x20 DUP2 MLOAD SWAP2 ADD DUP5 GAS DELEGATECALL DUP1 DUP1 PUSH2 0x2BC6 JUMPI JUMPDEST ISZERO PUSH2 0x2B7D JUMPI POP POP PUSH1 0x40 MLOAD RETURNDATASIZE DUP2 MSTORE RETURNDATASIZE PUSH1 0x0 PUSH1 0x20 DUP4 ADD RETURNDATACOPY PUSH1 0x20 RETURNDATASIZE DUP3 ADD ADD PUSH1 0x40 MSTORE SWAP1 JUMP JUMPDEST ISZERO PUSH2 0x2BA3 JUMPI PUSH4 0x9996B315 PUSH1 0xE0 SHL PUSH1 0x0 SWAP1 DUP2 MSTORE PUSH1 0x1 PUSH1 0x1 PUSH1 0xA0 SHL SUB SWAP2 SWAP1 SWAP2 AND PUSH1 0x4 MSTORE PUSH1 0x24 SWAP1 REVERT JUMPDEST RETURNDATASIZE ISZERO PUSH2 0x2BB5 JUMPI PUSH1 0x40 MLOAD RETURNDATASIZE PUSH1 0x0 DUP3 RETURNDATACOPY RETURNDATASIZE SWAP1 REVERT JUMPDEST PUSH4 0xD6BDA275 PUSH1 0xE0 SHL PUSH1 0x0 MSTORE PUSH1 0x4 PUSH1 0x0 REVERT JUMPDEST POP RETURNDATASIZE ISZERO ISZERO DUP1 PUSH2 0x2B5C JUMPI POP DUP2 EXTCODESIZE ISZERO ISZERO PUSH2 0x2B5C JUMP INVALID SWAP1 AND 0xD0 SWAP14 PUSH19 0xD40FDAE2FD8CEAC6B6234C7706214FD39C1CD1 0xE6 MULMOD LOG0 MSTORE DUP13 NOT SWAP4 STOP CALLDATASIZE ADDMOD SWAP5 LOG1 EXTCODESIZE LOG1 LOG3 0x21 MOD PUSH8 0xC828492DB98DCA3E KECCAK256 PUSH23 0xCC3735A920A3CA505D382BBCCD5ED15C6E187E77E9AEE8 DUP2 DUP5 0xC2 0x1F 0x4F 0x21 DUP3 0xAB PC 0x27 0xCB EXTCODESIZE PUSH31 0x7FBEDCD63F03300F0C57E16840DF040F15088DC2F81FE391C3923BEC73E23 0xA9 PUSH7 0x2EFC9C229C6A00 LOG2 PUSH5 0x6970667358 0x22 SLT KECCAK256 0xD8 SSTORE CALLVALUE SELFBALANCE OR TSTORE 0xC2 CALLDATALOAD 0x2B 0xD4 0x4B 0xF7 0xC1 0xE4 CALLCODE SWAP4 MLOAD AND SAR 0xAF DUP16 0xB6 0xCF 0xB2 SAR PUSH4 0x151DD964 RETURN PUSH14 0x64736F6C634300081A0033000000 "},"methodIdentifiers":{"MAX_BATCH_SIZE()":"cfdbf254","MAX_MONGO_DATA_LENGTH()":"e67d86f1","MAX_NETWORKS_PER_HOST()":"83195f8c","MAX_PRICE_PER_SESSION()":"d4f38d04","MIN_PRICE_PER_SESSION()":"09115e97","REGISTRATION_COOLDOWN()":"b0ff6383","UPGRADE_INTERFACE_VERSION()":"ad3cb1cc","adminContract()":"c05c5e94","deactivateNetwork(uint256)":"4b9791e8","getActiveHostNetworkCount(address)":"9c499eac","getActiveHostNetworks(address,uint256,uint256)":"f8c68f32","getAllActiveNetworks()":"16cb6eff","getContractStats()":"dfe6b5d6","getCurrentHostingFee()":"89ea28d9","getHostNetworks(address)":"79f0dc57","getHostStats(address)":"764ac734","getHostedNetworkById(uint256)":"cd83fb9a","getNetworksPaginated(uint256,uint256)":"fa9c81a4","getTreasuryAddress()":"e0024604","initialize(address,address,address)":"c0c53b8b","isHost(address)":"eb2931b7","isReentrancyGuardActive()":"03d50d66","isRegisteredHost(address)":"867f1a09","lastRegistrationTime(address)":"7f6e8cbf","networkToHost(uint256)":"43355214","owner()":"8da5cb5b","pause()":"8456cb59","paused()":"5c975abb","proxiableUUID()":"52d1902d","registerNetwork(uint256,string,bool)":"900e41b1","renounceOwnership()":"715018a6","setAdminContract(address)":"63a812f9","setUsdtContract(address)":"576338a5","storageContract()":"11ce0267","transferOwnership(address)":"f2fde38b","unpause()":"3f4ba83a","updateNetwork(uint256,uint256,bool)":"1b63fe67","upgradeToAndCall(address,bytes)":"4f1ef286","usdt()":"2f48ab7d"}},"storageLayout":{"storage":[{"astId":8460,"contract":"contracts/ZaaNetNetworkV1.sol:ZaaNetNetworkV1","label":"_status","offset":0,"slot":"0","type":"t_uint256"},{"astId":8529,"contract":"contracts/ZaaNetNetworkV1.sol:ZaaNetNetworkV1","label":"__gap","offset":0,"slot":"1","type":"t_array(t_uint256)49_storage"},{"astId":4474,"contract":"contracts/ZaaNetNetworkV1.sol:ZaaNetNetworkV1","label":"storageContract","offset":0,"slot":"50","type":"t_contract(ZaaNetStorageV1)7910"},{"astId":4477,"contract":"contracts/ZaaNetNetworkV1.sol:ZaaNetNetworkV1","label":"adminContract","offset":0,"slot":"51","type":"t_contract(IZaaNetAdmin)8077"},{"astId":4480,"contract":"contracts/ZaaNetNetworkV1.sol:ZaaNetNetworkV1","label":"usdt","offset":0,"slot":"52","type":"t_contract(IERC20)1997"},{"astId":4499,"contract":"contracts/ZaaNetNetworkV1.sol:ZaaNetNetworkV1","label":"isHost","offset":0,"slot":"53","type":"t_mapping(t_address,t_bool)"},{"astId":4504,"contract":"contracts/ZaaNetNetworkV1.sol:ZaaNetNetworkV1","label":"hostNetworks","offset":0,"slot":"54","type":"t_mapping(t_address,t_array(t_uint256)dyn_storage)"},{"astId":4508,"contract":"contracts/ZaaNetNetworkV1.sol:ZaaNetNetworkV1","label":"networkToHost","offset":0,"slot":"55","type":"t_mapping(t_uint256,t_address)"},{"astId":4512,"contract":"contracts/ZaaNetNetworkV1.sol:ZaaNetNetworkV1","label":"lastRegistrationTime","offset":0,"slot":"56","type":"t_mapping(t_address,t_uint256)"},{"astId":5605,"contract":"contracts/ZaaNetNetworkV1.sol:ZaaNetNetworkV1","label":"__gap","offset":0,"slot":"57","type":"t_array(t_uint256)50_storage"}],"types":{"t_address":{"encoding":"inplace","label":"address","numberOfBytes":"20"},"t_array(t_uint256)49_storage":{"base":"t_uint256","encoding":"inplace","label":"uint256[49]","numberOfBytes":"1568"},"t_array(t_uint256)50_storage":{"base":"t_uint256","encoding":"inplace","label":"uint256[50]","numberOfBytes":"1600"},"t_array(t_uint256)dyn_storage":{"base":"t_uint256","encoding":"dynamic_array","label":"uint256[]","numberOfBytes":"32"},"t_bool":{"encoding":"inplace","label":"bool","numberOfBytes":"1"},"t_contract(IERC20)1997":{"encoding":"inplace","label":"contract IERC20","numberOfBytes":"20"},"t_contract(IZaaNetAdmin)8077":{"encoding":"inplace","label":"contract IZaaNetAdmin","numberOfBytes":"20"},"t_contract(ZaaNetStorageV1)7910":{"encoding":"inplace","label":"contract ZaaNetStorageV1","numberOfBytes":"20"},"t_mapping(t_address,t_array(t_uint256)dyn_storage)":{"encoding":"mapping","key":"t_address","label":"mapping(address => uint256[])","numberOfBytes":"32","value":"t_array(t_uint256)dyn_storage"},"t_mapping(t_address,t_bool)":{"encoding":"mapping","key":"t_address","label":"mapping(address => bool)","numberOfBytes":"32","value":"t_bool"},"t_mapping(t_address,t_uint256)":{"encoding":"mapping","key":"t_address","label":"mapping(address => uint256)","numberOfBytes":"32","value":"t_uint256"},"t_mapping(t_uint256,t_address)":{"encoding":"mapping","key":"t_uint256","label":"mapping(uint256 => address)","numberOfBytes":"32","value":"t_address"},"t_uint256":{"encoding":"inplace","label":"uint256","numberOfBytes":"32"}}}}}}