{"contracts/ZaaNetAdminV1.sol":{"ZaaNetAdminV1":{"abi":[{"inputs":[],"stateMutability":"nonpayable","type":"constructor"},{"inputs":[{"internalType":"address","name":"target","type":"address"}],"name":"AddressEmptyCode","type":"error"},{"inputs":[{"internalType":"address","name":"implementation","type":"address"}],"name":"ERC1967InvalidImplementation","type":"error"},{"inputs":[],"name":"ERC1967NonPayable","type":"error"},{"inputs":[],"name":"EnforcedPause","type":"error"},{"inputs":[],"name":"ExpectedPause","type":"error"},{"inputs":[],"name":"FailedCall","type":"error"},{"inputs":[],"name":"InvalidInitialization","type":"error"},{"inputs":[],"name":"NotInitializing","type":"error"},{"inputs":[{"internalType":"address","name":"owner","type":"address"}],"name":"OwnableInvalidOwner","type":"error"},{"inputs":[{"internalType":"address","name":"account","type":"address"}],"name":"OwnableUnauthorizedAccount","type":"error"},{"inputs":[],"name":"UUPSUnauthorizedCallContext","type":"error"},{"inputs":[{"internalType":"bytes32","name":"slot","type":"bytes32"}],"name":"UUPSUnsupportedProxiableUUID","type":"error"},{"anonymous":false,"inputs":[{"indexed":true,"internalType":"address","name":"triggeredBy","type":"address"}],"name":"AdminPaused","type":"event"},{"anonymous":false,"inputs":[{"indexed":true,"internalType":"address","name":"triggeredBy","type":"address"}],"name":"AdminUnpaused","type":"event"},{"anonymous":false,"inputs":[{"indexed":true,"internalType":"address","name":"storageContract","type":"address"},{"indexed":false,"internalType":"uint256","name":"timestamp","type":"uint256"}],"name":"ContractsInitialized","type":"event"},{"anonymous":false,"inputs":[{"indexed":false,"internalType":"bool","name":"enabled","type":"bool"},{"indexed":true,"internalType":"address","name":"triggeredBy","type":"address"}],"name":"EmergencyModeToggled","type":"event"},{"anonymous":false,"inputs":[{"indexed":true,"internalType":"address","name":"operator","type":"address"},{"indexed":false,"internalType":"bool","name":"status","type":"bool"},{"indexed":true,"internalType":"address","name":"updatedBy","type":"address"}],"name":"EmergencyOperatorUpdated","type":"event"},{"anonymous":false,"inputs":[{"indexed":true,"internalType":"uint8","name":"tier","type":"uint8"},{"indexed":true,"internalType":"uint256","name":"newFee","type":"uint256"},{"indexed":true,"internalType":"address","name":"changedBy","type":"address"}],"name":"HostVoucherFeeTierUpdated","type":"event"},{"anonymous":false,"inputs":[{"indexed":true,"internalType":"uint256","name":"oldFee","type":"uint256"},{"indexed":true,"internalType":"uint256","name":"newFee","type":"uint256"},{"indexed":true,"internalType":"address","name":"changedBy","type":"address"}],"name":"HostingFeeUpdated","type":"event"},{"anonymous":false,"inputs":[{"indexed":false,"internalType":"uint64","name":"version","type":"uint64"}],"name":"Initialized","type":"event"},{"anonymous":false,"inputs":[{"indexed":true,"internalType":"address","name":"previousOwner","type":"address"},{"indexed":true,"internalType":"address","name":"newOwner","type":"address"}],"name":"OwnershipTransferred","type":"event"},{"anonymous":false,"inputs":[{"indexed":false,"internalType":"address","name":"account","type":"address"}],"name":"Paused","type":"event"},{"anonymous":false,"inputs":[{"indexed":true,"internalType":"address","name":"oldAddress","type":"address"},{"indexed":true,"internalType":"address","name":"newAddress","type":"address"},{"indexed":true,"internalType":"address","name":"changedBy","type":"address"}],"name":"PaymentAddressUpdated","type":"event"},{"anonymous":false,"inputs":[{"indexed":true,"internalType":"uint256","name":"oldFee","type":"uint256"},{"indexed":true,"internalType":"uint256","name":"newFee","type":"uint256"},{"indexed":true,"internalType":"address","name":"changedBy","type":"address"}],"name":"PlatformFeeUpdated","type":"event"},{"anonymous":false,"inputs":[{"indexed":true,"internalType":"address","name":"oldTreasury","type":"address"},{"indexed":true,"internalType":"address","name":"newTreasury","type":"address"},{"indexed":true,"internalType":"address","name":"changedBy","type":"address"}],"name":"TreasuryUpdated","type":"event"},{"anonymous":false,"inputs":[{"indexed":false,"internalType":"address","name":"account","type":"address"}],"name":"Unpaused","type":"event"},{"anonymous":false,"inputs":[{"indexed":true,"internalType":"address","name":"implementation","type":"address"}],"name":"Upgraded","type":"event"},{"inputs":[],"name":"EMERGENCY_COOLDOWN","outputs":[{"internalType":"uint256","name":"","type":"uint256"}],"stateMutability":"view","type":"function"},{"inputs":[],"name":"MAX_HOSTING_FEE","outputs":[{"internalType":"uint256","name":"","type":"uint256"}],"stateMutability":"view","type":"function"},{"inputs":[],"name":"MAX_HOST_VOUCHER_FEE","outputs":[{"internalType":"uint256","name":"","type":"uint256"}],"stateMutability":"view","type":"function"},{"inputs":[],"name":"MAX_PLATFORM_FEE","outputs":[{"internalType":"uint256","name":"","type":"uint256"}],"stateMutability":"view","type":"function"},{"inputs":[],"name":"UPGRADE_INTERFACE_VERSION","outputs":[{"internalType":"string","name":"","type":"string"}],"stateMutability":"view","type":"function"},{"inputs":[],"name":"admin","outputs":[{"internalType":"address","name":"","type":"address"}],"stateMutability":"view","type":"function"},{"inputs":[{"internalType":"uint256","name":"amount","type":"uint256"}],"name":"calculatePlatformFee","outputs":[{"internalType":"uint256","name":"","type":"uint256"}],"stateMutability":"view","type":"function"},{"inputs":[{"internalType":"uint256","name":"networkId","type":"uint256"}],"name":"emergencyDeactivateNetwork","outputs":[],"stateMutability":"nonpayable","type":"function"},{"inputs":[],"name":"emergencyMode","outputs":[{"internalType":"bool","name":"","type":"bool"}],"stateMutability":"view","type":"function"},{"inputs":[{"internalType":"address","name":"","type":"address"}],"name":"emergencyOperators","outputs":[{"internalType":"bool","name":"","type":"bool"}],"stateMutability":"view","type":"function"},{"inputs":[{"internalType":"uint256","name":"_newFee","type":"uint256"}],"name":"emergencySetHostingFee","outputs":[],"stateMutability":"nonpayable","type":"function"},{"inputs":[{"internalType":"uint256","name":"_newFeePercent","type":"uint256"}],"name":"emergencySetPlatformFee","outputs":[],"stateMutability":"nonpayable","type":"function"},{"inputs":[{"internalType":"uint256","name":"","type":"uint256"}],"name":"feeHistory","outputs":[{"internalType":"uint256","name":"oldFee","type":"uint256"},{"internalType":"uint256","name":"newFee","type":"uint256"},{"internalType":"uint256","name":"timestamp","type":"uint256"},{"internalType":"address","name":"changedBy","type":"address"}],"stateMutability":"view","type":"function"},{"inputs":[],"name":"getAdminStats","outputs":[{"internalType":"uint256","name":"totalFeeChanges","type":"uint256"},{"internalType":"uint256","name":"totalTreasuryChanges","type":"uint256"},{"internalType":"uint256","name":"totalHostingFeeChanges","type":"uint256"},{"internalType":"bool","name":"isEmergencyMode","type":"bool"},{"internalType":"uint256","name":"currentPlatformFee","type":"uint256"},{"internalType":"uint256","name":"currentHostingFee","type":"uint256"},{"internalType":"address","name":"currentTreasury","type":"address"}],"stateMutability":"view","type":"function"},{"inputs":[],"name":"getCurrentFees","outputs":[{"internalType":"uint256","name":"platformFeePercentage","type":"uint256"},{"internalType":"uint256","name":"hostingFeeAmount","type":"uint256"},{"internalType":"address","name":"currentTreasury","type":"address"}],"stateMutability":"view","type":"function"},{"inputs":[],"name":"getFeeHistory","outputs":[{"components":[{"internalType":"uint256","name":"oldFee","type":"uint256"},{"internalType":"uint256","name":"newFee","type":"uint256"},{"internalType":"uint256","name":"timestamp","type":"uint256"},{"internalType":"address","name":"changedBy","type":"address"}],"internalType":"struct ZaaNetAdminV1.FeeChange[]","name":"","type":"tuple[]"}],"stateMutability":"view","type":"function"},{"inputs":[{"internalType":"uint8","name":"tier","type":"uint8"}],"name":"getHostVoucherFeeTier","outputs":[{"internalType":"uint256","name":"","type":"uint256"}],"stateMutability":"view","type":"function"},{"inputs":[],"name":"getHostingFeeHistory","outputs":[{"components":[{"internalType":"uint256","name":"oldFee","type":"uint256"},{"internalType":"uint256","name":"newFee","type":"uint256"},{"internalType":"uint256","name":"timestamp","type":"uint256"},{"internalType":"address","name":"changedBy","type":"address"}],"internalType":"struct ZaaNetAdminV1.HostingFeeChange[]","name":"","type":"tuple[]"}],"stateMutability":"view","type":"function"},{"inputs":[],"name":"getLatestFeeChange","outputs":[{"components":[{"internalType":"uint256","name":"oldFee","type":"uint256"},{"internalType":"uint256","name":"newFee","type":"uint256"},{"internalType":"uint256","name":"timestamp","type":"uint256"},{"internalType":"address","name":"changedBy","type":"address"}],"internalType":"struct ZaaNetAdminV1.FeeChange","name":"","type":"tuple"}],"stateMutability":"view","type":"function"},{"inputs":[],"name":"getLatestHostingFeeChange","outputs":[{"components":[{"internalType":"uint256","name":"oldFee","type":"uint256"},{"internalType":"uint256","name":"newFee","type":"uint256"},{"internalType":"uint256","name":"timestamp","type":"uint256"},{"internalType":"address","name":"changedBy","type":"address"}],"internalType":"struct ZaaNetAdminV1.HostingFeeChange","name":"","type":"tuple"}],"stateMutability":"view","type":"function"},{"inputs":[],"name":"getLatestTreasuryChange","outputs":[{"components":[{"internalType":"address","name":"oldTreasury","type":"address"},{"internalType":"address","name":"newTreasury","type":"address"},{"internalType":"uint256","name":"timestamp","type":"uint256"},{"internalType":"address","name":"changedBy","type":"address"}],"internalType":"struct ZaaNetAdminV1.TreasuryChange","name":"","type":"tuple"}],"stateMutability":"view","type":"function"},{"inputs":[],"name":"getPlatformFeeBasisPoints","outputs":[{"internalType":"uint256","name":"","type":"uint256"}],"stateMutability":"view","type":"function"},{"inputs":[],"name":"getTreasuryHistory","outputs":[{"components":[{"internalType":"address","name":"oldTreasury","type":"address"},{"internalType":"address","name":"newTreasury","type":"address"},{"internalType":"uint256","name":"timestamp","type":"uint256"},{"internalType":"address","name":"changedBy","type":"address"}],"internalType":"struct ZaaNetAdminV1.TreasuryChange[]","name":"","type":"tuple[]"}],"stateMutability":"view","type":"function"},{"inputs":[],"name":"hostVoucherFeeDays","outputs":[{"internalType":"uint256","name":"","type":"uint256"}],"stateMutability":"view","type":"function"},{"inputs":[],"name":"hostVoucherFeeHours","outputs":[{"internalType":"uint256","name":"","type":"uint256"}],"stateMutability":"view","type":"function"},{"inputs":[],"name":"hostVoucherFeeMonths","outputs":[{"internalType":"uint256","name":"","type":"uint256"}],"stateMutability":"view","type":"function"},{"inputs":[],"name":"hostingFee","outputs":[{"internalType":"uint256","name":"","type":"uint256"}],"stateMutability":"view","type":"function"},{"inputs":[{"internalType":"uint256","name":"","type":"uint256"}],"name":"hostingFeeHistory","outputs":[{"internalType":"uint256","name":"oldFee","type":"uint256"},{"internalType":"uint256","name":"newFee","type":"uint256"},{"internalType":"uint256","name":"timestamp","type":"uint256"},{"internalType":"address","name":"changedBy","type":"address"}],"stateMutability":"view","type":"function"},{"inputs":[{"internalType":"address","name":"_storageContract","type":"address"},{"internalType":"address","name":"_treasuryAddress","type":"address"},{"internalType":"address","name":"_paymentAddress","type":"address"},{"internalType":"uint256","name":"_platformFeePercent","type":"uint256"},{"internalType":"uint256","name":"_hostingFee","type":"uint256"}],"name":"initialize","outputs":[],"stateMutability":"nonpayable","type":"function"},{"inputs":[{"internalType":"address","name":"operator","type":"address"}],"name":"isEmergencyOperator","outputs":[{"internalType":"bool","name":"","type":"bool"}],"stateMutability":"view","type":"function"},{"inputs":[],"name":"isReentrancyGuardActive","outputs":[{"internalType":"bool","name":"","type":"bool"}],"stateMutability":"view","type":"function"},{"inputs":[{"internalType":"address","name":"","type":"address"}],"name":"lastEmergencyToggleBy","outputs":[{"internalType":"uint256","name":"","type":"uint256"}],"stateMutability":"view","type":"function"},{"inputs":[],"name":"lastEmergencyToggleTime","outputs":[{"internalType":"uint256","name":"","type":"uint256"}],"stateMutability":"view","type":"function"},{"inputs":[],"name":"owner","outputs":[{"internalType":"address","name":"","type":"address"}],"stateMutability":"view","type":"function"},{"inputs":[],"name":"pause","outputs":[],"stateMutability":"nonpayable","type":"function"},{"inputs":[],"name":"paused","outputs":[{"internalType":"bool","name":"","type":"bool"}],"stateMutability":"view","type":"function"},{"inputs":[],"name":"payment","outputs":[{"internalType":"address","name":"","type":"address"}],"stateMutability":"view","type":"function"},{"inputs":[],"name":"paymentAddress","outputs":[{"internalType":"address","name":"","type":"address"}],"stateMutability":"view","type":"function"},{"inputs":[],"name":"platformFeePercent","outputs":[{"internalType":"uint256","name":"","type":"uint256"}],"stateMutability":"view","type":"function"},{"inputs":[],"name":"proxiableUUID","outputs":[{"internalType":"bytes32","name":"","type":"bytes32"}],"stateMutability":"view","type":"function"},{"inputs":[],"name":"renounceOwnership","outputs":[],"stateMutability":"nonpayable","type":"function"},{"inputs":[{"internalType":"address","name":"operator","type":"address"},{"internalType":"bool","name":"status","type":"bool"}],"name":"setEmergencyOperator","outputs":[],"stateMutability":"nonpayable","type":"function"},{"inputs":[{"internalType":"uint256","name":"_fee","type":"uint256"}],"name":"setHostVoucherFeeDays","outputs":[],"stateMutability":"nonpayable","type":"function"},{"inputs":[{"internalType":"uint256","name":"_fee","type":"uint256"}],"name":"setHostVoucherFeeHours","outputs":[],"stateMutability":"nonpayable","type":"function"},{"inputs":[{"internalType":"uint256","name":"_fee","type":"uint256"}],"name":"setHostVoucherFeeMonths","outputs":[],"stateMutability":"nonpayable","type":"function"},{"inputs":[{"internalType":"uint256","name":"_newFee","type":"uint256"}],"name":"setHostingFee","outputs":[],"stateMutability":"nonpayable","type":"function"},{"inputs":[{"internalType":"address","name":"_newPaymentAddress","type":"address"}],"name":"setPaymentAddress","outputs":[],"stateMutability":"nonpayable","type":"function"},{"inputs":[{"internalType":"uint256","name":"_newFeePercent","type":"uint256"}],"name":"setPlatformFee","outputs":[],"stateMutability":"nonpayable","type":"function"},{"inputs":[{"internalType":"address","name":"_newTreasuryAddress","type":"address"}],"name":"setTreasuryAddress","outputs":[],"stateMutability":"nonpayable","type":"function"},{"inputs":[],"name":"storageContract","outputs":[{"internalType":"contract ZaaNetStorageV1","name":"","type":"address"}],"stateMutability":"view","type":"function"},{"inputs":[],"name":"toggleEmergencyMode","outputs":[],"stateMutability":"nonpayable","type":"function"},{"inputs":[{"internalType":"address","name":"newOwner","type":"address"}],"name":"transferOwnership","outputs":[],"stateMutability":"nonpayable","type":"function"},{"inputs":[],"name":"treasury","outputs":[{"internalType":"address","name":"","type":"address"}],"stateMutability":"view","type":"function"},{"inputs":[],"name":"treasuryAddress","outputs":[{"internalType":"address","name":"","type":"address"}],"stateMutability":"view","type":"function"},{"inputs":[{"internalType":"uint256","name":"","type":"uint256"}],"name":"treasuryHistory","outputs":[{"internalType":"address","name":"oldTreasury","type":"address"},{"internalType":"address","name":"newTreasury","type":"address"},{"internalType":"uint256","name":"timestamp","type":"uint256"},{"internalType":"address","name":"changedBy","type":"address"}],"stateMutability":"view","type":"function"},{"inputs":[],"name":"unpause","outputs":[],"stateMutability":"nonpayable","type":"function"},{"inputs":[{"internalType":"address","name":"newImplementation","type":"address"},{"internalType":"bytes","name":"data","type":"bytes"}],"name":"upgradeToAndCall","outputs":[],"stateMutability":"payable","type":"function"}],"evm":{"bytecode":{"linkReferences":{},"object":"60a08060405234602957306080526124ec908161002f823960805181818161143b015261159d0152f35b600080fdfe6080604052600436101561001257600080fd5b6000803560e01c806302e8889914611d8757806303d50d6614611d675780630905f56014611d4457806309705de814610cbe5780630cbab4f714611d0d5780630d35a16714611ce55780630f4213681461074557806311ce026714611cbc57806312e8e2c314611c6057806318b4f23b14611ba35780633998a68114611b875780633f4ba83a14611ae057806342f6487a146110c457806345ad9cb714611aa757806346c9bcca14611a3d5780634863687e14611978578063492adaa8146118825780634c17b5301461174c5780634f1ef286146115135780635071f27b1461149057806352d1902d146114285780635707ed45146113335780635a2f406f146112355780635c975abb146112055780635e1e1004146110ed57806361d027b314610641578063633423be146110c45780636605bfda14610f8d578063715018a614610f2357806371908a0314610eec5780637a1b27c914610e815780637a9b93c614610e4e57806381ca0b2a14610e305780638456cb5914610d865780638acbac3c14610d1b5780638c639a8514610cfd5780638da5cb5b146102b0578063a10eb35414610cbe578063a380b86b14610c58578063a6b63eb814610814578063ad3cb1cc1461079a578063b110bb5b14610767578063b4f1094d1461074a578063bb8f0b6514610745578063bbeecdf0146106c8578063c116d9361461066a578063c5f956af14610641578063d2643f1d1461056e578063d4ab4b4014610479578063e0797a371461045b578063e4fc760d1461043d578063e53377eb146103d3578063ebe7fdaa146103b5578063edfbf4f114610313578063f2fde38b146102e6578063f851a440146102b05763fe13eea91461029057600080fd5b346102ad57806003193601126102ad576020603754604051908152f35b80fd5b50346102ad57806003193601126102ad57600080516020612437833981519152546040516001600160a01b039091168152602090f35b50346102ad5760203660031901126102ad57610310610303611e53565b61030b612340565b6122ca565b80f35b50346102ad5760203660031901126102ad57600435610330612340565b61033f60ff603a541615611f70565b61034f6305f5e100821115611fbc565b6036549061035f82821415611ffe565b8060365561038c60405161037281611f1c565b838152826020820152426040820152336060820152612245565b33917feb710718efc8ce303613ea1c9fb97a21bd1154a827cdb5ed5607eadd10e8cf968480a480f35b50346102ad57806003193601126102ad576020603654604051908152f35b50346102ad5760203660031901126102ad57600435604054811015610439576103fb90611ec2565b50805460018201546002830154600390930154604080519384526020840192909252908201929092526001600160a01b039091166060820152608090f35b5080fd5b50346102ad57806003193601126102ad576020603954604051908152f35b50346102ad57806003193601126102ad576020603c54604051908152f35b50346102ad57806003193601126102ad5760405461049681612171565b6104a36040519182611f4e565b818152604083526020810191837f352feee0eea125f11f791c1b77524172e9bc20f1b719b6cef0fc24f64db8e15e845b83831061055057868587604051928392602084019060208552518091526040840192915b818110610505575050500390f35b91935091602060808261054260019488516060908051835260208101516020840152604081015160408401528160018060a01b0391015116910152565b0194019101918493926104f7565b6004602060019261056085612189565b8152019201920191906104d3565b50346102ad57806003193601126102ad5761058761210a565b506040549081156105fc5760001982019182116105e85760806105b26105ac84611ec2565b50612189565b6105e660405180926060908051835260208101516020840152604081015160408401528160018060a01b0391015116910152565bf35b634e487b7160e01b81526011600452602490fd5b60405162461bcd60e51b815260206004820152601f60248201527f4e6f20686f7374696e6720666565206368616e676573207265636f72646564006044820152606490fd5b50346102ad57806003193601126102ad576033546040516001600160a01b039091168152602090f35b50346102ad57806003193601126102ad5760e0603e54603f5460405460ff603a5416603554906036549260018060a01b0360335416946040519687526020870152604086015215156060850152608084015260a083015260c0820152f35b50346102ad5760203660031901126102ad57600435338252603b60205260ff6040832054168015610724575b6106fd906120c5565b61070d6305f5e100821115611fbc565b603654908060365561038c60405161037281611f1c565b50600080516020612437833981519152546001600160a01b031633146106f4565b611efd565b50346102ad57806003193601126102ad576020604051610e108152f35b50346102ad5760203660031901126102ad576004359060ff821682036102ad5760206107928361226a565b604051908152f35b50346102ad57806003193601126102ad5760408051916107ba8284611f4e565b60058352640352e302e360dc1b6020840152815192839160208352815191826020850152815b8381106107fd575050828201840152601f01601f19168101030190f35b6020828201810151888301880152879550016107e0565b50346102ad5760a03660031901126102ad5761082e611e53565b6024356001600160a01b03811690819003610c54576044356001600160a01b0381169190829003610c50576064359160843591600080516020612497833981519152549460ff8660401c16159567ffffffffffffffff811680159081610c48575b6001149081610c3e575b159081610c35575b50610c265767ffffffffffffffff1981166001176000805160206124978339815191525586610bf9575b506108d4612376565b6108dc612376565b6108e5336122ca565b6108ed612376565b6108f5612376565b6108fd612376565b6001875560ff19603a5416603a5586603c558115610bb45760148511610b6f578215610b1b576305f5e1008411610ad6576109eb946109c59361099f926001600160a01b031680610a92575b50836001600160601b0360a01b60335416176033556001600160601b0360a01b603454161760345580603555846036556040519061098682611f1c565b8882526020820152426040820152336060820152612098565b604051906109ac82611f1c565b86825260208201524260408201523360608201526121c4565b604051906109d282611f1c565b8482526020820152426040820152336060820152612245565b338252603b60205260408220600160ff198254161790556040516001815233907f1d05944b75552398d6505993a2bc80206d8219c4454def4cfd2e97793edbbfce60203392a3610a385780f35b68ff0000000000000000196000805160206124978339815191525416600080516020612497833981519152557fc7f505b2f371ae2175ee4913f4499e1f2633a7b5936321eed1cdaeb6115181d2602060405160018152a180f35b806001600160601b0360a01b60325416176032557f7f7d6e7886dca58922d0593a44928fb5066cd0e04369c371d72eb96e61368fa86020604051428152a238610949565b60405162461bcd60e51b815260206004820152601b60248201527f486f7374696e67206665652065786365656473206d6178696d756d00000000006044820152606490fd5b60405162461bcd60e51b815260206004820152602660248201527f5061796d656e7420616464726573732063616e6e6f74206265207a65726f206160448201526564647265737360d01b6064820152608490fd5b60405162461bcd60e51b815260206004820152601c60248201527f506c6174666f726d206665652065786365656473206d6178696d756d000000006044820152606490fd5b60405162461bcd60e51b815260206004820152601f60248201527f54726561737572792063616e6e6f74206265207a65726f2061646472657373006044820152606490fd5b68ffffffffffffffffff1916680100000000000000011760008051602061249783398151915255386108cb565b63f92ee8a960e01b8852600488fd5b905015386108a1565b303b159150610899565b88915061088f565b8380fd5b8280fd5b50346102ad5760203660031901126102ad5760043590603f548210156102ad576080610c8383611ea3565b50805460018201546002830154600390930154604080516001600160a01b039485168152928416602084015282019390935291166060820152f35b50346102ad5760203660031901126102ad5760209060ff906040906001600160a01b03610ce9611e53565b168152603b84522054166040519015158152f35b50346102ad57806003193601126102ad576020603554604051908152f35b50346102ad5760203660031901126102ad57600435610d38612340565b610d4760ff603a541615611f70565b610d576305f5e100821115611fbc565b80603855339060017f42fec45309092a5a49b15477c9418e2f24b1b84e1aafcca8a86a39515c4653b38480a480f35b50346102ad57806003193601126102ad57610d9f612340565b6000805160206124778339815191525460ff8116610e215760019060ff191617600080516020612477833981519152557f62e78cea01bee320cd4e420270b5ea74000d11b0c9f74754ebdbfc544b05a2586020604051338152a1337ff9c91e483ce8bc4cc31645e7cc0f01a3371813e76469a71104841507f01402908280a280f35b63d93c066560e01b8252600482fd5b50346102ad57806003193601126102ad576020603854604051908152f35b50346102ad57806003193601126102ad57603554906064820291808304606414901517156105e857602082604051908152f35b50346102ad5760203660031901126102ad57600435610e9e612340565b610ead60ff603a541615611f70565b610ebd6305f5e100821115611fbc565b80603955339060027f42fec45309092a5a49b15477c9418e2f24b1b84e1aafcca8a86a39515c4653b38480a480f35b50346102ad57806003193601126102ad57606060355460365460018060a01b03603354169060405192835260208301526040820152f35b50346102ad57806003193601126102ad57610f3c612340565b60008051602061243783398151915280546001600160a01b0319811690915581906001600160a01b03167f8be0079c531659141344cd1fd0a4f28419497f9722a3daafe3b4186f6b6457e08280a380f35b50346102ad5760203660031901126102ad57610fa7611e53565b610faf612340565b610fbe60ff603a541615611f70565b6001600160a01b0316801561107f576033546001600160a01b0381169190828214611045576001600160a01b031916811760335560405161101c9061100281611f1c565b8381528260208201524260408201523360608201526121c4565b33917f23c12d5579081c5f1077c04a6b1c114d0f3de239e81a436836d30ecb099ffa138480a480f35b60405162461bcd60e51b8152602060048201526012602482015271151c99585cdd5c9e481d5b98da185b99d95960721b6044820152606490fd5b60405162461bcd60e51b815260206004820152601860248201527f496e76616c6964207472656173757279206164647265737300000000000000006044820152606490fd5b50346102ad57806003193601126102ad576034546040516001600160a01b039091168152602090f35b50346102ad5760203660031901126102ad57611107611e53565b61110f612340565b61111e60ff603a541615611f70565b6001600160a01b031680156111c0576034546001600160a01b038116919082821461117b576001600160a01b031916811760345533917f505a1580fada0bb544f7bc659efb59f7285cf0e93091ea00b7bba4d09f80222d8480a480f35b60405162461bcd60e51b815260206004820152601960248201527f5061796d656e74206164647265737320756e6368616e676564000000000000006044820152606490fd5b60405162461bcd60e51b815260206004820152601760248201527f496e76616c6964207061796d656e7420616464726573730000000000000000006044820152606490fd5b50346102ad57806003193601126102ad57602060ff60008051602061247783398151915254166040519015158152f35b50346102ad5760203660031901126102ad57338152603b60205260ff6040822054168015611312575b611267906120c5565b6032546001600160a01b031680156112cd578082913b156112ca57818091602460405180958193635a2f406f60e01b835260043560048401525af180156112bd576112af5780f35b6112b891611f4e565b388180f35b50604051903d90823e3d90fd5b50fd5b60405162461bcd60e51b815260206004820152601760248201527f53746f72616765206e6f7420696e697469616c697a65640000000000000000006044820152606490fd5b50600080516020612437833981519152546001600160a01b0316331461125e565b50346102ad57806003193601126102ad57603e5461135081612171565b61135d6040519182611f4e565b818152603e83526020810191837f8d800d6614d35eed73733ee453164a3b48076eb3138f466adeeb9dec7bb31f70845b83831061140a57868587604051928392602084019060208552518091526040840192915b8181106113bf575050500390f35b9193509160206080826113fc60019488516060908051835260208101516020840152604081015160408401528160018060a01b0391015116910152565b0194019101918493926113b1565b6004602060019261141a85612189565b81520192019201919061138d565b50346102ad57806003193601126102ad577f00000000000000000000000000000000000000000000000000000000000000006001600160a01b031630036114815760206040516000805160206124578339815191528152f35b63703e46dd60e11b8152600490fd5b50346102ad57806003193601126102ad576114a961210a565b50603e549081156114ce5760001982019182116105e85760806105b26105ac84611e6e565b60405162461bcd60e51b815260206004820152601760248201527f4e6f20666565206368616e676573207265636f726465640000000000000000006044820152606490fd5b5060403660031901126102ad57611528611e53565b906024359167ffffffffffffffff8311610439573660238401121561043957826004013567ffffffffffffffff81116117385760405193611573601f8301601f191660200186611f4e565b8185523660248383010111610c505781849260246020930183880137850101526001600160a01b037f000000000000000000000000000000000000000000000000000000000000000016308114908115611715575b50611706576115d5612340565b6040516352d1902d60e01b8152926001600160a01b0382169190602085600481865afa809585966116ce575b5061161a57634c9c8ce360e01b84526004839052602484fd5b90918460008051602061245783398151915281036116bc5750823b156116aa5760008051602061245783398151915280546001600160a01b031916821790557fbc7cd75a20ee27fd9adebab32041f755214dbc6bffa90cc0225b39da2e5c2d3b8480a28051156116915761168d916123a4565b5080f35b50503461169b5780f35b63b398979f60e01b8152600490fd5b634c9c8ce360e01b8452600452602483fd5b632a87526960e21b8552600452602484fd5b9095506020813d6020116116fe575b816116ea60209383611f4e565b810103126116fa57519438611601565b8480fd5b3d91506116dd565b63703e46dd60e11b8252600482fd5b600080516020612457833981519152546001600160a01b031614159050386115c8565b634e487b7160e01b83526041600452602483fd5b50346102ad57806003193601126102ad57338152603b60205260ff6040822054168015611861575b61177d906120c5565b338152603d60205260408120548015611858575b610e1081018091116118445742106117ff57603a5460ff80821615169060ff191617603a5542603c55338152603d60205242604082205560ff603a541660405190151581527fc35ed978e97c366b3a5f9375508bcfbca850fca66bf334b9477118918e6eaa4060203392a280f35b60405162461bcd60e51b815260206004820152601c60248201527f456d657267656e637920746f67676c65206f6e20636f6f6c646f776e000000006044820152606490fd5b634e487b7160e01b82526011600452602482fd5b50603c54611791565b50600080516020612437833981519152546001600160a01b03163314611774565b50346102ad57806003193601126102ad57603f5461189f81612171565b6118ac6040519182611f4e565b818152603f83526020810191837fc03004e3ce0784bf68186394306849f9b7b1200073105cd9aeb554a1802b58fd845b83831061195a57868587604051928392602084019060208552518091526040840192915b81811061190e575050500390f35b825180516001600160a01b039081168652602080830151821681880152604080840151908801526060928301519091169186019190915286955060809094019390920191600101611900565b6004602060019261196a8561212f565b8152019201920191906118dc565b50346102ad57806003193601126102ad5761199161210a565b50603f549081156119f85760001982019182116105e85760806119bc6119b684611ea3565b5061212f565b6040805182516001600160a01b039081168252602080850151821690830152838301519282019290925260609283015190911691810191909152f35b60405162461bcd60e51b815260206004820152601c60248201527f4e6f207472656173757279206368616e676573207265636f72646564000000006044820152606490fd5b50346102ad5760203660031901126102ad57600435611a5a612340565b611a6960ff603a541615611f70565b611a796305f5e100821115611fbc565b806037553390827f42fec45309092a5a49b15477c9418e2f24b1b84e1aafcca8a86a39515c4653b38180a480f35b50346102ad5760203660031901126102ad576020906040906001600160a01b03611acf611e53565b168152603d83522054604051908152f35b50346102ad57806003193601126102ad57611af9612340565b6000805160206124778339815191525460ff811615611b785760ff1916600080516020612477833981519152557f5db9ee0a495bf2e6ff9c91a7834c1ba4fdd244a5e8aa4e537bd38aeae4b073aa6020604051338152a1337fcc2b689b01792ccc45f7d02099e9ef3ffd7058e45803395690c61efdd0f0c6348280a280f35b638dfc202b60e01b8252600482fd5b50346102ad57806003193601126102ad57602060405160148152f35b50346102ad5760203660031901126102ad57600435338252603b60205260ff6040832054168015611c3f575b611bd8906120c5565b611be56014821115611fbc565b6035549080603555611c16604051611bfc81611f1c565b838152826020820152426040820152336060820152612098565b33917f9e74d2175d1604ca094d3c60971771fb54aa1a0adbadcedcb69c48cfbd4feb998480a480f35b50600080516020612437833981519152546001600160a01b03163314611bcf565b50346102ad5760203660031901126102ad57600435611c7d612340565b611c8c60ff603a541615611f70565b611c996014821115611fbc565b60355490611ca982821415611ffe565b80603555611c16604051611bfc81611f1c565b50346102ad57806003193601126102ad576032546040516001600160a01b039091168152602090f35b50346102ad5760203660031901126102ad57600435603e54811015610439576103fb90611e6e565b50346102ad5760203660031901126102ad57603554600435818102929181159184041417156105e857602082606460405191048152f35b50346102ad57806003193601126102ad57602060ff603a54166040519015158152f35b50346102ad57806003193601126102ad5760026020915414604051908152f35b50346102ad5760403660031901126102ad57611da1611e53565b60243590811515809203610c5457611db7612340565b6001600160a01b03168015611e0e57808352603b6020526040832060ff1981541660ff84161790556040519182527f1d05944b75552398d6505993a2bc80206d8219c4454def4cfd2e97793edbbfce60203393a380f35b60405162461bcd60e51b815260206004820152601860248201527f496e76616c6964206f70657261746f72206164647265737300000000000000006044820152606490fd5b600435906001600160a01b0382168203611e6957565b600080fd5b603e54811015611e8d57603e60005260206000209060021b0190600090565b634e487b7160e01b600052603260045260246000fd5b603f54811015611e8d57603f60005260206000209060021b0190600090565b604054811015611e8d57604060005260206000209060021b0190600090565b8054821015611e8d5760005260206000209060021b0190600090565b34611e69576000366003190112611e695760206040516305f5e1008152f35b6080810190811067ffffffffffffffff821117611f3857604052565b634e487b7160e01b600052604160045260246000fd5b90601f8019910116810190811067ffffffffffffffff821117611f3857604052565b15611f7757565b60405162461bcd60e51b815260206004820152601860248201527f53797374656d20696e20656d657267656e6379206d6f646500000000000000006044820152606490fd5b15611fc357565b60405162461bcd60e51b81526020600482015260136024820152724665652065786365656473206d6178696d756d60681b6044820152606490fd5b1561200557565b60405162461bcd60e51b815260206004820152600d60248201526c119959481d5b98da185b99d959609a1b6044820152606490fd5b9190612082578051825560208101516001830155604081015160028301556060015160039190910180546001600160a01b0319166001600160a01b0392909216919091179055565b634e487b7160e01b600052600060045260246000fd5b603e5490600160401b821015611f38576120bd8260016120c39401603e55603e611ee1565b9061203a565b565b156120cc57565b60405162461bcd60e51b81526020600482015260166024820152752737ba1032b6b2b933b2b731bc9037b832b930ba37b960511b6044820152606490fd5b6040519061211782611f1c565b60006060838281528260208201528260408201520152565b9060405161213c81611f1c565b82546001600160a01b039081168252600184015481166020830152600284015460408301526003909301549092166060830152565b67ffffffffffffffff8111611f385760051b60200190565b9060405161219681611f1c565b8254815260018301546020820152600283015460408201526003909201546001600160a01b03166060830152565b603f54600160401b811015611f38578060016121e59201603f55603f611ee1565b91909161208257805182546001600160a01b03199081166001600160a01b03928316178455602083015160018501805483169184169190911790556040830151600285015560609092015160039390930180549092169216919091179055565b60405490600160401b821015611f38576120bd8260016120c394016040556040611ee1565b60ff1680156122c357600181146122bc576002146122b65760405162461bcd60e51b815260206004820152600c60248201526b24b73b30b634b2103a34b2b960a11b6044820152606490fd5b60395490565b5060385490565b5060375490565b6001600160a01b0316801561232a5760008051602061243783398151915280546001600160a01b0319811683179091556001600160a01b03167f8be0079c531659141344cd1fd0a4f28419497f9722a3daafe3b4186f6b6457e0600080a3565b631e4fbdf760e01b600052600060045260246000fd5b600080516020612437833981519152546001600160a01b0316330361236157565b63118cdaa760e01b6000523360045260246000fd5b60ff6000805160206124978339815191525460401c161561239357565b631afcd79f60e31b60005260046000fd5b9060008091602081519101845af48080612423575b156123da5750506040513d81523d6000602083013e60203d82010160405290565b1561240057639996b31560e01b60009081526001600160a01b0391909116600452602490fd5b3d15612412576040513d6000823e3d90fd5b63d6bda27560e01b60005260046000fd5b503d1515806123b95750813b15156123b956fe9016d09d72d40fdae2fd8ceac6b6234c7706214fd39c1cd1e609a0528c199300360894a13ba1a3210667c828492db98dca3e2076cc3735a920a3ca505d382bbccd5ed15c6e187e77e9aee88184c21f4f2182ab5827cb3b7e07fbedcd63f03300f0c57e16840df040f15088dc2f81fe391c3923bec73e23a9662efc9c229c6a00a26469706673582212205e19d653490b0095dc6dc6c027eae300a57335d93b4d37453f73798f372147ab64736f6c634300081a0033","opcodes":"PUSH1 0xA0 DUP1 PUSH1 0x40 MSTORE CALLVALUE PUSH1 0x29 JUMPI ADDRESS PUSH1 0x80 MSTORE PUSH2 0x24EC SWAP1 DUP2 PUSH2 0x2F DUP3 CODECOPY PUSH1 0x80 MLOAD DUP2 DUP2 DUP2 PUSH2 0x143B ADD MSTORE PUSH2 0x159D ADD MSTORE RETURN JUMPDEST PUSH1 0x0 DUP1 REVERT INVALID PUSH1 0x80 PUSH1 0x40 MSTORE PUSH1 0x4 CALLDATASIZE LT ISZERO PUSH2 0x12 JUMPI PUSH1 0x0 DUP1 REVERT JUMPDEST PUSH1 0x0 DUP1 CALLDATALOAD PUSH1 0xE0 SHR DUP1 PUSH4 0x2E88899 EQ PUSH2 0x1D87 JUMPI DUP1 PUSH4 0x3D50D66 EQ PUSH2 0x1D67 JUMPI DUP1 PUSH4 0x905F560 EQ PUSH2 0x1D44 JUMPI DUP1 PUSH4 0x9705DE8 EQ PUSH2 0xCBE JUMPI DUP1 PUSH4 0xCBAB4F7 EQ PUSH2 0x1D0D JUMPI DUP1 PUSH4 0xD35A167 EQ PUSH2 0x1CE5 JUMPI DUP1 PUSH4 0xF421368 EQ PUSH2 0x745 JUMPI DUP1 PUSH4 0x11CE0267 EQ PUSH2 0x1CBC JUMPI DUP1 PUSH4 0x12E8E2C3 EQ PUSH2 0x1C60 JUMPI DUP1 PUSH4 0x18B4F23B EQ PUSH2 0x1BA3 JUMPI DUP1 PUSH4 0x3998A681 EQ PUSH2 0x1B87 JUMPI DUP1 PUSH4 0x3F4BA83A EQ PUSH2 0x1AE0 JUMPI DUP1 PUSH4 0x42F6487A EQ PUSH2 0x10C4 JUMPI DUP1 PUSH4 0x45AD9CB7 EQ PUSH2 0x1AA7 JUMPI DUP1 PUSH4 0x46C9BCCA EQ PUSH2 0x1A3D JUMPI DUP1 PUSH4 0x4863687E EQ PUSH2 0x1978 JUMPI DUP1 PUSH4 0x492ADAA8 EQ PUSH2 0x1882 JUMPI DUP1 PUSH4 0x4C17B530 EQ PUSH2 0x174C JUMPI DUP1 PUSH4 0x4F1EF286 EQ PUSH2 0x1513 JUMPI DUP1 PUSH4 0x5071F27B EQ PUSH2 0x1490 JUMPI DUP1 PUSH4 0x52D1902D EQ PUSH2 0x1428 JUMPI DUP1 PUSH4 0x5707ED45 EQ PUSH2 0x1333 JUMPI DUP1 PUSH4 0x5A2F406F EQ PUSH2 0x1235 JUMPI DUP1 PUSH4 0x5C975ABB EQ PUSH2 0x1205 JUMPI DUP1 PUSH4 0x5E1E1004 EQ PUSH2 0x10ED JUMPI DUP1 PUSH4 0x61D027B3 EQ PUSH2 0x641 JUMPI DUP1 PUSH4 0x633423BE EQ PUSH2 0x10C4 JUMPI DUP1 PUSH4 0x6605BFDA EQ PUSH2 0xF8D JUMPI DUP1 PUSH4 0x715018A6 EQ PUSH2 0xF23 JUMPI DUP1 PUSH4 0x71908A03 EQ PUSH2 0xEEC JUMPI DUP1 PUSH4 0x7A1B27C9 EQ PUSH2 0xE81 JUMPI DUP1 PUSH4 0x7A9B93C6 EQ PUSH2 0xE4E JUMPI DUP1 PUSH4 0x81CA0B2A EQ PUSH2 0xE30 JUMPI DUP1 PUSH4 0x8456CB59 EQ PUSH2 0xD86 JUMPI DUP1 PUSH4 0x8ACBAC3C EQ PUSH2 0xD1B JUMPI DUP1 PUSH4 0x8C639A85 EQ PUSH2 0xCFD JUMPI DUP1 PUSH4 0x8DA5CB5B EQ PUSH2 0x2B0 JUMPI DUP1 PUSH4 0xA10EB354 EQ PUSH2 0xCBE JUMPI DUP1 PUSH4 0xA380B86B EQ PUSH2 0xC58 JUMPI DUP1 PUSH4 0xA6B63EB8 EQ PUSH2 0x814 JUMPI DUP1 PUSH4 0xAD3CB1CC EQ PUSH2 0x79A JUMPI DUP1 PUSH4 0xB110BB5B EQ PUSH2 0x767 JUMPI DUP1 PUSH4 0xB4F1094D EQ PUSH2 0x74A JUMPI DUP1 PUSH4 0xBB8F0B65 EQ PUSH2 0x745 JUMPI DUP1 PUSH4 0xBBEECDF0 EQ PUSH2 0x6C8 JUMPI DUP1 PUSH4 0xC116D936 EQ PUSH2 0x66A JUMPI DUP1 PUSH4 0xC5F956AF EQ PUSH2 0x641 JUMPI DUP1 PUSH4 0xD2643F1D EQ PUSH2 0x56E JUMPI DUP1 PUSH4 0xD4AB4B40 EQ PUSH2 0x479 JUMPI DUP1 PUSH4 0xE0797A37 EQ PUSH2 0x45B JUMPI DUP1 PUSH4 0xE4FC760D EQ PUSH2 0x43D JUMPI DUP1 PUSH4 0xE53377EB EQ PUSH2 0x3D3 JUMPI DUP1 PUSH4 0xEBE7FDAA EQ PUSH2 0x3B5 JUMPI DUP1 PUSH4 0xEDFBF4F1 EQ PUSH2 0x313 JUMPI DUP1 PUSH4 0xF2FDE38B EQ PUSH2 0x2E6 JUMPI DUP1 PUSH4 0xF851A440 EQ PUSH2 0x2B0 JUMPI PUSH4 0xFE13EEA9 EQ PUSH2 0x290 JUMPI PUSH1 0x0 DUP1 REVERT JUMPDEST CALLVALUE PUSH2 0x2AD JUMPI DUP1 PUSH1 0x3 NOT CALLDATASIZE ADD SLT PUSH2 0x2AD JUMPI PUSH1 0x20 PUSH1 0x37 SLOAD PUSH1 0x40 MLOAD SWAP1 DUP2 MSTORE RETURN JUMPDEST DUP1 REVERT JUMPDEST POP CALLVALUE PUSH2 0x2AD JUMPI DUP1 PUSH1 0x3 NOT CALLDATASIZE ADD SLT PUSH2 0x2AD JUMPI PUSH1 0x0 DUP1 MLOAD PUSH1 0x20 PUSH2 0x2437 DUP4 CODECOPY DUP2 MLOAD SWAP2 MSTORE SLOAD PUSH1 0x40 MLOAD PUSH1 0x1 PUSH1 0x1 PUSH1 0xA0 SHL SUB SWAP1 SWAP2 AND DUP2 MSTORE PUSH1 0x20 SWAP1 RETURN JUMPDEST POP CALLVALUE PUSH2 0x2AD JUMPI PUSH1 0x20 CALLDATASIZE PUSH1 0x3 NOT ADD SLT PUSH2 0x2AD JUMPI PUSH2 0x310 PUSH2 0x303 PUSH2 0x1E53 JUMP JUMPDEST PUSH2 0x30B PUSH2 0x2340 JUMP JUMPDEST PUSH2 0x22CA JUMP JUMPDEST DUP1 RETURN JUMPDEST POP CALLVALUE PUSH2 0x2AD JUMPI PUSH1 0x20 CALLDATASIZE PUSH1 0x3 NOT ADD SLT PUSH2 0x2AD JUMPI PUSH1 0x4 CALLDATALOAD PUSH2 0x330 PUSH2 0x2340 JUMP JUMPDEST PUSH2 0x33F PUSH1 0xFF PUSH1 0x3A SLOAD AND ISZERO PUSH2 0x1F70 JUMP JUMPDEST PUSH2 0x34F PUSH4 0x5F5E100 DUP3 GT ISZERO PUSH2 0x1FBC JUMP JUMPDEST PUSH1 0x36 SLOAD SWAP1 PUSH2 0x35F DUP3 DUP3 EQ ISZERO PUSH2 0x1FFE JUMP JUMPDEST DUP1 PUSH1 0x36 SSTORE PUSH2 0x38C PUSH1 0x40 MLOAD PUSH2 0x372 DUP2 PUSH2 0x1F1C JUMP JUMPDEST DUP4 DUP2 MSTORE DUP3 PUSH1 0x20 DUP3 ADD MSTORE TIMESTAMP PUSH1 0x40 DUP3 ADD MSTORE CALLER PUSH1 0x60 DUP3 ADD MSTORE PUSH2 0x2245 JUMP JUMPDEST CALLER SWAP2 PUSH32 0xEB710718EFC8CE303613EA1C9FB97A21BD1154A827CDB5ED5607EADD10E8CF96 DUP5 DUP1 LOG4 DUP1 RETURN JUMPDEST POP CALLVALUE PUSH2 0x2AD JUMPI DUP1 PUSH1 0x3 NOT CALLDATASIZE ADD SLT PUSH2 0x2AD JUMPI PUSH1 0x20 PUSH1 0x36 SLOAD PUSH1 0x40 MLOAD SWAP1 DUP2 MSTORE RETURN JUMPDEST POP CALLVALUE PUSH2 0x2AD JUMPI PUSH1 0x20 CALLDATASIZE PUSH1 0x3 NOT ADD SLT PUSH2 0x2AD JUMPI PUSH1 0x4 CALLDATALOAD PUSH1 0x40 SLOAD DUP2 LT ISZERO PUSH2 0x439 JUMPI PUSH2 0x3FB SWAP1 PUSH2 0x1EC2 JUMP JUMPDEST POP DUP1 SLOAD PUSH1 0x1 DUP3 ADD SLOAD PUSH1 0x2 DUP4 ADD SLOAD PUSH1 0x3 SWAP1 SWAP4 ADD SLOAD PUSH1 0x40 DUP1 MLOAD SWAP4 DUP5 MSTORE PUSH1 0x20 DUP5 ADD SWAP3 SWAP1 SWAP3 MSTORE SWAP1 DUP3 ADD SWAP3 SWAP1 SWAP3 MSTORE PUSH1 0x1 PUSH1 0x1 PUSH1 0xA0 SHL SUB SWAP1 SWAP2 AND PUSH1 0x60 DUP3 ADD MSTORE PUSH1 0x80 SWAP1 RETURN JUMPDEST POP DUP1 REVERT JUMPDEST POP CALLVALUE PUSH2 0x2AD JUMPI DUP1 PUSH1 0x3 NOT CALLDATASIZE ADD SLT PUSH2 0x2AD JUMPI PUSH1 0x20 PUSH1 0x39 SLOAD PUSH1 0x40 MLOAD SWAP1 DUP2 MSTORE RETURN JUMPDEST POP CALLVALUE PUSH2 0x2AD JUMPI DUP1 PUSH1 0x3 NOT CALLDATASIZE ADD SLT PUSH2 0x2AD JUMPI PUSH1 0x20 PUSH1 0x3C SLOAD PUSH1 0x40 MLOAD SWAP1 DUP2 MSTORE RETURN JUMPDEST POP CALLVALUE PUSH2 0x2AD JUMPI DUP1 PUSH1 0x3 NOT CALLDATASIZE ADD SLT PUSH2 0x2AD JUMPI PUSH1 0x40 SLOAD PUSH2 0x496 DUP2 PUSH2 0x2171 JUMP JUMPDEST PUSH2 0x4A3 PUSH1 0x40 MLOAD SWAP2 DUP3 PUSH2 0x1F4E JUMP JUMPDEST DUP2 DUP2 MSTORE PUSH1 0x40 DUP4 MSTORE PUSH1 0x20 DUP2 ADD SWAP2 DUP4 PUSH32 0x352FEEE0EEA125F11F791C1B77524172E9BC20F1B719B6CEF0FC24F64DB8E15E DUP5 JUMPDEST DUP4 DUP4 LT PUSH2 0x550 JUMPI DUP7 DUP6 DUP8 PUSH1 0x40 MLOAD SWAP3 DUP4 SWAP3 PUSH1 0x20 DUP5 ADD SWAP1 PUSH1 0x20 DUP6 MSTORE MLOAD DUP1 SWAP2 MSTORE PUSH1 0x40 DUP5 ADD SWAP3 SWAP2 JUMPDEST DUP2 DUP2 LT PUSH2 0x505 JUMPI POP POP POP SUB SWAP1 RETURN JUMPDEST SWAP2 SWAP4 POP SWAP2 PUSH1 0x20 PUSH1 0x80 DUP3 PUSH2 0x542 PUSH1 0x1 SWAP5 DUP9 MLOAD PUSH1 0x60 SWAP1 DUP1 MLOAD DUP4 MSTORE PUSH1 0x20 DUP2 ADD MLOAD PUSH1 0x20 DUP5 ADD MSTORE PUSH1 0x40 DUP2 ADD MLOAD PUSH1 0x40 DUP5 ADD MSTORE DUP2 PUSH1 0x1 DUP1 PUSH1 0xA0 SHL SUB SWAP2 ADD MLOAD AND SWAP2 ADD MSTORE JUMP JUMPDEST ADD SWAP5 ADD SWAP2 ADD SWAP2 DUP5 SWAP4 SWAP3 PUSH2 0x4F7 JUMP JUMPDEST PUSH1 0x4 PUSH1 0x20 PUSH1 0x1 SWAP3 PUSH2 0x560 DUP6 PUSH2 0x2189 JUMP JUMPDEST DUP2 MSTORE ADD SWAP3 ADD SWAP3 ADD SWAP2 SWAP1 PUSH2 0x4D3 JUMP JUMPDEST POP CALLVALUE PUSH2 0x2AD JUMPI DUP1 PUSH1 0x3 NOT CALLDATASIZE ADD SLT PUSH2 0x2AD JUMPI PUSH2 0x587 PUSH2 0x210A JUMP JUMPDEST POP PUSH1 0x40 SLOAD SWAP1 DUP2 ISZERO PUSH2 0x5FC JUMPI PUSH1 0x0 NOT DUP3 ADD SWAP2 DUP3 GT PUSH2 0x5E8 JUMPI PUSH1 0x80 PUSH2 0x5B2 PUSH2 0x5AC DUP5 PUSH2 0x1EC2 JUMP JUMPDEST POP PUSH2 0x2189 JUMP JUMPDEST PUSH2 0x5E6 PUSH1 0x40 MLOAD DUP1 SWAP3 PUSH1 0x60 SWAP1 DUP1 MLOAD DUP4 MSTORE PUSH1 0x20 DUP2 ADD MLOAD PUSH1 0x20 DUP5 ADD MSTORE PUSH1 0x40 DUP2 ADD MLOAD PUSH1 0x40 DUP5 ADD MSTORE DUP2 PUSH1 0x1 DUP1 PUSH1 0xA0 SHL SUB SWAP2 ADD MLOAD AND SWAP2 ADD MSTORE JUMP JUMPDEST RETURN JUMPDEST PUSH4 0x4E487B71 PUSH1 0xE0 SHL DUP2 MSTORE PUSH1 0x11 PUSH1 0x4 MSTORE PUSH1 0x24 SWAP1 REVERT JUMPDEST PUSH1 0x40 MLOAD PUSH3 0x461BCD PUSH1 0xE5 SHL DUP2 MSTORE PUSH1 0x20 PUSH1 0x4 DUP3 ADD MSTORE PUSH1 0x1F PUSH1 0x24 DUP3 ADD MSTORE PUSH32 0x4E6F20686F7374696E6720666565206368616E676573207265636F7264656400 PUSH1 0x44 DUP3 ADD MSTORE PUSH1 0x64 SWAP1 REVERT JUMPDEST POP CALLVALUE PUSH2 0x2AD JUMPI DUP1 PUSH1 0x3 NOT CALLDATASIZE ADD SLT PUSH2 0x2AD JUMPI PUSH1 0x33 SLOAD PUSH1 0x40 MLOAD PUSH1 0x1 PUSH1 0x1 PUSH1 0xA0 SHL SUB SWAP1 SWAP2 AND DUP2 MSTORE PUSH1 0x20 SWAP1 RETURN JUMPDEST POP CALLVALUE PUSH2 0x2AD JUMPI DUP1 PUSH1 0x3 NOT CALLDATASIZE ADD SLT PUSH2 0x2AD JUMPI PUSH1 0xE0 PUSH1 0x3E SLOAD PUSH1 0x3F SLOAD PUSH1 0x40 SLOAD PUSH1 0xFF PUSH1 0x3A SLOAD AND PUSH1 0x35 SLOAD SWAP1 PUSH1 0x36 SLOAD SWAP3 PUSH1 0x1 DUP1 PUSH1 0xA0 SHL SUB PUSH1 0x33 SLOAD AND SWAP5 PUSH1 0x40 MLOAD SWAP7 DUP8 MSTORE PUSH1 0x20 DUP8 ADD MSTORE PUSH1 0x40 DUP7 ADD MSTORE ISZERO ISZERO PUSH1 0x60 DUP6 ADD MSTORE PUSH1 0x80 DUP5 ADD MSTORE PUSH1 0xA0 DUP4 ADD MSTORE PUSH1 0xC0 DUP3 ADD MSTORE RETURN JUMPDEST POP CALLVALUE PUSH2 0x2AD JUMPI PUSH1 0x20 CALLDATASIZE PUSH1 0x3 NOT ADD SLT PUSH2 0x2AD JUMPI PUSH1 0x4 CALLDATALOAD CALLER DUP3 MSTORE PUSH1 0x3B PUSH1 0x20 MSTORE PUSH1 0xFF PUSH1 0x40 DUP4 KECCAK256 SLOAD AND DUP1 ISZERO PUSH2 0x724 JUMPI JUMPDEST PUSH2 0x6FD SWAP1 PUSH2 0x20C5 JUMP JUMPDEST PUSH2 0x70D PUSH4 0x5F5E100 DUP3 GT ISZERO PUSH2 0x1FBC JUMP JUMPDEST PUSH1 0x36 SLOAD SWAP1 DUP1 PUSH1 0x36 SSTORE PUSH2 0x38C PUSH1 0x40 MLOAD PUSH2 0x372 DUP2 PUSH2 0x1F1C JUMP JUMPDEST POP PUSH1 0x0 DUP1 MLOAD PUSH1 0x20 PUSH2 0x2437 DUP4 CODECOPY DUP2 MLOAD SWAP2 MSTORE SLOAD PUSH1 0x1 PUSH1 0x1 PUSH1 0xA0 SHL SUB AND CALLER EQ PUSH2 0x6F4 JUMP JUMPDEST PUSH2 0x1EFD JUMP JUMPDEST POP CALLVALUE PUSH2 0x2AD JUMPI DUP1 PUSH1 0x3 NOT CALLDATASIZE ADD SLT PUSH2 0x2AD JUMPI PUSH1 0x20 PUSH1 0x40 MLOAD PUSH2 0xE10 DUP2 MSTORE RETURN JUMPDEST POP CALLVALUE PUSH2 0x2AD JUMPI PUSH1 0x20 CALLDATASIZE PUSH1 0x3 NOT ADD SLT PUSH2 0x2AD JUMPI PUSH1 0x4 CALLDATALOAD SWAP1 PUSH1 0xFF DUP3 AND DUP3 SUB PUSH2 0x2AD JUMPI PUSH1 0x20 PUSH2 0x792 DUP4 PUSH2 0x226A JUMP JUMPDEST PUSH1 0x40 MLOAD SWAP1 DUP2 MSTORE RETURN JUMPDEST POP CALLVALUE PUSH2 0x2AD JUMPI DUP1 PUSH1 0x3 NOT CALLDATASIZE ADD SLT PUSH2 0x2AD JUMPI PUSH1 0x40 DUP1 MLOAD SWAP2 PUSH2 0x7BA DUP3 DUP5 PUSH2 0x1F4E JUMP JUMPDEST PUSH1 0x5 DUP4 MSTORE PUSH5 0x352E302E3 PUSH1 0xDC SHL PUSH1 0x20 DUP5 ADD MSTORE DUP2 MLOAD SWAP3 DUP4 SWAP2 PUSH1 0x20 DUP4 MSTORE DUP2 MLOAD SWAP2 DUP3 PUSH1 0x20 DUP6 ADD MSTORE DUP2 JUMPDEST DUP4 DUP2 LT PUSH2 0x7FD JUMPI POP POP DUP3 DUP3 ADD DUP5 ADD MSTORE PUSH1 0x1F ADD PUSH1 0x1F NOT AND DUP2 ADD SUB ADD SWAP1 RETURN JUMPDEST PUSH1 0x20 DUP3 DUP3 ADD DUP2 ADD MLOAD DUP9 DUP4 ADD DUP9 ADD MSTORE DUP8 SWAP6 POP ADD PUSH2 0x7E0 JUMP JUMPDEST POP CALLVALUE PUSH2 0x2AD JUMPI PUSH1 0xA0 CALLDATASIZE PUSH1 0x3 NOT ADD SLT PUSH2 0x2AD JUMPI PUSH2 0x82E PUSH2 0x1E53 JUMP JUMPDEST PUSH1 0x24 CALLDATALOAD PUSH1 0x1 PUSH1 0x1 PUSH1 0xA0 SHL SUB DUP2 AND SWAP1 DUP2 SWAP1 SUB PUSH2 0xC54 JUMPI PUSH1 0x44 CALLDATALOAD PUSH1 0x1 PUSH1 0x1 PUSH1 0xA0 SHL SUB DUP2 AND SWAP2 SWAP1 DUP3 SWAP1 SUB PUSH2 0xC50 JUMPI PUSH1 0x64 CALLDATALOAD SWAP2 PUSH1 0x84 CALLDATALOAD SWAP2 PUSH1 0x0 DUP1 MLOAD PUSH1 0x20 PUSH2 0x2497 DUP4 CODECOPY DUP2 MLOAD SWAP2 MSTORE SLOAD SWAP5 PUSH1 0xFF DUP7 PUSH1 0x40 SHR AND ISZERO SWAP6 PUSH8 0xFFFFFFFFFFFFFFFF DUP2 AND DUP1 ISZERO SWAP1 DUP2 PUSH2 0xC48 JUMPI JUMPDEST PUSH1 0x1 EQ SWAP1 DUP2 PUSH2 0xC3E JUMPI JUMPDEST ISZERO SWAP1 DUP2 PUSH2 0xC35 JUMPI JUMPDEST POP PUSH2 0xC26 JUMPI PUSH8 0xFFFFFFFFFFFFFFFF NOT DUP2 AND PUSH1 0x1 OR PUSH1 0x0 DUP1 MLOAD PUSH1 0x20 PUSH2 0x2497 DUP4 CODECOPY DUP2 MLOAD SWAP2 MSTORE SSTORE DUP7 PUSH2 0xBF9 JUMPI JUMPDEST POP PUSH2 0x8D4 PUSH2 0x2376 JUMP JUMPDEST PUSH2 0x8DC PUSH2 0x2376 JUMP JUMPDEST PUSH2 0x8E5 CALLER PUSH2 0x22CA JUMP JUMPDEST PUSH2 0x8ED PUSH2 0x2376 JUMP JUMPDEST PUSH2 0x8F5 PUSH2 0x2376 JUMP JUMPDEST PUSH2 0x8FD PUSH2 0x2376 JUMP JUMPDEST PUSH1 0x1 DUP8 SSTORE PUSH1 0xFF NOT PUSH1 0x3A SLOAD AND PUSH1 0x3A SSTORE DUP7 PUSH1 0x3C SSTORE DUP2 ISZERO PUSH2 0xBB4 JUMPI PUSH1 0x14 DUP6 GT PUSH2 0xB6F JUMPI DUP3 ISZERO PUSH2 0xB1B JUMPI PUSH4 0x5F5E100 DUP5 GT PUSH2 0xAD6 JUMPI PUSH2 0x9EB SWAP5 PUSH2 0x9C5 SWAP4 PUSH2 0x99F SWAP3 PUSH1 0x1 PUSH1 0x1 PUSH1 0xA0 SHL SUB AND DUP1 PUSH2 0xA92 JUMPI JUMPDEST POP DUP4 PUSH1 0x1 PUSH1 0x1 PUSH1 0x60 SHL SUB PUSH1 0xA0 SHL PUSH1 0x33 SLOAD AND OR PUSH1 0x33 SSTORE PUSH1 0x1 PUSH1 0x1 PUSH1 0x60 SHL SUB PUSH1 0xA0 SHL PUSH1 0x34 SLOAD AND OR PUSH1 0x34 SSTORE DUP1 PUSH1 0x35 SSTORE DUP5 PUSH1 0x36 SSTORE PUSH1 0x40 MLOAD SWAP1 PUSH2 0x986 DUP3 PUSH2 0x1F1C JUMP JUMPDEST DUP9 DUP3 MSTORE PUSH1 0x20 DUP3 ADD MSTORE TIMESTAMP PUSH1 0x40 DUP3 ADD MSTORE CALLER PUSH1 0x60 DUP3 ADD MSTORE PUSH2 0x2098 JUMP JUMPDEST PUSH1 0x40 MLOAD SWAP1 PUSH2 0x9AC DUP3 PUSH2 0x1F1C JUMP JUMPDEST DUP7 DUP3 MSTORE PUSH1 0x20 DUP3 ADD MSTORE TIMESTAMP PUSH1 0x40 DUP3 ADD MSTORE CALLER PUSH1 0x60 DUP3 ADD MSTORE PUSH2 0x21C4 JUMP JUMPDEST PUSH1 0x40 MLOAD SWAP1 PUSH2 0x9D2 DUP3 PUSH2 0x1F1C JUMP JUMPDEST DUP5 DUP3 MSTORE PUSH1 0x20 DUP3 ADD MSTORE TIMESTAMP PUSH1 0x40 DUP3 ADD MSTORE CALLER PUSH1 0x60 DUP3 ADD MSTORE PUSH2 0x2245 JUMP JUMPDEST CALLER DUP3 MSTORE PUSH1 0x3B PUSH1 0x20 MSTORE PUSH1 0x40 DUP3 KECCAK256 PUSH1 0x1 PUSH1 0xFF NOT DUP3 SLOAD AND OR SWAP1 SSTORE PUSH1 0x40 MLOAD PUSH1 0x1 DUP2 MSTORE CALLER SWAP1 PUSH32 0x1D05944B75552398D6505993A2BC80206D8219C4454DEF4CFD2E97793EDBBFCE PUSH1 0x20 CALLER SWAP3 LOG3 PUSH2 0xA38 JUMPI DUP1 RETURN JUMPDEST PUSH9 0xFF0000000000000000 NOT PUSH1 0x0 DUP1 MLOAD PUSH1 0x20 PUSH2 0x2497 DUP4 CODECOPY DUP2 MLOAD SWAP2 MSTORE SLOAD AND PUSH1 0x0 DUP1 MLOAD PUSH1 0x20 PUSH2 0x2497 DUP4 CODECOPY DUP2 MLOAD SWAP2 MSTORE SSTORE PUSH32 0xC7F505B2F371AE2175EE4913F4499E1F2633A7B5936321EED1CDAEB6115181D2 PUSH1 0x20 PUSH1 0x40 MLOAD PUSH1 0x1 DUP2 MSTORE LOG1 DUP1 RETURN JUMPDEST DUP1 PUSH1 0x1 PUSH1 0x1 PUSH1 0x60 SHL SUB PUSH1 0xA0 SHL PUSH1 0x32 SLOAD AND OR PUSH1 0x32 SSTORE PUSH32 0x7F7D6E7886DCA58922D0593A44928FB5066CD0E04369C371D72EB96E61368FA8 PUSH1 0x20 PUSH1 0x40 MLOAD TIMESTAMP DUP2 MSTORE LOG2 CODESIZE PUSH2 0x949 JUMP JUMPDEST PUSH1 0x40 MLOAD PUSH3 0x461BCD PUSH1 0xE5 SHL DUP2 MSTORE PUSH1 0x20 PUSH1 0x4 DUP3 ADD MSTORE PUSH1 0x1B PUSH1 0x24 DUP3 ADD MSTORE PUSH32 0x486F7374696E67206665652065786365656473206D6178696D756D0000000000 PUSH1 0x44 DUP3 ADD MSTORE PUSH1 0x64 SWAP1 REVERT JUMPDEST PUSH1 0x40 MLOAD PUSH3 0x461BCD PUSH1 0xE5 SHL DUP2 MSTORE PUSH1 0x20 PUSH1 0x4 DUP3 ADD MSTORE PUSH1 0x26 PUSH1 0x24 DUP3 ADD MSTORE PUSH32 0x5061796D656E7420616464726573732063616E6E6F74206265207A65726F2061 PUSH1 0x44 DUP3 ADD MSTORE PUSH6 0x646472657373 PUSH1 0xD0 SHL PUSH1 0x64 DUP3 ADD MSTORE PUSH1 0x84 SWAP1 REVERT JUMPDEST PUSH1 0x40 MLOAD PUSH3 0x461BCD PUSH1 0xE5 SHL DUP2 MSTORE PUSH1 0x20 PUSH1 0x4 DUP3 ADD MSTORE PUSH1 0x1C PUSH1 0x24 DUP3 ADD MSTORE PUSH32 0x506C6174666F726D206665652065786365656473206D6178696D756D00000000 PUSH1 0x44 DUP3 ADD MSTORE PUSH1 0x64 SWAP1 REVERT JUMPDEST PUSH1 0x40 MLOAD PUSH3 0x461BCD PUSH1 0xE5 SHL DUP2 MSTORE PUSH1 0x20 PUSH1 0x4 DUP3 ADD MSTORE PUSH1 0x1F PUSH1 0x24 DUP3 ADD MSTORE PUSH32 0x54726561737572792063616E6E6F74206265207A65726F206164647265737300 PUSH1 0x44 DUP3 ADD MSTORE PUSH1 0x64 SWAP1 REVERT JUMPDEST PUSH9 0xFFFFFFFFFFFFFFFFFF NOT AND PUSH9 0x10000000000000001 OR PUSH1 0x0 DUP1 MLOAD PUSH1 0x20 PUSH2 0x2497 DUP4 CODECOPY DUP2 MLOAD SWAP2 MSTORE SSTORE CODESIZE PUSH2 0x8CB JUMP JUMPDEST PUSH4 0xF92EE8A9 PUSH1 0xE0 SHL DUP9 MSTORE PUSH1 0x4 DUP9 REVERT JUMPDEST SWAP1 POP ISZERO CODESIZE PUSH2 0x8A1 JUMP JUMPDEST ADDRESS EXTCODESIZE ISZERO SWAP2 POP PUSH2 0x899 JUMP JUMPDEST DUP9 SWAP2 POP PUSH2 0x88F JUMP JUMPDEST DUP4 DUP1 REVERT JUMPDEST DUP3 DUP1 REVERT JUMPDEST POP CALLVALUE PUSH2 0x2AD JUMPI PUSH1 0x20 CALLDATASIZE PUSH1 0x3 NOT ADD SLT PUSH2 0x2AD JUMPI PUSH1 0x4 CALLDATALOAD SWAP1 PUSH1 0x3F SLOAD DUP3 LT ISZERO PUSH2 0x2AD JUMPI PUSH1 0x80 PUSH2 0xC83 DUP4 PUSH2 0x1EA3 JUMP JUMPDEST POP DUP1 SLOAD PUSH1 0x1 DUP3 ADD SLOAD PUSH1 0x2 DUP4 ADD SLOAD PUSH1 0x3 SWAP1 SWAP4 ADD SLOAD PUSH1 0x40 DUP1 MLOAD PUSH1 0x1 PUSH1 0x1 PUSH1 0xA0 SHL SUB SWAP5 DUP6 AND DUP2 MSTORE SWAP3 DUP5 AND PUSH1 0x20 DUP5 ADD MSTORE DUP3 ADD SWAP4 SWAP1 SWAP4 MSTORE SWAP2 AND PUSH1 0x60 DUP3 ADD MSTORE RETURN JUMPDEST POP CALLVALUE PUSH2 0x2AD JUMPI PUSH1 0x20 CALLDATASIZE PUSH1 0x3 NOT ADD SLT PUSH2 0x2AD JUMPI PUSH1 0x20 SWAP1 PUSH1 0xFF SWAP1 PUSH1 0x40 SWAP1 PUSH1 0x1 PUSH1 0x1 PUSH1 0xA0 SHL SUB PUSH2 0xCE9 PUSH2 0x1E53 JUMP JUMPDEST AND DUP2 MSTORE PUSH1 0x3B DUP5 MSTORE KECCAK256 SLOAD AND PUSH1 0x40 MLOAD SWAP1 ISZERO ISZERO DUP2 MSTORE RETURN JUMPDEST POP CALLVALUE PUSH2 0x2AD JUMPI DUP1 PUSH1 0x3 NOT CALLDATASIZE ADD SLT PUSH2 0x2AD JUMPI PUSH1 0x20 PUSH1 0x35 SLOAD PUSH1 0x40 MLOAD SWAP1 DUP2 MSTORE RETURN JUMPDEST POP CALLVALUE PUSH2 0x2AD JUMPI PUSH1 0x20 CALLDATASIZE PUSH1 0x3 NOT ADD SLT PUSH2 0x2AD JUMPI PUSH1 0x4 CALLDATALOAD PUSH2 0xD38 PUSH2 0x2340 JUMP JUMPDEST PUSH2 0xD47 PUSH1 0xFF PUSH1 0x3A SLOAD AND ISZERO PUSH2 0x1F70 JUMP JUMPDEST PUSH2 0xD57 PUSH4 0x5F5E100 DUP3 GT ISZERO PUSH2 0x1FBC JUMP JUMPDEST DUP1 PUSH1 0x38 SSTORE CALLER SWAP1 PUSH1 0x1 PUSH32 0x42FEC45309092A5A49B15477C9418E2F24B1B84E1AAFCCA8A86A39515C4653B3 DUP5 DUP1 LOG4 DUP1 RETURN JUMPDEST POP CALLVALUE PUSH2 0x2AD JUMPI DUP1 PUSH1 0x3 NOT CALLDATASIZE ADD SLT PUSH2 0x2AD JUMPI PUSH2 0xD9F PUSH2 0x2340 JUMP JUMPDEST PUSH1 0x0 DUP1 MLOAD PUSH1 0x20 PUSH2 0x2477 DUP4 CODECOPY DUP2 MLOAD SWAP2 MSTORE SLOAD PUSH1 0xFF DUP2 AND PUSH2 0xE21 JUMPI PUSH1 0x1 SWAP1 PUSH1 0xFF NOT AND OR PUSH1 0x0 DUP1 MLOAD PUSH1 0x20 PUSH2 0x2477 DUP4 CODECOPY DUP2 MLOAD SWAP2 MSTORE SSTORE PUSH32 0x62E78CEA01BEE320CD4E420270B5EA74000D11B0C9F74754EBDBFC544B05A258 PUSH1 0x20 PUSH1 0x40 MLOAD CALLER DUP2 MSTORE LOG1 CALLER PUSH32 0xF9C91E483CE8BC4CC31645E7CC0F01A3371813E76469A71104841507F0140290 DUP3 DUP1 LOG2 DUP1 RETURN JUMPDEST PUSH4 0xD93C0665 PUSH1 0xE0 SHL DUP3 MSTORE PUSH1 0x4 DUP3 REVERT JUMPDEST POP CALLVALUE PUSH2 0x2AD JUMPI DUP1 PUSH1 0x3 NOT CALLDATASIZE ADD SLT PUSH2 0x2AD JUMPI PUSH1 0x20 PUSH1 0x38 SLOAD PUSH1 0x40 MLOAD SWAP1 DUP2 MSTORE RETURN JUMPDEST POP CALLVALUE PUSH2 0x2AD JUMPI DUP1 PUSH1 0x3 NOT CALLDATASIZE ADD SLT PUSH2 0x2AD JUMPI PUSH1 0x35 SLOAD SWAP1 PUSH1 0x64 DUP3 MUL SWAP2 DUP1 DUP4 DIV PUSH1 0x64 EQ SWAP1 ISZERO OR ISZERO PUSH2 0x5E8 JUMPI PUSH1 0x20 DUP3 PUSH1 0x40 MLOAD SWAP1 DUP2 MSTORE RETURN JUMPDEST POP CALLVALUE PUSH2 0x2AD JUMPI PUSH1 0x20 CALLDATASIZE PUSH1 0x3 NOT ADD SLT PUSH2 0x2AD JUMPI PUSH1 0x4 CALLDATALOAD PUSH2 0xE9E PUSH2 0x2340 JUMP JUMPDEST PUSH2 0xEAD PUSH1 0xFF PUSH1 0x3A SLOAD AND ISZERO PUSH2 0x1F70 JUMP JUMPDEST PUSH2 0xEBD PUSH4 0x5F5E100 DUP3 GT ISZERO PUSH2 0x1FBC JUMP JUMPDEST DUP1 PUSH1 0x39 SSTORE CALLER SWAP1 PUSH1 0x2 PUSH32 0x42FEC45309092A5A49B15477C9418E2F24B1B84E1AAFCCA8A86A39515C4653B3 DUP5 DUP1 LOG4 DUP1 RETURN JUMPDEST POP CALLVALUE PUSH2 0x2AD JUMPI DUP1 PUSH1 0x3 NOT CALLDATASIZE ADD SLT PUSH2 0x2AD JUMPI PUSH1 0x60 PUSH1 0x35 SLOAD PUSH1 0x36 SLOAD PUSH1 0x1 DUP1 PUSH1 0xA0 SHL SUB PUSH1 0x33 SLOAD AND SWAP1 PUSH1 0x40 MLOAD SWAP3 DUP4 MSTORE PUSH1 0x20 DUP4 ADD MSTORE PUSH1 0x40 DUP3 ADD MSTORE RETURN JUMPDEST POP CALLVALUE PUSH2 0x2AD JUMPI DUP1 PUSH1 0x3 NOT CALLDATASIZE ADD SLT PUSH2 0x2AD JUMPI PUSH2 0xF3C PUSH2 0x2340 JUMP JUMPDEST PUSH1 0x0 DUP1 MLOAD PUSH1 0x20 PUSH2 0x2437 DUP4 CODECOPY DUP2 MLOAD SWAP2 MSTORE DUP1 SLOAD PUSH1 0x1 PUSH1 0x1 PUSH1 0xA0 SHL SUB NOT DUP2 AND SWAP1 SWAP2 SSTORE DUP2 SWAP1 PUSH1 0x1 PUSH1 0x1 PUSH1 0xA0 SHL SUB AND PUSH32 0x8BE0079C531659141344CD1FD0A4F28419497F9722A3DAAFE3B4186F6B6457E0 DUP3 DUP1 LOG3 DUP1 RETURN JUMPDEST POP CALLVALUE PUSH2 0x2AD JUMPI PUSH1 0x20 CALLDATASIZE PUSH1 0x3 NOT ADD SLT PUSH2 0x2AD JUMPI PUSH2 0xFA7 PUSH2 0x1E53 JUMP JUMPDEST PUSH2 0xFAF PUSH2 0x2340 JUMP JUMPDEST PUSH2 0xFBE PUSH1 0xFF PUSH1 0x3A SLOAD AND ISZERO PUSH2 0x1F70 JUMP JUMPDEST PUSH1 0x1 PUSH1 0x1 PUSH1 0xA0 SHL SUB AND DUP1 ISZERO PUSH2 0x107F JUMPI PUSH1 0x33 SLOAD PUSH1 0x1 PUSH1 0x1 PUSH1 0xA0 SHL SUB DUP2 AND SWAP2 SWAP1 DUP3 DUP3 EQ PUSH2 0x1045 JUMPI PUSH1 0x1 PUSH1 0x1 PUSH1 0xA0 SHL SUB NOT AND DUP2 OR PUSH1 0x33 SSTORE PUSH1 0x40 MLOAD PUSH2 0x101C SWAP1 PUSH2 0x1002 DUP2 PUSH2 0x1F1C JUMP JUMPDEST DUP4 DUP2 MSTORE DUP3 PUSH1 0x20 DUP3 ADD MSTORE TIMESTAMP PUSH1 0x40 DUP3 ADD MSTORE CALLER PUSH1 0x60 DUP3 ADD MSTORE PUSH2 0x21C4 JUMP JUMPDEST CALLER SWAP2 PUSH32 0x23C12D5579081C5F1077C04A6B1C114D0F3DE239E81A436836D30ECB099FFA13 DUP5 DUP1 LOG4 DUP1 RETURN JUMPDEST PUSH1 0x40 MLOAD PUSH3 0x461BCD PUSH1 0xE5 SHL DUP2 MSTORE PUSH1 0x20 PUSH1 0x4 DUP3 ADD MSTORE PUSH1 0x12 PUSH1 0x24 DUP3 ADD MSTORE PUSH18 0x151C99585CDD5C9E481D5B98DA185B99D959 PUSH1 0x72 SHL PUSH1 0x44 DUP3 ADD MSTORE PUSH1 0x64 SWAP1 REVERT JUMPDEST PUSH1 0x40 MLOAD PUSH3 0x461BCD PUSH1 0xE5 SHL DUP2 MSTORE PUSH1 0x20 PUSH1 0x4 DUP3 ADD MSTORE PUSH1 0x18 PUSH1 0x24 DUP3 ADD MSTORE PUSH32 0x496E76616C696420747265617375727920616464726573730000000000000000 PUSH1 0x44 DUP3 ADD MSTORE PUSH1 0x64 SWAP1 REVERT JUMPDEST POP CALLVALUE PUSH2 0x2AD JUMPI DUP1 PUSH1 0x3 NOT CALLDATASIZE ADD SLT PUSH2 0x2AD JUMPI PUSH1 0x34 SLOAD PUSH1 0x40 MLOAD PUSH1 0x1 PUSH1 0x1 PUSH1 0xA0 SHL SUB SWAP1 SWAP2 AND DUP2 MSTORE PUSH1 0x20 SWAP1 RETURN JUMPDEST POP CALLVALUE PUSH2 0x2AD JUMPI PUSH1 0x20 CALLDATASIZE PUSH1 0x3 NOT ADD SLT PUSH2 0x2AD JUMPI PUSH2 0x1107 PUSH2 0x1E53 JUMP JUMPDEST PUSH2 0x110F PUSH2 0x2340 JUMP JUMPDEST PUSH2 0x111E PUSH1 0xFF PUSH1 0x3A SLOAD AND ISZERO PUSH2 0x1F70 JUMP JUMPDEST PUSH1 0x1 PUSH1 0x1 PUSH1 0xA0 SHL SUB AND DUP1 ISZERO PUSH2 0x11C0 JUMPI PUSH1 0x34 SLOAD PUSH1 0x1 PUSH1 0x1 PUSH1 0xA0 SHL SUB DUP2 AND SWAP2 SWAP1 DUP3 DUP3 EQ PUSH2 0x117B JUMPI PUSH1 0x1 PUSH1 0x1 PUSH1 0xA0 SHL SUB NOT AND DUP2 OR PUSH1 0x34 SSTORE CALLER SWAP2 PUSH32 0x505A1580FADA0BB544F7BC659EFB59F7285CF0E93091EA00B7BBA4D09F80222D DUP5 DUP1 LOG4 DUP1 RETURN JUMPDEST PUSH1 0x40 MLOAD PUSH3 0x461BCD PUSH1 0xE5 SHL DUP2 MSTORE PUSH1 0x20 PUSH1 0x4 DUP3 ADD MSTORE PUSH1 0x19 PUSH1 0x24 DUP3 ADD MSTORE PUSH32 0x5061796D656E74206164647265737320756E6368616E67656400000000000000 PUSH1 0x44 DUP3 ADD MSTORE PUSH1 0x64 SWAP1 REVERT JUMPDEST PUSH1 0x40 MLOAD PUSH3 0x461BCD PUSH1 0xE5 SHL DUP2 MSTORE PUSH1 0x20 PUSH1 0x4 DUP3 ADD MSTORE PUSH1 0x17 PUSH1 0x24 DUP3 ADD MSTORE PUSH32 0x496E76616C6964207061796D656E742061646472657373000000000000000000 PUSH1 0x44 DUP3 ADD MSTORE PUSH1 0x64 SWAP1 REVERT JUMPDEST POP CALLVALUE PUSH2 0x2AD JUMPI DUP1 PUSH1 0x3 NOT CALLDATASIZE ADD SLT PUSH2 0x2AD JUMPI PUSH1 0x20 PUSH1 0xFF PUSH1 0x0 DUP1 MLOAD PUSH1 0x20 PUSH2 0x2477 DUP4 CODECOPY DUP2 MLOAD SWAP2 MSTORE SLOAD AND PUSH1 0x40 MLOAD SWAP1 ISZERO ISZERO DUP2 MSTORE RETURN JUMPDEST POP CALLVALUE PUSH2 0x2AD JUMPI PUSH1 0x20 CALLDATASIZE PUSH1 0x3 NOT ADD SLT PUSH2 0x2AD JUMPI CALLER DUP2 MSTORE PUSH1 0x3B PUSH1 0x20 MSTORE PUSH1 0xFF PUSH1 0x40 DUP3 KECCAK256 SLOAD AND DUP1 ISZERO PUSH2 0x1312 JUMPI JUMPDEST PUSH2 0x1267 SWAP1 PUSH2 0x20C5 JUMP JUMPDEST PUSH1 0x32 SLOAD PUSH1 0x1 PUSH1 0x1 PUSH1 0xA0 SHL SUB AND DUP1 ISZERO PUSH2 0x12CD JUMPI DUP1 DUP3 SWAP2 EXTCODESIZE ISZERO PUSH2 0x12CA JUMPI DUP2 DUP1 SWAP2 PUSH1 0x24 PUSH1 0x40 MLOAD DUP1 SWAP6 DUP2 SWAP4 PUSH4 0x5A2F406F PUSH1 0xE0 SHL DUP4 MSTORE PUSH1 0x4 CALLDATALOAD PUSH1 0x4 DUP5 ADD MSTORE GAS CALL DUP1 ISZERO PUSH2 0x12BD JUMPI PUSH2 0x12AF JUMPI DUP1 RETURN JUMPDEST PUSH2 0x12B8 SWAP2 PUSH2 0x1F4E JUMP JUMPDEST CODESIZE DUP2 DUP1 RETURN JUMPDEST POP PUSH1 0x40 MLOAD SWAP1 RETURNDATASIZE SWAP1 DUP3 RETURNDATACOPY RETURNDATASIZE SWAP1 REVERT JUMPDEST POP REVERT JUMPDEST PUSH1 0x40 MLOAD PUSH3 0x461BCD PUSH1 0xE5 SHL DUP2 MSTORE PUSH1 0x20 PUSH1 0x4 DUP3 ADD MSTORE PUSH1 0x17 PUSH1 0x24 DUP3 ADD MSTORE PUSH32 0x53746F72616765206E6F7420696E697469616C697A6564000000000000000000 PUSH1 0x44 DUP3 ADD MSTORE PUSH1 0x64 SWAP1 REVERT JUMPDEST POP PUSH1 0x0 DUP1 MLOAD PUSH1 0x20 PUSH2 0x2437 DUP4 CODECOPY DUP2 MLOAD SWAP2 MSTORE SLOAD PUSH1 0x1 PUSH1 0x1 PUSH1 0xA0 SHL SUB AND CALLER EQ PUSH2 0x125E JUMP JUMPDEST POP CALLVALUE PUSH2 0x2AD JUMPI DUP1 PUSH1 0x3 NOT CALLDATASIZE ADD SLT PUSH2 0x2AD JUMPI PUSH1 0x3E SLOAD PUSH2 0x1350 DUP2 PUSH2 0x2171 JUMP JUMPDEST PUSH2 0x135D PUSH1 0x40 MLOAD SWAP2 DUP3 PUSH2 0x1F4E JUMP JUMPDEST DUP2 DUP2 MSTORE PUSH1 0x3E DUP4 MSTORE PUSH1 0x20 DUP2 ADD SWAP2 DUP4 PUSH32 0x8D800D6614D35EED73733EE453164A3B48076EB3138F466ADEEB9DEC7BB31F70 DUP5 JUMPDEST DUP4 DUP4 LT PUSH2 0x140A JUMPI DUP7 DUP6 DUP8 PUSH1 0x40 MLOAD SWAP3 DUP4 SWAP3 PUSH1 0x20 DUP5 ADD SWAP1 PUSH1 0x20 DUP6 MSTORE MLOAD DUP1 SWAP2 MSTORE PUSH1 0x40 DUP5 ADD SWAP3 SWAP2 JUMPDEST DUP2 DUP2 LT PUSH2 0x13BF JUMPI POP POP POP SUB SWAP1 RETURN JUMPDEST SWAP2 SWAP4 POP SWAP2 PUSH1 0x20 PUSH1 0x80 DUP3 PUSH2 0x13FC PUSH1 0x1 SWAP5 DUP9 MLOAD PUSH1 0x60 SWAP1 DUP1 MLOAD DUP4 MSTORE PUSH1 0x20 DUP2 ADD MLOAD PUSH1 0x20 DUP5 ADD MSTORE PUSH1 0x40 DUP2 ADD MLOAD PUSH1 0x40 DUP5 ADD MSTORE DUP2 PUSH1 0x1 DUP1 PUSH1 0xA0 SHL SUB SWAP2 ADD MLOAD AND SWAP2 ADD MSTORE JUMP JUMPDEST ADD SWAP5 ADD SWAP2 ADD SWAP2 DUP5 SWAP4 SWAP3 PUSH2 0x13B1 JUMP JUMPDEST PUSH1 0x4 PUSH1 0x20 PUSH1 0x1 SWAP3 PUSH2 0x141A DUP6 PUSH2 0x2189 JUMP JUMPDEST DUP2 MSTORE ADD SWAP3 ADD SWAP3 ADD SWAP2 SWAP1 PUSH2 0x138D JUMP JUMPDEST POP CALLVALUE PUSH2 0x2AD JUMPI DUP1 PUSH1 0x3 NOT CALLDATASIZE ADD SLT PUSH2 0x2AD JUMPI PUSH32 0x0 PUSH1 0x1 PUSH1 0x1 PUSH1 0xA0 SHL SUB AND ADDRESS SUB PUSH2 0x1481 JUMPI PUSH1 0x20 PUSH1 0x40 MLOAD PUSH1 0x0 DUP1 MLOAD PUSH1 0x20 PUSH2 0x2457 DUP4 CODECOPY DUP2 MLOAD SWAP2 MSTORE DUP2 MSTORE RETURN JUMPDEST PUSH4 0x703E46DD PUSH1 0xE1 SHL DUP2 MSTORE PUSH1 0x4 SWAP1 REVERT JUMPDEST POP CALLVALUE PUSH2 0x2AD JUMPI DUP1 PUSH1 0x3 NOT CALLDATASIZE ADD SLT PUSH2 0x2AD JUMPI PUSH2 0x14A9 PUSH2 0x210A JUMP JUMPDEST POP PUSH1 0x3E SLOAD SWAP1 DUP2 ISZERO PUSH2 0x14CE JUMPI PUSH1 0x0 NOT DUP3 ADD SWAP2 DUP3 GT PUSH2 0x5E8 JUMPI PUSH1 0x80 PUSH2 0x5B2 PUSH2 0x5AC DUP5 PUSH2 0x1E6E JUMP JUMPDEST PUSH1 0x40 MLOAD PUSH3 0x461BCD PUSH1 0xE5 SHL DUP2 MSTORE PUSH1 0x20 PUSH1 0x4 DUP3 ADD MSTORE PUSH1 0x17 PUSH1 0x24 DUP3 ADD MSTORE PUSH32 0x4E6F20666565206368616E676573207265636F72646564000000000000000000 PUSH1 0x44 DUP3 ADD MSTORE PUSH1 0x64 SWAP1 REVERT JUMPDEST POP PUSH1 0x40 CALLDATASIZE PUSH1 0x3 NOT ADD SLT PUSH2 0x2AD JUMPI PUSH2 0x1528 PUSH2 0x1E53 JUMP JUMPDEST SWAP1 PUSH1 0x24 CALLDATALOAD SWAP2 PUSH8 0xFFFFFFFFFFFFFFFF DUP4 GT PUSH2 0x439 JUMPI CALLDATASIZE PUSH1 0x23 DUP5 ADD SLT ISZERO PUSH2 0x439 JUMPI DUP3 PUSH1 0x4 ADD CALLDATALOAD PUSH8 0xFFFFFFFFFFFFFFFF DUP2 GT PUSH2 0x1738 JUMPI PUSH1 0x40 MLOAD SWAP4 PUSH2 0x1573 PUSH1 0x1F DUP4 ADD PUSH1 0x1F NOT AND PUSH1 0x20 ADD DUP7 PUSH2 0x1F4E JUMP JUMPDEST DUP2 DUP6 MSTORE CALLDATASIZE PUSH1 0x24 DUP4 DUP4 ADD ADD GT PUSH2 0xC50 JUMPI DUP2 DUP5 SWAP3 PUSH1 0x24 PUSH1 0x20 SWAP4 ADD DUP4 DUP9 ADD CALLDATACOPY DUP6 ADD ADD MSTORE PUSH1 0x1 PUSH1 0x1 PUSH1 0xA0 SHL SUB PUSH32 0x0 AND ADDRESS DUP2 EQ SWAP1 DUP2 ISZERO PUSH2 0x1715 JUMPI JUMPDEST POP PUSH2 0x1706 JUMPI PUSH2 0x15D5 PUSH2 0x2340 JUMP JUMPDEST PUSH1 0x40 MLOAD PUSH4 0x52D1902D PUSH1 0xE0 SHL DUP2 MSTORE SWAP3 PUSH1 0x1 PUSH1 0x1 PUSH1 0xA0 SHL SUB DUP3 AND SWAP2 SWAP1 PUSH1 0x20 DUP6 PUSH1 0x4 DUP2 DUP7 GAS STATICCALL DUP1 SWAP6 DUP6 SWAP7 PUSH2 0x16CE JUMPI JUMPDEST POP PUSH2 0x161A JUMPI PUSH4 0x4C9C8CE3 PUSH1 0xE0 SHL DUP5 MSTORE PUSH1 0x4 DUP4 SWAP1 MSTORE PUSH1 0x24 DUP5 REVERT JUMPDEST SWAP1 SWAP2 DUP5 PUSH1 0x0 DUP1 MLOAD PUSH1 0x20 PUSH2 0x2457 DUP4 CODECOPY DUP2 MLOAD SWAP2 MSTORE DUP2 SUB PUSH2 0x16BC JUMPI POP DUP3 EXTCODESIZE ISZERO PUSH2 0x16AA JUMPI PUSH1 0x0 DUP1 MLOAD PUSH1 0x20 PUSH2 0x2457 DUP4 CODECOPY DUP2 MLOAD SWAP2 MSTORE DUP1 SLOAD PUSH1 0x1 PUSH1 0x1 PUSH1 0xA0 SHL SUB NOT AND DUP3 OR SWAP1 SSTORE PUSH32 0xBC7CD75A20EE27FD9ADEBAB32041F755214DBC6BFFA90CC0225B39DA2E5C2D3B DUP5 DUP1 LOG2 DUP1 MLOAD ISZERO PUSH2 0x1691 JUMPI PUSH2 0x168D SWAP2 PUSH2 0x23A4 JUMP JUMPDEST POP DUP1 RETURN JUMPDEST POP POP CALLVALUE PUSH2 0x169B JUMPI DUP1 RETURN JUMPDEST PUSH4 0xB398979F PUSH1 0xE0 SHL DUP2 MSTORE PUSH1 0x4 SWAP1 REVERT JUMPDEST PUSH4 0x4C9C8CE3 PUSH1 0xE0 SHL DUP5 MSTORE PUSH1 0x4 MSTORE PUSH1 0x24 DUP4 REVERT JUMPDEST PUSH4 0x2A875269 PUSH1 0xE2 SHL DUP6 MSTORE PUSH1 0x4 MSTORE PUSH1 0x24 DUP5 REVERT JUMPDEST SWAP1 SWAP6 POP PUSH1 0x20 DUP2 RETURNDATASIZE PUSH1 0x20 GT PUSH2 0x16FE JUMPI JUMPDEST DUP2 PUSH2 0x16EA PUSH1 0x20 SWAP4 DUP4 PUSH2 0x1F4E JUMP JUMPDEST DUP2 ADD SUB SLT PUSH2 0x16FA JUMPI MLOAD SWAP5 CODESIZE PUSH2 0x1601 JUMP JUMPDEST DUP5 DUP1 REVERT JUMPDEST RETURNDATASIZE SWAP2 POP PUSH2 0x16DD JUMP JUMPDEST PUSH4 0x703E46DD PUSH1 0xE1 SHL DUP3 MSTORE PUSH1 0x4 DUP3 REVERT JUMPDEST PUSH1 0x0 DUP1 MLOAD PUSH1 0x20 PUSH2 0x2457 DUP4 CODECOPY DUP2 MLOAD SWAP2 MSTORE SLOAD PUSH1 0x1 PUSH1 0x1 PUSH1 0xA0 SHL SUB AND EQ ISZERO SWAP1 POP CODESIZE PUSH2 0x15C8 JUMP JUMPDEST PUSH4 0x4E487B71 PUSH1 0xE0 SHL DUP4 MSTORE PUSH1 0x41 PUSH1 0x4 MSTORE PUSH1 0x24 DUP4 REVERT JUMPDEST POP CALLVALUE PUSH2 0x2AD JUMPI DUP1 PUSH1 0x3 NOT CALLDATASIZE ADD SLT PUSH2 0x2AD JUMPI CALLER DUP2 MSTORE PUSH1 0x3B PUSH1 0x20 MSTORE PUSH1 0xFF PUSH1 0x40 DUP3 KECCAK256 SLOAD AND DUP1 ISZERO PUSH2 0x1861 JUMPI JUMPDEST PUSH2 0x177D SWAP1 PUSH2 0x20C5 JUMP JUMPDEST CALLER DUP2 MSTORE PUSH1 0x3D PUSH1 0x20 MSTORE PUSH1 0x40 DUP2 KECCAK256 SLOAD DUP1 ISZERO PUSH2 0x1858 JUMPI JUMPDEST PUSH2 0xE10 DUP2 ADD DUP1 SWAP2 GT PUSH2 0x1844 JUMPI TIMESTAMP LT PUSH2 0x17FF JUMPI PUSH1 0x3A SLOAD PUSH1 0xFF DUP1 DUP3 AND ISZERO AND SWAP1 PUSH1 0xFF NOT AND OR PUSH1 0x3A SSTORE TIMESTAMP PUSH1 0x3C SSTORE CALLER DUP2 MSTORE PUSH1 0x3D PUSH1 0x20 MSTORE TIMESTAMP PUSH1 0x40 DUP3 KECCAK256 SSTORE PUSH1 0xFF PUSH1 0x3A SLOAD AND PUSH1 0x40 MLOAD SWAP1 ISZERO ISZERO DUP2 MSTORE PUSH32 0xC35ED978E97C366B3A5F9375508BCFBCA850FCA66BF334B9477118918E6EAA40 PUSH1 0x20 CALLER SWAP3 LOG2 DUP1 RETURN JUMPDEST PUSH1 0x40 MLOAD PUSH3 0x461BCD PUSH1 0xE5 SHL DUP2 MSTORE PUSH1 0x20 PUSH1 0x4 DUP3 ADD MSTORE PUSH1 0x1C PUSH1 0x24 DUP3 ADD MSTORE PUSH32 0x456D657267656E637920746F67676C65206F6E20636F6F6C646F776E00000000 PUSH1 0x44 DUP3 ADD MSTORE PUSH1 0x64 SWAP1 REVERT JUMPDEST PUSH4 0x4E487B71 PUSH1 0xE0 SHL DUP3 MSTORE PUSH1 0x11 PUSH1 0x4 MSTORE PUSH1 0x24 DUP3 REVERT JUMPDEST POP PUSH1 0x3C SLOAD PUSH2 0x1791 JUMP JUMPDEST POP PUSH1 0x0 DUP1 MLOAD PUSH1 0x20 PUSH2 0x2437 DUP4 CODECOPY DUP2 MLOAD SWAP2 MSTORE SLOAD PUSH1 0x1 PUSH1 0x1 PUSH1 0xA0 SHL SUB AND CALLER EQ PUSH2 0x1774 JUMP JUMPDEST POP CALLVALUE PUSH2 0x2AD JUMPI DUP1 PUSH1 0x3 NOT CALLDATASIZE ADD SLT PUSH2 0x2AD JUMPI PUSH1 0x3F SLOAD PUSH2 0x189F DUP2 PUSH2 0x2171 JUMP JUMPDEST PUSH2 0x18AC PUSH1 0x40 MLOAD SWAP2 DUP3 PUSH2 0x1F4E JUMP JUMPDEST DUP2 DUP2 MSTORE PUSH1 0x3F DUP4 MSTORE PUSH1 0x20 DUP2 ADD SWAP2 DUP4 PUSH32 0xC03004E3CE0784BF68186394306849F9B7B1200073105CD9AEB554A1802B58FD DUP5 JUMPDEST DUP4 DUP4 LT PUSH2 0x195A JUMPI DUP7 DUP6 DUP8 PUSH1 0x40 MLOAD SWAP3 DUP4 SWAP3 PUSH1 0x20 DUP5 ADD SWAP1 PUSH1 0x20 DUP6 MSTORE MLOAD DUP1 SWAP2 MSTORE PUSH1 0x40 DUP5 ADD SWAP3 SWAP2 JUMPDEST DUP2 DUP2 LT PUSH2 0x190E JUMPI POP POP POP SUB SWAP1 RETURN JUMPDEST DUP3 MLOAD DUP1 MLOAD PUSH1 0x1 PUSH1 0x1 PUSH1 0xA0 SHL SUB SWAP1 DUP2 AND DUP7 MSTORE PUSH1 0x20 DUP1 DUP4 ADD MLOAD DUP3 AND DUP2 DUP9 ADD MSTORE PUSH1 0x40 DUP1 DUP5 ADD MLOAD SWAP1 DUP9 ADD MSTORE PUSH1 0x60 SWAP3 DUP4 ADD MLOAD SWAP1 SWAP2 AND SWAP2 DUP7 ADD SWAP2 SWAP1 SWAP2 MSTORE DUP7 SWAP6 POP PUSH1 0x80 SWAP1 SWAP5 ADD SWAP4 SWAP1 SWAP3 ADD SWAP2 PUSH1 0x1 ADD PUSH2 0x1900 JUMP JUMPDEST PUSH1 0x4 PUSH1 0x20 PUSH1 0x1 SWAP3 PUSH2 0x196A DUP6 PUSH2 0x212F JUMP JUMPDEST DUP2 MSTORE ADD SWAP3 ADD SWAP3 ADD SWAP2 SWAP1 PUSH2 0x18DC JUMP JUMPDEST POP CALLVALUE PUSH2 0x2AD JUMPI DUP1 PUSH1 0x3 NOT CALLDATASIZE ADD SLT PUSH2 0x2AD JUMPI PUSH2 0x1991 PUSH2 0x210A JUMP JUMPDEST POP PUSH1 0x3F SLOAD SWAP1 DUP2 ISZERO PUSH2 0x19F8 JUMPI PUSH1 0x0 NOT DUP3 ADD SWAP2 DUP3 GT PUSH2 0x5E8 JUMPI PUSH1 0x80 PUSH2 0x19BC PUSH2 0x19B6 DUP5 PUSH2 0x1EA3 JUMP JUMPDEST POP PUSH2 0x212F JUMP JUMPDEST PUSH1 0x40 DUP1 MLOAD DUP3 MLOAD PUSH1 0x1 PUSH1 0x1 PUSH1 0xA0 SHL SUB SWAP1 DUP2 AND DUP3 MSTORE PUSH1 0x20 DUP1 DUP6 ADD MLOAD DUP3 AND SWAP1 DUP4 ADD MSTORE DUP4 DUP4 ADD MLOAD SWAP3 DUP3 ADD SWAP3 SWAP1 SWAP3 MSTORE PUSH1 0x60 SWAP3 DUP4 ADD MLOAD SWAP1 SWAP2 AND SWAP2 DUP2 ADD SWAP2 SWAP1 SWAP2 MSTORE RETURN JUMPDEST PUSH1 0x40 MLOAD PUSH3 0x461BCD PUSH1 0xE5 SHL DUP2 MSTORE PUSH1 0x20 PUSH1 0x4 DUP3 ADD MSTORE PUSH1 0x1C PUSH1 0x24 DUP3 ADD MSTORE PUSH32 0x4E6F207472656173757279206368616E676573207265636F7264656400000000 PUSH1 0x44 DUP3 ADD MSTORE PUSH1 0x64 SWAP1 REVERT JUMPDEST POP CALLVALUE PUSH2 0x2AD JUMPI PUSH1 0x20 CALLDATASIZE PUSH1 0x3 NOT ADD SLT PUSH2 0x2AD JUMPI PUSH1 0x4 CALLDATALOAD PUSH2 0x1A5A PUSH2 0x2340 JUMP JUMPDEST PUSH2 0x1A69 PUSH1 0xFF PUSH1 0x3A SLOAD AND ISZERO PUSH2 0x1F70 JUMP JUMPDEST PUSH2 0x1A79 PUSH4 0x5F5E100 DUP3 GT ISZERO PUSH2 0x1FBC JUMP JUMPDEST DUP1 PUSH1 0x37 SSTORE CALLER SWAP1 DUP3 PUSH32 0x42FEC45309092A5A49B15477C9418E2F24B1B84E1AAFCCA8A86A39515C4653B3 DUP2 DUP1 LOG4 DUP1 RETURN JUMPDEST POP CALLVALUE PUSH2 0x2AD JUMPI PUSH1 0x20 CALLDATASIZE PUSH1 0x3 NOT ADD SLT PUSH2 0x2AD JUMPI PUSH1 0x20 SWAP1 PUSH1 0x40 SWAP1 PUSH1 0x1 PUSH1 0x1 PUSH1 0xA0 SHL SUB PUSH2 0x1ACF PUSH2 0x1E53 JUMP JUMPDEST AND DUP2 MSTORE PUSH1 0x3D DUP4 MSTORE KECCAK256 SLOAD PUSH1 0x40 MLOAD SWAP1 DUP2 MSTORE RETURN JUMPDEST POP CALLVALUE PUSH2 0x2AD JUMPI DUP1 PUSH1 0x3 NOT CALLDATASIZE ADD SLT PUSH2 0x2AD JUMPI PUSH2 0x1AF9 PUSH2 0x2340 JUMP JUMPDEST PUSH1 0x0 DUP1 MLOAD PUSH1 0x20 PUSH2 0x2477 DUP4 CODECOPY DUP2 MLOAD SWAP2 MSTORE SLOAD PUSH1 0xFF DUP2 AND ISZERO PUSH2 0x1B78 JUMPI PUSH1 0xFF NOT AND PUSH1 0x0 DUP1 MLOAD PUSH1 0x20 PUSH2 0x2477 DUP4 CODECOPY DUP2 MLOAD SWAP2 MSTORE SSTORE PUSH32 0x5DB9EE0A495BF2E6FF9C91A7834C1BA4FDD244A5E8AA4E537BD38AEAE4B073AA PUSH1 0x20 PUSH1 0x40 MLOAD CALLER DUP2 MSTORE LOG1 CALLER PUSH32 0xCC2B689B01792CCC45F7D02099E9EF3FFD7058E45803395690C61EFDD0F0C634 DUP3 DUP1 LOG2 DUP1 RETURN JUMPDEST PUSH4 0x8DFC202B PUSH1 0xE0 SHL DUP3 MSTORE PUSH1 0x4 DUP3 REVERT JUMPDEST POP CALLVALUE PUSH2 0x2AD JUMPI DUP1 PUSH1 0x3 NOT CALLDATASIZE ADD SLT PUSH2 0x2AD JUMPI PUSH1 0x20 PUSH1 0x40 MLOAD PUSH1 0x14 DUP2 MSTORE RETURN JUMPDEST POP CALLVALUE PUSH2 0x2AD JUMPI PUSH1 0x20 CALLDATASIZE PUSH1 0x3 NOT ADD SLT PUSH2 0x2AD JUMPI PUSH1 0x4 CALLDATALOAD CALLER DUP3 MSTORE PUSH1 0x3B PUSH1 0x20 MSTORE PUSH1 0xFF PUSH1 0x40 DUP4 KECCAK256 SLOAD AND DUP1 ISZERO PUSH2 0x1C3F JUMPI JUMPDEST PUSH2 0x1BD8 SWAP1 PUSH2 0x20C5 JUMP JUMPDEST PUSH2 0x1BE5 PUSH1 0x14 DUP3 GT ISZERO PUSH2 0x1FBC JUMP JUMPDEST PUSH1 0x35 SLOAD SWAP1 DUP1 PUSH1 0x35 SSTORE PUSH2 0x1C16 PUSH1 0x40 MLOAD PUSH2 0x1BFC DUP2 PUSH2 0x1F1C JUMP JUMPDEST DUP4 DUP2 MSTORE DUP3 PUSH1 0x20 DUP3 ADD MSTORE TIMESTAMP PUSH1 0x40 DUP3 ADD MSTORE CALLER PUSH1 0x60 DUP3 ADD MSTORE PUSH2 0x2098 JUMP JUMPDEST CALLER SWAP2 PUSH32 0x9E74D2175D1604CA094D3C60971771FB54AA1A0ADBADCEDCB69C48CFBD4FEB99 DUP5 DUP1 LOG4 DUP1 RETURN JUMPDEST POP PUSH1 0x0 DUP1 MLOAD PUSH1 0x20 PUSH2 0x2437 DUP4 CODECOPY DUP2 MLOAD SWAP2 MSTORE SLOAD PUSH1 0x1 PUSH1 0x1 PUSH1 0xA0 SHL SUB AND CALLER EQ PUSH2 0x1BCF JUMP JUMPDEST POP CALLVALUE PUSH2 0x2AD JUMPI PUSH1 0x20 CALLDATASIZE PUSH1 0x3 NOT ADD SLT PUSH2 0x2AD JUMPI PUSH1 0x4 CALLDATALOAD PUSH2 0x1C7D PUSH2 0x2340 JUMP JUMPDEST PUSH2 0x1C8C PUSH1 0xFF PUSH1 0x3A SLOAD AND ISZERO PUSH2 0x1F70 JUMP JUMPDEST PUSH2 0x1C99 PUSH1 0x14 DUP3 GT ISZERO PUSH2 0x1FBC JUMP JUMPDEST PUSH1 0x35 SLOAD SWAP1 PUSH2 0x1CA9 DUP3 DUP3 EQ ISZERO PUSH2 0x1FFE JUMP JUMPDEST DUP1 PUSH1 0x35 SSTORE PUSH2 0x1C16 PUSH1 0x40 MLOAD PUSH2 0x1BFC DUP2 PUSH2 0x1F1C JUMP JUMPDEST POP CALLVALUE PUSH2 0x2AD JUMPI DUP1 PUSH1 0x3 NOT CALLDATASIZE ADD SLT PUSH2 0x2AD JUMPI PUSH1 0x32 SLOAD PUSH1 0x40 MLOAD PUSH1 0x1 PUSH1 0x1 PUSH1 0xA0 SHL SUB SWAP1 SWAP2 AND DUP2 MSTORE PUSH1 0x20 SWAP1 RETURN JUMPDEST POP CALLVALUE PUSH2 0x2AD JUMPI PUSH1 0x20 CALLDATASIZE PUSH1 0x3 NOT ADD SLT PUSH2 0x2AD JUMPI PUSH1 0x4 CALLDATALOAD PUSH1 0x3E SLOAD DUP2 LT ISZERO PUSH2 0x439 JUMPI PUSH2 0x3FB SWAP1 PUSH2 0x1E6E JUMP JUMPDEST POP CALLVALUE PUSH2 0x2AD JUMPI PUSH1 0x20 CALLDATASIZE PUSH1 0x3 NOT ADD SLT PUSH2 0x2AD JUMPI PUSH1 0x35 SLOAD PUSH1 0x4 CALLDATALOAD DUP2 DUP2 MUL SWAP3 SWAP2 DUP2 ISZERO SWAP2 DUP5 DIV EQ OR ISZERO PUSH2 0x5E8 JUMPI PUSH1 0x20 DUP3 PUSH1 0x64 PUSH1 0x40 MLOAD SWAP2 DIV DUP2 MSTORE RETURN JUMPDEST POP CALLVALUE PUSH2 0x2AD JUMPI DUP1 PUSH1 0x3 NOT CALLDATASIZE ADD SLT PUSH2 0x2AD JUMPI PUSH1 0x20 PUSH1 0xFF PUSH1 0x3A SLOAD AND PUSH1 0x40 MLOAD SWAP1 ISZERO ISZERO DUP2 MSTORE RETURN JUMPDEST POP CALLVALUE PUSH2 0x2AD JUMPI DUP1 PUSH1 0x3 NOT CALLDATASIZE ADD SLT PUSH2 0x2AD JUMPI PUSH1 0x2 PUSH1 0x20 SWAP2 SLOAD EQ PUSH1 0x40 MLOAD SWAP1 DUP2 MSTORE RETURN JUMPDEST POP CALLVALUE PUSH2 0x2AD JUMPI PUSH1 0x40 CALLDATASIZE PUSH1 0x3 NOT ADD SLT PUSH2 0x2AD JUMPI PUSH2 0x1DA1 PUSH2 0x1E53 JUMP JUMPDEST PUSH1 0x24 CALLDATALOAD SWAP1 DUP2 ISZERO ISZERO DUP1 SWAP3 SUB PUSH2 0xC54 JUMPI PUSH2 0x1DB7 PUSH2 0x2340 JUMP JUMPDEST PUSH1 0x1 PUSH1 0x1 PUSH1 0xA0 SHL SUB AND DUP1 ISZERO PUSH2 0x1E0E JUMPI DUP1 DUP4 MSTORE PUSH1 0x3B PUSH1 0x20 MSTORE PUSH1 0x40 DUP4 KECCAK256 PUSH1 0xFF NOT DUP2 SLOAD AND PUSH1 0xFF DUP5 AND OR SWAP1 SSTORE PUSH1 0x40 MLOAD SWAP2 DUP3 MSTORE PUSH32 0x1D05944B75552398D6505993A2BC80206D8219C4454DEF4CFD2E97793EDBBFCE PUSH1 0x20 CALLER SWAP4 LOG3 DUP1 RETURN JUMPDEST PUSH1 0x40 MLOAD PUSH3 0x461BCD PUSH1 0xE5 SHL DUP2 MSTORE PUSH1 0x20 PUSH1 0x4 DUP3 ADD MSTORE PUSH1 0x18 PUSH1 0x24 DUP3 ADD MSTORE PUSH32 0x496E76616C6964206F70657261746F7220616464726573730000000000000000 PUSH1 0x44 DUP3 ADD MSTORE PUSH1 0x64 SWAP1 REVERT JUMPDEST PUSH1 0x4 CALLDATALOAD SWAP1 PUSH1 0x1 PUSH1 0x1 PUSH1 0xA0 SHL SUB DUP3 AND DUP3 SUB PUSH2 0x1E69 JUMPI JUMP JUMPDEST PUSH1 0x0 DUP1 REVERT JUMPDEST PUSH1 0x3E SLOAD DUP2 LT ISZERO PUSH2 0x1E8D JUMPI PUSH1 0x3E PUSH1 0x0 MSTORE PUSH1 0x20 PUSH1 0x0 KECCAK256 SWAP1 PUSH1 0x2 SHL ADD SWAP1 PUSH1 0x0 SWAP1 JUMP JUMPDEST PUSH4 0x4E487B71 PUSH1 0xE0 SHL PUSH1 0x0 MSTORE PUSH1 0x32 PUSH1 0x4 MSTORE PUSH1 0x24 PUSH1 0x0 REVERT JUMPDEST PUSH1 0x3F SLOAD DUP2 LT ISZERO PUSH2 0x1E8D JUMPI PUSH1 0x3F PUSH1 0x0 MSTORE PUSH1 0x20 PUSH1 0x0 KECCAK256 SWAP1 PUSH1 0x2 SHL ADD SWAP1 PUSH1 0x0 SWAP1 JUMP JUMPDEST PUSH1 0x40 SLOAD DUP2 LT ISZERO PUSH2 0x1E8D JUMPI PUSH1 0x40 PUSH1 0x0 MSTORE PUSH1 0x20 PUSH1 0x0 KECCAK256 SWAP1 PUSH1 0x2 SHL ADD SWAP1 PUSH1 0x0 SWAP1 JUMP JUMPDEST DUP1 SLOAD DUP3 LT ISZERO PUSH2 0x1E8D JUMPI PUSH1 0x0 MSTORE PUSH1 0x20 PUSH1 0x0 KECCAK256 SWAP1 PUSH1 0x2 SHL ADD SWAP1 PUSH1 0x0 SWAP1 JUMP JUMPDEST CALLVALUE PUSH2 0x1E69 JUMPI PUSH1 0x0 CALLDATASIZE PUSH1 0x3 NOT ADD SLT PUSH2 0x1E69 JUMPI PUSH1 0x20 PUSH1 0x40 MLOAD PUSH4 0x5F5E100 DUP2 MSTORE RETURN JUMPDEST PUSH1 0x80 DUP2 ADD SWAP1 DUP2 LT PUSH8 0xFFFFFFFFFFFFFFFF DUP3 GT OR PUSH2 0x1F38 JUMPI PUSH1 0x40 MSTORE JUMP JUMPDEST PUSH4 0x4E487B71 PUSH1 0xE0 SHL PUSH1 0x0 MSTORE PUSH1 0x41 PUSH1 0x4 MSTORE PUSH1 0x24 PUSH1 0x0 REVERT JUMPDEST SWAP1 PUSH1 0x1F DUP1 NOT SWAP2 ADD AND DUP2 ADD SWAP1 DUP2 LT PUSH8 0xFFFFFFFFFFFFFFFF DUP3 GT OR PUSH2 0x1F38 JUMPI PUSH1 0x40 MSTORE JUMP JUMPDEST ISZERO PUSH2 0x1F77 JUMPI JUMP JUMPDEST PUSH1 0x40 MLOAD PUSH3 0x461BCD PUSH1 0xE5 SHL DUP2 MSTORE PUSH1 0x20 PUSH1 0x4 DUP3 ADD MSTORE PUSH1 0x18 PUSH1 0x24 DUP3 ADD MSTORE PUSH32 0x53797374656D20696E20656D657267656E6379206D6F64650000000000000000 PUSH1 0x44 DUP3 ADD MSTORE PUSH1 0x64 SWAP1 REVERT JUMPDEST ISZERO PUSH2 0x1FC3 JUMPI JUMP JUMPDEST PUSH1 0x40 MLOAD PUSH3 0x461BCD PUSH1 0xE5 SHL DUP2 MSTORE PUSH1 0x20 PUSH1 0x4 DUP3 ADD MSTORE PUSH1 0x13 PUSH1 0x24 DUP3 ADD MSTORE PUSH19 0x4665652065786365656473206D6178696D756D PUSH1 0x68 SHL PUSH1 0x44 DUP3 ADD MSTORE PUSH1 0x64 SWAP1 REVERT JUMPDEST ISZERO PUSH2 0x2005 JUMPI JUMP JUMPDEST PUSH1 0x40 MLOAD PUSH3 0x461BCD PUSH1 0xE5 SHL DUP2 MSTORE PUSH1 0x20 PUSH1 0x4 DUP3 ADD MSTORE PUSH1 0xD PUSH1 0x24 DUP3 ADD MSTORE PUSH13 0x119959481D5B98DA185B99D959 PUSH1 0x9A SHL PUSH1 0x44 DUP3 ADD MSTORE PUSH1 0x64 SWAP1 REVERT JUMPDEST SWAP2 SWAP1 PUSH2 0x2082 JUMPI DUP1 MLOAD DUP3 SSTORE PUSH1 0x20 DUP2 ADD MLOAD PUSH1 0x1 DUP4 ADD SSTORE PUSH1 0x40 DUP2 ADD MLOAD PUSH1 0x2 DUP4 ADD SSTORE PUSH1 0x60 ADD MLOAD PUSH1 0x3 SWAP2 SWAP1 SWAP2 ADD DUP1 SLOAD PUSH1 0x1 PUSH1 0x1 PUSH1 0xA0 SHL SUB NOT AND PUSH1 0x1 PUSH1 0x1 PUSH1 0xA0 SHL SUB SWAP3 SWAP1 SWAP3 AND SWAP2 SWAP1 SWAP2 OR SWAP1 SSTORE JUMP JUMPDEST PUSH4 0x4E487B71 PUSH1 0xE0 SHL PUSH1 0x0 MSTORE PUSH1 0x0 PUSH1 0x4 MSTORE PUSH1 0x24 PUSH1 0x0 REVERT JUMPDEST PUSH1 0x3E SLOAD SWAP1 PUSH1 0x1 PUSH1 0x40 SHL DUP3 LT ISZERO PUSH2 0x1F38 JUMPI PUSH2 0x20BD DUP3 PUSH1 0x1 PUSH2 0x20C3 SWAP5 ADD PUSH1 0x3E SSTORE PUSH1 0x3E PUSH2 0x1EE1 JUMP JUMPDEST SWAP1 PUSH2 0x203A JUMP JUMPDEST JUMP JUMPDEST ISZERO PUSH2 0x20CC JUMPI JUMP JUMPDEST PUSH1 0x40 MLOAD PUSH3 0x461BCD PUSH1 0xE5 SHL DUP2 MSTORE PUSH1 0x20 PUSH1 0x4 DUP3 ADD MSTORE PUSH1 0x16 PUSH1 0x24 DUP3 ADD MSTORE PUSH22 0x2737BA1032B6B2B933B2B731BC9037B832B930BA37B9 PUSH1 0x51 SHL PUSH1 0x44 DUP3 ADD MSTORE PUSH1 0x64 SWAP1 REVERT JUMPDEST PUSH1 0x40 MLOAD SWAP1 PUSH2 0x2117 DUP3 PUSH2 0x1F1C JUMP JUMPDEST PUSH1 0x0 PUSH1 0x60 DUP4 DUP3 DUP2 MSTORE DUP3 PUSH1 0x20 DUP3 ADD MSTORE DUP3 PUSH1 0x40 DUP3 ADD MSTORE ADD MSTORE JUMP JUMPDEST SWAP1 PUSH1 0x40 MLOAD PUSH2 0x213C DUP2 PUSH2 0x1F1C JUMP JUMPDEST DUP3 SLOAD PUSH1 0x1 PUSH1 0x1 PUSH1 0xA0 SHL SUB SWAP1 DUP2 AND DUP3 MSTORE PUSH1 0x1 DUP5 ADD SLOAD DUP2 AND PUSH1 0x20 DUP4 ADD MSTORE PUSH1 0x2 DUP5 ADD SLOAD PUSH1 0x40 DUP4 ADD MSTORE PUSH1 0x3 SWAP1 SWAP4 ADD SLOAD SWAP1 SWAP3 AND PUSH1 0x60 DUP4 ADD MSTORE JUMP JUMPDEST PUSH8 0xFFFFFFFFFFFFFFFF DUP2 GT PUSH2 0x1F38 JUMPI PUSH1 0x5 SHL PUSH1 0x20 ADD SWAP1 JUMP JUMPDEST SWAP1 PUSH1 0x40 MLOAD PUSH2 0x2196 DUP2 PUSH2 0x1F1C JUMP JUMPDEST DUP3 SLOAD DUP2 MSTORE PUSH1 0x1 DUP4 ADD SLOAD PUSH1 0x20 DUP3 ADD MSTORE PUSH1 0x2 DUP4 ADD SLOAD PUSH1 0x40 DUP3 ADD MSTORE PUSH1 0x3 SWAP1 SWAP3 ADD SLOAD PUSH1 0x1 PUSH1 0x1 PUSH1 0xA0 SHL SUB AND PUSH1 0x60 DUP4 ADD MSTORE JUMP JUMPDEST PUSH1 0x3F SLOAD PUSH1 0x1 PUSH1 0x40 SHL DUP2 LT ISZERO PUSH2 0x1F38 JUMPI DUP1 PUSH1 0x1 PUSH2 0x21E5 SWAP3 ADD PUSH1 0x3F SSTORE PUSH1 0x3F PUSH2 0x1EE1 JUMP JUMPDEST SWAP2 SWAP1 SWAP2 PUSH2 0x2082 JUMPI DUP1 MLOAD DUP3 SLOAD PUSH1 0x1 PUSH1 0x1 PUSH1 0xA0 SHL SUB NOT SWAP1 DUP2 AND PUSH1 0x1 PUSH1 0x1 PUSH1 0xA0 SHL SUB SWAP3 DUP4 AND OR DUP5 SSTORE PUSH1 0x20 DUP4 ADD MLOAD PUSH1 0x1 DUP6 ADD DUP1 SLOAD DUP4 AND SWAP2 DUP5 AND SWAP2 SWAP1 SWAP2 OR SWAP1 SSTORE PUSH1 0x40 DUP4 ADD MLOAD PUSH1 0x2 DUP6 ADD SSTORE PUSH1 0x60 SWAP1 SWAP3 ADD MLOAD PUSH1 0x3 SWAP4 SWAP1 SWAP4 ADD DUP1 SLOAD SWAP1 SWAP3 AND SWAP3 AND SWAP2 SWAP1 SWAP2 OR SWAP1 SSTORE JUMP JUMPDEST PUSH1 0x40 SLOAD SWAP1 PUSH1 0x1 PUSH1 0x40 SHL DUP3 LT ISZERO PUSH2 0x1F38 JUMPI PUSH2 0x20BD DUP3 PUSH1 0x1 PUSH2 0x20C3 SWAP5 ADD PUSH1 0x40 SSTORE PUSH1 0x40 PUSH2 0x1EE1 JUMP JUMPDEST PUSH1 0xFF AND DUP1 ISZERO PUSH2 0x22C3 JUMPI PUSH1 0x1 DUP2 EQ PUSH2 0x22BC JUMPI PUSH1 0x2 EQ PUSH2 0x22B6 JUMPI PUSH1 0x40 MLOAD PUSH3 0x461BCD PUSH1 0xE5 SHL DUP2 MSTORE PUSH1 0x20 PUSH1 0x4 DUP3 ADD MSTORE PUSH1 0xC PUSH1 0x24 DUP3 ADD MSTORE PUSH12 0x24B73B30B634B2103A34B2B9 PUSH1 0xA1 SHL PUSH1 0x44 DUP3 ADD MSTORE PUSH1 0x64 SWAP1 REVERT JUMPDEST PUSH1 0x39 SLOAD SWAP1 JUMP JUMPDEST POP PUSH1 0x38 SLOAD SWAP1 JUMP JUMPDEST POP PUSH1 0x37 SLOAD SWAP1 JUMP JUMPDEST PUSH1 0x1 PUSH1 0x1 PUSH1 0xA0 SHL SUB AND DUP1 ISZERO PUSH2 0x232A JUMPI PUSH1 0x0 DUP1 MLOAD PUSH1 0x20 PUSH2 0x2437 DUP4 CODECOPY DUP2 MLOAD SWAP2 MSTORE DUP1 SLOAD PUSH1 0x1 PUSH1 0x1 PUSH1 0xA0 SHL SUB NOT DUP2 AND DUP4 OR SWAP1 SWAP2 SSTORE PUSH1 0x1 PUSH1 0x1 PUSH1 0xA0 SHL SUB AND PUSH32 0x8BE0079C531659141344CD1FD0A4F28419497F9722A3DAAFE3B4186F6B6457E0 PUSH1 0x0 DUP1 LOG3 JUMP JUMPDEST PUSH4 0x1E4FBDF7 PUSH1 0xE0 SHL PUSH1 0x0 MSTORE PUSH1 0x0 PUSH1 0x4 MSTORE PUSH1 0x24 PUSH1 0x0 REVERT JUMPDEST PUSH1 0x0 DUP1 MLOAD PUSH1 0x20 PUSH2 0x2437 DUP4 CODECOPY DUP2 MLOAD SWAP2 MSTORE SLOAD PUSH1 0x1 PUSH1 0x1 PUSH1 0xA0 SHL SUB AND CALLER SUB PUSH2 0x2361 JUMPI JUMP JUMPDEST PUSH4 0x118CDAA7 PUSH1 0xE0 SHL PUSH1 0x0 MSTORE CALLER PUSH1 0x4 MSTORE PUSH1 0x24 PUSH1 0x0 REVERT JUMPDEST PUSH1 0xFF PUSH1 0x0 DUP1 MLOAD PUSH1 0x20 PUSH2 0x2497 DUP4 CODECOPY DUP2 MLOAD SWAP2 MSTORE SLOAD PUSH1 0x40 SHR AND ISZERO PUSH2 0x2393 JUMPI JUMP JUMPDEST PUSH4 0x1AFCD79F PUSH1 0xE3 SHL PUSH1 0x0 MSTORE PUSH1 0x4 PUSH1 0x0 REVERT JUMPDEST SWAP1 PUSH1 0x0 DUP1 SWAP2 PUSH1 0x20 DUP2 MLOAD SWAP2 ADD DUP5 GAS DELEGATECALL DUP1 DUP1 PUSH2 0x2423 JUMPI JUMPDEST ISZERO PUSH2 0x23DA JUMPI POP POP PUSH1 0x40 MLOAD RETURNDATASIZE DUP2 MSTORE RETURNDATASIZE PUSH1 0x0 PUSH1 0x20 DUP4 ADD RETURNDATACOPY PUSH1 0x20 RETURNDATASIZE DUP3 ADD ADD PUSH1 0x40 MSTORE SWAP1 JUMP JUMPDEST ISZERO PUSH2 0x2400 JUMPI PUSH4 0x9996B315 PUSH1 0xE0 SHL PUSH1 0x0 SWAP1 DUP2 MSTORE PUSH1 0x1 PUSH1 0x1 PUSH1 0xA0 SHL SUB SWAP2 SWAP1 SWAP2 AND PUSH1 0x4 MSTORE PUSH1 0x24 SWAP1 REVERT JUMPDEST RETURNDATASIZE ISZERO PUSH2 0x2412 JUMPI PUSH1 0x40 MLOAD RETURNDATASIZE PUSH1 0x0 DUP3 RETURNDATACOPY RETURNDATASIZE SWAP1 REVERT JUMPDEST PUSH4 0xD6BDA275 PUSH1 0xE0 SHL PUSH1 0x0 MSTORE PUSH1 0x4 PUSH1 0x0 REVERT JUMPDEST POP RETURNDATASIZE ISZERO ISZERO DUP1 PUSH2 0x23B9 JUMPI POP DUP2 EXTCODESIZE ISZERO ISZERO PUSH2 0x23B9 JUMP INVALID SWAP1 AND 0xD0 SWAP14 PUSH19 0xD40FDAE2FD8CEAC6B6234C7706214FD39C1CD1 0xE6 MULMOD LOG0 MSTORE DUP13 NOT SWAP4 STOP CALLDATASIZE ADDMOD SWAP5 LOG1 EXTCODESIZE LOG1 LOG3 0x21 MOD PUSH8 0xC828492DB98DCA3E KECCAK256 PUSH23 0xCC3735A920A3CA505D382BBCCD5ED15C6E187E77E9AEE8 DUP2 DUP5 0xC2 0x1F 0x4F 0x21 DUP3 0xAB PC 0x27 0xCB EXTCODESIZE PUSH31 0x7FBEDCD63F03300F0C57E16840DF040F15088DC2F81FE391C3923BEC73E23 0xA9 PUSH7 0x2EFC9C229C6A00 LOG2 PUSH5 0x6970667358 0x22 SLT KECCAK256 MCOPY NOT 0xD6 MSTORE8 BLOBHASH SIGNEXTEND STOP SWAP6 0xDC PUSH14 0xC6C027EAE300A57335D93B4D3745 EXTCODEHASH PUSH20 0x798F372147AB64736F6C634300081A0033000000 "},"methodIdentifiers":{"EMERGENCY_COOLDOWN()":"b4f1094d","MAX_HOSTING_FEE()":"bb8f0b65","MAX_HOST_VOUCHER_FEE()":"0f421368","MAX_PLATFORM_FEE()":"3998a681","UPGRADE_INTERFACE_VERSION()":"ad3cb1cc","admin()":"f851a440","calculatePlatformFee(uint256)":"0cbab4f7","emergencyDeactivateNetwork(uint256)":"5a2f406f","emergencyMode()":"0905f560","emergencyOperators(address)":"09705de8","emergencySetHostingFee(uint256)":"bbeecdf0","emergencySetPlatformFee(uint256)":"18b4f23b","feeHistory(uint256)":"0d35a167","getAdminStats()":"c116d936","getCurrentFees()":"71908a03","getFeeHistory()":"5707ed45","getHostVoucherFeeTier(uint8)":"b110bb5b","getHostingFeeHistory()":"d4ab4b40","getLatestFeeChange()":"5071f27b","getLatestHostingFeeChange()":"d2643f1d","getLatestTreasuryChange()":"4863687e","getPlatformFeeBasisPoints()":"7a9b93c6","getTreasuryHistory()":"492adaa8","hostVoucherFeeDays()":"81ca0b2a","hostVoucherFeeHours()":"fe13eea9","hostVoucherFeeMonths()":"e4fc760d","hostingFee()":"ebe7fdaa","hostingFeeHistory(uint256)":"e53377eb","initialize(address,address,address,uint256,uint256)":"a6b63eb8","isEmergencyOperator(address)":"a10eb354","isReentrancyGuardActive()":"03d50d66","lastEmergencyToggleBy(address)":"45ad9cb7","lastEmergencyToggleTime()":"e0797a37","owner()":"8da5cb5b","pause()":"8456cb59","paused()":"5c975abb","payment()":"42f6487a","paymentAddress()":"633423be","platformFeePercent()":"8c639a85","proxiableUUID()":"52d1902d","renounceOwnership()":"715018a6","setEmergencyOperator(address,bool)":"02e88899","setHostVoucherFeeDays(uint256)":"8acbac3c","setHostVoucherFeeHours(uint256)":"46c9bcca","setHostVoucherFeeMonths(uint256)":"7a1b27c9","setHostingFee(uint256)":"edfbf4f1","setPaymentAddress(address)":"5e1e1004","setPlatformFee(uint256)":"12e8e2c3","setTreasuryAddress(address)":"6605bfda","storageContract()":"11ce0267","toggleEmergencyMode()":"4c17b530","transferOwnership(address)":"f2fde38b","treasury()":"61d027b3","treasuryAddress()":"c5f956af","treasuryHistory(uint256)":"a380b86b","unpause()":"3f4ba83a","upgradeToAndCall(address,bytes)":"4f1ef286"}},"storageLayout":{"storage":[{"astId":8460,"contract":"contracts/ZaaNetAdminV1.sol:ZaaNetAdminV1","label":"_status","offset":0,"slot":"0","type":"t_uint256"},{"astId":8529,"contract":"contracts/ZaaNetAdminV1.sol:ZaaNetAdminV1","label":"__gap","offset":0,"slot":"1","type":"t_array(t_uint256)49_storage"},{"astId":3299,"contract":"contracts/ZaaNetAdminV1.sol:ZaaNetAdminV1","label":"storageContract","offset":0,"slot":"50","type":"t_contract(ZaaNetStorageV1)7910"},{"astId":3301,"contract":"contracts/ZaaNetAdminV1.sol:ZaaNetAdminV1","label":"treasuryAddress","offset":0,"slot":"51","type":"t_address"},{"astId":3303,"contract":"contracts/ZaaNetAdminV1.sol:ZaaNetAdminV1","label":"paymentAddress","offset":0,"slot":"52","type":"t_address"},{"astId":3305,"contract":"contracts/ZaaNetAdminV1.sol:ZaaNetAdminV1","label":"platformFeePercent","offset":0,"slot":"53","type":"t_uint256"},{"astId":3307,"contract":"contracts/ZaaNetAdminV1.sol:ZaaNetAdminV1","label":"hostingFee","offset":0,"slot":"54","type":"t_uint256"},{"astId":3309,"contract":"contracts/ZaaNetAdminV1.sol:ZaaNetAdminV1","label":"hostVoucherFeeHours","offset":0,"slot":"55","type":"t_uint256"},{"astId":3311,"contract":"contracts/ZaaNetAdminV1.sol:ZaaNetAdminV1","label":"hostVoucherFeeDays","offset":0,"slot":"56","type":"t_uint256"},{"astId":3313,"contract":"contracts/ZaaNetAdminV1.sol:ZaaNetAdminV1","label":"hostVoucherFeeMonths","offset":0,"slot":"57","type":"t_uint256"},{"astId":3315,"contract":"contracts/ZaaNetAdminV1.sol:ZaaNetAdminV1","label":"emergencyMode","offset":0,"slot":"58","type":"t_bool"},{"astId":3319,"contract":"contracts/ZaaNetAdminV1.sol:ZaaNetAdminV1","label":"emergencyOperators","offset":0,"slot":"59","type":"t_mapping(t_address,t_bool)"},{"astId":3324,"contract":"contracts/ZaaNetAdminV1.sol:ZaaNetAdminV1","label":"lastEmergencyToggleTime","offset":0,"slot":"60","type":"t_uint256"},{"astId":3328,"contract":"contracts/ZaaNetAdminV1.sol:ZaaNetAdminV1","label":"lastEmergencyToggleBy","offset":0,"slot":"61","type":"t_mapping(t_address,t_uint256)"},{"astId":3341,"contract":"contracts/ZaaNetAdminV1.sol:ZaaNetAdminV1","label":"feeHistory","offset":0,"slot":"62","type":"t_array(t_struct(FeeChange)3337_storage)dyn_storage"},{"astId":3354,"contract":"contracts/ZaaNetAdminV1.sol:ZaaNetAdminV1","label":"treasuryHistory","offset":0,"slot":"63","type":"t_array(t_struct(TreasuryChange)3350_storage)dyn_storage"},{"astId":3367,"contract":"contracts/ZaaNetAdminV1.sol:ZaaNetAdminV1","label":"hostingFeeHistory","offset":0,"slot":"64","type":"t_array(t_struct(HostingFeeChange)3363_storage)dyn_storage"},{"astId":4447,"contract":"contracts/ZaaNetAdminV1.sol:ZaaNetAdminV1","label":"__gap","offset":0,"slot":"65","type":"t_array(t_uint256)50_storage"}],"types":{"t_address":{"encoding":"inplace","label":"address","numberOfBytes":"20"},"t_array(t_struct(FeeChange)3337_storage)dyn_storage":{"base":"t_struct(FeeChange)3337_storage","encoding":"dynamic_array","label":"struct ZaaNetAdminV1.FeeChange[]","numberOfBytes":"32"},"t_array(t_struct(HostingFeeChange)3363_storage)dyn_storage":{"base":"t_struct(HostingFeeChange)3363_storage","encoding":"dynamic_array","label":"struct ZaaNetAdminV1.HostingFeeChange[]","numberOfBytes":"32"},"t_array(t_struct(TreasuryChange)3350_storage)dyn_storage":{"base":"t_struct(TreasuryChange)3350_storage","encoding":"dynamic_array","label":"struct ZaaNetAdminV1.TreasuryChange[]","numberOfBytes":"32"},"t_array(t_uint256)49_storage":{"base":"t_uint256","encoding":"inplace","label":"uint256[49]","numberOfBytes":"1568"},"t_array(t_uint256)50_storage":{"base":"t_uint256","encoding":"inplace","label":"uint256[50]","numberOfBytes":"1600"},"t_bool":{"encoding":"inplace","label":"bool","numberOfBytes":"1"},"t_contract(ZaaNetStorageV1)7910":{"encoding":"inplace","label":"contract ZaaNetStorageV1","numberOfBytes":"20"},"t_mapping(t_address,t_bool)":{"encoding":"mapping","key":"t_address","label":"mapping(address => bool)","numberOfBytes":"32","value":"t_bool"},"t_mapping(t_address,t_uint256)":{"encoding":"mapping","key":"t_address","label":"mapping(address => uint256)","numberOfBytes":"32","value":"t_uint256"},"t_struct(FeeChange)3337_storage":{"encoding":"inplace","label":"struct ZaaNetAdminV1.FeeChange","members":[{"astId":3330,"contract":"contracts/ZaaNetAdminV1.sol:ZaaNetAdminV1","label":"oldFee","offset":0,"slot":"0","type":"t_uint256"},{"astId":3332,"contract":"contracts/ZaaNetAdminV1.sol:ZaaNetAdminV1","label":"newFee","offset":0,"slot":"1","type":"t_uint256"},{"astId":3334,"contract":"contracts/ZaaNetAdminV1.sol:ZaaNetAdminV1","label":"timestamp","offset":0,"slot":"2","type":"t_uint256"},{"astId":3336,"contract":"contracts/ZaaNetAdminV1.sol:ZaaNetAdminV1","label":"changedBy","offset":0,"slot":"3","type":"t_address"}],"numberOfBytes":"128"},"t_struct(HostingFeeChange)3363_storage":{"encoding":"inplace","label":"struct ZaaNetAdminV1.HostingFeeChange","members":[{"astId":3356,"contract":"contracts/ZaaNetAdminV1.sol:ZaaNetAdminV1","label":"oldFee","offset":0,"slot":"0","type":"t_uint256"},{"astId":3358,"contract":"contracts/ZaaNetAdminV1.sol:ZaaNetAdminV1","label":"newFee","offset":0,"slot":"1","type":"t_uint256"},{"astId":3360,"contract":"contracts/ZaaNetAdminV1.sol:ZaaNetAdminV1","label":"timestamp","offset":0,"slot":"2","type":"t_uint256"},{"astId":3362,"contract":"contracts/ZaaNetAdminV1.sol:ZaaNetAdminV1","label":"changedBy","offset":0,"slot":"3","type":"t_address"}],"numberOfBytes":"128"},"t_struct(TreasuryChange)3350_storage":{"encoding":"inplace","label":"struct ZaaNetAdminV1.TreasuryChange","members":[{"astId":3343,"contract":"contracts/ZaaNetAdminV1.sol:ZaaNetAdminV1","label":"oldTreasury","offset":0,"slot":"0","type":"t_address"},{"astId":3345,"contract":"contracts/ZaaNetAdminV1.sol:ZaaNetAdminV1","label":"newTreasury","offset":0,"slot":"1","type":"t_address"},{"astId":3347,"contract":"contracts/ZaaNetAdminV1.sol:ZaaNetAdminV1","label":"timestamp","offset":0,"slot":"2","type":"t_uint256"},{"astId":3349,"contract":"contracts/ZaaNetAdminV1.sol:ZaaNetAdminV1","label":"changedBy","offset":0,"slot":"3","type":"t_address"}],"numberOfBytes":"128"},"t_uint256":{"encoding":"inplace","label":"uint256","numberOfBytes":"32"}}}}}}