{"contracts/ZaaNetStorageV1.sol":{"ZaaNetStorageV1":{"abi":[{"inputs":[],"stateMutability":"nonpayable","type":"constructor"},{"inputs":[{"internalType":"address","name":"target","type":"address"}],"name":"AddressEmptyCode","type":"error"},{"inputs":[{"internalType":"address","name":"implementation","type":"address"}],"name":"ERC1967InvalidImplementation","type":"error"},{"inputs":[],"name":"ERC1967NonPayable","type":"error"},{"inputs":[],"name":"EnforcedPause","type":"error"},{"inputs":[],"name":"ExpectedPause","type":"error"},{"inputs":[],"name":"FailedCall","type":"error"},{"inputs":[],"name":"InvalidInitialization","type":"error"},{"inputs":[],"name":"NotInitializing","type":"error"},{"inputs":[{"internalType":"address","name":"owner","type":"address"}],"name":"OwnableInvalidOwner","type":"error"},{"inputs":[{"internalType":"address","name":"account","type":"address"}],"name":"OwnableUnauthorizedAccount","type":"error"},{"inputs":[],"name":"UUPSUnauthorizedCallContext","type":"error"},{"inputs":[{"internalType":"bytes32","name":"slot","type":"bytes32"}],"name":"UUPSUnsupportedProxiableUUID","type":"error"},{"anonymous":false,"inputs":[{"indexed":true,"internalType":"address","name":"caller","type":"address"},{"indexed":false,"internalType":"bool","name":"status","type":"bool"}],"name":"AllowedCallerUpdated","type":"event"},{"anonymous":false,"inputs":[{"indexed":false,"internalType":"uint256","name":"totalEarned","type":"uint256"}],"name":"ClientVoucherFeeEarningsUpdated","type":"event"},{"anonymous":false,"inputs":[{"indexed":true,"internalType":"address","name":"hostAddress","type":"address"},{"indexed":false,"internalType":"uint256","name":"totalEarned","type":"uint256"}],"name":"HostEarningsUpdated","type":"event"},{"anonymous":false,"inputs":[{"indexed":false,"internalType":"uint256","name":"totalEarned","type":"uint256"}],"name":"HostVoucherFeeEarningsUpdated","type":"event"},{"anonymous":false,"inputs":[{"indexed":false,"internalType":"uint64","name":"version","type":"uint64"}],"name":"Initialized","type":"event"},{"anonymous":false,"inputs":[{"indexed":true,"internalType":"uint256","name":"id","type":"uint256"},{"indexed":true,"internalType":"address","name":"hostAddress","type":"address"},{"indexed":false,"internalType":"uint256","name":"pricePerSession","type":"uint256"}],"name":"NetworkStored","type":"event"},{"anonymous":false,"inputs":[{"indexed":true,"internalType":"uint256","name":"id","type":"uint256"},{"indexed":true,"internalType":"address","name":"hostAddress","type":"address"}],"name":"NetworkUpdated","type":"event"},{"anonymous":false,"inputs":[{"indexed":true,"internalType":"address","name":"previousOwner","type":"address"},{"indexed":true,"internalType":"address","name":"newOwner","type":"address"}],"name":"OwnershipTransferred","type":"event"},{"anonymous":false,"inputs":[{"indexed":false,"internalType":"address","name":"account","type":"address"}],"name":"Paused","type":"event"},{"anonymous":false,"inputs":[{"indexed":true,"internalType":"uint256","name":"sessionId","type":"uint256"},{"indexed":true,"internalType":"address","name":"paymentAddress","type":"address"},{"indexed":false,"internalType":"uint256","name":"amount","type":"uint256"}],"name":"SessionStored","type":"event"},{"anonymous":false,"inputs":[{"indexed":false,"internalType":"address","name":"account","type":"address"}],"name":"Unpaused","type":"event"},{"anonymous":false,"inputs":[{"indexed":true,"internalType":"address","name":"implementation","type":"address"}],"name":"Upgraded","type":"event"},{"inputs":[],"name":"MAX_NETWORKS_PER_HOST","outputs":[{"internalType":"uint256","name":"","type":"uint256"}],"stateMutability":"view","type":"function"},{"inputs":[],"name":"UPGRADE_INTERFACE_VERSION","outputs":[{"internalType":"string","name":"","type":"string"}],"stateMutability":"view","type":"function"},{"inputs":[{"internalType":"address","name":"","type":"address"}],"name":"allowedCallers","outputs":[{"internalType":"bool","name":"","type":"bool"}],"stateMutability":"view","type":"function"},{"inputs":[{"internalType":"uint256","name":"networkId","type":"uint256"}],"name":"emergencyDeactivateNetwork","outputs":[],"stateMutability":"nonpayable","type":"function"},{"inputs":[{"internalType":"address","name":"hostAddress","type":"address"}],"name":"getHostEarnings","outputs":[{"internalType":"uint256","name":"","type":"uint256"}],"stateMutability":"view","type":"function"},{"inputs":[{"internalType":"address","name":"hostAddress","type":"address"}],"name":"getHostNetworkCount","outputs":[{"internalType":"uint256","name":"","type":"uint256"}],"stateMutability":"view","type":"function"},{"inputs":[{"internalType":"address","name":"hostAddress","type":"address"}],"name":"getHostNetworks","outputs":[{"internalType":"uint256[]","name":"","type":"uint256[]"}],"stateMutability":"view","type":"function"},{"inputs":[{"internalType":"uint256","name":"id","type":"uint256"}],"name":"getNetwork","outputs":[{"components":[{"internalType":"uint256","name":"id","type":"uint256"},{"internalType":"address","name":"hostAddress","type":"address"},{"internalType":"uint256","name":"pricePerSession","type":"uint256"},{"internalType":"string","name":"mongoDataId","type":"string"},{"internalType":"bool","name":"isActive","type":"bool"},{"internalType":"uint256","name":"createdAt","type":"uint256"},{"internalType":"uint256","name":"updatedAt","type":"uint256"}],"internalType":"struct ZaaNetStorageV1.Network","name":"","type":"tuple"}],"stateMutability":"view","type":"function"},{"inputs":[{"internalType":"uint256","name":"offset","type":"uint256"},{"internalType":"uint256","name":"limit","type":"uint256"}],"name":"getNetworksPaginated","outputs":[{"components":[{"internalType":"uint256","name":"id","type":"uint256"},{"internalType":"address","name":"hostAddress","type":"address"},{"internalType":"uint256","name":"pricePerSession","type":"uint256"},{"internalType":"string","name":"mongoDataId","type":"string"},{"internalType":"bool","name":"isActive","type":"bool"},{"internalType":"uint256","name":"createdAt","type":"uint256"},{"internalType":"uint256","name":"updatedAt","type":"uint256"}],"internalType":"struct ZaaNetStorageV1.Network[]","name":"","type":"tuple[]"},{"internalType":"uint256","name":"total","type":"uint256"}],"stateMutability":"view","type":"function"},{"inputs":[{"internalType":"address","name":"hostAddress","type":"address"}],"name":"hasReachedNetworkLimit","outputs":[{"internalType":"bool","name":"","type":"bool"}],"stateMutability":"view","type":"function"},{"inputs":[{"internalType":"address","name":"","type":"address"}],"name":"hostEarnings","outputs":[{"internalType":"uint256","name":"","type":"uint256"}],"stateMutability":"view","type":"function"},{"inputs":[{"internalType":"address","name":"","type":"address"}],"name":"hostNetworkCount","outputs":[{"internalType":"uint256","name":"","type":"uint256"}],"stateMutability":"view","type":"function"},{"inputs":[{"internalType":"address","name":"","type":"address"},{"internalType":"uint256","name":"","type":"uint256"}],"name":"hostNetworkIds","outputs":[{"internalType":"uint256","name":"","type":"uint256"}],"stateMutability":"view","type":"function"},{"inputs":[{"internalType":"uint256","name":"amount","type":"uint256"}],"name":"increaseClientVoucherFeeEarnings","outputs":[],"stateMutability":"nonpayable","type":"function"},{"inputs":[{"internalType":"address","name":"hostAddress","type":"address"},{"internalType":"uint256","name":"amount","type":"uint256"}],"name":"increaseHostEarnings","outputs":[],"stateMutability":"nonpayable","type":"function"},{"inputs":[{"internalType":"uint256","name":"amount","type":"uint256"}],"name":"increaseHostVoucherFeeEarnings","outputs":[],"stateMutability":"nonpayable","type":"function"},{"inputs":[],"name":"incrementNetworkId","outputs":[{"internalType":"uint256","name":"","type":"uint256"}],"stateMutability":"nonpayable","type":"function"},{"inputs":[],"name":"initialize","outputs":[],"stateMutability":"nonpayable","type":"function"},{"inputs":[],"name":"isReentrancyGuardActive","outputs":[{"internalType":"bool","name":"","type":"bool"}],"stateMutability":"view","type":"function"},{"inputs":[{"internalType":"uint256","name":"","type":"uint256"}],"name":"networkExists","outputs":[{"internalType":"bool","name":"","type":"bool"}],"stateMutability":"view","type":"function"},{"inputs":[],"name":"networkIdCounter","outputs":[{"internalType":"uint256","name":"","type":"uint256"}],"stateMutability":"view","type":"function"},{"inputs":[{"internalType":"uint256","name":"","type":"uint256"}],"name":"networks","outputs":[{"internalType":"uint256","name":"id","type":"uint256"},{"internalType":"address","name":"hostAddress","type":"address"},{"internalType":"uint256","name":"pricePerSession","type":"uint256"},{"internalType":"string","name":"mongoDataId","type":"string"},{"internalType":"bool","name":"isActive","type":"bool"},{"internalType":"uint256","name":"createdAt","type":"uint256"},{"internalType":"uint256","name":"updatedAt","type":"uint256"}],"stateMutability":"view","type":"function"},{"inputs":[],"name":"owner","outputs":[{"internalType":"address","name":"","type":"address"}],"stateMutability":"view","type":"function"},{"inputs":[],"name":"pause","outputs":[],"stateMutability":"nonpayable","type":"function"},{"inputs":[],"name":"paused","outputs":[{"internalType":"bool","name":"","type":"bool"}],"stateMutability":"view","type":"function"},{"inputs":[],"name":"proxiableUUID","outputs":[{"internalType":"bytes32","name":"","type":"bytes32"}],"stateMutability":"view","type":"function"},{"inputs":[],"name":"renounceOwnership","outputs":[],"stateMutability":"nonpayable","type":"function"},{"inputs":[{"internalType":"address","name":"_caller","type":"address"},{"internalType":"bool","name":"status","type":"bool"}],"name":"setAllowedCaller","outputs":[],"stateMutability":"nonpayable","type":"function"},{"inputs":[{"internalType":"address[]","name":"_callers","type":"address[]"},{"internalType":"bool","name":"status","type":"bool"}],"name":"setAllowedCallers","outputs":[],"stateMutability":"nonpayable","type":"function"},{"inputs":[{"internalType":"uint256","name":"id","type":"uint256"},{"components":[{"internalType":"uint256","name":"id","type":"uint256"},{"internalType":"address","name":"hostAddress","type":"address"},{"internalType":"uint256","name":"pricePerSession","type":"uint256"},{"internalType":"string","name":"mongoDataId","type":"string"},{"internalType":"bool","name":"isActive","type":"bool"},{"internalType":"uint256","name":"createdAt","type":"uint256"},{"internalType":"uint256","name":"updatedAt","type":"uint256"}],"internalType":"struct ZaaNetStorageV1.Network","name":"net","type":"tuple"}],"name":"setNetwork","outputs":[],"stateMutability":"nonpayable","type":"function"},{"inputs":[],"name":"totalClientVoucherFeeAmount","outputs":[{"internalType":"uint256","name":"","type":"uint256"}],"stateMutability":"view","type":"function"},{"inputs":[],"name":"totalHostVoucherFeeAmount","outputs":[{"internalType":"uint256","name":"","type":"uint256"}],"stateMutability":"view","type":"function"},{"inputs":[],"name":"totalHostingFeeAmount","outputs":[{"internalType":"uint256","name":"","type":"uint256"}],"stateMutability":"view","type":"function"},{"inputs":[],"name":"totalSessionPaymentsAmount","outputs":[{"internalType":"uint256","name":"","type":"uint256"}],"stateMutability":"view","type":"function"},{"inputs":[],"name":"totalWithdrawalsAmount","outputs":[{"internalType":"uint256","name":"","type":"uint256"}],"stateMutability":"view","type":"function"},{"inputs":[{"internalType":"address","name":"newOwner","type":"address"}],"name":"transferOwnership","outputs":[],"stateMutability":"nonpayable","type":"function"},{"inputs":[],"name":"unpause","outputs":[],"stateMutability":"nonpayable","type":"function"},{"inputs":[{"internalType":"uint256","name":"amount","type":"uint256"}],"name":"updateTotalHostingFeeAmount","outputs":[],"stateMutability":"nonpayable","type":"function"},{"inputs":[{"internalType":"uint256","name":"amount","type":"uint256"}],"name":"updateTotalSessionPaymentsAmount","outputs":[],"stateMutability":"nonpayable","type":"function"},{"inputs":[{"internalType":"uint256","name":"amount","type":"uint256"}],"name":"updateZaanetWithdrawalsAmount","outputs":[],"stateMutability":"nonpayable","type":"function"},{"inputs":[{"internalType":"address","name":"newImplementation","type":"address"},{"internalType":"bytes","name":"data","type":"bytes"}],"name":"upgradeToAndCall","outputs":[],"stateMutability":"payable","type":"function"}],"evm":{"bytecode":{"linkReferences":{},"object":"60a08060405234602957306080526123ac908161002f8239608051818181610fc601526116960152f35b600080fdfe608080604052600436101561001357600080fd5b60003560e01c90816303d50d66146119e1575080631bc970fe1461191c578063217c682d146118fe57806329c718b514610eb05780633c193cc6146118e05780633c5bcf36146118a25780633f4ba83a1461181f5780634f1ef2861461164657806350c0d41c146110a65780635290ffc61461101d57806352d1902d14610fb35780635a25831a14610eea5780635a2f406f14610f545780635c975abb14610f245780636cfe372e14610eea5780636d65573f14610eb0578063715018a614610e4657806373f9a5d714610c9357806379f0dc5714610bd95780637b33415414610b9a5780637bae8f5e14610b415780638129fc1c146109d857806383195f8c146109bc5780638456cb59146109365780638bb0a17c146108a35780638da5cb5b1461086d57806395ea5717146107b1578063a8fb85ac14610716578063ad2c30b1146106f8578063ad3cb1cc146106ad578063d1a08e071461068f578063d3158e13146105ca578063d473d18b146105ac578063d8b0e7161461051d578063e1c7a8aa1461041e578063e4938a4f14610383578063e867cecf146102e8578063ec13f2a1146102b7578063f2b887d314610299578063f2fde38b1461026e5763fa9c81a4146101e257600080fd5b3461026957604036600319011261026957610201602435600435611fd3565b9060405190604082016040835281518091526060830190602060608260051b8601019301916000905b82821061023e578580868960208301520390f35b9091929360208061025b600193605f198a82030186528851611bf6565b96019201920190929161022a565b600080fd5b346102695760203660031901126102695761029761028a6119ff565b610292612200565b611f31565b005b34610269576000366003190112610269576020603954604051908152f35b3461026957602036600319011261026957600435600052603d602052602060ff604060002054166040519015158152f35b346102695760203660031901126102695761035860043533600052603260205260ff604060002054168015610362575b61032190611c52565b61033d60ff600080516020612337833981519152541615611c8f565b6103456121aa565b610350811515611ccc565b603454611d18565b6034556001600055005b506000805160206122f7833981519152546001600160a01b03163314610318565b34610269576020366003190112610269576103f360043533600052603260205260ff6040600020541680156103fd575b6103bc90611c52565b6103d860ff600080516020612337833981519152541615611c8f565b6103e06121aa565b6103eb811515611ccc565b603554611d18565b6035556001600055005b506000805160206122f7833981519152546001600160a01b031633146103b3565b34610269576040366003190112610269576104376119ff565b6024359033600052603260205260ff6040600020541680156104fc575b61045d90611c52565b61047960ff600080516020612337833981519152541615611c8f565b6104816121aa565b6001600160a01b031690610496821515611d4f565b6104a1811515611ccc565b81600052603b6020526104ba6040600020918254611d18565b905580600052603b6020527f61a8b1a557e4d03803db90d13ff76db2c25fba3ed24882cecda8c8423b9b2be06020604060002054604051908152a26001600055005b506000805160206122f7833981519152546001600160a01b03163314610454565b34610269576040366003190112610269576105366119ff565b7fd6fc3082ae3a144ca59421d96180398241c1dd021d45d5a24fb5bf96c9f8212f6020610561611a9a565b9261056a612200565b6001600160a01b03169261057f841515611eb5565b83600052603282526105a18160406000209060ff801983541691151516179055565b6040519015158152a2005b34610269576000366003190112610269576020603654604051908152f35b34610269576020366003190112610269577f1d11f8b15a90a85b46868efd6382dd5207f4ab305c5180d209b6250b028aada8602061065c600435336000526032835260ff60406000205416801561066e575b61062590611c52565b61064160ff600080516020612337833981519152541615611c8f565b6106496121aa565b610654811515611ccc565b603854611d18565b80603855604051908152a16001600055005b506000805160206122f7833981519152546001600160a01b0316331461061c565b34610269576000366003190112610269576020603454604051908152f35b34610269576000366003190112610269576106f460408051906106d08183611a31565b60058252640352e302e360dc1b602083015251918291602083526020830190611bb5565b0390f35b34610269576000366003190112610269576020603554604051908152f35b346102695760203660031901126102695761078660043533600052603260205260ff604060002054168015610790575b61074f90611c52565b61076b60ff600080516020612337833981519152541615611c8f565b6107736121aa565b61077e811515611ccc565b603654611d18565b6036556001600055005b506000805160206122f7833981519152546001600160a01b03163314610746565b34610269576020366003190112610269576004356107cd611efa565b5080600052603d6020526107e860ff60406000205416611dd4565b600052603a6020526106f4604060002060066040519161080783611a15565b8054835260018101546001600160a01b031660208401526002810154604084015261083460038201611b11565b606084015260ff60048201541615156080840152600581015460a0840152015460c0820152604051918291602083526020830190611bf6565b34610269576000366003190112610269576000805160206122f7833981519152546040516001600160a01b039091168152602090f35b3461026957602036600319011261026957600435600052603a6020526040600020805460018060a01b036001830154169160028101546108e560038301611b11565b9161092060ff60048301541693600660058401549301549360405197889788526020880152604087015260e0606087015260e0860190611bb5565b921515608085015260a084015260c08301520390f35b346102695760003660031901126102695761094f612200565b6000805160206123378339815191525460ff81166109ab5760019060ff191617600080516020612337833981519152557f62e78cea01bee320cd4e420270b5ea74000d11b0c9f74754ebdbfc544b05a2586020604051338152a1005b63d93c066560e01b60005260046000fd5b3461026957600036600319011261026957602060405160648152f35b34610269576000366003190112610269576000805160206123578339815191525460ff8160401c16159067ffffffffffffffff811680159081610b39575b6001149081610b2f575b159081610b26575b50610b155767ffffffffffffffff1981166001176000805160206123578339815191525581610ae8575b50610a5b612236565b610a63612236565b610a6c33611f31565b610a74612236565b610a7c612236565b610a84612236565b6001600055610a8f57005b68ff0000000000000000196000805160206123578339815191525416600080516020612357833981519152557fc7f505b2f371ae2175ee4913f4499e1f2633a7b5936321eed1cdaeb6115181d2602060405160018152a1005b68ffffffffffffffffff191668010000000000000001176000805160206123578339815191525581610a52565b63f92ee8a960e01b60005260046000fd5b90501583610a28565b303b159150610a20565b839150610a16565b3461026957604036600319011261026957610b5a6119ff565b6001600160a01b03166000908152603c602052604090208054602435919082101561026957602091610b8b91611aa9565b90549060031b1c604051908152f35b34610269576020366003190112610269576001600160a01b03610bbb6119ff565b166000526032602052602060ff604060002054166040519015158152f35b34610269576020366003190112610269576001600160a01b03610bfa6119ff565b16600052603c60205260406000206040518060208354918281520190819360005260206000209060005b818110610c7d5750505081610c3a910382611a31565b6040519182916020830190602084525180915260408301919060005b818110610c64575050500390f35b8251845285945060209384019390920191600101610c56565b8254845260209093019260019283019201610c24565b346102695760403660031901126102695760043567ffffffffffffffff8111610269573660238201121561026957806004013567ffffffffffffffff8111610269576024820191602436918360051b01011161026957610cf1611a9a565b90610cfa612200565b60648111610e0e57908015159060005b838110610d1357005b610d396001600160a01b03610d31610d2c84888a611ea5565b611d3b565b161515611eb5565b306001600160a01b03610d50610d2c84888a611ea5565b1614610dd7576001906001600160a01b03610d6f610d2c83888a611ea5565b166000526032602052610d928360406000209060ff801983541691151516179055565b818060a01b03610da6610d2c83888a611ea5565b167fd6fc3082ae3a144ca59421d96180398241c1dd021d45d5a24fb5bf96c9f8212f6020604051878152a201610d0a565b60405162461bcd60e51b815260206004820152600f60248201526e21b0b73737ba1030b2321039b2b63360891b6044820152606490fd5b60405162461bcd60e51b815260206004820152601060248201526f546f6f206d616e792063616c6c65727360801b6044820152606490fd5b3461026957600036600319011261026957610e5f612200565b6000805160206122f783398151915280546001600160a01b031981169091556000906001600160a01b03167f8be0079c531659141344cd1fd0a4f28419497f9722a3daafe3b4186f6b6457e08280a3005b34610269576020366003190112610269576001600160a01b03610ed16119ff565b16600052603b6020526020604060002054604051908152f35b34610269576020366003190112610269576001600160a01b03610f0b6119ff565b1660005260376020526020604060002054604051908152f35b3461026957600036600319011261026957602060ff60008051602061233783398151915254166040519015158152f35b346102695760203660031901126102695733600052603260205260ff604060002054168015610f92575b610f8790611c52565b610297600435611e19565b506000805160206122f7833981519152546001600160a01b03163314610f7e565b34610269576000366003190112610269577f00000000000000000000000000000000000000000000000000000000000000006001600160a01b0316300361100c5760206040516000805160206123178339815191528152f35b63703e46dd60e11b60005260046000fd5b346102695760003660031901126102695733600052603260205260ff604060002054168015611085575b61105090611c52565b61106c60ff600080516020612337833981519152541615611c8f565b6020611079603354611dc5565b80603355604051908152f35b506000805160206122f7833981519152546001600160a01b03163314611047565b346102695760403660031901126102695760243560043567ffffffffffffffff8211610269578160040160e060031984360301126102695733600052603260205260ff604060002054168015611625575b61110090611c52565b61111c60ff600080516020612337833981519152541615611c8f565b6111246121aa565b81156115eb57818135036115ae5760248301906111536001600160a01b0361114b84611d3b565b161515611d4f565b6044840135936302faf08085116115715760648101916111738382611d92565b9050156115355784600052603d60205260ff60406000205416159283156114c3575b6111aa6084916111a487611d3b565b93611d92565b91909301358015158091036102695784156114ab5742915b6111f3604051956111d287611a15565b898752602087019560018060a01b0316865260408701928b84523691611a53565b606086019081526080860192835260a086019384524260c0870190815260008a8152603a602052604090209651875594516001870180546001600160a01b0319166001600160a01b039290921691909117905590516002860155518051600386019167ffffffffffffffff82116113915761126e8354611ad7565b601f8111611463575b50602090601f83116001146113f35791806112c894926006989796946000926113e8575b50508160011b916000199060031b1c19161790555b511515600486019060ff801983541691151516179055565b51600584015551910155156113a7576000828152603d60205260409020805460ff191660011790556001600160a01b0361130182611d3b565b16600052603c6020526040600020908154906801000000000000000082101561139157611357827f3a3ee326dd9451112d67d1babdaf697562d06e41e2571ddd356b4e9be0de478e946001602095018155611aa9565b815460001960039290921b91821b19169086901b1790556001600160a01b039061138090611d3b565b1693604051908152a35b6001600055005b634e487b7160e01b600052604160045260246000fd5b9091506001600160a01b03906113bc90611d3b565b16907f14796949d4d1a6824063ec05e354db666bde3356a8cf646c6075272b5353185c600080a361138a565b015190508d8061129b565b90601f1983169184600052816000209260005b81811061144b575092600192859260069a9998966112c8989610611432575b505050811b0190556112b0565b015160001960f88460031b161c191690558d8080611425565b92936020600181928786015181550195019301611406565b836000526020600020601f840160051c810191602085106114a1575b601f0160051c01905b8181106114955750611277565b60008155600101611488565b909150819061147f565b86600052603a602052600560406000200154916111c2565b6000868152603a60205260409020600101546001600160a01b03908116906114ea87611d3b565b16146111955760405162461bcd60e51b815260206004820152601760248201527f486f7374206368616e6765206e6f7420616c6c6f7765640000000000000000006044820152606490fd5b60405162461bcd60e51b8152602060048201526014602482015273135bdb99dbd1185d185251081c995c5d5a5c995960621b6044820152606490fd5b60405162461bcd60e51b815260206004820152601560248201527450726963652065786365656473206d6178696d756d60581b6044820152606490fd5b60405162461bcd60e51b8152602060048201526015602482015274135a5cdb585d18da1959081b995d1ddbdc9ac81251605a1b6044820152606490fd5b60405162461bcd60e51b8152602060048201526012602482015271125b9d985b1a59081b995d1ddbdc9ac8125160721b6044820152606490fd5b506000805160206122f7833981519152546001600160a01b031633146110f7565b60403660031901126102695761165a6119ff565b60243567ffffffffffffffff811161026957366023820112156102695761168b903690602481600401359101611a53565b906001600160a01b037f0000000000000000000000000000000000000000000000000000000000000000163081149081156117fc575b5061100c576116ce612200565b6040516352d1902d60e01b81526001600160a01b0382169290602081600481875afa600091816117c8575b506117135783634c9c8ce360e01b60005260045260246000fd5b806000805160206123178339815191528592036117b45750823b156117a05760008051602061231783398151915280546001600160a01b031916821790557fbc7cd75a20ee27fd9adebab32041f755214dbc6bffa90cc0225b39da2e5c2d3b600080a28051156117865761029791612264565b50503461178f57005b63b398979f60e01b60005260046000fd5b634c9c8ce360e01b60005260045260246000fd5b632a87526960e21b60005260045260246000fd5b9091506020813d6020116117f4575b816117e460209383611a31565b81010312610269575190856116f9565b3d91506117d7565b600080516020612317833981519152546001600160a01b031614159050836116c1565b3461026957600036600319011261026957611838612200565b6000805160206123378339815191525460ff8116156118915760ff1916600080516020612337833981519152557f5db9ee0a495bf2e6ff9c91a7834c1ba4fdd244a5e8aa4e537bd38aeae4b073aa6020604051338152a1005b638dfc202b60e01b60005260046000fd5b34610269576020366003190112610269576001600160a01b036118c36119ff565b166000526037602052602060646040600020541015604051908152f35b34610269576000366003190112610269576020603854604051908152f35b34610269576000366003190112610269576020603354604051908152f35b34610269576020366003190112610269577f183b8a54434f6b5b6e53ebd9db6e6ecec8b065c630a527f61c52b9770fb6248c60206119ae600435336000526032835260ff6040600020541680156119c0575b61197790611c52565b61199360ff600080516020612337833981519152541615611c8f565b61199b6121aa565b6119a6811515611ccc565b603954611d18565b80603955604051908152a16001600055005b506000805160206122f7833981519152546001600160a01b0316331461196e565b34610269576000366003190112610269576020906002600054148152f35b600435906001600160a01b038216820361026957565b60e0810190811067ffffffffffffffff82111761139157604052565b90601f8019910116810190811067ffffffffffffffff82111761139157604052565b92919267ffffffffffffffff82116113915760405191611a7d601f8201601f191660200184611a31565b829481845281830111610269578281602093846000960137010152565b60243590811515820361026957565b8054821015611ac15760005260206000200190600090565b634e487b7160e01b600052603260045260246000fd5b90600182811c92168015611b07575b6020831014611af157565b634e487b7160e01b600052602260045260246000fd5b91607f1691611ae6565b9060405191826000825492611b2584611ad7565b8084529360018116908115611b935750600114611b4c575b50611b4a92500383611a31565b565b90506000929192526020600020906000915b818310611b77575050906020611b4a9282010138611b3d565b6020919350806001915483858901015201910190918492611b5e565b905060209250611b4a94915060ff191682840152151560051b82010138611b3d565b919082519283825260005b848110611be1575050826000602080949584010152601f8019910116010190565b80602080928401015182828601015201611bc0565b908151815260018060a01b0360208301511660208201526040820151604082015260c080611c33606085015160e0606086015260e0850190611bb5565b9360808101511515608085015260a081015160a0850152015191015290565b15611c5957565b60405162461bcd60e51b815260206004820152600e60248201526d139bdd08185d5d1a1bdc9a5e995960921b6044820152606490fd5b15611c9657565b60405162461bcd60e51b815260206004820152600e60248201526d14dd1bdc9859d9481c185d5cd95960921b6044820152606490fd5b15611cd357565b60405162461bcd60e51b815260206004820152601d60248201527f416d6f756e74206d7573742062652067726561746572207468616e20300000006044820152606490fd5b91908201809211611d2557565b634e487b7160e01b600052601160045260246000fd5b356001600160a01b03811681036102695790565b15611d5657565b60405162461bcd60e51b8152602060048201526014602482015273496e76616c696420686f7374206164647265737360601b6044820152606490fd5b903590601e1981360301821215610269570180359067ffffffffffffffff82116102695760200191813603831361026957565b6000198114611d255760010190565b15611ddb57565b60405162461bcd60e51b815260206004820152601660248201527513995d1ddbdc9ac8191bd95cc81b9bdd08195e1a5cdd60521b6044820152606490fd5b80600052603d602052611e3360ff60406000205416611dd4565b80600052603a60205260ff6004604060002001541615611ea2576000818152603a6020526040812060048101805460ff19169055426006820155600101546001600160a01b031691907f14796949d4d1a6824063ec05e354db666bde3356a8cf646c6075272b5353185c9080a3565b50565b9190811015611ac15760051b0190565b15611ebc57565b60405162461bcd60e51b8152602060048201526016602482015275496e76616c69642063616c6c6572206164647265737360501b6044820152606490fd5b60405190611f0782611a15565b600060c0838281528260208201528260408201526060808201528260808201528260a08201520152565b6001600160a01b03168015611f91576000805160206122f783398151915280546001600160a01b0319811683179091556001600160a01b03167f8be0079c531659141344cd1fd0a4f28419497f9722a3daafe3b4186f6b6457e0600080a3565b631e4fbdf760e01b600052600060045260246000fd5b67ffffffffffffffff81116113915760051b60200190565b8051821015611ac15760209160051b010190565b6033549291831580156121a0575b61216457611fef9082611d18565b83811161215d575b600091805b828110612120575061200d83611fa7565b9261201b6040519485611a31565b80845261202a601f1991611fa7565b0160005b8181106121095750506000905b828110612049575050509190565b60018101808211611d255780600052603d60205260ff60406000205416612074575b5060010161203b565b6001919261210291600052603a602052604060002060066040519161209883611a15565b80548352858060a01b0386820154166020840152600281015460408401526120c260038201611b11565b606084015260ff60048201541615156080840152600581015460a0840152015460c08201526120f18288611fbf565b526120fc8187611fbf565b50611dc5565b919061206b565b602090612114611efa565b8282880101520161202e565b60018101808211611d2557600052603d60205260ff60406000205416612149575b600101611ffc565b92612155600191611dc5565b939050612141565b5082611ff7565b50506040516000612176602083611a31565b81526000805b8181106121895750509190565b602090612194611efa565b8282860101520161217c565b5083821015611fe1565b6002600054146121bb576002600055565b60405162461bcd60e51b815260206004820152601f60248201527f5265656e7472616e637947756172643a207265656e7472616e742063616c6c006044820152606490fd5b6000805160206122f7833981519152546001600160a01b0316330361222157565b63118cdaa760e01b6000523360045260246000fd5b60ff6000805160206123578339815191525460401c161561225357565b631afcd79f60e31b60005260046000fd5b9060008091602081519101845af480806122e3575b1561229a5750506040513d81523d6000602083013e60203d82010160405290565b156122c057639996b31560e01b60009081526001600160a01b0391909116600452602490fd5b3d156122d2576040513d6000823e3d90fd5b63d6bda27560e01b60005260046000fd5b503d1515806122795750813b151561227956fe9016d09d72d40fdae2fd8ceac6b6234c7706214fd39c1cd1e609a0528c199300360894a13ba1a3210667c828492db98dca3e2076cc3735a920a3ca505d382bbccd5ed15c6e187e77e9aee88184c21f4f2182ab5827cb3b7e07fbedcd63f03300f0c57e16840df040f15088dc2f81fe391c3923bec73e23a9662efc9c229c6a00a264697066735822122068a8b6406eb1f96272a854aa3a470ee33348b1ec2eb810c37d11d3e2235e0d6164736f6c634300081a0033","opcodes":"PUSH1 0xA0 DUP1 PUSH1 0x40 MSTORE CALLVALUE PUSH1 0x29 JUMPI ADDRESS PUSH1 0x80 MSTORE PUSH2 0x23AC SWAP1 DUP2 PUSH2 0x2F DUP3 CODECOPY PUSH1 0x80 MLOAD DUP2 DUP2 DUP2 PUSH2 0xFC6 ADD MSTORE PUSH2 0x1696 ADD MSTORE RETURN JUMPDEST PUSH1 0x0 DUP1 REVERT INVALID PUSH1 0x80 DUP1 PUSH1 0x40 MSTORE PUSH1 0x4 CALLDATASIZE LT ISZERO PUSH2 0x13 JUMPI PUSH1 0x0 DUP1 REVERT JUMPDEST PUSH1 0x0 CALLDATALOAD PUSH1 0xE0 SHR SWAP1 DUP2 PUSH4 0x3D50D66 EQ PUSH2 0x19E1 JUMPI POP DUP1 PUSH4 0x1BC970FE EQ PUSH2 0x191C JUMPI DUP1 PUSH4 0x217C682D EQ PUSH2 0x18FE JUMPI DUP1 PUSH4 0x29C718B5 EQ PUSH2 0xEB0 JUMPI DUP1 PUSH4 0x3C193CC6 EQ PUSH2 0x18E0 JUMPI DUP1 PUSH4 0x3C5BCF36 EQ PUSH2 0x18A2 JUMPI DUP1 PUSH4 0x3F4BA83A EQ PUSH2 0x181F JUMPI DUP1 PUSH4 0x4F1EF286 EQ PUSH2 0x1646 JUMPI DUP1 PUSH4 0x50C0D41C EQ PUSH2 0x10A6 JUMPI DUP1 PUSH4 0x5290FFC6 EQ PUSH2 0x101D JUMPI DUP1 PUSH4 0x52D1902D EQ PUSH2 0xFB3 JUMPI DUP1 PUSH4 0x5A25831A EQ PUSH2 0xEEA JUMPI DUP1 PUSH4 0x5A2F406F EQ PUSH2 0xF54 JUMPI DUP1 PUSH4 0x5C975ABB EQ PUSH2 0xF24 JUMPI DUP1 PUSH4 0x6CFE372E EQ PUSH2 0xEEA JUMPI DUP1 PUSH4 0x6D65573F EQ PUSH2 0xEB0 JUMPI DUP1 PUSH4 0x715018A6 EQ PUSH2 0xE46 JUMPI DUP1 PUSH4 0x73F9A5D7 EQ PUSH2 0xC93 JUMPI DUP1 PUSH4 0x79F0DC57 EQ PUSH2 0xBD9 JUMPI DUP1 PUSH4 0x7B334154 EQ PUSH2 0xB9A JUMPI DUP1 PUSH4 0x7BAE8F5E EQ PUSH2 0xB41 JUMPI DUP1 PUSH4 0x8129FC1C EQ PUSH2 0x9D8 JUMPI DUP1 PUSH4 0x83195F8C EQ PUSH2 0x9BC JUMPI DUP1 PUSH4 0x8456CB59 EQ PUSH2 0x936 JUMPI DUP1 PUSH4 0x8BB0A17C EQ PUSH2 0x8A3 JUMPI DUP1 PUSH4 0x8DA5CB5B EQ PUSH2 0x86D JUMPI DUP1 PUSH4 0x95EA5717 EQ PUSH2 0x7B1 JUMPI DUP1 PUSH4 0xA8FB85AC EQ PUSH2 0x716 JUMPI DUP1 PUSH4 0xAD2C30B1 EQ PUSH2 0x6F8 JUMPI DUP1 PUSH4 0xAD3CB1CC EQ PUSH2 0x6AD JUMPI DUP1 PUSH4 0xD1A08E07 EQ PUSH2 0x68F JUMPI DUP1 PUSH4 0xD3158E13 EQ PUSH2 0x5CA JUMPI DUP1 PUSH4 0xD473D18B EQ PUSH2 0x5AC JUMPI DUP1 PUSH4 0xD8B0E716 EQ PUSH2 0x51D JUMPI DUP1 PUSH4 0xE1C7A8AA EQ PUSH2 0x41E JUMPI DUP1 PUSH4 0xE4938A4F EQ PUSH2 0x383 JUMPI DUP1 PUSH4 0xE867CECF EQ PUSH2 0x2E8 JUMPI DUP1 PUSH4 0xEC13F2A1 EQ PUSH2 0x2B7 JUMPI DUP1 PUSH4 0xF2B887D3 EQ PUSH2 0x299 JUMPI DUP1 PUSH4 0xF2FDE38B EQ PUSH2 0x26E JUMPI PUSH4 0xFA9C81A4 EQ PUSH2 0x1E2 JUMPI PUSH1 0x0 DUP1 REVERT JUMPDEST CALLVALUE PUSH2 0x269 JUMPI PUSH1 0x40 CALLDATASIZE PUSH1 0x3 NOT ADD SLT PUSH2 0x269 JUMPI PUSH2 0x201 PUSH1 0x24 CALLDATALOAD PUSH1 0x4 CALLDATALOAD PUSH2 0x1FD3 JUMP JUMPDEST SWAP1 PUSH1 0x40 MLOAD SWAP1 PUSH1 0x40 DUP3 ADD PUSH1 0x40 DUP4 MSTORE DUP2 MLOAD DUP1 SWAP2 MSTORE PUSH1 0x60 DUP4 ADD SWAP1 PUSH1 0x20 PUSH1 0x60 DUP3 PUSH1 0x5 SHL DUP7 ADD ADD SWAP4 ADD SWAP2 PUSH1 0x0 SWAP1 JUMPDEST DUP3 DUP3 LT PUSH2 0x23E JUMPI DUP6 DUP1 DUP7 DUP10 PUSH1 0x20 DUP4 ADD MSTORE SUB SWAP1 RETURN JUMPDEST SWAP1 SWAP2 SWAP3 SWAP4 PUSH1 0x20 DUP1 PUSH2 0x25B PUSH1 0x1 SWAP4 PUSH1 0x5F NOT DUP11 DUP3 SUB ADD DUP7 MSTORE DUP9 MLOAD PUSH2 0x1BF6 JUMP JUMPDEST SWAP7 ADD SWAP3 ADD SWAP3 ADD SWAP1 SWAP3 SWAP2 PUSH2 0x22A JUMP JUMPDEST PUSH1 0x0 DUP1 REVERT JUMPDEST CALLVALUE PUSH2 0x269 JUMPI PUSH1 0x20 CALLDATASIZE PUSH1 0x3 NOT ADD SLT PUSH2 0x269 JUMPI PUSH2 0x297 PUSH2 0x28A PUSH2 0x19FF JUMP JUMPDEST PUSH2 0x292 PUSH2 0x2200 JUMP JUMPDEST PUSH2 0x1F31 JUMP JUMPDEST STOP JUMPDEST CALLVALUE PUSH2 0x269 JUMPI PUSH1 0x0 CALLDATASIZE PUSH1 0x3 NOT ADD SLT PUSH2 0x269 JUMPI PUSH1 0x20 PUSH1 0x39 SLOAD PUSH1 0x40 MLOAD SWAP1 DUP2 MSTORE RETURN JUMPDEST CALLVALUE PUSH2 0x269 JUMPI PUSH1 0x20 CALLDATASIZE PUSH1 0x3 NOT ADD SLT PUSH2 0x269 JUMPI PUSH1 0x4 CALLDATALOAD PUSH1 0x0 MSTORE PUSH1 0x3D PUSH1 0x20 MSTORE PUSH1 0x20 PUSH1 0xFF PUSH1 0x40 PUSH1 0x0 KECCAK256 SLOAD AND PUSH1 0x40 MLOAD SWAP1 ISZERO ISZERO DUP2 MSTORE RETURN JUMPDEST CALLVALUE PUSH2 0x269 JUMPI PUSH1 0x20 CALLDATASIZE PUSH1 0x3 NOT ADD SLT PUSH2 0x269 JUMPI PUSH2 0x358 PUSH1 0x4 CALLDATALOAD CALLER PUSH1 0x0 MSTORE PUSH1 0x32 PUSH1 0x20 MSTORE PUSH1 0xFF PUSH1 0x40 PUSH1 0x0 KECCAK256 SLOAD AND DUP1 ISZERO PUSH2 0x362 JUMPI JUMPDEST PUSH2 0x321 SWAP1 PUSH2 0x1C52 JUMP JUMPDEST PUSH2 0x33D PUSH1 0xFF PUSH1 0x0 DUP1 MLOAD PUSH1 0x20 PUSH2 0x2337 DUP4 CODECOPY DUP2 MLOAD SWAP2 MSTORE SLOAD AND ISZERO PUSH2 0x1C8F JUMP JUMPDEST PUSH2 0x345 PUSH2 0x21AA JUMP JUMPDEST PUSH2 0x350 DUP2 ISZERO ISZERO PUSH2 0x1CCC JUMP JUMPDEST PUSH1 0x34 SLOAD PUSH2 0x1D18 JUMP JUMPDEST PUSH1 0x34 SSTORE PUSH1 0x1 PUSH1 0x0 SSTORE STOP JUMPDEST POP PUSH1 0x0 DUP1 MLOAD PUSH1 0x20 PUSH2 0x22F7 DUP4 CODECOPY DUP2 MLOAD SWAP2 MSTORE SLOAD PUSH1 0x1 PUSH1 0x1 PUSH1 0xA0 SHL SUB AND CALLER EQ PUSH2 0x318 JUMP JUMPDEST CALLVALUE PUSH2 0x269 JUMPI PUSH1 0x20 CALLDATASIZE PUSH1 0x3 NOT ADD SLT PUSH2 0x269 JUMPI PUSH2 0x3F3 PUSH1 0x4 CALLDATALOAD CALLER PUSH1 0x0 MSTORE PUSH1 0x32 PUSH1 0x20 MSTORE PUSH1 0xFF PUSH1 0x40 PUSH1 0x0 KECCAK256 SLOAD AND DUP1 ISZERO PUSH2 0x3FD JUMPI JUMPDEST PUSH2 0x3BC SWAP1 PUSH2 0x1C52 JUMP JUMPDEST PUSH2 0x3D8 PUSH1 0xFF PUSH1 0x0 DUP1 MLOAD PUSH1 0x20 PUSH2 0x2337 DUP4 CODECOPY DUP2 MLOAD SWAP2 MSTORE SLOAD AND ISZERO PUSH2 0x1C8F JUMP JUMPDEST PUSH2 0x3E0 PUSH2 0x21AA JUMP JUMPDEST PUSH2 0x3EB DUP2 ISZERO ISZERO PUSH2 0x1CCC JUMP JUMPDEST PUSH1 0x35 SLOAD PUSH2 0x1D18 JUMP JUMPDEST PUSH1 0x35 SSTORE PUSH1 0x1 PUSH1 0x0 SSTORE STOP JUMPDEST POP PUSH1 0x0 DUP1 MLOAD PUSH1 0x20 PUSH2 0x22F7 DUP4 CODECOPY DUP2 MLOAD SWAP2 MSTORE SLOAD PUSH1 0x1 PUSH1 0x1 PUSH1 0xA0 SHL SUB AND CALLER EQ PUSH2 0x3B3 JUMP JUMPDEST CALLVALUE PUSH2 0x269 JUMPI PUSH1 0x40 CALLDATASIZE PUSH1 0x3 NOT ADD SLT PUSH2 0x269 JUMPI PUSH2 0x437 PUSH2 0x19FF JUMP JUMPDEST PUSH1 0x24 CALLDATALOAD SWAP1 CALLER PUSH1 0x0 MSTORE PUSH1 0x32 PUSH1 0x20 MSTORE PUSH1 0xFF PUSH1 0x40 PUSH1 0x0 KECCAK256 SLOAD AND DUP1 ISZERO PUSH2 0x4FC JUMPI JUMPDEST PUSH2 0x45D SWAP1 PUSH2 0x1C52 JUMP JUMPDEST PUSH2 0x479 PUSH1 0xFF PUSH1 0x0 DUP1 MLOAD PUSH1 0x20 PUSH2 0x2337 DUP4 CODECOPY DUP2 MLOAD SWAP2 MSTORE SLOAD AND ISZERO PUSH2 0x1C8F JUMP JUMPDEST PUSH2 0x481 PUSH2 0x21AA JUMP JUMPDEST PUSH1 0x1 PUSH1 0x1 PUSH1 0xA0 SHL SUB AND SWAP1 PUSH2 0x496 DUP3 ISZERO ISZERO PUSH2 0x1D4F JUMP JUMPDEST PUSH2 0x4A1 DUP2 ISZERO ISZERO PUSH2 0x1CCC JUMP JUMPDEST DUP2 PUSH1 0x0 MSTORE PUSH1 0x3B PUSH1 0x20 MSTORE PUSH2 0x4BA PUSH1 0x40 PUSH1 0x0 KECCAK256 SWAP2 DUP3 SLOAD PUSH2 0x1D18 JUMP JUMPDEST SWAP1 SSTORE DUP1 PUSH1 0x0 MSTORE PUSH1 0x3B PUSH1 0x20 MSTORE PUSH32 0x61A8B1A557E4D03803DB90D13FF76DB2C25FBA3ED24882CECDA8C8423B9B2BE0 PUSH1 0x20 PUSH1 0x40 PUSH1 0x0 KECCAK256 SLOAD PUSH1 0x40 MLOAD SWAP1 DUP2 MSTORE LOG2 PUSH1 0x1 PUSH1 0x0 SSTORE STOP JUMPDEST POP PUSH1 0x0 DUP1 MLOAD PUSH1 0x20 PUSH2 0x22F7 DUP4 CODECOPY DUP2 MLOAD SWAP2 MSTORE SLOAD PUSH1 0x1 PUSH1 0x1 PUSH1 0xA0 SHL SUB AND CALLER EQ PUSH2 0x454 JUMP JUMPDEST CALLVALUE PUSH2 0x269 JUMPI PUSH1 0x40 CALLDATASIZE PUSH1 0x3 NOT ADD SLT PUSH2 0x269 JUMPI PUSH2 0x536 PUSH2 0x19FF JUMP JUMPDEST PUSH32 0xD6FC3082AE3A144CA59421D96180398241C1DD021D45D5A24FB5BF96C9F8212F PUSH1 0x20 PUSH2 0x561 PUSH2 0x1A9A JUMP JUMPDEST SWAP3 PUSH2 0x56A PUSH2 0x2200 JUMP JUMPDEST PUSH1 0x1 PUSH1 0x1 PUSH1 0xA0 SHL SUB AND SWAP3 PUSH2 0x57F DUP5 ISZERO ISZERO PUSH2 0x1EB5 JUMP JUMPDEST DUP4 PUSH1 0x0 MSTORE PUSH1 0x32 DUP3 MSTORE PUSH2 0x5A1 DUP2 PUSH1 0x40 PUSH1 0x0 KECCAK256 SWAP1 PUSH1 0xFF DUP1 NOT DUP4 SLOAD AND SWAP2 ISZERO ISZERO AND OR SWAP1 SSTORE JUMP JUMPDEST PUSH1 0x40 MLOAD SWAP1 ISZERO ISZERO DUP2 MSTORE LOG2 STOP JUMPDEST CALLVALUE PUSH2 0x269 JUMPI PUSH1 0x0 CALLDATASIZE PUSH1 0x3 NOT ADD SLT PUSH2 0x269 JUMPI PUSH1 0x20 PUSH1 0x36 SLOAD PUSH1 0x40 MLOAD SWAP1 DUP2 MSTORE RETURN JUMPDEST CALLVALUE PUSH2 0x269 JUMPI PUSH1 0x20 CALLDATASIZE PUSH1 0x3 NOT ADD SLT PUSH2 0x269 JUMPI PUSH32 0x1D11F8B15A90A85B46868EFD6382DD5207F4AB305C5180D209B6250B028AADA8 PUSH1 0x20 PUSH2 0x65C PUSH1 0x4 CALLDATALOAD CALLER PUSH1 0x0 MSTORE PUSH1 0x32 DUP4 MSTORE PUSH1 0xFF PUSH1 0x40 PUSH1 0x0 KECCAK256 SLOAD AND DUP1 ISZERO PUSH2 0x66E JUMPI JUMPDEST PUSH2 0x625 SWAP1 PUSH2 0x1C52 JUMP JUMPDEST PUSH2 0x641 PUSH1 0xFF PUSH1 0x0 DUP1 MLOAD PUSH1 0x20 PUSH2 0x2337 DUP4 CODECOPY DUP2 MLOAD SWAP2 MSTORE SLOAD AND ISZERO PUSH2 0x1C8F JUMP JUMPDEST PUSH2 0x649 PUSH2 0x21AA JUMP JUMPDEST PUSH2 0x654 DUP2 ISZERO ISZERO PUSH2 0x1CCC JUMP JUMPDEST PUSH1 0x38 SLOAD PUSH2 0x1D18 JUMP JUMPDEST DUP1 PUSH1 0x38 SSTORE PUSH1 0x40 MLOAD SWAP1 DUP2 MSTORE LOG1 PUSH1 0x1 PUSH1 0x0 SSTORE STOP JUMPDEST POP PUSH1 0x0 DUP1 MLOAD PUSH1 0x20 PUSH2 0x22F7 DUP4 CODECOPY DUP2 MLOAD SWAP2 MSTORE SLOAD PUSH1 0x1 PUSH1 0x1 PUSH1 0xA0 SHL SUB AND CALLER EQ PUSH2 0x61C JUMP JUMPDEST CALLVALUE PUSH2 0x269 JUMPI PUSH1 0x0 CALLDATASIZE PUSH1 0x3 NOT ADD SLT PUSH2 0x269 JUMPI PUSH1 0x20 PUSH1 0x34 SLOAD PUSH1 0x40 MLOAD SWAP1 DUP2 MSTORE RETURN JUMPDEST CALLVALUE PUSH2 0x269 JUMPI PUSH1 0x0 CALLDATASIZE PUSH1 0x3 NOT ADD SLT PUSH2 0x269 JUMPI PUSH2 0x6F4 PUSH1 0x40 DUP1 MLOAD SWAP1 PUSH2 0x6D0 DUP2 DUP4 PUSH2 0x1A31 JUMP JUMPDEST PUSH1 0x5 DUP3 MSTORE PUSH5 0x352E302E3 PUSH1 0xDC SHL PUSH1 0x20 DUP4 ADD MSTORE MLOAD SWAP2 DUP3 SWAP2 PUSH1 0x20 DUP4 MSTORE PUSH1 0x20 DUP4 ADD SWAP1 PUSH2 0x1BB5 JUMP JUMPDEST SUB SWAP1 RETURN JUMPDEST CALLVALUE PUSH2 0x269 JUMPI PUSH1 0x0 CALLDATASIZE PUSH1 0x3 NOT ADD SLT PUSH2 0x269 JUMPI PUSH1 0x20 PUSH1 0x35 SLOAD PUSH1 0x40 MLOAD SWAP1 DUP2 MSTORE RETURN JUMPDEST CALLVALUE PUSH2 0x269 JUMPI PUSH1 0x20 CALLDATASIZE PUSH1 0x3 NOT ADD SLT PUSH2 0x269 JUMPI PUSH2 0x786 PUSH1 0x4 CALLDATALOAD CALLER PUSH1 0x0 MSTORE PUSH1 0x32 PUSH1 0x20 MSTORE PUSH1 0xFF PUSH1 0x40 PUSH1 0x0 KECCAK256 SLOAD AND DUP1 ISZERO PUSH2 0x790 JUMPI JUMPDEST PUSH2 0x74F SWAP1 PUSH2 0x1C52 JUMP JUMPDEST PUSH2 0x76B PUSH1 0xFF PUSH1 0x0 DUP1 MLOAD PUSH1 0x20 PUSH2 0x2337 DUP4 CODECOPY DUP2 MLOAD SWAP2 MSTORE SLOAD AND ISZERO PUSH2 0x1C8F JUMP JUMPDEST PUSH2 0x773 PUSH2 0x21AA JUMP JUMPDEST PUSH2 0x77E DUP2 ISZERO ISZERO PUSH2 0x1CCC JUMP JUMPDEST PUSH1 0x36 SLOAD PUSH2 0x1D18 JUMP JUMPDEST PUSH1 0x36 SSTORE PUSH1 0x1 PUSH1 0x0 SSTORE STOP JUMPDEST POP PUSH1 0x0 DUP1 MLOAD PUSH1 0x20 PUSH2 0x22F7 DUP4 CODECOPY DUP2 MLOAD SWAP2 MSTORE SLOAD PUSH1 0x1 PUSH1 0x1 PUSH1 0xA0 SHL SUB AND CALLER EQ PUSH2 0x746 JUMP JUMPDEST CALLVALUE PUSH2 0x269 JUMPI PUSH1 0x20 CALLDATASIZE PUSH1 0x3 NOT ADD SLT PUSH2 0x269 JUMPI PUSH1 0x4 CALLDATALOAD PUSH2 0x7CD PUSH2 0x1EFA JUMP JUMPDEST POP DUP1 PUSH1 0x0 MSTORE PUSH1 0x3D PUSH1 0x20 MSTORE PUSH2 0x7E8 PUSH1 0xFF PUSH1 0x40 PUSH1 0x0 KECCAK256 SLOAD AND PUSH2 0x1DD4 JUMP JUMPDEST PUSH1 0x0 MSTORE PUSH1 0x3A PUSH1 0x20 MSTORE PUSH2 0x6F4 PUSH1 0x40 PUSH1 0x0 KECCAK256 PUSH1 0x6 PUSH1 0x40 MLOAD SWAP2 PUSH2 0x807 DUP4 PUSH2 0x1A15 JUMP JUMPDEST DUP1 SLOAD DUP4 MSTORE PUSH1 0x1 DUP2 ADD SLOAD PUSH1 0x1 PUSH1 0x1 PUSH1 0xA0 SHL SUB AND PUSH1 0x20 DUP5 ADD MSTORE PUSH1 0x2 DUP2 ADD SLOAD PUSH1 0x40 DUP5 ADD MSTORE PUSH2 0x834 PUSH1 0x3 DUP3 ADD PUSH2 0x1B11 JUMP JUMPDEST PUSH1 0x60 DUP5 ADD MSTORE PUSH1 0xFF PUSH1 0x4 DUP3 ADD SLOAD AND ISZERO ISZERO PUSH1 0x80 DUP5 ADD MSTORE PUSH1 0x5 DUP2 ADD SLOAD PUSH1 0xA0 DUP5 ADD MSTORE ADD SLOAD PUSH1 0xC0 DUP3 ADD MSTORE PUSH1 0x40 MLOAD SWAP2 DUP3 SWAP2 PUSH1 0x20 DUP4 MSTORE PUSH1 0x20 DUP4 ADD SWAP1 PUSH2 0x1BF6 JUMP JUMPDEST CALLVALUE PUSH2 0x269 JUMPI PUSH1 0x0 CALLDATASIZE PUSH1 0x3 NOT ADD SLT PUSH2 0x269 JUMPI PUSH1 0x0 DUP1 MLOAD PUSH1 0x20 PUSH2 0x22F7 DUP4 CODECOPY DUP2 MLOAD SWAP2 MSTORE SLOAD PUSH1 0x40 MLOAD PUSH1 0x1 PUSH1 0x1 PUSH1 0xA0 SHL SUB SWAP1 SWAP2 AND DUP2 MSTORE PUSH1 0x20 SWAP1 RETURN JUMPDEST CALLVALUE PUSH2 0x269 JUMPI PUSH1 0x20 CALLDATASIZE PUSH1 0x3 NOT ADD SLT PUSH2 0x269 JUMPI PUSH1 0x4 CALLDATALOAD PUSH1 0x0 MSTORE PUSH1 0x3A PUSH1 0x20 MSTORE PUSH1 0x40 PUSH1 0x0 KECCAK256 DUP1 SLOAD PUSH1 0x1 DUP1 PUSH1 0xA0 SHL SUB PUSH1 0x1 DUP4 ADD SLOAD AND SWAP2 PUSH1 0x2 DUP2 ADD SLOAD PUSH2 0x8E5 PUSH1 0x3 DUP4 ADD PUSH2 0x1B11 JUMP JUMPDEST SWAP2 PUSH2 0x920 PUSH1 0xFF PUSH1 0x4 DUP4 ADD SLOAD AND SWAP4 PUSH1 0x6 PUSH1 0x5 DUP5 ADD SLOAD SWAP4 ADD SLOAD SWAP4 PUSH1 0x40 MLOAD SWAP8 DUP9 SWAP8 DUP9 MSTORE PUSH1 0x20 DUP9 ADD MSTORE PUSH1 0x40 DUP8 ADD MSTORE PUSH1 0xE0 PUSH1 0x60 DUP8 ADD MSTORE PUSH1 0xE0 DUP7 ADD SWAP1 PUSH2 0x1BB5 JUMP JUMPDEST SWAP3 ISZERO ISZERO PUSH1 0x80 DUP6 ADD MSTORE PUSH1 0xA0 DUP5 ADD MSTORE PUSH1 0xC0 DUP4 ADD MSTORE SUB SWAP1 RETURN JUMPDEST CALLVALUE PUSH2 0x269 JUMPI PUSH1 0x0 CALLDATASIZE PUSH1 0x3 NOT ADD SLT PUSH2 0x269 JUMPI PUSH2 0x94F PUSH2 0x2200 JUMP JUMPDEST PUSH1 0x0 DUP1 MLOAD PUSH1 0x20 PUSH2 0x2337 DUP4 CODECOPY DUP2 MLOAD SWAP2 MSTORE SLOAD PUSH1 0xFF DUP2 AND PUSH2 0x9AB JUMPI PUSH1 0x1 SWAP1 PUSH1 0xFF NOT AND OR PUSH1 0x0 DUP1 MLOAD PUSH1 0x20 PUSH2 0x2337 DUP4 CODECOPY DUP2 MLOAD SWAP2 MSTORE SSTORE PUSH32 0x62E78CEA01BEE320CD4E420270B5EA74000D11B0C9F74754EBDBFC544B05A258 PUSH1 0x20 PUSH1 0x40 MLOAD CALLER DUP2 MSTORE LOG1 STOP JUMPDEST PUSH4 0xD93C0665 PUSH1 0xE0 SHL PUSH1 0x0 MSTORE PUSH1 0x4 PUSH1 0x0 REVERT JUMPDEST CALLVALUE PUSH2 0x269 JUMPI PUSH1 0x0 CALLDATASIZE PUSH1 0x3 NOT ADD SLT PUSH2 0x269 JUMPI PUSH1 0x20 PUSH1 0x40 MLOAD PUSH1 0x64 DUP2 MSTORE RETURN JUMPDEST CALLVALUE PUSH2 0x269 JUMPI PUSH1 0x0 CALLDATASIZE PUSH1 0x3 NOT ADD SLT PUSH2 0x269 JUMPI PUSH1 0x0 DUP1 MLOAD PUSH1 0x20 PUSH2 0x2357 DUP4 CODECOPY DUP2 MLOAD SWAP2 MSTORE SLOAD PUSH1 0xFF DUP2 PUSH1 0x40 SHR AND ISZERO SWAP1 PUSH8 0xFFFFFFFFFFFFFFFF DUP2 AND DUP1 ISZERO SWAP1 DUP2 PUSH2 0xB39 JUMPI JUMPDEST PUSH1 0x1 EQ SWAP1 DUP2 PUSH2 0xB2F JUMPI JUMPDEST ISZERO SWAP1 DUP2 PUSH2 0xB26 JUMPI JUMPDEST POP PUSH2 0xB15 JUMPI PUSH8 0xFFFFFFFFFFFFFFFF NOT DUP2 AND PUSH1 0x1 OR PUSH1 0x0 DUP1 MLOAD PUSH1 0x20 PUSH2 0x2357 DUP4 CODECOPY DUP2 MLOAD SWAP2 MSTORE SSTORE DUP2 PUSH2 0xAE8 JUMPI JUMPDEST POP PUSH2 0xA5B PUSH2 0x2236 JUMP JUMPDEST PUSH2 0xA63 PUSH2 0x2236 JUMP JUMPDEST PUSH2 0xA6C CALLER PUSH2 0x1F31 JUMP JUMPDEST PUSH2 0xA74 PUSH2 0x2236 JUMP JUMPDEST PUSH2 0xA7C PUSH2 0x2236 JUMP JUMPDEST PUSH2 0xA84 PUSH2 0x2236 JUMP JUMPDEST PUSH1 0x1 PUSH1 0x0 SSTORE PUSH2 0xA8F JUMPI STOP JUMPDEST PUSH9 0xFF0000000000000000 NOT PUSH1 0x0 DUP1 MLOAD PUSH1 0x20 PUSH2 0x2357 DUP4 CODECOPY DUP2 MLOAD SWAP2 MSTORE SLOAD AND PUSH1 0x0 DUP1 MLOAD PUSH1 0x20 PUSH2 0x2357 DUP4 CODECOPY DUP2 MLOAD SWAP2 MSTORE SSTORE PUSH32 0xC7F505B2F371AE2175EE4913F4499E1F2633A7B5936321EED1CDAEB6115181D2 PUSH1 0x20 PUSH1 0x40 MLOAD PUSH1 0x1 DUP2 MSTORE LOG1 STOP JUMPDEST PUSH9 0xFFFFFFFFFFFFFFFFFF NOT AND PUSH9 0x10000000000000001 OR PUSH1 0x0 DUP1 MLOAD PUSH1 0x20 PUSH2 0x2357 DUP4 CODECOPY DUP2 MLOAD SWAP2 MSTORE SSTORE DUP2 PUSH2 0xA52 JUMP JUMPDEST PUSH4 0xF92EE8A9 PUSH1 0xE0 SHL PUSH1 0x0 MSTORE PUSH1 0x4 PUSH1 0x0 REVERT JUMPDEST SWAP1 POP ISZERO DUP4 PUSH2 0xA28 JUMP JUMPDEST ADDRESS EXTCODESIZE ISZERO SWAP2 POP PUSH2 0xA20 JUMP JUMPDEST DUP4 SWAP2 POP PUSH2 0xA16 JUMP JUMPDEST CALLVALUE PUSH2 0x269 JUMPI PUSH1 0x40 CALLDATASIZE PUSH1 0x3 NOT ADD SLT PUSH2 0x269 JUMPI PUSH2 0xB5A PUSH2 0x19FF JUMP JUMPDEST PUSH1 0x1 PUSH1 0x1 PUSH1 0xA0 SHL SUB AND PUSH1 0x0 SWAP1 DUP2 MSTORE PUSH1 0x3C PUSH1 0x20 MSTORE PUSH1 0x40 SWAP1 KECCAK256 DUP1 SLOAD PUSH1 0x24 CALLDATALOAD SWAP2 SWAP1 DUP3 LT ISZERO PUSH2 0x269 JUMPI PUSH1 0x20 SWAP2 PUSH2 0xB8B SWAP2 PUSH2 0x1AA9 JUMP JUMPDEST SWAP1 SLOAD SWAP1 PUSH1 0x3 SHL SHR PUSH1 0x40 MLOAD SWAP1 DUP2 MSTORE RETURN JUMPDEST CALLVALUE PUSH2 0x269 JUMPI PUSH1 0x20 CALLDATASIZE PUSH1 0x3 NOT ADD SLT PUSH2 0x269 JUMPI PUSH1 0x1 PUSH1 0x1 PUSH1 0xA0 SHL SUB PUSH2 0xBBB PUSH2 0x19FF JUMP JUMPDEST AND PUSH1 0x0 MSTORE PUSH1 0x32 PUSH1 0x20 MSTORE PUSH1 0x20 PUSH1 0xFF PUSH1 0x40 PUSH1 0x0 KECCAK256 SLOAD AND PUSH1 0x40 MLOAD SWAP1 ISZERO ISZERO DUP2 MSTORE RETURN JUMPDEST CALLVALUE PUSH2 0x269 JUMPI PUSH1 0x20 CALLDATASIZE PUSH1 0x3 NOT ADD SLT PUSH2 0x269 JUMPI PUSH1 0x1 PUSH1 0x1 PUSH1 0xA0 SHL SUB PUSH2 0xBFA PUSH2 0x19FF JUMP JUMPDEST AND PUSH1 0x0 MSTORE PUSH1 0x3C PUSH1 0x20 MSTORE PUSH1 0x40 PUSH1 0x0 KECCAK256 PUSH1 0x40 MLOAD DUP1 PUSH1 0x20 DUP4 SLOAD SWAP2 DUP3 DUP2 MSTORE ADD SWAP1 DUP2 SWAP4 PUSH1 0x0 MSTORE PUSH1 0x20 PUSH1 0x0 KECCAK256 SWAP1 PUSH1 0x0 JUMPDEST DUP2 DUP2 LT PUSH2 0xC7D JUMPI POP POP POP DUP2 PUSH2 0xC3A SWAP2 SUB DUP3 PUSH2 0x1A31 JUMP JUMPDEST PUSH1 0x40 MLOAD SWAP2 DUP3 SWAP2 PUSH1 0x20 DUP4 ADD SWAP1 PUSH1 0x20 DUP5 MSTORE MLOAD DUP1 SWAP2 MSTORE PUSH1 0x40 DUP4 ADD SWAP2 SWAP1 PUSH1 0x0 JUMPDEST DUP2 DUP2 LT PUSH2 0xC64 JUMPI POP POP POP SUB SWAP1 RETURN JUMPDEST DUP3 MLOAD DUP5 MSTORE DUP6 SWAP5 POP PUSH1 0x20 SWAP4 DUP5 ADD SWAP4 SWAP1 SWAP3 ADD SWAP2 PUSH1 0x1 ADD PUSH2 0xC56 JUMP JUMPDEST DUP3 SLOAD DUP5 MSTORE PUSH1 0x20 SWAP1 SWAP4 ADD SWAP3 PUSH1 0x1 SWAP3 DUP4 ADD SWAP3 ADD PUSH2 0xC24 JUMP JUMPDEST CALLVALUE PUSH2 0x269 JUMPI PUSH1 0x40 CALLDATASIZE PUSH1 0x3 NOT ADD SLT PUSH2 0x269 JUMPI PUSH1 0x4 CALLDATALOAD PUSH8 0xFFFFFFFFFFFFFFFF DUP2 GT PUSH2 0x269 JUMPI CALLDATASIZE PUSH1 0x23 DUP3 ADD SLT ISZERO PUSH2 0x269 JUMPI DUP1 PUSH1 0x4 ADD CALLDATALOAD PUSH8 0xFFFFFFFFFFFFFFFF DUP2 GT PUSH2 0x269 JUMPI PUSH1 0x24 DUP3 ADD SWAP2 PUSH1 0x24 CALLDATASIZE SWAP2 DUP4 PUSH1 0x5 SHL ADD ADD GT PUSH2 0x269 JUMPI PUSH2 0xCF1 PUSH2 0x1A9A JUMP JUMPDEST SWAP1 PUSH2 0xCFA PUSH2 0x2200 JUMP JUMPDEST PUSH1 0x64 DUP2 GT PUSH2 0xE0E JUMPI SWAP1 DUP1 ISZERO ISZERO SWAP1 PUSH1 0x0 JUMPDEST DUP4 DUP2 LT PUSH2 0xD13 JUMPI STOP JUMPDEST PUSH2 0xD39 PUSH1 0x1 PUSH1 0x1 PUSH1 0xA0 SHL SUB PUSH2 0xD31 PUSH2 0xD2C DUP5 DUP9 DUP11 PUSH2 0x1EA5 JUMP JUMPDEST PUSH2 0x1D3B JUMP JUMPDEST AND ISZERO ISZERO PUSH2 0x1EB5 JUMP JUMPDEST ADDRESS PUSH1 0x1 PUSH1 0x1 PUSH1 0xA0 SHL SUB PUSH2 0xD50 PUSH2 0xD2C DUP5 DUP9 DUP11 PUSH2 0x1EA5 JUMP JUMPDEST AND EQ PUSH2 0xDD7 JUMPI PUSH1 0x1 SWAP1 PUSH1 0x1 PUSH1 0x1 PUSH1 0xA0 SHL SUB PUSH2 0xD6F PUSH2 0xD2C DUP4 DUP9 DUP11 PUSH2 0x1EA5 JUMP JUMPDEST AND PUSH1 0x0 MSTORE PUSH1 0x32 PUSH1 0x20 MSTORE PUSH2 0xD92 DUP4 PUSH1 0x40 PUSH1 0x0 KECCAK256 SWAP1 PUSH1 0xFF DUP1 NOT DUP4 SLOAD AND SWAP2 ISZERO ISZERO AND OR SWAP1 SSTORE JUMP JUMPDEST DUP2 DUP1 PUSH1 0xA0 SHL SUB PUSH2 0xDA6 PUSH2 0xD2C DUP4 DUP9 DUP11 PUSH2 0x1EA5 JUMP JUMPDEST AND PUSH32 0xD6FC3082AE3A144CA59421D96180398241C1DD021D45D5A24FB5BF96C9F8212F PUSH1 0x20 PUSH1 0x40 MLOAD DUP8 DUP2 MSTORE LOG2 ADD PUSH2 0xD0A JUMP JUMPDEST PUSH1 0x40 MLOAD PUSH3 0x461BCD PUSH1 0xE5 SHL DUP2 MSTORE PUSH1 0x20 PUSH1 0x4 DUP3 ADD MSTORE PUSH1 0xF PUSH1 0x24 DUP3 ADD MSTORE PUSH15 0x21B0B73737BA1030B2321039B2B633 PUSH1 0x89 SHL PUSH1 0x44 DUP3 ADD MSTORE PUSH1 0x64 SWAP1 REVERT JUMPDEST PUSH1 0x40 MLOAD PUSH3 0x461BCD PUSH1 0xE5 SHL DUP2 MSTORE PUSH1 0x20 PUSH1 0x4 DUP3 ADD MSTORE PUSH1 0x10 PUSH1 0x24 DUP3 ADD MSTORE PUSH16 0x546F6F206D616E792063616C6C657273 PUSH1 0x80 SHL PUSH1 0x44 DUP3 ADD MSTORE PUSH1 0x64 SWAP1 REVERT JUMPDEST CALLVALUE PUSH2 0x269 JUMPI PUSH1 0x0 CALLDATASIZE PUSH1 0x3 NOT ADD SLT PUSH2 0x269 JUMPI PUSH2 0xE5F PUSH2 0x2200 JUMP JUMPDEST PUSH1 0x0 DUP1 MLOAD PUSH1 0x20 PUSH2 0x22F7 DUP4 CODECOPY DUP2 MLOAD SWAP2 MSTORE DUP1 SLOAD PUSH1 0x1 PUSH1 0x1 PUSH1 0xA0 SHL SUB NOT DUP2 AND SWAP1 SWAP2 SSTORE PUSH1 0x0 SWAP1 PUSH1 0x1 PUSH1 0x1 PUSH1 0xA0 SHL SUB AND PUSH32 0x8BE0079C531659141344CD1FD0A4F28419497F9722A3DAAFE3B4186F6B6457E0 DUP3 DUP1 LOG3 STOP JUMPDEST CALLVALUE PUSH2 0x269 JUMPI PUSH1 0x20 CALLDATASIZE PUSH1 0x3 NOT ADD SLT PUSH2 0x269 JUMPI PUSH1 0x1 PUSH1 0x1 PUSH1 0xA0 SHL SUB PUSH2 0xED1 PUSH2 0x19FF JUMP JUMPDEST AND PUSH1 0x0 MSTORE PUSH1 0x3B PUSH1 0x20 MSTORE PUSH1 0x20 PUSH1 0x40 PUSH1 0x0 KECCAK256 SLOAD PUSH1 0x40 MLOAD SWAP1 DUP2 MSTORE RETURN JUMPDEST CALLVALUE PUSH2 0x269 JUMPI PUSH1 0x20 CALLDATASIZE PUSH1 0x3 NOT ADD SLT PUSH2 0x269 JUMPI PUSH1 0x1 PUSH1 0x1 PUSH1 0xA0 SHL SUB PUSH2 0xF0B PUSH2 0x19FF JUMP JUMPDEST AND PUSH1 0x0 MSTORE PUSH1 0x37 PUSH1 0x20 MSTORE PUSH1 0x20 PUSH1 0x40 PUSH1 0x0 KECCAK256 SLOAD PUSH1 0x40 MLOAD SWAP1 DUP2 MSTORE RETURN JUMPDEST CALLVALUE PUSH2 0x269 JUMPI PUSH1 0x0 CALLDATASIZE PUSH1 0x3 NOT ADD SLT PUSH2 0x269 JUMPI PUSH1 0x20 PUSH1 0xFF PUSH1 0x0 DUP1 MLOAD PUSH1 0x20 PUSH2 0x2337 DUP4 CODECOPY DUP2 MLOAD SWAP2 MSTORE SLOAD AND PUSH1 0x40 MLOAD SWAP1 ISZERO ISZERO DUP2 MSTORE RETURN JUMPDEST CALLVALUE PUSH2 0x269 JUMPI PUSH1 0x20 CALLDATASIZE PUSH1 0x3 NOT ADD SLT PUSH2 0x269 JUMPI CALLER PUSH1 0x0 MSTORE PUSH1 0x32 PUSH1 0x20 MSTORE PUSH1 0xFF PUSH1 0x40 PUSH1 0x0 KECCAK256 SLOAD AND DUP1 ISZERO PUSH2 0xF92 JUMPI JUMPDEST PUSH2 0xF87 SWAP1 PUSH2 0x1C52 JUMP JUMPDEST PUSH2 0x297 PUSH1 0x4 CALLDATALOAD PUSH2 0x1E19 JUMP JUMPDEST POP PUSH1 0x0 DUP1 MLOAD PUSH1 0x20 PUSH2 0x22F7 DUP4 CODECOPY DUP2 MLOAD SWAP2 MSTORE SLOAD PUSH1 0x1 PUSH1 0x1 PUSH1 0xA0 SHL SUB AND CALLER EQ PUSH2 0xF7E JUMP JUMPDEST CALLVALUE PUSH2 0x269 JUMPI PUSH1 0x0 CALLDATASIZE PUSH1 0x3 NOT ADD SLT PUSH2 0x269 JUMPI PUSH32 0x0 PUSH1 0x1 PUSH1 0x1 PUSH1 0xA0 SHL SUB AND ADDRESS SUB PUSH2 0x100C JUMPI PUSH1 0x20 PUSH1 0x40 MLOAD PUSH1 0x0 DUP1 MLOAD PUSH1 0x20 PUSH2 0x2317 DUP4 CODECOPY DUP2 MLOAD SWAP2 MSTORE DUP2 MSTORE RETURN JUMPDEST PUSH4 0x703E46DD PUSH1 0xE1 SHL PUSH1 0x0 MSTORE PUSH1 0x4 PUSH1 0x0 REVERT JUMPDEST CALLVALUE PUSH2 0x269 JUMPI PUSH1 0x0 CALLDATASIZE PUSH1 0x3 NOT ADD SLT PUSH2 0x269 JUMPI CALLER PUSH1 0x0 MSTORE PUSH1 0x32 PUSH1 0x20 MSTORE PUSH1 0xFF PUSH1 0x40 PUSH1 0x0 KECCAK256 SLOAD AND DUP1 ISZERO PUSH2 0x1085 JUMPI JUMPDEST PUSH2 0x1050 SWAP1 PUSH2 0x1C52 JUMP JUMPDEST PUSH2 0x106C PUSH1 0xFF PUSH1 0x0 DUP1 MLOAD PUSH1 0x20 PUSH2 0x2337 DUP4 CODECOPY DUP2 MLOAD SWAP2 MSTORE SLOAD AND ISZERO PUSH2 0x1C8F JUMP JUMPDEST PUSH1 0x20 PUSH2 0x1079 PUSH1 0x33 SLOAD PUSH2 0x1DC5 JUMP JUMPDEST DUP1 PUSH1 0x33 SSTORE PUSH1 0x40 MLOAD SWAP1 DUP2 MSTORE RETURN JUMPDEST POP PUSH1 0x0 DUP1 MLOAD PUSH1 0x20 PUSH2 0x22F7 DUP4 CODECOPY DUP2 MLOAD SWAP2 MSTORE SLOAD PUSH1 0x1 PUSH1 0x1 PUSH1 0xA0 SHL SUB AND CALLER EQ PUSH2 0x1047 JUMP JUMPDEST CALLVALUE PUSH2 0x269 JUMPI PUSH1 0x40 CALLDATASIZE PUSH1 0x3 NOT ADD SLT PUSH2 0x269 JUMPI PUSH1 0x24 CALLDATALOAD PUSH1 0x4 CALLDATALOAD PUSH8 0xFFFFFFFFFFFFFFFF DUP3 GT PUSH2 0x269 JUMPI DUP2 PUSH1 0x4 ADD PUSH1 0xE0 PUSH1 0x3 NOT DUP5 CALLDATASIZE SUB ADD SLT PUSH2 0x269 JUMPI CALLER PUSH1 0x0 MSTORE PUSH1 0x32 PUSH1 0x20 MSTORE PUSH1 0xFF PUSH1 0x40 PUSH1 0x0 KECCAK256 SLOAD AND DUP1 ISZERO PUSH2 0x1625 JUMPI JUMPDEST PUSH2 0x1100 SWAP1 PUSH2 0x1C52 JUMP JUMPDEST PUSH2 0x111C PUSH1 0xFF PUSH1 0x0 DUP1 MLOAD PUSH1 0x20 PUSH2 0x2337 DUP4 CODECOPY DUP2 MLOAD SWAP2 MSTORE SLOAD AND ISZERO PUSH2 0x1C8F JUMP JUMPDEST PUSH2 0x1124 PUSH2 0x21AA JUMP JUMPDEST DUP2 ISZERO PUSH2 0x15EB JUMPI DUP2 DUP2 CALLDATALOAD SUB PUSH2 0x15AE JUMPI PUSH1 0x24 DUP4 ADD SWAP1 PUSH2 0x1153 PUSH1 0x1 PUSH1 0x1 PUSH1 0xA0 SHL SUB PUSH2 0x114B DUP5 PUSH2 0x1D3B JUMP JUMPDEST AND ISZERO ISZERO PUSH2 0x1D4F JUMP JUMPDEST PUSH1 0x44 DUP5 ADD CALLDATALOAD SWAP4 PUSH4 0x2FAF080 DUP6 GT PUSH2 0x1571 JUMPI PUSH1 0x64 DUP2 ADD SWAP2 PUSH2 0x1173 DUP4 DUP3 PUSH2 0x1D92 JUMP JUMPDEST SWAP1 POP ISZERO PUSH2 0x1535 JUMPI DUP5 PUSH1 0x0 MSTORE PUSH1 0x3D PUSH1 0x20 MSTORE PUSH1 0xFF PUSH1 0x40 PUSH1 0x0 KECCAK256 SLOAD AND ISZERO SWAP3 DUP4 ISZERO PUSH2 0x14C3 JUMPI JUMPDEST PUSH2 0x11AA PUSH1 0x84 SWAP2 PUSH2 0x11A4 DUP8 PUSH2 0x1D3B JUMP JUMPDEST SWAP4 PUSH2 0x1D92 JUMP JUMPDEST SWAP2 SWAP1 SWAP4 ADD CALLDATALOAD DUP1 ISZERO ISZERO DUP1 SWAP2 SUB PUSH2 0x269 JUMPI DUP5 ISZERO PUSH2 0x14AB JUMPI TIMESTAMP SWAP2 JUMPDEST PUSH2 0x11F3 PUSH1 0x40 MLOAD SWAP6 PUSH2 0x11D2 DUP8 PUSH2 0x1A15 JUMP JUMPDEST DUP10 DUP8 MSTORE PUSH1 0x20 DUP8 ADD SWAP6 PUSH1 0x1 DUP1 PUSH1 0xA0 SHL SUB AND DUP7 MSTORE PUSH1 0x40 DUP8 ADD SWAP3 DUP12 DUP5 MSTORE CALLDATASIZE SWAP2 PUSH2 0x1A53 JUMP JUMPDEST PUSH1 0x60 DUP7 ADD SWAP1 DUP2 MSTORE PUSH1 0x80 DUP7 ADD SWAP3 DUP4 MSTORE PUSH1 0xA0 DUP7 ADD SWAP4 DUP5 MSTORE TIMESTAMP PUSH1 0xC0 DUP8 ADD SWAP1 DUP2 MSTORE PUSH1 0x0 DUP11 DUP2 MSTORE PUSH1 0x3A PUSH1 0x20 MSTORE PUSH1 0x40 SWAP1 KECCAK256 SWAP7 MLOAD DUP8 SSTORE SWAP5 MLOAD PUSH1 0x1 DUP8 ADD DUP1 SLOAD PUSH1 0x1 PUSH1 0x1 PUSH1 0xA0 SHL SUB NOT AND PUSH1 0x1 PUSH1 0x1 PUSH1 0xA0 SHL SUB SWAP3 SWAP1 SWAP3 AND SWAP2 SWAP1 SWAP2 OR SWAP1 SSTORE SWAP1 MLOAD PUSH1 0x2 DUP7 ADD SSTORE MLOAD DUP1 MLOAD PUSH1 0x3 DUP7 ADD SWAP2 PUSH8 0xFFFFFFFFFFFFFFFF DUP3 GT PUSH2 0x1391 JUMPI PUSH2 0x126E DUP4 SLOAD PUSH2 0x1AD7 JUMP JUMPDEST PUSH1 0x1F DUP2 GT PUSH2 0x1463 JUMPI JUMPDEST POP PUSH1 0x20 SWAP1 PUSH1 0x1F DUP4 GT PUSH1 0x1 EQ PUSH2 0x13F3 JUMPI SWAP2 DUP1 PUSH2 0x12C8 SWAP5 SWAP3 PUSH1 0x6 SWAP9 SWAP8 SWAP7 SWAP5 PUSH1 0x0 SWAP3 PUSH2 0x13E8 JUMPI JUMPDEST POP POP DUP2 PUSH1 0x1 SHL SWAP2 PUSH1 0x0 NOT SWAP1 PUSH1 0x3 SHL SHR NOT AND OR SWAP1 SSTORE JUMPDEST MLOAD ISZERO ISZERO PUSH1 0x4 DUP7 ADD SWAP1 PUSH1 0xFF DUP1 NOT DUP4 SLOAD AND SWAP2 ISZERO ISZERO AND OR SWAP1 SSTORE JUMP JUMPDEST MLOAD PUSH1 0x5 DUP5 ADD SSTORE MLOAD SWAP2 ADD SSTORE ISZERO PUSH2 0x13A7 JUMPI PUSH1 0x0 DUP3 DUP2 MSTORE PUSH1 0x3D PUSH1 0x20 MSTORE PUSH1 0x40 SWAP1 KECCAK256 DUP1 SLOAD PUSH1 0xFF NOT AND PUSH1 0x1 OR SWAP1 SSTORE PUSH1 0x1 PUSH1 0x1 PUSH1 0xA0 SHL SUB PUSH2 0x1301 DUP3 PUSH2 0x1D3B JUMP JUMPDEST AND PUSH1 0x0 MSTORE PUSH1 0x3C PUSH1 0x20 MSTORE PUSH1 0x40 PUSH1 0x0 KECCAK256 SWAP1 DUP2 SLOAD SWAP1 PUSH9 0x10000000000000000 DUP3 LT ISZERO PUSH2 0x1391 JUMPI PUSH2 0x1357 DUP3 PUSH32 0x3A3EE326DD9451112D67D1BABDAF697562D06E41E2571DDD356B4E9BE0DE478E SWAP5 PUSH1 0x1 PUSH1 0x20 SWAP6 ADD DUP2 SSTORE PUSH2 0x1AA9 JUMP JUMPDEST DUP2 SLOAD PUSH1 0x0 NOT PUSH1 0x3 SWAP3 SWAP1 SWAP3 SHL SWAP2 DUP3 SHL NOT AND SWAP1 DUP7 SWAP1 SHL OR SWAP1 SSTORE PUSH1 0x1 PUSH1 0x1 PUSH1 0xA0 SHL SUB SWAP1 PUSH2 0x1380 SWAP1 PUSH2 0x1D3B JUMP JUMPDEST AND SWAP4 PUSH1 0x40 MLOAD SWAP1 DUP2 MSTORE LOG3 JUMPDEST PUSH1 0x1 PUSH1 0x0 SSTORE STOP JUMPDEST PUSH4 0x4E487B71 PUSH1 0xE0 SHL PUSH1 0x0 MSTORE PUSH1 0x41 PUSH1 0x4 MSTORE PUSH1 0x24 PUSH1 0x0 REVERT JUMPDEST SWAP1 SWAP2 POP PUSH1 0x1 PUSH1 0x1 PUSH1 0xA0 SHL SUB SWAP1 PUSH2 0x13BC SWAP1 PUSH2 0x1D3B JUMP JUMPDEST AND SWAP1 PUSH32 0x14796949D4D1A6824063EC05E354DB666BDE3356A8CF646C6075272B5353185C PUSH1 0x0 DUP1 LOG3 PUSH2 0x138A JUMP JUMPDEST ADD MLOAD SWAP1 POP DUP14 DUP1 PUSH2 0x129B JUMP JUMPDEST SWAP1 PUSH1 0x1F NOT DUP4 AND SWAP2 DUP5 PUSH1 0x0 MSTORE DUP2 PUSH1 0x0 KECCAK256 SWAP3 PUSH1 0x0 JUMPDEST DUP2 DUP2 LT PUSH2 0x144B JUMPI POP SWAP3 PUSH1 0x1 SWAP3 DUP6 SWAP3 PUSH1 0x6 SWAP11 SWAP10 SWAP9 SWAP7 PUSH2 0x12C8 SWAP9 SWAP7 LT PUSH2 0x1432 JUMPI JUMPDEST POP POP POP DUP2 SHL ADD SWAP1 SSTORE PUSH2 0x12B0 JUMP JUMPDEST ADD MLOAD PUSH1 0x0 NOT PUSH1 0xF8 DUP5 PUSH1 0x3 SHL AND SHR NOT AND SWAP1 SSTORE DUP14 DUP1 DUP1 PUSH2 0x1425 JUMP JUMPDEST SWAP3 SWAP4 PUSH1 0x20 PUSH1 0x1 DUP2 SWAP3 DUP8 DUP7 ADD MLOAD DUP2 SSTORE ADD SWAP6 ADD SWAP4 ADD PUSH2 0x1406 JUMP JUMPDEST DUP4 PUSH1 0x0 MSTORE PUSH1 0x20 PUSH1 0x0 KECCAK256 PUSH1 0x1F DUP5 ADD PUSH1 0x5 SHR DUP2 ADD SWAP2 PUSH1 0x20 DUP6 LT PUSH2 0x14A1 JUMPI JUMPDEST PUSH1 0x1F ADD PUSH1 0x5 SHR ADD SWAP1 JUMPDEST DUP2 DUP2 LT PUSH2 0x1495 JUMPI POP PUSH2 0x1277 JUMP JUMPDEST PUSH1 0x0 DUP2 SSTORE PUSH1 0x1 ADD PUSH2 0x1488 JUMP JUMPDEST SWAP1 SWAP2 POP DUP2 SWAP1 PUSH2 0x147F JUMP JUMPDEST DUP7 PUSH1 0x0 MSTORE PUSH1 0x3A PUSH1 0x20 MSTORE PUSH1 0x5 PUSH1 0x40 PUSH1 0x0 KECCAK256 ADD SLOAD SWAP2 PUSH2 0x11C2 JUMP JUMPDEST PUSH1 0x0 DUP7 DUP2 MSTORE PUSH1 0x3A PUSH1 0x20 MSTORE PUSH1 0x40 SWAP1 KECCAK256 PUSH1 0x1 ADD SLOAD PUSH1 0x1 PUSH1 0x1 PUSH1 0xA0 SHL SUB SWAP1 DUP2 AND SWAP1 PUSH2 0x14EA DUP8 PUSH2 0x1D3B JUMP JUMPDEST AND EQ PUSH2 0x1195 JUMPI PUSH1 0x40 MLOAD PUSH3 0x461BCD PUSH1 0xE5 SHL DUP2 MSTORE PUSH1 0x20 PUSH1 0x4 DUP3 ADD MSTORE PUSH1 0x17 PUSH1 0x24 DUP3 ADD MSTORE PUSH32 0x486F7374206368616E6765206E6F7420616C6C6F776564000000000000000000 PUSH1 0x44 DUP3 ADD MSTORE PUSH1 0x64 SWAP1 REVERT JUMPDEST PUSH1 0x40 MLOAD PUSH3 0x461BCD PUSH1 0xE5 SHL DUP2 MSTORE PUSH1 0x20 PUSH1 0x4 DUP3 ADD MSTORE PUSH1 0x14 PUSH1 0x24 DUP3 ADD MSTORE PUSH20 0x135BDB99DBD1185D185251081C995C5D5A5C9959 PUSH1 0x62 SHL PUSH1 0x44 DUP3 ADD MSTORE PUSH1 0x64 SWAP1 REVERT JUMPDEST PUSH1 0x40 MLOAD PUSH3 0x461BCD PUSH1 0xE5 SHL DUP2 MSTORE PUSH1 0x20 PUSH1 0x4 DUP3 ADD MSTORE PUSH1 0x15 PUSH1 0x24 DUP3 ADD MSTORE PUSH21 0x50726963652065786365656473206D6178696D756D PUSH1 0x58 SHL PUSH1 0x44 DUP3 ADD MSTORE PUSH1 0x64 SWAP1 REVERT JUMPDEST PUSH1 0x40 MLOAD PUSH3 0x461BCD PUSH1 0xE5 SHL DUP2 MSTORE PUSH1 0x20 PUSH1 0x4 DUP3 ADD MSTORE PUSH1 0x15 PUSH1 0x24 DUP3 ADD MSTORE PUSH21 0x135A5CDB585D18DA1959081B995D1DDBDC9AC81251 PUSH1 0x5A SHL PUSH1 0x44 DUP3 ADD MSTORE PUSH1 0x64 SWAP1 REVERT JUMPDEST PUSH1 0x40 MLOAD PUSH3 0x461BCD PUSH1 0xE5 SHL DUP2 MSTORE PUSH1 0x20 PUSH1 0x4 DUP3 ADD MSTORE PUSH1 0x12 PUSH1 0x24 DUP3 ADD MSTORE PUSH18 0x125B9D985B1A59081B995D1DDBDC9AC81251 PUSH1 0x72 SHL PUSH1 0x44 DUP3 ADD MSTORE PUSH1 0x64 SWAP1 REVERT JUMPDEST POP PUSH1 0x0 DUP1 MLOAD PUSH1 0x20 PUSH2 0x22F7 DUP4 CODECOPY DUP2 MLOAD SWAP2 MSTORE SLOAD PUSH1 0x1 PUSH1 0x1 PUSH1 0xA0 SHL SUB AND CALLER EQ PUSH2 0x10F7 JUMP JUMPDEST PUSH1 0x40 CALLDATASIZE PUSH1 0x3 NOT ADD SLT PUSH2 0x269 JUMPI PUSH2 0x165A PUSH2 0x19FF JUMP JUMPDEST PUSH1 0x24 CALLDATALOAD PUSH8 0xFFFFFFFFFFFFFFFF DUP2 GT PUSH2 0x269 JUMPI CALLDATASIZE PUSH1 0x23 DUP3 ADD SLT ISZERO PUSH2 0x269 JUMPI PUSH2 0x168B SWAP1 CALLDATASIZE SWAP1 PUSH1 0x24 DUP2 PUSH1 0x4 ADD CALLDATALOAD SWAP2 ADD PUSH2 0x1A53 JUMP JUMPDEST SWAP1 PUSH1 0x1 PUSH1 0x1 PUSH1 0xA0 SHL SUB PUSH32 0x0 AND ADDRESS DUP2 EQ SWAP1 DUP2 ISZERO PUSH2 0x17FC JUMPI JUMPDEST POP PUSH2 0x100C JUMPI PUSH2 0x16CE PUSH2 0x2200 JUMP JUMPDEST PUSH1 0x40 MLOAD PUSH4 0x52D1902D PUSH1 0xE0 SHL DUP2 MSTORE PUSH1 0x1 PUSH1 0x1 PUSH1 0xA0 SHL SUB DUP3 AND SWAP3 SWAP1 PUSH1 0x20 DUP2 PUSH1 0x4 DUP2 DUP8 GAS STATICCALL PUSH1 0x0 SWAP2 DUP2 PUSH2 0x17C8 JUMPI JUMPDEST POP PUSH2 0x1713 JUMPI DUP4 PUSH4 0x4C9C8CE3 PUSH1 0xE0 SHL PUSH1 0x0 MSTORE PUSH1 0x4 MSTORE PUSH1 0x24 PUSH1 0x0 REVERT JUMPDEST DUP1 PUSH1 0x0 DUP1 MLOAD PUSH1 0x20 PUSH2 0x2317 DUP4 CODECOPY DUP2 MLOAD SWAP2 MSTORE DUP6 SWAP3 SUB PUSH2 0x17B4 JUMPI POP DUP3 EXTCODESIZE ISZERO PUSH2 0x17A0 JUMPI PUSH1 0x0 DUP1 MLOAD PUSH1 0x20 PUSH2 0x2317 DUP4 CODECOPY DUP2 MLOAD SWAP2 MSTORE DUP1 SLOAD PUSH1 0x1 PUSH1 0x1 PUSH1 0xA0 SHL SUB NOT AND DUP3 OR SWAP1 SSTORE PUSH32 0xBC7CD75A20EE27FD9ADEBAB32041F755214DBC6BFFA90CC0225B39DA2E5C2D3B PUSH1 0x0 DUP1 LOG2 DUP1 MLOAD ISZERO PUSH2 0x1786 JUMPI PUSH2 0x297 SWAP2 PUSH2 0x2264 JUMP JUMPDEST POP POP CALLVALUE PUSH2 0x178F JUMPI STOP JUMPDEST PUSH4 0xB398979F PUSH1 0xE0 SHL PUSH1 0x0 MSTORE PUSH1 0x4 PUSH1 0x0 REVERT JUMPDEST PUSH4 0x4C9C8CE3 PUSH1 0xE0 SHL PUSH1 0x0 MSTORE PUSH1 0x4 MSTORE PUSH1 0x24 PUSH1 0x0 REVERT JUMPDEST PUSH4 0x2A875269 PUSH1 0xE2 SHL PUSH1 0x0 MSTORE PUSH1 0x4 MSTORE PUSH1 0x24 PUSH1 0x0 REVERT JUMPDEST SWAP1 SWAP2 POP PUSH1 0x20 DUP2 RETURNDATASIZE PUSH1 0x20 GT PUSH2 0x17F4 JUMPI JUMPDEST DUP2 PUSH2 0x17E4 PUSH1 0x20 SWAP4 DUP4 PUSH2 0x1A31 JUMP JUMPDEST DUP2 ADD SUB SLT PUSH2 0x269 JUMPI MLOAD SWAP1 DUP6 PUSH2 0x16F9 JUMP JUMPDEST RETURNDATASIZE SWAP2 POP PUSH2 0x17D7 JUMP JUMPDEST PUSH1 0x0 DUP1 MLOAD PUSH1 0x20 PUSH2 0x2317 DUP4 CODECOPY DUP2 MLOAD SWAP2 MSTORE SLOAD PUSH1 0x1 PUSH1 0x1 PUSH1 0xA0 SHL SUB AND EQ ISZERO SWAP1 POP DUP4 PUSH2 0x16C1 JUMP JUMPDEST CALLVALUE PUSH2 0x269 JUMPI PUSH1 0x0 CALLDATASIZE PUSH1 0x3 NOT ADD SLT PUSH2 0x269 JUMPI PUSH2 0x1838 PUSH2 0x2200 JUMP JUMPDEST PUSH1 0x0 DUP1 MLOAD PUSH1 0x20 PUSH2 0x2337 DUP4 CODECOPY DUP2 MLOAD SWAP2 MSTORE SLOAD PUSH1 0xFF DUP2 AND ISZERO PUSH2 0x1891 JUMPI PUSH1 0xFF NOT AND PUSH1 0x0 DUP1 MLOAD PUSH1 0x20 PUSH2 0x2337 DUP4 CODECOPY DUP2 MLOAD SWAP2 MSTORE SSTORE PUSH32 0x5DB9EE0A495BF2E6FF9C91A7834C1BA4FDD244A5E8AA4E537BD38AEAE4B073AA PUSH1 0x20 PUSH1 0x40 MLOAD CALLER DUP2 MSTORE LOG1 STOP JUMPDEST PUSH4 0x8DFC202B PUSH1 0xE0 SHL PUSH1 0x0 MSTORE PUSH1 0x4 PUSH1 0x0 REVERT JUMPDEST CALLVALUE PUSH2 0x269 JUMPI PUSH1 0x20 CALLDATASIZE PUSH1 0x3 NOT ADD SLT PUSH2 0x269 JUMPI PUSH1 0x1 PUSH1 0x1 PUSH1 0xA0 SHL SUB PUSH2 0x18C3 PUSH2 0x19FF JUMP JUMPDEST AND PUSH1 0x0 MSTORE PUSH1 0x37 PUSH1 0x20 MSTORE PUSH1 0x20 PUSH1 0x64 PUSH1 0x40 PUSH1 0x0 KECCAK256 SLOAD LT ISZERO PUSH1 0x40 MLOAD SWAP1 DUP2 MSTORE RETURN JUMPDEST CALLVALUE PUSH2 0x269 JUMPI PUSH1 0x0 CALLDATASIZE PUSH1 0x3 NOT ADD SLT PUSH2 0x269 JUMPI PUSH1 0x20 PUSH1 0x38 SLOAD PUSH1 0x40 MLOAD SWAP1 DUP2 MSTORE RETURN JUMPDEST CALLVALUE PUSH2 0x269 JUMPI PUSH1 0x0 CALLDATASIZE PUSH1 0x3 NOT ADD SLT PUSH2 0x269 JUMPI PUSH1 0x20 PUSH1 0x33 SLOAD PUSH1 0x40 MLOAD SWAP1 DUP2 MSTORE RETURN JUMPDEST CALLVALUE PUSH2 0x269 JUMPI PUSH1 0x20 CALLDATASIZE PUSH1 0x3 NOT ADD SLT PUSH2 0x269 JUMPI PUSH32 0x183B8A54434F6B5B6E53EBD9DB6E6ECEC8B065C630A527F61C52B9770FB6248C PUSH1 0x20 PUSH2 0x19AE PUSH1 0x4 CALLDATALOAD CALLER PUSH1 0x0 MSTORE PUSH1 0x32 DUP4 MSTORE PUSH1 0xFF PUSH1 0x40 PUSH1 0x0 KECCAK256 SLOAD AND DUP1 ISZERO PUSH2 0x19C0 JUMPI JUMPDEST PUSH2 0x1977 SWAP1 PUSH2 0x1C52 JUMP JUMPDEST PUSH2 0x1993 PUSH1 0xFF PUSH1 0x0 DUP1 MLOAD PUSH1 0x20 PUSH2 0x2337 DUP4 CODECOPY DUP2 MLOAD SWAP2 MSTORE SLOAD AND ISZERO PUSH2 0x1C8F JUMP JUMPDEST PUSH2 0x199B PUSH2 0x21AA JUMP JUMPDEST PUSH2 0x19A6 DUP2 ISZERO ISZERO PUSH2 0x1CCC JUMP JUMPDEST PUSH1 0x39 SLOAD PUSH2 0x1D18 JUMP JUMPDEST DUP1 PUSH1 0x39 SSTORE PUSH1 0x40 MLOAD SWAP1 DUP2 MSTORE LOG1 PUSH1 0x1 PUSH1 0x0 SSTORE STOP JUMPDEST POP PUSH1 0x0 DUP1 MLOAD PUSH1 0x20 PUSH2 0x22F7 DUP4 CODECOPY DUP2 MLOAD SWAP2 MSTORE SLOAD PUSH1 0x1 PUSH1 0x1 PUSH1 0xA0 SHL SUB AND CALLER EQ PUSH2 0x196E JUMP JUMPDEST CALLVALUE PUSH2 0x269 JUMPI PUSH1 0x0 CALLDATASIZE PUSH1 0x3 NOT ADD SLT PUSH2 0x269 JUMPI PUSH1 0x20 SWAP1 PUSH1 0x2 PUSH1 0x0 SLOAD EQ DUP2 MSTORE RETURN JUMPDEST PUSH1 0x4 CALLDATALOAD SWAP1 PUSH1 0x1 PUSH1 0x1 PUSH1 0xA0 SHL SUB DUP3 AND DUP3 SUB PUSH2 0x269 JUMPI JUMP JUMPDEST PUSH1 0xE0 DUP2 ADD SWAP1 DUP2 LT PUSH8 0xFFFFFFFFFFFFFFFF DUP3 GT OR PUSH2 0x1391 JUMPI PUSH1 0x40 MSTORE JUMP JUMPDEST SWAP1 PUSH1 0x1F DUP1 NOT SWAP2 ADD AND DUP2 ADD SWAP1 DUP2 LT PUSH8 0xFFFFFFFFFFFFFFFF DUP3 GT OR PUSH2 0x1391 JUMPI PUSH1 0x40 MSTORE JUMP JUMPDEST SWAP3 SWAP2 SWAP3 PUSH8 0xFFFFFFFFFFFFFFFF DUP3 GT PUSH2 0x1391 JUMPI PUSH1 0x40 MLOAD SWAP2 PUSH2 0x1A7D PUSH1 0x1F DUP3 ADD PUSH1 0x1F NOT AND PUSH1 0x20 ADD DUP5 PUSH2 0x1A31 JUMP JUMPDEST DUP3 SWAP5 DUP2 DUP5 MSTORE DUP2 DUP4 ADD GT PUSH2 0x269 JUMPI DUP3 DUP2 PUSH1 0x20 SWAP4 DUP5 PUSH1 0x0 SWAP7 ADD CALLDATACOPY ADD ADD MSTORE JUMP JUMPDEST PUSH1 0x24 CALLDATALOAD SWAP1 DUP2 ISZERO ISZERO DUP3 SUB PUSH2 0x269 JUMPI JUMP JUMPDEST DUP1 SLOAD DUP3 LT ISZERO PUSH2 0x1AC1 JUMPI PUSH1 0x0 MSTORE PUSH1 0x20 PUSH1 0x0 KECCAK256 ADD SWAP1 PUSH1 0x0 SWAP1 JUMP JUMPDEST PUSH4 0x4E487B71 PUSH1 0xE0 SHL PUSH1 0x0 MSTORE PUSH1 0x32 PUSH1 0x4 MSTORE PUSH1 0x24 PUSH1 0x0 REVERT JUMPDEST SWAP1 PUSH1 0x1 DUP3 DUP2 SHR SWAP3 AND DUP1 ISZERO PUSH2 0x1B07 JUMPI JUMPDEST PUSH1 0x20 DUP4 LT EQ PUSH2 0x1AF1 JUMPI JUMP JUMPDEST PUSH4 0x4E487B71 PUSH1 0xE0 SHL PUSH1 0x0 MSTORE PUSH1 0x22 PUSH1 0x4 MSTORE PUSH1 0x24 PUSH1 0x0 REVERT JUMPDEST SWAP2 PUSH1 0x7F AND SWAP2 PUSH2 0x1AE6 JUMP JUMPDEST SWAP1 PUSH1 0x40 MLOAD SWAP2 DUP3 PUSH1 0x0 DUP3 SLOAD SWAP3 PUSH2 0x1B25 DUP5 PUSH2 0x1AD7 JUMP JUMPDEST DUP1 DUP5 MSTORE SWAP4 PUSH1 0x1 DUP2 AND SWAP1 DUP2 ISZERO PUSH2 0x1B93 JUMPI POP PUSH1 0x1 EQ PUSH2 0x1B4C JUMPI JUMPDEST POP PUSH2 0x1B4A SWAP3 POP SUB DUP4 PUSH2 0x1A31 JUMP JUMPDEST JUMP JUMPDEST SWAP1 POP PUSH1 0x0 SWAP3 SWAP2 SWAP3 MSTORE PUSH1 0x20 PUSH1 0x0 KECCAK256 SWAP1 PUSH1 0x0 SWAP2 JUMPDEST DUP2 DUP4 LT PUSH2 0x1B77 JUMPI POP POP SWAP1 PUSH1 0x20 PUSH2 0x1B4A SWAP3 DUP3 ADD ADD CODESIZE PUSH2 0x1B3D JUMP JUMPDEST PUSH1 0x20 SWAP2 SWAP4 POP DUP1 PUSH1 0x1 SWAP2 SLOAD DUP4 DUP6 DUP10 ADD ADD MSTORE ADD SWAP2 ADD SWAP1 SWAP2 DUP5 SWAP3 PUSH2 0x1B5E JUMP JUMPDEST SWAP1 POP PUSH1 0x20 SWAP3 POP PUSH2 0x1B4A SWAP5 SWAP2 POP PUSH1 0xFF NOT AND DUP3 DUP5 ADD MSTORE ISZERO ISZERO PUSH1 0x5 SHL DUP3 ADD ADD CODESIZE PUSH2 0x1B3D JUMP JUMPDEST SWAP2 SWAP1 DUP3 MLOAD SWAP3 DUP4 DUP3 MSTORE PUSH1 0x0 JUMPDEST DUP5 DUP2 LT PUSH2 0x1BE1 JUMPI POP POP DUP3 PUSH1 0x0 PUSH1 0x20 DUP1 SWAP5 SWAP6 DUP5 ADD ADD MSTORE PUSH1 0x1F DUP1 NOT SWAP2 ADD AND ADD ADD SWAP1 JUMP JUMPDEST DUP1 PUSH1 0x20 DUP1 SWAP3 DUP5 ADD ADD MLOAD DUP3 DUP3 DUP7 ADD ADD MSTORE ADD PUSH2 0x1BC0 JUMP JUMPDEST SWAP1 DUP2 MLOAD DUP2 MSTORE PUSH1 0x1 DUP1 PUSH1 0xA0 SHL SUB PUSH1 0x20 DUP4 ADD MLOAD AND PUSH1 0x20 DUP3 ADD MSTORE PUSH1 0x40 DUP3 ADD MLOAD PUSH1 0x40 DUP3 ADD MSTORE PUSH1 0xC0 DUP1 PUSH2 0x1C33 PUSH1 0x60 DUP6 ADD MLOAD PUSH1 0xE0 PUSH1 0x60 DUP7 ADD MSTORE PUSH1 0xE0 DUP6 ADD SWAP1 PUSH2 0x1BB5 JUMP JUMPDEST SWAP4 PUSH1 0x80 DUP2 ADD MLOAD ISZERO ISZERO PUSH1 0x80 DUP6 ADD MSTORE PUSH1 0xA0 DUP2 ADD MLOAD PUSH1 0xA0 DUP6 ADD MSTORE ADD MLOAD SWAP2 ADD MSTORE SWAP1 JUMP JUMPDEST ISZERO PUSH2 0x1C59 JUMPI JUMP JUMPDEST PUSH1 0x40 MLOAD PUSH3 0x461BCD PUSH1 0xE5 SHL DUP2 MSTORE PUSH1 0x20 PUSH1 0x4 DUP3 ADD MSTORE PUSH1 0xE PUSH1 0x24 DUP3 ADD MSTORE PUSH14 0x139BDD08185D5D1A1BDC9A5E9959 PUSH1 0x92 SHL PUSH1 0x44 DUP3 ADD MSTORE PUSH1 0x64 SWAP1 REVERT JUMPDEST ISZERO PUSH2 0x1C96 JUMPI JUMP JUMPDEST PUSH1 0x40 MLOAD PUSH3 0x461BCD PUSH1 0xE5 SHL DUP2 MSTORE PUSH1 0x20 PUSH1 0x4 DUP3 ADD MSTORE PUSH1 0xE PUSH1 0x24 DUP3 ADD MSTORE PUSH14 0x14DD1BDC9859D9481C185D5CD959 PUSH1 0x92 SHL PUSH1 0x44 DUP3 ADD MSTORE PUSH1 0x64 SWAP1 REVERT JUMPDEST ISZERO PUSH2 0x1CD3 JUMPI JUMP JUMPDEST PUSH1 0x40 MLOAD PUSH3 0x461BCD PUSH1 0xE5 SHL DUP2 MSTORE PUSH1 0x20 PUSH1 0x4 DUP3 ADD MSTORE PUSH1 0x1D PUSH1 0x24 DUP3 ADD MSTORE PUSH32 0x416D6F756E74206D7573742062652067726561746572207468616E2030000000 PUSH1 0x44 DUP3 ADD MSTORE PUSH1 0x64 SWAP1 REVERT JUMPDEST SWAP2 SWAP1 DUP3 ADD DUP1 SWAP3 GT PUSH2 0x1D25 JUMPI JUMP JUMPDEST PUSH4 0x4E487B71 PUSH1 0xE0 SHL PUSH1 0x0 MSTORE PUSH1 0x11 PUSH1 0x4 MSTORE PUSH1 0x24 PUSH1 0x0 REVERT JUMPDEST CALLDATALOAD PUSH1 0x1 PUSH1 0x1 PUSH1 0xA0 SHL SUB DUP2 AND DUP2 SUB PUSH2 0x269 JUMPI SWAP1 JUMP JUMPDEST ISZERO PUSH2 0x1D56 JUMPI JUMP JUMPDEST PUSH1 0x40 MLOAD PUSH3 0x461BCD PUSH1 0xE5 SHL DUP2 MSTORE PUSH1 0x20 PUSH1 0x4 DUP3 ADD MSTORE PUSH1 0x14 PUSH1 0x24 DUP3 ADD MSTORE PUSH20 0x496E76616C696420686F73742061646472657373 PUSH1 0x60 SHL PUSH1 0x44 DUP3 ADD MSTORE PUSH1 0x64 SWAP1 REVERT JUMPDEST SWAP1 CALLDATALOAD SWAP1 PUSH1 0x1E NOT DUP2 CALLDATASIZE SUB ADD DUP3 SLT ISZERO PUSH2 0x269 JUMPI ADD DUP1 CALLDATALOAD SWAP1 PUSH8 0xFFFFFFFFFFFFFFFF DUP3 GT PUSH2 0x269 JUMPI PUSH1 0x20 ADD SWAP2 DUP2 CALLDATASIZE SUB DUP4 SGT PUSH2 0x269 JUMPI JUMP JUMPDEST PUSH1 0x0 NOT DUP2 EQ PUSH2 0x1D25 JUMPI PUSH1 0x1 ADD SWAP1 JUMP JUMPDEST ISZERO PUSH2 0x1DDB JUMPI JUMP JUMPDEST PUSH1 0x40 MLOAD PUSH3 0x461BCD PUSH1 0xE5 SHL DUP2 MSTORE PUSH1 0x20 PUSH1 0x4 DUP3 ADD MSTORE PUSH1 0x16 PUSH1 0x24 DUP3 ADD MSTORE PUSH22 0x13995D1DDBDC9AC8191BD95CC81B9BDD08195E1A5CDD PUSH1 0x52 SHL PUSH1 0x44 DUP3 ADD MSTORE PUSH1 0x64 SWAP1 REVERT JUMPDEST DUP1 PUSH1 0x0 MSTORE PUSH1 0x3D PUSH1 0x20 MSTORE PUSH2 0x1E33 PUSH1 0xFF PUSH1 0x40 PUSH1 0x0 KECCAK256 SLOAD AND PUSH2 0x1DD4 JUMP JUMPDEST DUP1 PUSH1 0x0 MSTORE PUSH1 0x3A PUSH1 0x20 MSTORE PUSH1 0xFF PUSH1 0x4 PUSH1 0x40 PUSH1 0x0 KECCAK256 ADD SLOAD AND ISZERO PUSH2 0x1EA2 JUMPI PUSH1 0x0 DUP2 DUP2 MSTORE PUSH1 0x3A PUSH1 0x20 MSTORE PUSH1 0x40 DUP2 KECCAK256 PUSH1 0x4 DUP2 ADD DUP1 SLOAD PUSH1 0xFF NOT AND SWAP1 SSTORE TIMESTAMP PUSH1 0x6 DUP3 ADD SSTORE PUSH1 0x1 ADD SLOAD PUSH1 0x1 PUSH1 0x1 PUSH1 0xA0 SHL SUB AND SWAP2 SWAP1 PUSH32 0x14796949D4D1A6824063EC05E354DB666BDE3356A8CF646C6075272B5353185C SWAP1 DUP1 LOG3 JUMP JUMPDEST POP JUMP JUMPDEST SWAP2 SWAP1 DUP2 LT ISZERO PUSH2 0x1AC1 JUMPI PUSH1 0x5 SHL ADD SWAP1 JUMP JUMPDEST ISZERO PUSH2 0x1EBC JUMPI JUMP JUMPDEST PUSH1 0x40 MLOAD PUSH3 0x461BCD PUSH1 0xE5 SHL DUP2 MSTORE PUSH1 0x20 PUSH1 0x4 DUP3 ADD MSTORE PUSH1 0x16 PUSH1 0x24 DUP3 ADD MSTORE PUSH22 0x496E76616C69642063616C6C65722061646472657373 PUSH1 0x50 SHL PUSH1 0x44 DUP3 ADD MSTORE PUSH1 0x64 SWAP1 REVERT JUMPDEST PUSH1 0x40 MLOAD SWAP1 PUSH2 0x1F07 DUP3 PUSH2 0x1A15 JUMP JUMPDEST PUSH1 0x0 PUSH1 0xC0 DUP4 DUP3 DUP2 MSTORE DUP3 PUSH1 0x20 DUP3 ADD MSTORE DUP3 PUSH1 0x40 DUP3 ADD MSTORE PUSH1 0x60 DUP1 DUP3 ADD MSTORE DUP3 PUSH1 0x80 DUP3 ADD MSTORE DUP3 PUSH1 0xA0 DUP3 ADD MSTORE ADD MSTORE JUMP JUMPDEST PUSH1 0x1 PUSH1 0x1 PUSH1 0xA0 SHL SUB AND DUP1 ISZERO PUSH2 0x1F91 JUMPI PUSH1 0x0 DUP1 MLOAD PUSH1 0x20 PUSH2 0x22F7 DUP4 CODECOPY DUP2 MLOAD SWAP2 MSTORE DUP1 SLOAD PUSH1 0x1 PUSH1 0x1 PUSH1 0xA0 SHL SUB NOT DUP2 AND DUP4 OR SWAP1 SWAP2 SSTORE PUSH1 0x1 PUSH1 0x1 PUSH1 0xA0 SHL SUB AND PUSH32 0x8BE0079C531659141344CD1FD0A4F28419497F9722A3DAAFE3B4186F6B6457E0 PUSH1 0x0 DUP1 LOG3 JUMP JUMPDEST PUSH4 0x1E4FBDF7 PUSH1 0xE0 SHL PUSH1 0x0 MSTORE PUSH1 0x0 PUSH1 0x4 MSTORE PUSH1 0x24 PUSH1 0x0 REVERT JUMPDEST PUSH8 0xFFFFFFFFFFFFFFFF DUP2 GT PUSH2 0x1391 JUMPI PUSH1 0x5 SHL PUSH1 0x20 ADD SWAP1 JUMP JUMPDEST DUP1 MLOAD DUP3 LT ISZERO PUSH2 0x1AC1 JUMPI PUSH1 0x20 SWAP2 PUSH1 0x5 SHL ADD ADD SWAP1 JUMP JUMPDEST PUSH1 0x33 SLOAD SWAP3 SWAP2 DUP4 ISZERO DUP1 ISZERO PUSH2 0x21A0 JUMPI JUMPDEST PUSH2 0x2164 JUMPI PUSH2 0x1FEF SWAP1 DUP3 PUSH2 0x1D18 JUMP JUMPDEST DUP4 DUP2 GT PUSH2 0x215D JUMPI JUMPDEST PUSH1 0x0 SWAP2 DUP1 JUMPDEST DUP3 DUP2 LT PUSH2 0x2120 JUMPI POP PUSH2 0x200D DUP4 PUSH2 0x1FA7 JUMP JUMPDEST SWAP3 PUSH2 0x201B PUSH1 0x40 MLOAD SWAP5 DUP6 PUSH2 0x1A31 JUMP JUMPDEST DUP1 DUP5 MSTORE PUSH2 0x202A PUSH1 0x1F NOT SWAP2 PUSH2 0x1FA7 JUMP JUMPDEST ADD PUSH1 0x0 JUMPDEST DUP2 DUP2 LT PUSH2 0x2109 JUMPI POP POP PUSH1 0x0 SWAP1 JUMPDEST DUP3 DUP2 LT PUSH2 0x2049 JUMPI POP POP POP SWAP2 SWAP1 JUMP JUMPDEST PUSH1 0x1 DUP2 ADD DUP1 DUP3 GT PUSH2 0x1D25 JUMPI DUP1 PUSH1 0x0 MSTORE PUSH1 0x3D PUSH1 0x20 MSTORE PUSH1 0xFF PUSH1 0x40 PUSH1 0x0 KECCAK256 SLOAD AND PUSH2 0x2074 JUMPI JUMPDEST POP PUSH1 0x1 ADD PUSH2 0x203B JUMP JUMPDEST PUSH1 0x1 SWAP2 SWAP3 PUSH2 0x2102 SWAP2 PUSH1 0x0 MSTORE PUSH1 0x3A PUSH1 0x20 MSTORE PUSH1 0x40 PUSH1 0x0 KECCAK256 PUSH1 0x6 PUSH1 0x40 MLOAD SWAP2 PUSH2 0x2098 DUP4 PUSH2 0x1A15 JUMP JUMPDEST DUP1 SLOAD DUP4 MSTORE DUP6 DUP1 PUSH1 0xA0 SHL SUB DUP7 DUP3 ADD SLOAD AND PUSH1 0x20 DUP5 ADD MSTORE PUSH1 0x2 DUP2 ADD SLOAD PUSH1 0x40 DUP5 ADD MSTORE PUSH2 0x20C2 PUSH1 0x3 DUP3 ADD PUSH2 0x1B11 JUMP JUMPDEST PUSH1 0x60 DUP5 ADD MSTORE PUSH1 0xFF PUSH1 0x4 DUP3 ADD SLOAD AND ISZERO ISZERO PUSH1 0x80 DUP5 ADD MSTORE PUSH1 0x5 DUP2 ADD SLOAD PUSH1 0xA0 DUP5 ADD MSTORE ADD SLOAD PUSH1 0xC0 DUP3 ADD MSTORE PUSH2 0x20F1 DUP3 DUP9 PUSH2 0x1FBF JUMP JUMPDEST MSTORE PUSH2 0x20FC DUP2 DUP8 PUSH2 0x1FBF JUMP JUMPDEST POP PUSH2 0x1DC5 JUMP JUMPDEST SWAP2 SWAP1 PUSH2 0x206B JUMP JUMPDEST PUSH1 0x20 SWAP1 PUSH2 0x2114 PUSH2 0x1EFA JUMP JUMPDEST DUP3 DUP3 DUP9 ADD ADD MSTORE ADD PUSH2 0x202E JUMP JUMPDEST PUSH1 0x1 DUP2 ADD DUP1 DUP3 GT PUSH2 0x1D25 JUMPI PUSH1 0x0 MSTORE PUSH1 0x3D PUSH1 0x20 MSTORE PUSH1 0xFF PUSH1 0x40 PUSH1 0x0 KECCAK256 SLOAD AND PUSH2 0x2149 JUMPI JUMPDEST PUSH1 0x1 ADD PUSH2 0x1FFC JUMP JUMPDEST SWAP3 PUSH2 0x2155 PUSH1 0x1 SWAP2 PUSH2 0x1DC5 JUMP JUMPDEST SWAP4 SWAP1 POP PUSH2 0x2141 JUMP JUMPDEST POP DUP3 PUSH2 0x1FF7 JUMP JUMPDEST POP POP PUSH1 0x40 MLOAD PUSH1 0x0 PUSH2 0x2176 PUSH1 0x20 DUP4 PUSH2 0x1A31 JUMP JUMPDEST DUP2 MSTORE PUSH1 0x0 DUP1 JUMPDEST DUP2 DUP2 LT PUSH2 0x2189 JUMPI POP POP SWAP2 SWAP1 JUMP JUMPDEST PUSH1 0x20 SWAP1 PUSH2 0x2194 PUSH2 0x1EFA JUMP JUMPDEST DUP3 DUP3 DUP7 ADD ADD MSTORE ADD PUSH2 0x217C JUMP JUMPDEST POP DUP4 DUP3 LT ISZERO PUSH2 0x1FE1 JUMP JUMPDEST PUSH1 0x2 PUSH1 0x0 SLOAD EQ PUSH2 0x21BB JUMPI PUSH1 0x2 PUSH1 0x0 SSTORE JUMP JUMPDEST PUSH1 0x40 MLOAD PUSH3 0x461BCD PUSH1 0xE5 SHL DUP2 MSTORE PUSH1 0x20 PUSH1 0x4 DUP3 ADD MSTORE PUSH1 0x1F PUSH1 0x24 DUP3 ADD MSTORE PUSH32 0x5265656E7472616E637947756172643A207265656E7472616E742063616C6C00 PUSH1 0x44 DUP3 ADD MSTORE PUSH1 0x64 SWAP1 REVERT JUMPDEST PUSH1 0x0 DUP1 MLOAD PUSH1 0x20 PUSH2 0x22F7 DUP4 CODECOPY DUP2 MLOAD SWAP2 MSTORE SLOAD PUSH1 0x1 PUSH1 0x1 PUSH1 0xA0 SHL SUB AND CALLER SUB PUSH2 0x2221 JUMPI JUMP JUMPDEST PUSH4 0x118CDAA7 PUSH1 0xE0 SHL PUSH1 0x0 MSTORE CALLER PUSH1 0x4 MSTORE PUSH1 0x24 PUSH1 0x0 REVERT JUMPDEST PUSH1 0xFF PUSH1 0x0 DUP1 MLOAD PUSH1 0x20 PUSH2 0x2357 DUP4 CODECOPY DUP2 MLOAD SWAP2 MSTORE SLOAD PUSH1 0x40 SHR AND ISZERO PUSH2 0x2253 JUMPI JUMP JUMPDEST PUSH4 0x1AFCD79F PUSH1 0xE3 SHL PUSH1 0x0 MSTORE PUSH1 0x4 PUSH1 0x0 REVERT JUMPDEST SWAP1 PUSH1 0x0 DUP1 SWAP2 PUSH1 0x20 DUP2 MLOAD SWAP2 ADD DUP5 GAS DELEGATECALL DUP1 DUP1 PUSH2 0x22E3 JUMPI JUMPDEST ISZERO PUSH2 0x229A JUMPI POP POP PUSH1 0x40 MLOAD RETURNDATASIZE DUP2 MSTORE RETURNDATASIZE PUSH1 0x0 PUSH1 0x20 DUP4 ADD RETURNDATACOPY PUSH1 0x20 RETURNDATASIZE DUP3 ADD ADD PUSH1 0x40 MSTORE SWAP1 JUMP JUMPDEST ISZERO PUSH2 0x22C0 JUMPI PUSH4 0x9996B315 PUSH1 0xE0 SHL PUSH1 0x0 SWAP1 DUP2 MSTORE PUSH1 0x1 PUSH1 0x1 PUSH1 0xA0 SHL SUB SWAP2 SWAP1 SWAP2 AND PUSH1 0x4 MSTORE PUSH1 0x24 SWAP1 REVERT JUMPDEST RETURNDATASIZE ISZERO PUSH2 0x22D2 JUMPI PUSH1 0x40 MLOAD RETURNDATASIZE PUSH1 0x0 DUP3 RETURNDATACOPY RETURNDATASIZE SWAP1 REVERT JUMPDEST PUSH4 0xD6BDA275 PUSH1 0xE0 SHL PUSH1 0x0 MSTORE PUSH1 0x4 PUSH1 0x0 REVERT JUMPDEST POP RETURNDATASIZE ISZERO ISZERO DUP1 PUSH2 0x2279 JUMPI POP DUP2 EXTCODESIZE ISZERO ISZERO PUSH2 0x2279 JUMP INVALID SWAP1 AND 0xD0 SWAP14 PUSH19 0xD40FDAE2FD8CEAC6B6234C7706214FD39C1CD1 0xE6 MULMOD LOG0 MSTORE DUP13 NOT SWAP4 STOP CALLDATASIZE ADDMOD SWAP5 LOG1 EXTCODESIZE LOG1 LOG3 0x21 MOD PUSH8 0xC828492DB98DCA3E KECCAK256 PUSH23 0xCC3735A920A3CA505D382BBCCD5ED15C6E187E77E9AEE8 DUP2 DUP5 0xC2 0x1F 0x4F 0x21 DUP3 0xAB PC 0x27 0xCB EXTCODESIZE PUSH31 0x7FBEDCD63F03300F0C57E16840DF040F15088DC2F81FE391C3923BEC73E23 0xA9 PUSH7 0x2EFC9C229C6A00 LOG2 PUSH5 0x6970667358 0x22 SLT KECCAK256 PUSH9 0xA8B6406EB1F96272A8 SLOAD 0xAA GASPRICE SELFBALANCE 0xE 0xE3 CALLER BASEFEE 0xB1 0xEC 0x2E 0xB8 LT 0xC3 PUSH30 0x11D3E2235E0D6164736F6C634300081A0033000000000000000000000000 "},"methodIdentifiers":{"MAX_NETWORKS_PER_HOST()":"83195f8c","UPGRADE_INTERFACE_VERSION()":"ad3cb1cc","allowedCallers(address)":"7b334154","emergencyDeactivateNetwork(uint256)":"5a2f406f","getHostEarnings(address)":"6d65573f","getHostNetworkCount(address)":"5a25831a","getHostNetworks(address)":"79f0dc57","getNetwork(uint256)":"95ea5717","getNetworksPaginated(uint256,uint256)":"fa9c81a4","hasReachedNetworkLimit(address)":"3c5bcf36","hostEarnings(address)":"29c718b5","hostNetworkCount(address)":"6cfe372e","hostNetworkIds(address,uint256)":"7bae8f5e","increaseClientVoucherFeeEarnings(uint256)":"d3158e13","increaseHostEarnings(address,uint256)":"e1c7a8aa","increaseHostVoucherFeeEarnings(uint256)":"1bc970fe","incrementNetworkId()":"5290ffc6","initialize()":"8129fc1c","isReentrancyGuardActive()":"03d50d66","networkExists(uint256)":"ec13f2a1","networkIdCounter()":"217c682d","networks(uint256)":"8bb0a17c","owner()":"8da5cb5b","pause()":"8456cb59","paused()":"5c975abb","proxiableUUID()":"52d1902d","renounceOwnership()":"715018a6","setAllowedCaller(address,bool)":"d8b0e716","setAllowedCallers(address[],bool)":"73f9a5d7","setNetwork(uint256,(uint256,address,uint256,string,bool,uint256,uint256))":"50c0d41c","totalClientVoucherFeeAmount()":"3c193cc6","totalHostVoucherFeeAmount()":"f2b887d3","totalHostingFeeAmount()":"d473d18b","totalSessionPaymentsAmount()":"d1a08e07","totalWithdrawalsAmount()":"ad2c30b1","transferOwnership(address)":"f2fde38b","unpause()":"3f4ba83a","updateTotalHostingFeeAmount(uint256)":"a8fb85ac","updateTotalSessionPaymentsAmount(uint256)":"e867cecf","updateZaanetWithdrawalsAmount(uint256)":"e4938a4f","upgradeToAndCall(address,bytes)":"4f1ef286"}},"storageLayout":{"storage":[{"astId":8460,"contract":"contracts/ZaaNetStorageV1.sol:ZaaNetStorageV1","label":"_status","offset":0,"slot":"0","type":"t_uint256"},{"astId":8529,"contract":"contracts/ZaaNetStorageV1.sol:ZaaNetStorageV1","label":"__gap","offset":0,"slot":"1","type":"t_array(t_uint256)49_storage"},{"astId":7071,"contract":"contracts/ZaaNetStorageV1.sol:ZaaNetStorageV1","label":"allowedCallers","offset":0,"slot":"50","type":"t_mapping(t_address,t_bool)"},{"astId":7073,"contract":"contracts/ZaaNetStorageV1.sol:ZaaNetStorageV1","label":"networkIdCounter","offset":0,"slot":"51","type":"t_uint256"},{"astId":7075,"contract":"contracts/ZaaNetStorageV1.sol:ZaaNetStorageV1","label":"totalSessionPaymentsAmount","offset":0,"slot":"52","type":"t_uint256"},{"astId":7077,"contract":"contracts/ZaaNetStorageV1.sol:ZaaNetStorageV1","label":"totalWithdrawalsAmount","offset":0,"slot":"53","type":"t_uint256"},{"astId":7079,"contract":"contracts/ZaaNetStorageV1.sol:ZaaNetStorageV1","label":"totalHostingFeeAmount","offset":0,"slot":"54","type":"t_uint256"},{"astId":7086,"contract":"contracts/ZaaNetStorageV1.sol:ZaaNetStorageV1","label":"hostNetworkCount","offset":0,"slot":"55","type":"t_mapping(t_address,t_uint256)"},{"astId":7088,"contract":"contracts/ZaaNetStorageV1.sol:ZaaNetStorageV1","label":"totalClientVoucherFeeAmount","offset":0,"slot":"56","type":"t_uint256"},{"astId":7090,"contract":"contracts/ZaaNetStorageV1.sol:ZaaNetStorageV1","label":"totalHostVoucherFeeAmount","offset":0,"slot":"57","type":"t_uint256"},{"astId":7095,"contract":"contracts/ZaaNetStorageV1.sol:ZaaNetStorageV1","label":"networks","offset":0,"slot":"58","type":"t_mapping(t_uint256,t_struct(Network)7067_storage)"},{"astId":7099,"contract":"contracts/ZaaNetStorageV1.sol:ZaaNetStorageV1","label":"hostEarnings","offset":0,"slot":"59","type":"t_mapping(t_address,t_uint256)"},{"astId":7104,"contract":"contracts/ZaaNetStorageV1.sol:ZaaNetStorageV1","label":"hostNetworkIds","offset":0,"slot":"60","type":"t_mapping(t_address,t_array(t_uint256)dyn_storage)"},{"astId":7108,"contract":"contracts/ZaaNetStorageV1.sol:ZaaNetStorageV1","label":"networkExists","offset":0,"slot":"61","type":"t_mapping(t_uint256,t_bool)"},{"astId":7909,"contract":"contracts/ZaaNetStorageV1.sol:ZaaNetStorageV1","label":"__gap","offset":0,"slot":"62","type":"t_array(t_uint256)50_storage"}],"types":{"t_address":{"encoding":"inplace","label":"address","numberOfBytes":"20"},"t_array(t_uint256)49_storage":{"base":"t_uint256","encoding":"inplace","label":"uint256[49]","numberOfBytes":"1568"},"t_array(t_uint256)50_storage":{"base":"t_uint256","encoding":"inplace","label":"uint256[50]","numberOfBytes":"1600"},"t_array(t_uint256)dyn_storage":{"base":"t_uint256","encoding":"dynamic_array","label":"uint256[]","numberOfBytes":"32"},"t_bool":{"encoding":"inplace","label":"bool","numberOfBytes":"1"},"t_mapping(t_address,t_array(t_uint256)dyn_storage)":{"encoding":"mapping","key":"t_address","label":"mapping(address => uint256[])","numberOfBytes":"32","value":"t_array(t_uint256)dyn_storage"},"t_mapping(t_address,t_bool)":{"encoding":"mapping","key":"t_address","label":"mapping(address => bool)","numberOfBytes":"32","value":"t_bool"},"t_mapping(t_address,t_uint256)":{"encoding":"mapping","key":"t_address","label":"mapping(address => uint256)","numberOfBytes":"32","value":"t_uint256"},"t_mapping(t_uint256,t_bool)":{"encoding":"mapping","key":"t_uint256","label":"mapping(uint256 => bool)","numberOfBytes":"32","value":"t_bool"},"t_mapping(t_uint256,t_struct(Network)7067_storage)":{"encoding":"mapping","key":"t_uint256","label":"mapping(uint256 => struct ZaaNetStorageV1.Network)","numberOfBytes":"32","value":"t_struct(Network)7067_storage"},"t_string_storage":{"encoding":"bytes","label":"string","numberOfBytes":"32"},"t_struct(Network)7067_storage":{"encoding":"inplace","label":"struct ZaaNetStorageV1.Network","members":[{"astId":7054,"contract":"contracts/ZaaNetStorageV1.sol:ZaaNetStorageV1","label":"id","offset":0,"slot":"0","type":"t_uint256"},{"astId":7056,"contract":"contracts/ZaaNetStorageV1.sol:ZaaNetStorageV1","label":"hostAddress","offset":0,"slot":"1","type":"t_address"},{"astId":7058,"contract":"contracts/ZaaNetStorageV1.sol:ZaaNetStorageV1","label":"pricePerSession","offset":0,"slot":"2","type":"t_uint256"},{"astId":7060,"contract":"contracts/ZaaNetStorageV1.sol:ZaaNetStorageV1","label":"mongoDataId","offset":0,"slot":"3","type":"t_string_storage"},{"astId":7062,"contract":"contracts/ZaaNetStorageV1.sol:ZaaNetStorageV1","label":"isActive","offset":0,"slot":"4","type":"t_bool"},{"astId":7064,"contract":"contracts/ZaaNetStorageV1.sol:ZaaNetStorageV1","label":"createdAt","offset":0,"slot":"5","type":"t_uint256"},{"astId":7066,"contract":"contracts/ZaaNetStorageV1.sol:ZaaNetStorageV1","label":"updatedAt","offset":0,"slot":"6","type":"t_uint256"}],"numberOfBytes":"224"},"t_uint256":{"encoding":"inplace","label":"uint256","numberOfBytes":"32"}}}}}}