{"contracts/ZaaNetPaymentV1.sol":{"ZaaNetPaymentV1":{"abi":[{"inputs":[],"stateMutability":"nonpayable","type":"constructor"},{"inputs":[{"internalType":"address","name":"target","type":"address"}],"name":"AddressEmptyCode","type":"error"},{"inputs":[{"internalType":"address","name":"implementation","type":"address"}],"name":"ERC1967InvalidImplementation","type":"error"},{"inputs":[],"name":"ERC1967NonPayable","type":"error"},{"inputs":[],"name":"EnforcedPause","type":"error"},{"inputs":[],"name":"ExpectedPause","type":"error"},{"inputs":[],"name":"FailedCall","type":"error"},{"inputs":[],"name":"InvalidInitialization","type":"error"},{"inputs":[],"name":"NotInitializing","type":"error"},{"inputs":[{"internalType":"address","name":"owner","type":"address"}],"name":"OwnableInvalidOwner","type":"error"},{"inputs":[{"internalType":"address","name":"account","type":"address"}],"name":"OwnableUnauthorizedAccount","type":"error"},{"inputs":[{"internalType":"address","name":"token","type":"address"}],"name":"SafeERC20FailedOperation","type":"error"},{"inputs":[],"name":"UUPSUnauthorizedCallContext","type":"error"},{"inputs":[{"internalType":"bytes32","name":"slot","type":"bytes32"}],"name":"UUPSUnsupportedProxiableUUID","type":"error"},{"anonymous":false,"inputs":[{"indexed":false,"internalType":"uint256","name":"batchSize","type":"uint256"},{"indexed":false,"internalType":"uint256","name":"totalAmount","type":"uint256"},{"indexed":false,"internalType":"uint256","name":"totalPlatformFee","type":"uint256"}],"name":"BatchPaymentProcessed","type":"event"},{"anonymous":false,"inputs":[{"indexed":true,"internalType":"address","name":"treasury","type":"address"},{"indexed":false,"internalType":"uint256","name":"attemptedAmount","type":"uint256"},{"indexed":false,"internalType":"uint256","name":"dailyLimit","type":"uint256"},{"indexed":false,"internalType":"uint256","name":"alreadyWithdrawn","type":"uint256"}],"name":"DailyLimitExceeded","type":"event"},{"anonymous":false,"inputs":[{"indexed":false,"internalType":"uint256","name":"newLimit","type":"uint256"},{"indexed":false,"internalType":"address","name":"updatedBy","type":"address"},{"indexed":false,"internalType":"uint256","name":"timestamp","type":"uint256"}],"name":"DailyLimitUpdated","type":"event"},{"anonymous":false,"inputs":[{"indexed":true,"internalType":"address","name":"host","type":"address"},{"indexed":true,"internalType":"uint8","name":"tier","type":"uint8"},{"indexed":false,"internalType":"uint256","name":"voucherCount","type":"uint256"},{"indexed":false,"internalType":"uint256","name":"totalFee","type":"uint256"},{"indexed":false,"internalType":"uint256","name":"timestamp","type":"uint256"}],"name":"HostVouchersRegistered","type":"event"},{"anonymous":false,"inputs":[{"indexed":false,"internalType":"uint64","name":"version","type":"uint64"}],"name":"Initialized","type":"event"},{"anonymous":false,"inputs":[{"indexed":true,"internalType":"address","name":"previousOwner","type":"address"},{"indexed":true,"internalType":"address","name":"newOwner","type":"address"}],"name":"OwnershipTransferred","type":"event"},{"anonymous":false,"inputs":[{"indexed":false,"internalType":"address","name":"account","type":"address"}],"name":"Paused","type":"event"},{"anonymous":false,"inputs":[{"indexed":true,"internalType":"bytes32","name":"voucherId","type":"bytes32"},{"indexed":true,"internalType":"uint256","name":"contractId","type":"uint256"},{"indexed":true,"internalType":"address","name":"host","type":"address"},{"indexed":false,"internalType":"address","name":"payer","type":"address"},{"indexed":false,"internalType":"uint256","name":"grossAmount","type":"uint256"},{"indexed":false,"internalType":"uint256","name":"platformFee","type":"uint256"},{"indexed":false,"internalType":"uint256","name":"hostAmount","type":"uint256"},{"indexed":false,"internalType":"uint256","name":"timestamp","type":"uint256"}],"name":"PaymentProcessed","type":"event"},{"anonymous":false,"inputs":[{"indexed":true,"internalType":"address","name":"token","type":"address"},{"indexed":false,"internalType":"bool","name":"status","type":"bool"},{"indexed":false,"internalType":"uint256","name":"timestamp","type":"uint256"}],"name":"TokenWhitelistUpdated","type":"event"},{"anonymous":false,"inputs":[{"indexed":false,"internalType":"address","name":"account","type":"address"}],"name":"Unpaused","type":"event"},{"anonymous":false,"inputs":[{"indexed":true,"internalType":"address","name":"implementation","type":"address"}],"name":"Upgraded","type":"event"},{"inputs":[],"name":"UPGRADE_INTERFACE_VERSION","outputs":[{"internalType":"string","name":"","type":"string"}],"stateMutability":"view","type":"function"},{"inputs":[{"internalType":"address","name":"_token","type":"address"}],"name":"addTokenToWhitelist","outputs":[],"stateMutability":"nonpayable","type":"function"},{"inputs":[],"name":"adminContract","outputs":[{"internalType":"contract IZaaNetAdmin","name":"","type":"address"}],"stateMutability":"view","type":"function"},{"inputs":[],"name":"contractTokenBalance","outputs":[{"internalType":"uint256","name":"","type":"uint256"}],"stateMutability":"view","type":"function"},{"inputs":[],"name":"dailyWithdrawalLimit","outputs":[{"internalType":"uint256","name":"","type":"uint256"}],"stateMutability":"view","type":"function"},{"inputs":[{"internalType":"uint256","name":"","type":"uint256"}],"name":"dailyWithdrawals","outputs":[{"internalType":"uint256","name":"","type":"uint256"}],"stateMutability":"view","type":"function"},{"inputs":[],"name":"getRemainingDailyLimit","outputs":[{"internalType":"uint256","name":"","type":"uint256"}],"stateMutability":"view","type":"function"},{"inputs":[],"name":"getTodayWithdrawals","outputs":[{"internalType":"uint256","name":"","type":"uint256"}],"stateMutability":"view","type":"function"},{"inputs":[],"name":"getWhitelistedTokens","outputs":[{"internalType":"address[]","name":"","type":"address[]"}],"stateMutability":"view","type":"function"},{"inputs":[{"internalType":"address","name":"_usdt","type":"address"},{"internalType":"address","name":"_storageContract","type":"address"},{"internalType":"address","name":"_adminContract","type":"address"}],"name":"initialize","outputs":[],"stateMutability":"nonpayable","type":"function"},{"inputs":[],"name":"isReentrancyGuardActive","outputs":[{"internalType":"bool","name":"","type":"bool"}],"stateMutability":"view","type":"function"},{"inputs":[{"internalType":"address","name":"_token","type":"address"}],"name":"isTokenWhitelisted","outputs":[{"internalType":"bool","name":"","type":"bool"}],"stateMutability":"view","type":"function"},{"inputs":[{"internalType":"bytes32","name":"_voucherId","type":"bytes32"}],"name":"isVoucherProcessed","outputs":[{"internalType":"bool","name":"","type":"bool"}],"stateMutability":"view","type":"function"},{"inputs":[],"name":"owner","outputs":[{"internalType":"address","name":"","type":"address"}],"stateMutability":"view","type":"function"},{"inputs":[],"name":"pause","outputs":[],"stateMutability":"nonpayable","type":"function"},{"inputs":[],"name":"paused","outputs":[{"internalType":"bool","name":"","type":"bool"}],"stateMutability":"view","type":"function"},{"inputs":[{"components":[{"internalType":"uint256","name":"contractId","type":"uint256"},{"internalType":"uint256","name":"grossAmount","type":"uint256"},{"internalType":"bytes32","name":"voucherId","type":"bytes32"}],"internalType":"struct ZaaNetPaymentV1.BatchPayment[]","name":"payments","type":"tuple[]"}],"name":"processBatchPayments","outputs":[],"stateMutability":"nonpayable","type":"function"},{"inputs":[{"internalType":"uint256","name":"_contractId","type":"uint256"},{"internalType":"uint256","name":"_grossAmount","type":"uint256"},{"internalType":"bytes32","name":"_voucherId","type":"bytes32"}],"name":"processPayment","outputs":[],"stateMutability":"nonpayable","type":"function"},{"inputs":[{"internalType":"bytes32","name":"","type":"bytes32"}],"name":"processedVouchers","outputs":[{"internalType":"bool","name":"","type":"bool"}],"stateMutability":"view","type":"function"},{"inputs":[],"name":"proxiableUUID","outputs":[{"internalType":"bytes32","name":"","type":"bytes32"}],"stateMutability":"view","type":"function"},{"inputs":[{"internalType":"bytes32[]","name":"voucherIds","type":"bytes32[]"},{"internalType":"uint8","name":"tier","type":"uint8"}],"name":"registerHostVouchersAndPayFee","outputs":[],"stateMutability":"nonpayable","type":"function"},{"inputs":[{"internalType":"address","name":"_token","type":"address"}],"name":"removeTokenFromWhitelist","outputs":[],"stateMutability":"nonpayable","type":"function"},{"inputs":[],"name":"renounceOwnership","outputs":[],"stateMutability":"nonpayable","type":"function"},{"inputs":[{"internalType":"address","name":"_erc20","type":"address"},{"internalType":"address","name":"_to","type":"address"},{"internalType":"uint256","name":"_amount","type":"uint256"}],"name":"rescueERC20","outputs":[],"stateMutability":"nonpayable","type":"function"},{"inputs":[{"internalType":"uint256","name":"_newLimit","type":"uint256"}],"name":"setDailyWithdrawalLimit","outputs":[],"stateMutability":"nonpayable","type":"function"},{"inputs":[],"name":"storageContract","outputs":[{"internalType":"contract IZaaNetStorage","name":"","type":"address"}],"stateMutability":"view","type":"function"},{"inputs":[],"name":"tokenDecimals","outputs":[{"internalType":"uint8","name":"","type":"uint8"}],"stateMutability":"view","type":"function"},{"inputs":[{"internalType":"address","name":"newOwner","type":"address"}],"name":"transferOwnership","outputs":[],"stateMutability":"nonpayable","type":"function"},{"inputs":[],"name":"unpause","outputs":[],"stateMutability":"nonpayable","type":"function"},{"inputs":[{"internalType":"address","name":"newImplementation","type":"address"},{"internalType":"bytes","name":"data","type":"bytes"}],"name":"upgradeToAndCall","outputs":[],"stateMutability":"payable","type":"function"},{"inputs":[],"name":"usdt","outputs":[{"internalType":"contract IERC20","name":"","type":"address"}],"stateMutability":"view","type":"function"},{"inputs":[{"internalType":"uint256","name":"","type":"uint256"}],"name":"whitelistedTokenList","outputs":[{"internalType":"address","name":"","type":"address"}],"stateMutability":"view","type":"function"},{"inputs":[{"internalType":"address","name":"","type":"address"}],"name":"whitelistedTokens","outputs":[{"internalType":"bool","name":"","type":"bool"}],"stateMutability":"view","type":"function"},{"inputs":[{"internalType":"address","name":"_to","type":"address"},{"internalType":"uint256","name":"_amount","type":"uint256"}],"name":"withdrawToken","outputs":[],"stateMutability":"nonpayable","type":"function"}],"evm":{"bytecode":{"linkReferences":{},"object":"60a0806040523460295730608052612ff8908161002f8239608051818181611c520152611d200152f35b600080fdfe608080604052600436101561001357600080fd5b600090813560e01c90816303d50d66146127895750806305483a15146126aa5780630604bfa4146109b857806311ce0267146126815780632f48ab7d14612658578063306275be1461253257806333770245146125085780633b97e856146124e45780633f4ba83a146124625780634342482d14611eb75780634f1ef28614611ca757806352d1902d14611c3f5780635c975abb14611c0f578063715018a614611ba55780637620843a14611b875780637ddd23e1146112c35780638456cb591461124e5780638da5cb5b146112185780639e281a9814610fd95780639e7b721814610bf95780639e9aed6214610b64578063a15f39e814610b17578063ad3cb1cc14610ab8578063b2118a8d146109e7578063b5af090f1461028e578063b9a24544146109b8578063bddff74914610937578063c05c5e941461090e578063c0c53b8b14610559578063c4d276bc1461052d578063d84c1b38146102cd578063daf9c2101461028e578063e26f7900146101c65763f2fde38b1461019757600080fd5b346101c35760203660031901126101c3576101c06101b36127a6565b6101bb612d3f565b612cc9565b80f35b80fd5b50346101c357806003193601126101c35760405180602060385491828152018091603885527f38395c5dceade9603479b177b68959049485df8aa97b39f3533039af5f45619990855b81811061026f57505050826102259103836127d2565b604051928392602084019060208552518091526040840192915b81811061024d575050500390f35b82516001600160a01b031684528594506020938401939092019160010161023f565b82546001600160a01b031684526020909301926001928301920161020f565b50346101c35760203660031901126101c35760209060ff906040906001600160a01b036102b96127a6565b168152603784522054166040519015158152f35b50346101c35760203660031901126101c3576102e76127a6565b6102ef612d3f565b6001600160a01b0381169081156104f057818352603760205260ff6040842054166104ab5760405163313ce56760e01b8152602081600481865afa9081156104a05760069160ff918691610471575b50160361042c576040516318160ddd60e01b8152602081600481865afa90816103f8575b506103a55760405162461bcd60e51b8152602060048201526016602482015275125b9d985b1a59081d1bdad95b8818dbdb9d1c9858dd60521b6044820152606490fd5b818352603760205260408320805460ff191660011790556103c590612c5d565b7f7fb8cc89e751c0284c2d2cc1c1e6a904c25cf93855aa4159c30ce2d0827c54fe6040805160018152426020820152a280f35b6020813d602011610424575b81610411602093836127d2565b8101031261041f5751610362565b600080fd5b3d9150610404565b60405162461bcd60e51b815260206004820152601a60248201527f546f6b656e206d7573742068617665203620646563696d616c730000000000006044820152606490fd5b610493915060203d602011610499575b61048b81836127d2565b810190612c44565b3861033e565b503d610481565b6040513d86823e3d90fd5b60405162461bcd60e51b815260206004820152601960248201527f546f6b656e20616c72656164792077686974656c6973746564000000000000006044820152606490fd5b60405162461bcd60e51b8152602060048201526015602482015274496e76616c696420746f6b656e206164647265737360581b6044820152606490fd5b50346101c357806003193601126101c35760406020916201518042048152603683522054604051908152f35b50346101c35760603660031901126101c3576105736127a6565b61057b6127bc565b906044356001600160a01b038116919082900361090a57600080516020612fa3833981519152549260ff8460401c1615936001600160401b03811680159081610902575b60011490816108f8575b1590816108ef575b506108e05767ffffffffffffffff198116600117600080516020612fa383398151915255846108b3575b50610604612e82565b61060c612e82565b61061533612cc9565b61061d612e82565b610625612e82565b61062d612e82565b600185556402540be4006035556001600160a01b038216908115610881576001600160a01b031691821561084d57831561081b57603280546001600160a01b03198116841790915560405163313ce56760e01b815290602082600481875afa908115610810578460ff926006948b916107f1575b508360a01b9060a01b16916affffffffffffffffffffff60a81b1617178060325560a01c16036107ac57818652603760205260408620805460ff191660011790556106eb90612c5d565b7f7fb8cc89e751c0284c2d2cc1c1e6a904c25cf93855aa4159c30ce2d0827c54fe6040805160018152426020820152a26bffffffffffffffffffffffff60a01b60335416176033556bffffffffffffffffffffffff60a01b60345416176034556107525780f35b68ff000000000000000019600080516020612fa38339815191525416600080516020612fa3833981519152557fc7f505b2f371ae2175ee4913f4499e1f2633a7b5936321eed1cdaeb6115181d2602060405160018152a180f35b60405162461bcd60e51b815260206004820152601860248201527f546f6b656e20646563696d616c73206d757374206265203600000000000000006044820152606490fd5b61080a915060203d6020116104995761048b81836127d2565b386106a1565b6040513d8a823e3d90fd5b60405162461bcd60e51b815260206004820152600a60248201526961646d696e207a65726f60b01b6044820152606490fd5b60405162461bcd60e51b815260206004820152600c60248201526b73746f72616765207a65726f60a01b6044820152606490fd5b60405162461bcd60e51b815260206004820152600a602482015269746f6b656e207a65726f60b01b6044820152606490fd5b68ffffffffffffffffff19166801000000000000000117600080516020612fa383398151915255386105fb565b63f92ee8a960e01b8652600486fd5b905015386105d1565b303b1591506105c9565b8691506105bf565b8380fd5b50346101c357806003193601126101c3576034546040516001600160a01b039091168152602090f35b50346101c35760203660031901126101c357600435906038548210156101c3576038548210156109a457603881527f38395c5dceade9603479b177b68959049485df8aa97b39f3533039af5f4561999091015460405160039290921b1c6001600160a01b03168152602090f35b634e487b7160e01b81526032600452602490fd5b50346101c35760203660031901126101c35760ff60406020926004358152603984522054166040519015158152f35b50346101c35760603660031901126101c357610a016127a6565b610a096127bc565b90610a12612d3f565b6001600160a01b03821615610a89576032546001600160a01b0391821691168114610a44576101c09160443591612df5565b60405162461bcd60e51b815260206004820152601b60248201527f43616e6e6f7420726573637565207061796d656e7420746f6b656e00000000006044820152606490fd5b60405162461bcd60e51b81526020600482015260076024820152667a65726f20746f60c81b6044820152606490fd5b50346101c357806003193601126101c35750610b0960408051610adb82826127d2565b6005815260208101640352e302e360dc1b815282519384926020845251809281602086015285850190612824565b601f01601f19168101030190f35b50346101c357806003193601126101c357602090620151804204815260368252604081205460355480821015600014610b555750505b604051908152f35b610b5f9250612ae0565b610b4d565b50346101c357806003193601126101c3576032546040516370a0823160e01b81523060048201529190602090839060249082906001600160a01b03165afa908115610bed5790610bba575b602090604051908152f35b506020813d602011610be5575b81610bd4602093836127d2565b8101031261041f5760209051610baf565b3d9150610bc7565b604051903d90823e3d90fd5b50346101c35760403660031901126101c3576004356001600160401b038111610fd55736602382011215610fd5578060040135906001600160401b038211610e0757602436918360051b010111610fd5576024359060ff8216809203610e0757610c61612d75565b610c69612d9f565b8015610fa2576103e88111610f695760028211610f355760345460405163b110bb5b60e01b8152600481018490526001600160a01b039091169190602081602481865afa908115610e7a578591610f03575b508015610ebe5781610ccc91612c31565b918215610e855760206004916040519283809263c5f956af60e01b82525afa908115610e7a578591610e3c575b506001600160a01b0316610d0e811515612aa1565b6032546040516323b872dd60e01b87523360045260249290925260448490526001600160a01b031660208660648180855af16001875114811615610e1d575b826040528660605215610e0b57506033548591906001600160a01b0316803b15610e075781602481858094630de4b87f60e11b83528960048401525af18015610dfc57610de7575b5050610ddd7fa249fcbab6d1e1af4f18545c0073c1775a962c44cbb61ce270d72f7952438f5a9160405191829133954291846040919493926060820195825260208201520152565b0390a36001815580f35b81610df1916127d2565b61090a578338610d95565b6040513d84823e3d90fd5b8280fd5b635274afe760e01b8652600452602485fd5b6001811516610e3357813b15153d151616610d4d565b823d88823e3d90fd5b90506020813d602011610e72575b81610e57602093836127d2565b81010312610e6e57610e6890612847565b38610cf9565b8480fd5b3d9150610e4a565b6040513d87823e3d90fd5b60405162461bcd60e51b8152602060048201526011602482015270546f74616c20666565206973207a65726f60781b6044820152606490fd5b60405162461bcd60e51b815260206004820152601860248201527f486f737420766f756368657220666565206e6f742073657400000000000000006044820152606490fd5b90506020813d602011610f2d575b81610f1e602093836127d2565b8101031261041f575138610cbb565b3d9150610f11565b60405162461bcd60e51b815260206004820152600c60248201526b24b73b30b634b2103a34b2b960a11b6044820152606490fd5b60405162461bcd60e51b8152602060048201526011602482015270546f6f206d616e7920766f75636865727360781b6044820152606490fd5b60405162461bcd60e51b815260206004820152600b60248201526a4e6f20766f75636865727360a81b6044820152606490fd5b5080fd5b50346101c35760403660031901126101c357610ff36127a6565b602435610ffe612d3f565b6001600160a01b038216156111d357801561118f576032546040516370a0823160e01b815230600482015290602090829060249082906001600160a01b03165afa80156104a05782908590611159575b61105a92501015612be5565b620151804204808452603660205260408420546035548181811061114b575050845b83116111065784936110b192611093858094612bd8565b908652603660205260408620556032546001600160a01b0316612df5565b6033546001600160a01b031690813b1561110257829160248392604051948593849263e4938a4f60e01b845260048401525af18015610dfc576110f15750f35b816110fb916127d2565b6101c35780f35b5050fd5b60405162461bcd60e51b815260206004820152601e60248201527f45786365656473206461696c79207769746864726177616c206c696d697400006044820152606490fd5b61115491612ae0565b61107c565b50506020813d602011611187575b81611174602093836127d2565b8101031261041f578161105a915161104e565b3d9150611167565b606460405162461bcd60e51b815260206004820152602060248201527f416d6f756e74206d7573742062652067726561746572207468616e207a65726f6044820152fd5b60405162461bcd60e51b815260206004820152601960248201527f496e76616c696420726563697069656e742061646472657373000000000000006044820152606490fd5b50346101c357806003193601126101c357600080516020612f43833981519152546040516001600160a01b039091168152602090f35b50346101c357806003193601126101c357611267612d3f565b61126f612d75565b600160ff19600080516020612f83833981519152541617600080516020612f83833981519152557f62e78cea01bee320cd4e420270b5ea74000d11b0c9f74754ebdbfc544b05a2586020604051338152a180f35b50346101c35760203660031901126101c3576004356001600160401b038111610fd55736602382011215610fd5578060040135906001600160401b038211610e075760248101906024369160608502010111610e0757611321612d75565b611329612d9f565b60345460405163319a11df60e11b81526001600160a01b039091169290602081600481875afa8015610e7a578590611b4c575b61137191506001600160a01b0316331461285b565b60405162482fab60e51b8152602081600481875afa8015610e7a578590611b11575b61139e9150156128aa565b80151580611b06575b15611acc57604051638c639a8560e01b815292849290602085600481845afa948515611a8a578695611a95575b509060206004926040519384809263c5f956af60e01b82525afa918215611a8a578692611a4a575b506114116001600160a01b0383161515612aa1565b61141a83612b45565b61142760405191826127d2565b838152601f1961143685612b45565b013660208301376033548791906001600160a01b0316825b8684106119015750505050620151804204808752603660205261149385604089205480603554808210156000146118ef57505061148e8a5b831115612b03565b612bd8565b908752603660205260408720556024602060018060a01b0360325416604051928380926370a0823160e01b82523060048301525afa80156118e457859088906118ae575b6114e692509692961015612be5565b859486915b84831061160f57505050838061159f575b505060335484906001600160a01b0316803b15610fd55781809160246040518094819363e867cecf60e01b83528960048401525af18015610dfc5761158a575b50506115807f20eb9f3aebb74816a1325a7477cfa6f6ab692b692cd5930db98bd2d0343b70ca93604051938493846040919493926060820195825260208201520152565b0390a16001815580f35b81611594916127d2565b61090a57833861153c565b6032546115b592906001600160a01b0316612df5565b60335484906001600160a01b0316803b15610fd55781809160246040518094819363d3158e1360e01b83528a60048401525af18015610dfc576115fa575b50836114fc565b81611604916127d2565b61090a5783386115f3565b909195611625611620888786612b5c565b612b82565b9660018060a01b0360335416978981516024604051809c81936395ea571760e01b835260048301525afa9889156118a3578a9961187f575b508960208201916064611671878551612c31565b049461167e868551612ae0565b906116898783612bd8565b6032546040516370a0823160e01b81523060048201526001600160a01b0390911695906020816024818a5afa918215610bed579161184c575b5010611808576116e2828f9e6020019560018060a01b0387511690612df5565b60335484516001600160a01b039081169116803b15611804576040516370e3d45560e11b81526001600160a01b03929092166004830152602482018490528e908290604490829084905af19081156117f7578e916117da575b505090866117cf61176f6001997fdaec0156f045fe9bffcc686bd77361f536743020f757603c9f1888937cdfc52195612bd8565b9e604080870191825181526039602052208a60ff1982541617905551945195898060a01b039051169651604051938493429233869192608093969594919660a084019760018060a01b031684526020840152604083015260608201520152565b0390a40191906114eb565b816117e7919493946127d2565b6117f357908c3861173b565b8c80fd5b8e604051903d90823e3d90fd5b8e80fd5b606460405162461bcd60e51b815260206004820152602060248201527f496e73756666696369656e742062616c616e636520666f72207061796d656e746044820152fd5b905060203d8111611878575b61186281836127d2565b602082600092810103126101c3575051386116c2565b503d611858565b61189c9199503d808c833e61189481836127d2565b810190612977565b973861165d565b6040513d8c823e3d90fd5b50506020813d6020116118dc575b816118c9602093836127d2565b8101031261041f57846114e691516114d7565b3d91506118bc565b6040513d89823e3d90fd5b61148e916118fc91612ae0565b611486565b6119126116208589889b979b612b5c565b9360408501918b5b8181106119eb5750825161192e8287612bc4565b5260001981146119d7579060018c9392019560208101926119518451151561293a565b518452603960205261196a60ff604086205416156128ee565b5191604051926395ea571760e01b845260048401528383602481885afa9283156104a05760806119b4946119ad9287600198926119bc575b505001511515612a60565b5190612bd8565b97019261144e565b6119d092503d8091833e61189481836127d2565b8f806119a2565b634e487b7160e01b8c52601160045260248cfd5b6119f58187612bc4565b51845114611a055760010161191a565b60405162461bcd60e51b815260206004820152601a60248201527f4475706c696361746520766f756368657220696e2062617463680000000000006044820152606490fd5b9091506020813d602011611a82575b81611a66602093836127d2565b81010312611a7e57611a7790612847565b90386113fc565b8580fd5b3d9150611a59565b6040513d88823e3d90fd5b919094506020823d602011611ac4575b81611ab2602093836127d2565b8101031261041f5790519360206113d4565b3d9150611aa5565b60405162461bcd60e51b8152602060048201526012602482015271496e76616c69642062617463682073697a6560701b6044820152606490fd5b5060328111156113a7565b506020813d602011611b44575b81611b2b602093836127d2565b81010312610e6e57611b3f61139e9161289d565b611393565b3d9150611b1e565b506020813d602011611b7f575b81611b66602093836127d2565b81010312610e6e57611b7a61137191612847565b61135c565b3d9150611b59565b50346101c357806003193601126101c3576020603554604051908152f35b50346101c357806003193601126101c357611bbe612d3f565b600080516020612f4383398151915280546001600160a01b0319811690915581906001600160a01b03167f8be0079c531659141344cd1fd0a4f28419497f9722a3daafe3b4186f6b6457e08280a380f35b50346101c357806003193601126101c357602060ff600080516020612f8383398151915254166040519015158152f35b50346101c357806003193601126101c3577f00000000000000000000000000000000000000000000000000000000000000006001600160a01b03163003611c98576020604051600080516020612f638339815191528152f35b63703e46dd60e11b8152600490fd5b5060403660031901126101c357611cbc6127a6565b90602435916001600160401b038311610fd55736602384011215610fd5578260040135611ce881612809565b93611cf660405195866127d2565b818552366024838301011161090a5781849260246020930183880137850101526001600160a01b037f000000000000000000000000000000000000000000000000000000000000000016308114908115611e94575b50611e8557611d58612d3f565b6040516352d1902d60e01b8152926001600160a01b0382169190602085600481865afa80958596611e51575b50611d9d57634c9c8ce360e01b84526004839052602484fd5b909184600080516020612f638339815191528103611e3f5750823b15611e2d57600080516020612f6383398151915280546001600160a01b031916821790557fbc7cd75a20ee27fd9adebab32041f755214dbc6bffa90cc0225b39da2e5c2d3b8480a2805115611e1457611e1091612eb0565b5080f35b505034611e1e5780f35b63b398979f60e01b8152600490fd5b634c9c8ce360e01b8452600452602483fd5b632a87526960e21b8552600452602484fd5b9095506020813d602011611e7d575b81611e6d602093836127d2565b81010312610e6e57519438611d84565b3d9150611e60565b63703e46dd60e11b8252600482fd5b600080516020612f63833981519152546001600160a01b03161415905038611d4b565b50346101c35760603660031901126101c357602435600435604435611eda612d75565b611ee2612d9f565b60345460405163319a11df60e11b81526001600160a01b0390911690602081600481855afa8015611a8a578690612427575b611f2991506001600160a01b0316331461285b565b60405162482fab60e51b8152602081600481855afa8015611a8a5786906123ec575b611f569150156128aa565b8185526039602052611f6f60ff604087205416156128ee565b611f7a84151561293a565b6033546040516395ea571760e01b815260048101859052908690829060249082906001600160a01b03165afa908115611a8a5786916123d2575b50611fc460808201511515612a60565b604051638c639a8560e01b815291602083600481845afa9283156118e457879361239d575b509160206004936040519485809263c5f956af60e01b82525afa9283156118e457879361235d575b506120266001600160a01b0384161515612aa1565b606461207962015180420492838a52603660205260408a20546035548082101560001461234b57505061205c8a5b8a1115612b03565b868a52603960205260408a20805460ff1916600117905588612c31565b04906120858288612ae0565b9260018060a01b0360325416946040516370a0823160e01b81523060048201526020816024818a5afa908115612340578b9161230a575b506120c78587612bd8565b116122b3576120e68560208694019760018060a01b0389511690612df5565b8115159182612296575b505060335485516001600160a01b03918216918b9116823b15610fd5576040516370e3d45560e11b81526001600160a01b0391909116600482015260248101879052918290604490829084905af180156118a357612282575b50612228575b60335488906001600160a01b0316803b15610fd55781809160248b604051948593849263e867cecf60e01b845260048401525af18015610dfc5761220f575b5093612205917fdaec0156f045fe9bffcc686bd77361f536743020f757603c9f1888937cdfc52195526036602052604089206121cb898254612bd8565b90555160408051338152602081019990995288019290925260608701929092524260808701526001600160a01b03169490819060a0820190565b0390a46001815580f35b81612219916127d2565b61222457873861218e565b8780fd5b60335488906001600160a01b0316803b15610fd55781809160246040518094819363d3158e1360e01b83528960048401525af18015610dfc5761226d575b505061214f565b81612277916127d2565b612224578738612266565b8961228f919a929a6127d2565b9738612149565b6032546122ac92906001600160a01b0316612df5565b38836120f0565b60405162461bcd60e51b815260206004820152602960248201527f496e73756666696369656e7420636f6e74726163742062616c616e636520666f6044820152681c881c185e5b595b9d60ba1b6064820152608490fd5b90506020813d602011612338575b81612325602093836127d2565b810103126123345751386120bc565b8a80fd5b3d9150612318565b6040513d8d823e3d90fd5b61205c9161235891612ae0565b612054565b9092506020813d602011612395575b81612379602093836127d2565b810103126123915761238a90612847565b9138612011565b8680fd5b3d915061236c565b92506020833d6020116123ca575b816123b8602093836127d2565b81010312612391579151916020611fe9565b3d91506123ab565b6123e691503d8088833e61189481836127d2565b38611fb4565b506020813d60201161241f575b81612406602093836127d2565b81010312611a7e5761241a611f569161289d565b611f4b565b3d91506123f9565b506020813d60201161245a575b81612441602093836127d2565b81010312611a7e57612455611f2991612847565b611f14565b3d9150612434565b50346101c357806003193601126101c35761247b612d3f565b600080516020612f838339815191525460ff8116156124d55760ff1916600080516020612f83833981519152557f5db9ee0a495bf2e6ff9c91a7834c1ba4fdd244a5e8aa4e537bd38aeae4b073aa6020604051338152a180f35b638dfc202b60e01b8252600482fd5b50346101c357806003193601126101c357602060ff60325460a01c16604051908152f35b50346101c35760203660031901126101c35760406020916004358152603683522054604051908152f35b50346101c35760203660031901126101c35761254c6127a6565b612554612d3f565b6001600160a01b03168082526037602052604082205460ff161561261b576032546001600160a01b031681146125ca5780825260376020526040822060ff1981541690557f7fb8cc89e751c0284c2d2cc1c1e6a904c25cf93855aa4159c30ce2d0827c54fe60408051848152426020820152a280f35b60405162461bcd60e51b815260206004820152602360248201527f43616e6e6f742072656d6f7665207072696d617279207061796d656e7420746f60448201526235b2b760e91b6064820152608490fd5b60405162461bcd60e51b8152602060048201526015602482015274151bdad95b881b9bdd081dda1a5d195b1a5cdd1959605a1b6044820152606490fd5b50346101c357806003193601126101c3576032546040516001600160a01b039091168152602090f35b50346101c357806003193601126101c3576033546040516001600160a01b039091168152602090f35b50346101c35760203660031901126101c3576004356126c7612d3f565b80156127545764e8d4a510008111612717576060817fda28ca75968339406a52357673d7e5448fc139fc6b02f5e78d654f35cf162e2092603555604051908152336020820152426040820152a180f35b60405162461bcd60e51b81526020600482015260156024820152744c696d69742065786365656473206d6178696d756d60581b6044820152606490fd5b60405162461bcd60e51b815260206004820152600d60248201526c125b9d985b1a59081b1a5b5a5d609a1b6044820152606490fd5b905034610fd55781600319360112610fd557600260209254148152f35b600435906001600160a01b038216820361041f57565b602435906001600160a01b038216820361041f57565b90601f801991011681019081106001600160401b038211176127f357604052565b634e487b7160e01b600052604160045260246000fd5b6001600160401b0381116127f357601f01601f191660200190565b60005b8381106128375750506000910152565b8181015183820152602001612827565b51906001600160a01b038216820361041f57565b1561286257565b60405162461bcd60e51b81526020600482015260136024820152724e6f74207061796d656e74206164647265737360681b6044820152606490fd5b5190811515820361041f57565b156128b157565b60405162461bcd60e51b8152602060048201526015602482015274456d657267656e6379206d6f64652061637469766560581b6044820152606490fd5b156128f557565b60405162461bcd60e51b815260206004820152601960248201527f566f756368657220616c72656164792070726f636573736564000000000000006044820152606490fd5b1561294157565b60405162461bcd60e51b815260206004820152600e60248201526d125b9d985b1a5908185b5bdd5b9d60921b6044820152606490fd5b60208183031261041f578051906001600160401b03821161041f57019060e08282031261041f576040519160e083018381106001600160401b038211176127f357604052805183526129cb60208201612847565b60208401526040810151604084015260608101516001600160401b03811161041f5781019180601f8401121561041f57825192612a0784612809565b91612a1560405193846127d2565b8483526020858301011161041f5760c093612a369160208085019101612824565b6060840152612a476080820161289d565b608084015260a081015160a0840152015160c082015290565b15612a6757565b60405162461bcd60e51b81526020600482015260126024820152714e6574776f726b206e6f742061637469766560701b6044820152606490fd5b15612aa857565b60405162461bcd60e51b815260206004820152601060248201526f496e76616c696420747265617375727960801b6044820152606490fd5b91908203918211612aed57565b634e487b7160e01b600052601160045260246000fd5b15612b0a57565b60405162461bcd60e51b8152602060048201526013602482015272115e18d959591cc819185a5b1e481b1a5b5a5d606a1b6044820152606490fd5b6001600160401b0381116127f35760051b60200190565b9190811015612b6c576060020190565b634e487b7160e01b600052603260045260246000fd5b60608136031261041f576040519060608201908282106001600160401b038311176127f357604091825280358352602081013560208401520135604082015290565b8051821015612b6c5760209160051b010190565b91908201809211612aed57565b15612bec57565b60405162461bcd60e51b815260206004820152601d60248201527f496e73756666696369656e7420636f6e74726163742062616c616e63650000006044820152606490fd5b81810292918115918404141715612aed57565b9081602091031261041f575160ff8116810361041f5790565b603854680100000000000000008110156127f3576001810160385560006038548210156109a457603890527f38395c5dceade9603479b177b68959049485df8aa97b39f3533039af5f4561990180546001600160a01b0319166001600160a01b03909216919091179055565b6001600160a01b03168015612d2957600080516020612f4383398151915280546001600160a01b0319811683179091556001600160a01b03167f8be0079c531659141344cd1fd0a4f28419497f9722a3daafe3b4186f6b6457e0600080a3565b631e4fbdf760e01b600052600060045260246000fd5b600080516020612f43833981519152546001600160a01b03163303612d6057565b63118cdaa760e01b6000523360045260246000fd5b60ff600080516020612f838339815191525416612d8e57565b63d93c066560e01b60005260046000fd5b600260005414612db0576002600055565b60405162461bcd60e51b815260206004820152601f60248201527f5265656e7472616e637947756172643a207265656e7472616e742063616c6c006044820152606490fd5b60405163a9059cbb60e01b60009081526001600160a01b03909316600452602493909352919060209060448180865af190600160005114821615612e60575b60405215612e3f5750565b635274afe760e01b60009081526001600160a01b0391909116600452602490fd5b906001811516612e7857823b15153d15161690612e34565b503d6000823e3d90fd5b60ff600080516020612fa38339815191525460401c1615612e9f57565b631afcd79f60e31b60005260046000fd5b9060008091602081519101845af48080612f2f575b15612ee65750506040513d81523d6000602083013e60203d82010160405290565b15612f0c57639996b31560e01b60009081526001600160a01b0391909116600452602490fd5b3d15612f1e576040513d6000823e3d90fd5b63d6bda27560e01b60005260046000fd5b503d151580612ec55750813b1515612ec556fe9016d09d72d40fdae2fd8ceac6b6234c7706214fd39c1cd1e609a0528c199300360894a13ba1a3210667c828492db98dca3e2076cc3735a920a3ca505d382bbccd5ed15c6e187e77e9aee88184c21f4f2182ab5827cb3b7e07fbedcd63f03300f0c57e16840df040f15088dc2f81fe391c3923bec73e23a9662efc9c229c6a00a26469706673582212202e7671c41ffc27314ac2431240b827cce39a4aba036551bcc96ab6424aa2099d64736f6c634300081a0033","opcodes":"PUSH1 0xA0 DUP1 PUSH1 0x40 MSTORE CALLVALUE PUSH1 0x29 JUMPI ADDRESS PUSH1 0x80 MSTORE PUSH2 0x2FF8 SWAP1 DUP2 PUSH2 0x2F DUP3 CODECOPY PUSH1 0x80 MLOAD DUP2 DUP2 DUP2 PUSH2 0x1C52 ADD MSTORE PUSH2 0x1D20 ADD MSTORE RETURN JUMPDEST PUSH1 0x0 DUP1 REVERT INVALID PUSH1 0x80 DUP1 PUSH1 0x40 MSTORE PUSH1 0x4 CALLDATASIZE LT ISZERO PUSH2 0x13 JUMPI PUSH1 0x0 DUP1 REVERT JUMPDEST PUSH1 0x0 SWAP1 DUP2 CALLDATALOAD PUSH1 0xE0 SHR SWAP1 DUP2 PUSH4 0x3D50D66 EQ PUSH2 0x2789 JUMPI POP DUP1 PUSH4 0x5483A15 EQ PUSH2 0x26AA JUMPI DUP1 PUSH4 0x604BFA4 EQ PUSH2 0x9B8 JUMPI DUP1 PUSH4 0x11CE0267 EQ PUSH2 0x2681 JUMPI DUP1 PUSH4 0x2F48AB7D EQ PUSH2 0x2658 JUMPI DUP1 PUSH4 0x306275BE EQ PUSH2 0x2532 JUMPI DUP1 PUSH4 0x33770245 EQ PUSH2 0x2508 JUMPI DUP1 PUSH4 0x3B97E856 EQ PUSH2 0x24E4 JUMPI DUP1 PUSH4 0x3F4BA83A EQ PUSH2 0x2462 JUMPI DUP1 PUSH4 0x4342482D EQ PUSH2 0x1EB7 JUMPI DUP1 PUSH4 0x4F1EF286 EQ PUSH2 0x1CA7 JUMPI DUP1 PUSH4 0x52D1902D EQ PUSH2 0x1C3F JUMPI DUP1 PUSH4 0x5C975ABB EQ PUSH2 0x1C0F JUMPI DUP1 PUSH4 0x715018A6 EQ PUSH2 0x1BA5 JUMPI DUP1 PUSH4 0x7620843A EQ PUSH2 0x1B87 JUMPI DUP1 PUSH4 0x7DDD23E1 EQ PUSH2 0x12C3 JUMPI DUP1 PUSH4 0x8456CB59 EQ PUSH2 0x124E JUMPI DUP1 PUSH4 0x8DA5CB5B EQ PUSH2 0x1218 JUMPI DUP1 PUSH4 0x9E281A98 EQ PUSH2 0xFD9 JUMPI DUP1 PUSH4 0x9E7B7218 EQ PUSH2 0xBF9 JUMPI DUP1 PUSH4 0x9E9AED62 EQ PUSH2 0xB64 JUMPI DUP1 PUSH4 0xA15F39E8 EQ PUSH2 0xB17 JUMPI DUP1 PUSH4 0xAD3CB1CC EQ PUSH2 0xAB8 JUMPI DUP1 PUSH4 0xB2118A8D EQ PUSH2 0x9E7 JUMPI DUP1 PUSH4 0xB5AF090F EQ PUSH2 0x28E JUMPI DUP1 PUSH4 0xB9A24544 EQ PUSH2 0x9B8 JUMPI DUP1 PUSH4 0xBDDFF749 EQ PUSH2 0x937 JUMPI DUP1 PUSH4 0xC05C5E94 EQ PUSH2 0x90E JUMPI DUP1 PUSH4 0xC0C53B8B EQ PUSH2 0x559 JUMPI DUP1 PUSH4 0xC4D276BC EQ PUSH2 0x52D JUMPI DUP1 PUSH4 0xD84C1B38 EQ PUSH2 0x2CD JUMPI DUP1 PUSH4 0xDAF9C210 EQ PUSH2 0x28E JUMPI DUP1 PUSH4 0xE26F7900 EQ PUSH2 0x1C6 JUMPI PUSH4 0xF2FDE38B EQ PUSH2 0x197 JUMPI PUSH1 0x0 DUP1 REVERT JUMPDEST CALLVALUE PUSH2 0x1C3 JUMPI PUSH1 0x20 CALLDATASIZE PUSH1 0x3 NOT ADD SLT PUSH2 0x1C3 JUMPI PUSH2 0x1C0 PUSH2 0x1B3 PUSH2 0x27A6 JUMP JUMPDEST PUSH2 0x1BB PUSH2 0x2D3F JUMP JUMPDEST PUSH2 0x2CC9 JUMP JUMPDEST DUP1 RETURN JUMPDEST DUP1 REVERT JUMPDEST POP CALLVALUE PUSH2 0x1C3 JUMPI DUP1 PUSH1 0x3 NOT CALLDATASIZE ADD SLT PUSH2 0x1C3 JUMPI PUSH1 0x40 MLOAD DUP1 PUSH1 0x20 PUSH1 0x38 SLOAD SWAP2 DUP3 DUP2 MSTORE ADD DUP1 SWAP2 PUSH1 0x38 DUP6 MSTORE PUSH32 0x38395C5DCEADE9603479B177B68959049485DF8AA97B39F3533039AF5F456199 SWAP1 DUP6 JUMPDEST DUP2 DUP2 LT PUSH2 0x26F JUMPI POP POP POP DUP3 PUSH2 0x225 SWAP2 SUB DUP4 PUSH2 0x27D2 JUMP JUMPDEST PUSH1 0x40 MLOAD SWAP3 DUP4 SWAP3 PUSH1 0x20 DUP5 ADD SWAP1 PUSH1 0x20 DUP6 MSTORE MLOAD DUP1 SWAP2 MSTORE PUSH1 0x40 DUP5 ADD SWAP3 SWAP2 JUMPDEST DUP2 DUP2 LT PUSH2 0x24D JUMPI POP POP POP SUB SWAP1 RETURN JUMPDEST DUP3 MLOAD PUSH1 0x1 PUSH1 0x1 PUSH1 0xA0 SHL SUB AND DUP5 MSTORE DUP6 SWAP5 POP PUSH1 0x20 SWAP4 DUP5 ADD SWAP4 SWAP1 SWAP3 ADD SWAP2 PUSH1 0x1 ADD PUSH2 0x23F JUMP JUMPDEST DUP3 SLOAD PUSH1 0x1 PUSH1 0x1 PUSH1 0xA0 SHL SUB AND DUP5 MSTORE PUSH1 0x20 SWAP1 SWAP4 ADD SWAP3 PUSH1 0x1 SWAP3 DUP4 ADD SWAP3 ADD PUSH2 0x20F JUMP JUMPDEST POP CALLVALUE PUSH2 0x1C3 JUMPI PUSH1 0x20 CALLDATASIZE PUSH1 0x3 NOT ADD SLT PUSH2 0x1C3 JUMPI PUSH1 0x20 SWAP1 PUSH1 0xFF SWAP1 PUSH1 0x40 SWAP1 PUSH1 0x1 PUSH1 0x1 PUSH1 0xA0 SHL SUB PUSH2 0x2B9 PUSH2 0x27A6 JUMP JUMPDEST AND DUP2 MSTORE PUSH1 0x37 DUP5 MSTORE KECCAK256 SLOAD AND PUSH1 0x40 MLOAD SWAP1 ISZERO ISZERO DUP2 MSTORE RETURN JUMPDEST POP CALLVALUE PUSH2 0x1C3 JUMPI PUSH1 0x20 CALLDATASIZE PUSH1 0x3 NOT ADD SLT PUSH2 0x1C3 JUMPI PUSH2 0x2E7 PUSH2 0x27A6 JUMP JUMPDEST PUSH2 0x2EF PUSH2 0x2D3F JUMP JUMPDEST PUSH1 0x1 PUSH1 0x1 PUSH1 0xA0 SHL SUB DUP2 AND SWAP1 DUP2 ISZERO PUSH2 0x4F0 JUMPI DUP2 DUP4 MSTORE PUSH1 0x37 PUSH1 0x20 MSTORE PUSH1 0xFF PUSH1 0x40 DUP5 KECCAK256 SLOAD AND PUSH2 0x4AB JUMPI PUSH1 0x40 MLOAD PUSH4 0x313CE567 PUSH1 0xE0 SHL DUP2 MSTORE PUSH1 0x20 DUP2 PUSH1 0x4 DUP2 DUP7 GAS STATICCALL SWAP1 DUP2 ISZERO PUSH2 0x4A0 JUMPI PUSH1 0x6 SWAP2 PUSH1 0xFF SWAP2 DUP7 SWAP2 PUSH2 0x471 JUMPI JUMPDEST POP AND SUB PUSH2 0x42C JUMPI PUSH1 0x40 MLOAD PUSH4 0x18160DDD PUSH1 0xE0 SHL DUP2 MSTORE PUSH1 0x20 DUP2 PUSH1 0x4 DUP2 DUP7 GAS STATICCALL SWAP1 DUP2 PUSH2 0x3F8 JUMPI JUMPDEST POP PUSH2 0x3A5 JUMPI PUSH1 0x40 MLOAD PUSH3 0x461BCD PUSH1 0xE5 SHL DUP2 MSTORE PUSH1 0x20 PUSH1 0x4 DUP3 ADD MSTORE PUSH1 0x16 PUSH1 0x24 DUP3 ADD MSTORE PUSH22 0x125B9D985B1A59081D1BDAD95B8818DBDB9D1C9858DD PUSH1 0x52 SHL PUSH1 0x44 DUP3 ADD MSTORE PUSH1 0x64 SWAP1 REVERT JUMPDEST DUP2 DUP4 MSTORE PUSH1 0x37 PUSH1 0x20 MSTORE PUSH1 0x40 DUP4 KECCAK256 DUP1 SLOAD PUSH1 0xFF NOT AND PUSH1 0x1 OR SWAP1 SSTORE PUSH2 0x3C5 SWAP1 PUSH2 0x2C5D JUMP JUMPDEST PUSH32 0x7FB8CC89E751C0284C2D2CC1C1E6A904C25CF93855AA4159C30CE2D0827C54FE PUSH1 0x40 DUP1 MLOAD PUSH1 0x1 DUP2 MSTORE TIMESTAMP PUSH1 0x20 DUP3 ADD MSTORE LOG2 DUP1 RETURN JUMPDEST PUSH1 0x20 DUP2 RETURNDATASIZE PUSH1 0x20 GT PUSH2 0x424 JUMPI JUMPDEST DUP2 PUSH2 0x411 PUSH1 0x20 SWAP4 DUP4 PUSH2 0x27D2 JUMP JUMPDEST DUP2 ADD SUB SLT PUSH2 0x41F JUMPI MLOAD PUSH2 0x362 JUMP JUMPDEST PUSH1 0x0 DUP1 REVERT JUMPDEST RETURNDATASIZE SWAP2 POP PUSH2 0x404 JUMP JUMPDEST PUSH1 0x40 MLOAD PUSH3 0x461BCD PUSH1 0xE5 SHL DUP2 MSTORE PUSH1 0x20 PUSH1 0x4 DUP3 ADD MSTORE PUSH1 0x1A PUSH1 0x24 DUP3 ADD MSTORE PUSH32 0x546F6B656E206D7573742068617665203620646563696D616C73000000000000 PUSH1 0x44 DUP3 ADD MSTORE PUSH1 0x64 SWAP1 REVERT JUMPDEST PUSH2 0x493 SWAP2 POP PUSH1 0x20 RETURNDATASIZE PUSH1 0x20 GT PUSH2 0x499 JUMPI JUMPDEST PUSH2 0x48B DUP2 DUP4 PUSH2 0x27D2 JUMP JUMPDEST DUP2 ADD SWAP1 PUSH2 0x2C44 JUMP JUMPDEST CODESIZE PUSH2 0x33E JUMP JUMPDEST POP RETURNDATASIZE PUSH2 0x481 JUMP JUMPDEST PUSH1 0x40 MLOAD RETURNDATASIZE DUP7 DUP3 RETURNDATACOPY RETURNDATASIZE SWAP1 REVERT JUMPDEST PUSH1 0x40 MLOAD PUSH3 0x461BCD PUSH1 0xE5 SHL DUP2 MSTORE PUSH1 0x20 PUSH1 0x4 DUP3 ADD MSTORE PUSH1 0x19 PUSH1 0x24 DUP3 ADD MSTORE PUSH32 0x546F6B656E20616C72656164792077686974656C697374656400000000000000 PUSH1 0x44 DUP3 ADD MSTORE PUSH1 0x64 SWAP1 REVERT JUMPDEST PUSH1 0x40 MLOAD PUSH3 0x461BCD PUSH1 0xE5 SHL DUP2 MSTORE PUSH1 0x20 PUSH1 0x4 DUP3 ADD MSTORE PUSH1 0x15 PUSH1 0x24 DUP3 ADD MSTORE PUSH21 0x496E76616C696420746F6B656E2061646472657373 PUSH1 0x58 SHL PUSH1 0x44 DUP3 ADD MSTORE PUSH1 0x64 SWAP1 REVERT JUMPDEST POP CALLVALUE PUSH2 0x1C3 JUMPI DUP1 PUSH1 0x3 NOT CALLDATASIZE ADD SLT PUSH2 0x1C3 JUMPI PUSH1 0x40 PUSH1 0x20 SWAP2 PUSH3 0x15180 TIMESTAMP DIV DUP2 MSTORE PUSH1 0x36 DUP4 MSTORE KECCAK256 SLOAD PUSH1 0x40 MLOAD SWAP1 DUP2 MSTORE RETURN JUMPDEST POP CALLVALUE PUSH2 0x1C3 JUMPI PUSH1 0x60 CALLDATASIZE PUSH1 0x3 NOT ADD SLT PUSH2 0x1C3 JUMPI PUSH2 0x573 PUSH2 0x27A6 JUMP JUMPDEST PUSH2 0x57B PUSH2 0x27BC JUMP JUMPDEST SWAP1 PUSH1 0x44 CALLDATALOAD PUSH1 0x1 PUSH1 0x1 PUSH1 0xA0 SHL SUB DUP2 AND SWAP2 SWAP1 DUP3 SWAP1 SUB PUSH2 0x90A JUMPI PUSH1 0x0 DUP1 MLOAD PUSH1 0x20 PUSH2 0x2FA3 DUP4 CODECOPY DUP2 MLOAD SWAP2 MSTORE SLOAD SWAP3 PUSH1 0xFF DUP5 PUSH1 0x40 SHR AND ISZERO SWAP4 PUSH1 0x1 PUSH1 0x1 PUSH1 0x40 SHL SUB DUP2 AND DUP1 ISZERO SWAP1 DUP2 PUSH2 0x902 JUMPI JUMPDEST PUSH1 0x1 EQ SWAP1 DUP2 PUSH2 0x8F8 JUMPI JUMPDEST ISZERO SWAP1 DUP2 PUSH2 0x8EF JUMPI JUMPDEST POP PUSH2 0x8E0 JUMPI PUSH8 0xFFFFFFFFFFFFFFFF NOT DUP2 AND PUSH1 0x1 OR PUSH1 0x0 DUP1 MLOAD PUSH1 0x20 PUSH2 0x2FA3 DUP4 CODECOPY DUP2 MLOAD SWAP2 MSTORE SSTORE DUP5 PUSH2 0x8B3 JUMPI JUMPDEST POP PUSH2 0x604 PUSH2 0x2E82 JUMP JUMPDEST PUSH2 0x60C PUSH2 0x2E82 JUMP JUMPDEST PUSH2 0x615 CALLER PUSH2 0x2CC9 JUMP JUMPDEST PUSH2 0x61D PUSH2 0x2E82 JUMP JUMPDEST PUSH2 0x625 PUSH2 0x2E82 JUMP JUMPDEST PUSH2 0x62D PUSH2 0x2E82 JUMP JUMPDEST PUSH1 0x1 DUP6 SSTORE PUSH5 0x2540BE400 PUSH1 0x35 SSTORE PUSH1 0x1 PUSH1 0x1 PUSH1 0xA0 SHL SUB DUP3 AND SWAP1 DUP2 ISZERO PUSH2 0x881 JUMPI PUSH1 0x1 PUSH1 0x1 PUSH1 0xA0 SHL SUB AND SWAP2 DUP3 ISZERO PUSH2 0x84D JUMPI DUP4 ISZERO PUSH2 0x81B JUMPI PUSH1 0x32 DUP1 SLOAD PUSH1 0x1 PUSH1 0x1 PUSH1 0xA0 SHL SUB NOT DUP2 AND DUP5 OR SWAP1 SWAP2 SSTORE PUSH1 0x40 MLOAD PUSH4 0x313CE567 PUSH1 0xE0 SHL DUP2 MSTORE SWAP1 PUSH1 0x20 DUP3 PUSH1 0x4 DUP2 DUP8 GAS STATICCALL SWAP1 DUP2 ISZERO PUSH2 0x810 JUMPI DUP5 PUSH1 0xFF SWAP3 PUSH1 0x6 SWAP5 DUP12 SWAP2 PUSH2 0x7F1 JUMPI JUMPDEST POP DUP4 PUSH1 0xA0 SHL SWAP1 PUSH1 0xA0 SHL AND SWAP2 PUSH11 0xFFFFFFFFFFFFFFFFFFFFFF PUSH1 0xA8 SHL AND OR OR DUP1 PUSH1 0x32 SSTORE PUSH1 0xA0 SHR AND SUB PUSH2 0x7AC JUMPI DUP2 DUP7 MSTORE PUSH1 0x37 PUSH1 0x20 MSTORE PUSH1 0x40 DUP7 KECCAK256 DUP1 SLOAD PUSH1 0xFF NOT AND PUSH1 0x1 OR SWAP1 SSTORE PUSH2 0x6EB SWAP1 PUSH2 0x2C5D JUMP JUMPDEST PUSH32 0x7FB8CC89E751C0284C2D2CC1C1E6A904C25CF93855AA4159C30CE2D0827C54FE PUSH1 0x40 DUP1 MLOAD PUSH1 0x1 DUP2 MSTORE TIMESTAMP PUSH1 0x20 DUP3 ADD MSTORE LOG2 PUSH12 0xFFFFFFFFFFFFFFFFFFFFFFFF PUSH1 0xA0 SHL PUSH1 0x33 SLOAD AND OR PUSH1 0x33 SSTORE PUSH12 0xFFFFFFFFFFFFFFFFFFFFFFFF PUSH1 0xA0 SHL PUSH1 0x34 SLOAD AND OR PUSH1 0x34 SSTORE PUSH2 0x752 JUMPI DUP1 RETURN JUMPDEST PUSH9 0xFF0000000000000000 NOT PUSH1 0x0 DUP1 MLOAD PUSH1 0x20 PUSH2 0x2FA3 DUP4 CODECOPY DUP2 MLOAD SWAP2 MSTORE SLOAD AND PUSH1 0x0 DUP1 MLOAD PUSH1 0x20 PUSH2 0x2FA3 DUP4 CODECOPY DUP2 MLOAD SWAP2 MSTORE SSTORE PUSH32 0xC7F505B2F371AE2175EE4913F4499E1F2633A7B5936321EED1CDAEB6115181D2 PUSH1 0x20 PUSH1 0x40 MLOAD PUSH1 0x1 DUP2 MSTORE LOG1 DUP1 RETURN JUMPDEST PUSH1 0x40 MLOAD PUSH3 0x461BCD PUSH1 0xE5 SHL DUP2 MSTORE PUSH1 0x20 PUSH1 0x4 DUP3 ADD MSTORE PUSH1 0x18 PUSH1 0x24 DUP3 ADD MSTORE PUSH32 0x546F6B656E20646563696D616C73206D75737420626520360000000000000000 PUSH1 0x44 DUP3 ADD MSTORE PUSH1 0x64 SWAP1 REVERT JUMPDEST PUSH2 0x80A SWAP2 POP PUSH1 0x20 RETURNDATASIZE PUSH1 0x20 GT PUSH2 0x499 JUMPI PUSH2 0x48B DUP2 DUP4 PUSH2 0x27D2 JUMP JUMPDEST CODESIZE PUSH2 0x6A1 JUMP JUMPDEST PUSH1 0x40 MLOAD RETURNDATASIZE DUP11 DUP3 RETURNDATACOPY RETURNDATASIZE SWAP1 REVERT JUMPDEST PUSH1 0x40 MLOAD PUSH3 0x461BCD PUSH1 0xE5 SHL DUP2 MSTORE PUSH1 0x20 PUSH1 0x4 DUP3 ADD MSTORE PUSH1 0xA PUSH1 0x24 DUP3 ADD MSTORE PUSH10 0x61646D696E207A65726F PUSH1 0xB0 SHL PUSH1 0x44 DUP3 ADD MSTORE PUSH1 0x64 SWAP1 REVERT JUMPDEST PUSH1 0x40 MLOAD PUSH3 0x461BCD PUSH1 0xE5 SHL DUP2 MSTORE PUSH1 0x20 PUSH1 0x4 DUP3 ADD MSTORE PUSH1 0xC PUSH1 0x24 DUP3 ADD MSTORE PUSH12 0x73746F72616765207A65726F PUSH1 0xA0 SHL PUSH1 0x44 DUP3 ADD MSTORE PUSH1 0x64 SWAP1 REVERT JUMPDEST PUSH1 0x40 MLOAD PUSH3 0x461BCD PUSH1 0xE5 SHL DUP2 MSTORE PUSH1 0x20 PUSH1 0x4 DUP3 ADD MSTORE PUSH1 0xA PUSH1 0x24 DUP3 ADD MSTORE PUSH10 0x746F6B656E207A65726F PUSH1 0xB0 SHL PUSH1 0x44 DUP3 ADD MSTORE PUSH1 0x64 SWAP1 REVERT JUMPDEST PUSH9 0xFFFFFFFFFFFFFFFFFF NOT AND PUSH9 0x10000000000000001 OR PUSH1 0x0 DUP1 MLOAD PUSH1 0x20 PUSH2 0x2FA3 DUP4 CODECOPY DUP2 MLOAD SWAP2 MSTORE SSTORE CODESIZE PUSH2 0x5FB JUMP JUMPDEST PUSH4 0xF92EE8A9 PUSH1 0xE0 SHL DUP7 MSTORE PUSH1 0x4 DUP7 REVERT JUMPDEST SWAP1 POP ISZERO CODESIZE PUSH2 0x5D1 JUMP JUMPDEST ADDRESS EXTCODESIZE ISZERO SWAP2 POP PUSH2 0x5C9 JUMP JUMPDEST DUP7 SWAP2 POP PUSH2 0x5BF JUMP JUMPDEST DUP4 DUP1 REVERT JUMPDEST POP CALLVALUE PUSH2 0x1C3 JUMPI DUP1 PUSH1 0x3 NOT CALLDATASIZE ADD SLT PUSH2 0x1C3 JUMPI PUSH1 0x34 SLOAD PUSH1 0x40 MLOAD PUSH1 0x1 PUSH1 0x1 PUSH1 0xA0 SHL SUB SWAP1 SWAP2 AND DUP2 MSTORE PUSH1 0x20 SWAP1 RETURN JUMPDEST POP CALLVALUE PUSH2 0x1C3 JUMPI PUSH1 0x20 CALLDATASIZE PUSH1 0x3 NOT ADD SLT PUSH2 0x1C3 JUMPI PUSH1 0x4 CALLDATALOAD SWAP1 PUSH1 0x38 SLOAD DUP3 LT ISZERO PUSH2 0x1C3 JUMPI PUSH1 0x38 SLOAD DUP3 LT ISZERO PUSH2 0x9A4 JUMPI PUSH1 0x38 DUP2 MSTORE PUSH32 0x38395C5DCEADE9603479B177B68959049485DF8AA97B39F3533039AF5F456199 SWAP1 SWAP2 ADD SLOAD PUSH1 0x40 MLOAD PUSH1 0x3 SWAP3 SWAP1 SWAP3 SHL SHR PUSH1 0x1 PUSH1 0x1 PUSH1 0xA0 SHL SUB AND DUP2 MSTORE PUSH1 0x20 SWAP1 RETURN JUMPDEST PUSH4 0x4E487B71 PUSH1 0xE0 SHL DUP2 MSTORE PUSH1 0x32 PUSH1 0x4 MSTORE PUSH1 0x24 SWAP1 REVERT JUMPDEST POP CALLVALUE PUSH2 0x1C3 JUMPI PUSH1 0x20 CALLDATASIZE PUSH1 0x3 NOT ADD SLT PUSH2 0x1C3 JUMPI PUSH1 0xFF PUSH1 0x40 PUSH1 0x20 SWAP3 PUSH1 0x4 CALLDATALOAD DUP2 MSTORE PUSH1 0x39 DUP5 MSTORE KECCAK256 SLOAD AND PUSH1 0x40 MLOAD SWAP1 ISZERO ISZERO DUP2 MSTORE RETURN JUMPDEST POP CALLVALUE PUSH2 0x1C3 JUMPI PUSH1 0x60 CALLDATASIZE PUSH1 0x3 NOT ADD SLT PUSH2 0x1C3 JUMPI PUSH2 0xA01 PUSH2 0x27A6 JUMP JUMPDEST PUSH2 0xA09 PUSH2 0x27BC JUMP JUMPDEST SWAP1 PUSH2 0xA12 PUSH2 0x2D3F JUMP JUMPDEST PUSH1 0x1 PUSH1 0x1 PUSH1 0xA0 SHL SUB DUP3 AND ISZERO PUSH2 0xA89 JUMPI PUSH1 0x32 SLOAD PUSH1 0x1 PUSH1 0x1 PUSH1 0xA0 SHL SUB SWAP2 DUP3 AND SWAP2 AND DUP2 EQ PUSH2 0xA44 JUMPI PUSH2 0x1C0 SWAP2 PUSH1 0x44 CALLDATALOAD SWAP2 PUSH2 0x2DF5 JUMP JUMPDEST PUSH1 0x40 MLOAD PUSH3 0x461BCD PUSH1 0xE5 SHL DUP2 MSTORE PUSH1 0x20 PUSH1 0x4 DUP3 ADD MSTORE PUSH1 0x1B PUSH1 0x24 DUP3 ADD MSTORE PUSH32 0x43616E6E6F7420726573637565207061796D656E7420746F6B656E0000000000 PUSH1 0x44 DUP3 ADD MSTORE PUSH1 0x64 SWAP1 REVERT JUMPDEST PUSH1 0x40 MLOAD PUSH3 0x461BCD PUSH1 0xE5 SHL DUP2 MSTORE PUSH1 0x20 PUSH1 0x4 DUP3 ADD MSTORE PUSH1 0x7 PUSH1 0x24 DUP3 ADD MSTORE PUSH7 0x7A65726F20746F PUSH1 0xC8 SHL PUSH1 0x44 DUP3 ADD MSTORE PUSH1 0x64 SWAP1 REVERT JUMPDEST POP CALLVALUE PUSH2 0x1C3 JUMPI DUP1 PUSH1 0x3 NOT CALLDATASIZE ADD SLT PUSH2 0x1C3 JUMPI POP PUSH2 0xB09 PUSH1 0x40 DUP1 MLOAD PUSH2 0xADB DUP3 DUP3 PUSH2 0x27D2 JUMP JUMPDEST PUSH1 0x5 DUP2 MSTORE PUSH1 0x20 DUP2 ADD PUSH5 0x352E302E3 PUSH1 0xDC SHL DUP2 MSTORE DUP3 MLOAD SWAP4 DUP5 SWAP3 PUSH1 0x20 DUP5 MSTORE MLOAD DUP1 SWAP3 DUP2 PUSH1 0x20 DUP7 ADD MSTORE DUP6 DUP6 ADD SWAP1 PUSH2 0x2824 JUMP JUMPDEST PUSH1 0x1F ADD PUSH1 0x1F NOT AND DUP2 ADD SUB ADD SWAP1 RETURN JUMPDEST POP CALLVALUE PUSH2 0x1C3 JUMPI DUP1 PUSH1 0x3 NOT CALLDATASIZE ADD SLT PUSH2 0x1C3 JUMPI PUSH1 0x20 SWAP1 PUSH3 0x15180 TIMESTAMP DIV DUP2 MSTORE PUSH1 0x36 DUP3 MSTORE PUSH1 0x40 DUP2 KECCAK256 SLOAD PUSH1 0x35 SLOAD DUP1 DUP3 LT ISZERO PUSH1 0x0 EQ PUSH2 0xB55 JUMPI POP POP JUMPDEST PUSH1 0x40 MLOAD SWAP1 DUP2 MSTORE RETURN JUMPDEST PUSH2 0xB5F SWAP3 POP PUSH2 0x2AE0 JUMP JUMPDEST PUSH2 0xB4D JUMP JUMPDEST POP CALLVALUE PUSH2 0x1C3 JUMPI DUP1 PUSH1 0x3 NOT CALLDATASIZE ADD SLT PUSH2 0x1C3 JUMPI PUSH1 0x32 SLOAD PUSH1 0x40 MLOAD PUSH4 0x70A08231 PUSH1 0xE0 SHL DUP2 MSTORE ADDRESS PUSH1 0x4 DUP3 ADD MSTORE SWAP2 SWAP1 PUSH1 0x20 SWAP1 DUP4 SWAP1 PUSH1 0x24 SWAP1 DUP3 SWAP1 PUSH1 0x1 PUSH1 0x1 PUSH1 0xA0 SHL SUB AND GAS STATICCALL SWAP1 DUP2 ISZERO PUSH2 0xBED JUMPI SWAP1 PUSH2 0xBBA JUMPI JUMPDEST PUSH1 0x20 SWAP1 PUSH1 0x40 MLOAD SWAP1 DUP2 MSTORE RETURN JUMPDEST POP PUSH1 0x20 DUP2 RETURNDATASIZE PUSH1 0x20 GT PUSH2 0xBE5 JUMPI JUMPDEST DUP2 PUSH2 0xBD4 PUSH1 0x20 SWAP4 DUP4 PUSH2 0x27D2 JUMP JUMPDEST DUP2 ADD SUB SLT PUSH2 0x41F JUMPI PUSH1 0x20 SWAP1 MLOAD PUSH2 0xBAF JUMP JUMPDEST RETURNDATASIZE SWAP2 POP PUSH2 0xBC7 JUMP JUMPDEST PUSH1 0x40 MLOAD SWAP1 RETURNDATASIZE SWAP1 DUP3 RETURNDATACOPY RETURNDATASIZE SWAP1 REVERT JUMPDEST POP CALLVALUE PUSH2 0x1C3 JUMPI PUSH1 0x40 CALLDATASIZE PUSH1 0x3 NOT ADD SLT PUSH2 0x1C3 JUMPI PUSH1 0x4 CALLDATALOAD PUSH1 0x1 PUSH1 0x1 PUSH1 0x40 SHL SUB DUP2 GT PUSH2 0xFD5 JUMPI CALLDATASIZE PUSH1 0x23 DUP3 ADD SLT ISZERO PUSH2 0xFD5 JUMPI DUP1 PUSH1 0x4 ADD CALLDATALOAD SWAP1 PUSH1 0x1 PUSH1 0x1 PUSH1 0x40 SHL SUB DUP3 GT PUSH2 0xE07 JUMPI PUSH1 0x24 CALLDATASIZE SWAP2 DUP4 PUSH1 0x5 SHL ADD ADD GT PUSH2 0xFD5 JUMPI PUSH1 0x24 CALLDATALOAD SWAP1 PUSH1 0xFF DUP3 AND DUP1 SWAP3 SUB PUSH2 0xE07 JUMPI PUSH2 0xC61 PUSH2 0x2D75 JUMP JUMPDEST PUSH2 0xC69 PUSH2 0x2D9F JUMP JUMPDEST DUP1 ISZERO PUSH2 0xFA2 JUMPI PUSH2 0x3E8 DUP2 GT PUSH2 0xF69 JUMPI PUSH1 0x2 DUP3 GT PUSH2 0xF35 JUMPI PUSH1 0x34 SLOAD PUSH1 0x40 MLOAD PUSH4 0xB110BB5B PUSH1 0xE0 SHL DUP2 MSTORE PUSH1 0x4 DUP2 ADD DUP5 SWAP1 MSTORE PUSH1 0x1 PUSH1 0x1 PUSH1 0xA0 SHL SUB SWAP1 SWAP2 AND SWAP2 SWAP1 PUSH1 0x20 DUP2 PUSH1 0x24 DUP2 DUP7 GAS STATICCALL SWAP1 DUP2 ISZERO PUSH2 0xE7A JUMPI DUP6 SWAP2 PUSH2 0xF03 JUMPI JUMPDEST POP DUP1 ISZERO PUSH2 0xEBE JUMPI DUP2 PUSH2 0xCCC SWAP2 PUSH2 0x2C31 JUMP JUMPDEST SWAP2 DUP3 ISZERO PUSH2 0xE85 JUMPI PUSH1 0x20 PUSH1 0x4 SWAP2 PUSH1 0x40 MLOAD SWAP3 DUP4 DUP1 SWAP3 PUSH4 0xC5F956AF PUSH1 0xE0 SHL DUP3 MSTORE GAS STATICCALL SWAP1 DUP2 ISZERO PUSH2 0xE7A JUMPI DUP6 SWAP2 PUSH2 0xE3C JUMPI JUMPDEST POP PUSH1 0x1 PUSH1 0x1 PUSH1 0xA0 SHL SUB AND PUSH2 0xD0E DUP2 ISZERO ISZERO PUSH2 0x2AA1 JUMP JUMPDEST PUSH1 0x32 SLOAD PUSH1 0x40 MLOAD PUSH4 0x23B872DD PUSH1 0xE0 SHL DUP8 MSTORE CALLER PUSH1 0x4 MSTORE PUSH1 0x24 SWAP3 SWAP1 SWAP3 MSTORE PUSH1 0x44 DUP5 SWAP1 MSTORE PUSH1 0x1 PUSH1 0x1 PUSH1 0xA0 SHL SUB AND PUSH1 0x20 DUP7 PUSH1 0x64 DUP2 DUP1 DUP6 GAS CALL PUSH1 0x1 DUP8 MLOAD EQ DUP2 AND ISZERO PUSH2 0xE1D JUMPI JUMPDEST DUP3 PUSH1 0x40 MSTORE DUP7 PUSH1 0x60 MSTORE ISZERO PUSH2 0xE0B JUMPI POP PUSH1 0x33 SLOAD DUP6 SWAP2 SWAP1 PUSH1 0x1 PUSH1 0x1 PUSH1 0xA0 SHL SUB AND DUP1 EXTCODESIZE ISZERO PUSH2 0xE07 JUMPI DUP2 PUSH1 0x24 DUP2 DUP6 DUP1 SWAP5 PUSH4 0xDE4B87F PUSH1 0xE1 SHL DUP4 MSTORE DUP10 PUSH1 0x4 DUP5 ADD MSTORE GAS CALL DUP1 ISZERO PUSH2 0xDFC JUMPI PUSH2 0xDE7 JUMPI JUMPDEST POP POP PUSH2 0xDDD PUSH32 0xA249FCBAB6D1E1AF4F18545C0073C1775A962C44CBB61CE270D72F7952438F5A SWAP2 PUSH1 0x40 MLOAD SWAP2 DUP3 SWAP2 CALLER SWAP6 TIMESTAMP SWAP2 DUP5 PUSH1 0x40 SWAP2 SWAP5 SWAP4 SWAP3 PUSH1 0x60 DUP3 ADD SWAP6 DUP3 MSTORE PUSH1 0x20 DUP3 ADD MSTORE ADD MSTORE JUMP JUMPDEST SUB SWAP1 LOG3 PUSH1 0x1 DUP2 SSTORE DUP1 RETURN JUMPDEST DUP2 PUSH2 0xDF1 SWAP2 PUSH2 0x27D2 JUMP JUMPDEST PUSH2 0x90A JUMPI DUP4 CODESIZE PUSH2 0xD95 JUMP JUMPDEST PUSH1 0x40 MLOAD RETURNDATASIZE DUP5 DUP3 RETURNDATACOPY RETURNDATASIZE SWAP1 REVERT JUMPDEST DUP3 DUP1 REVERT JUMPDEST PUSH4 0x5274AFE7 PUSH1 0xE0 SHL DUP7 MSTORE PUSH1 0x4 MSTORE PUSH1 0x24 DUP6 REVERT JUMPDEST PUSH1 0x1 DUP2 ISZERO AND PUSH2 0xE33 JUMPI DUP2 EXTCODESIZE ISZERO ISZERO RETURNDATASIZE ISZERO AND AND PUSH2 0xD4D JUMP JUMPDEST DUP3 RETURNDATASIZE DUP9 DUP3 RETURNDATACOPY RETURNDATASIZE SWAP1 REVERT JUMPDEST SWAP1 POP PUSH1 0x20 DUP2 RETURNDATASIZE PUSH1 0x20 GT PUSH2 0xE72 JUMPI JUMPDEST DUP2 PUSH2 0xE57 PUSH1 0x20 SWAP4 DUP4 PUSH2 0x27D2 JUMP JUMPDEST DUP2 ADD SUB SLT PUSH2 0xE6E JUMPI PUSH2 0xE68 SWAP1 PUSH2 0x2847 JUMP JUMPDEST CODESIZE PUSH2 0xCF9 JUMP JUMPDEST DUP5 DUP1 REVERT JUMPDEST RETURNDATASIZE SWAP2 POP PUSH2 0xE4A JUMP JUMPDEST PUSH1 0x40 MLOAD RETURNDATASIZE DUP8 DUP3 RETURNDATACOPY RETURNDATASIZE SWAP1 REVERT JUMPDEST PUSH1 0x40 MLOAD PUSH3 0x461BCD PUSH1 0xE5 SHL DUP2 MSTORE PUSH1 0x20 PUSH1 0x4 DUP3 ADD MSTORE PUSH1 0x11 PUSH1 0x24 DUP3 ADD MSTORE PUSH17 0x546F74616C20666565206973207A65726F PUSH1 0x78 SHL PUSH1 0x44 DUP3 ADD MSTORE PUSH1 0x64 SWAP1 REVERT JUMPDEST PUSH1 0x40 MLOAD PUSH3 0x461BCD PUSH1 0xE5 SHL DUP2 MSTORE PUSH1 0x20 PUSH1 0x4 DUP3 ADD MSTORE PUSH1 0x18 PUSH1 0x24 DUP3 ADD MSTORE PUSH32 0x486F737420766F756368657220666565206E6F74207365740000000000000000 PUSH1 0x44 DUP3 ADD MSTORE PUSH1 0x64 SWAP1 REVERT JUMPDEST SWAP1 POP PUSH1 0x20 DUP2 RETURNDATASIZE PUSH1 0x20 GT PUSH2 0xF2D JUMPI JUMPDEST DUP2 PUSH2 0xF1E PUSH1 0x20 SWAP4 DUP4 PUSH2 0x27D2 JUMP JUMPDEST DUP2 ADD SUB SLT PUSH2 0x41F JUMPI MLOAD CODESIZE PUSH2 0xCBB JUMP JUMPDEST RETURNDATASIZE SWAP2 POP PUSH2 0xF11 JUMP JUMPDEST PUSH1 0x40 MLOAD PUSH3 0x461BCD PUSH1 0xE5 SHL DUP2 MSTORE PUSH1 0x20 PUSH1 0x4 DUP3 ADD MSTORE PUSH1 0xC PUSH1 0x24 DUP3 ADD MSTORE PUSH12 0x24B73B30B634B2103A34B2B9 PUSH1 0xA1 SHL PUSH1 0x44 DUP3 ADD MSTORE PUSH1 0x64 SWAP1 REVERT JUMPDEST PUSH1 0x40 MLOAD PUSH3 0x461BCD PUSH1 0xE5 SHL DUP2 MSTORE PUSH1 0x20 PUSH1 0x4 DUP3 ADD MSTORE PUSH1 0x11 PUSH1 0x24 DUP3 ADD MSTORE PUSH17 0x546F6F206D616E7920766F756368657273 PUSH1 0x78 SHL PUSH1 0x44 DUP3 ADD MSTORE PUSH1 0x64 SWAP1 REVERT JUMPDEST PUSH1 0x40 MLOAD PUSH3 0x461BCD PUSH1 0xE5 SHL DUP2 MSTORE PUSH1 0x20 PUSH1 0x4 DUP3 ADD MSTORE PUSH1 0xB PUSH1 0x24 DUP3 ADD MSTORE PUSH11 0x4E6F20766F756368657273 PUSH1 0xA8 SHL PUSH1 0x44 DUP3 ADD MSTORE PUSH1 0x64 SWAP1 REVERT JUMPDEST POP DUP1 REVERT JUMPDEST POP CALLVALUE PUSH2 0x1C3 JUMPI PUSH1 0x40 CALLDATASIZE PUSH1 0x3 NOT ADD SLT PUSH2 0x1C3 JUMPI PUSH2 0xFF3 PUSH2 0x27A6 JUMP JUMPDEST PUSH1 0x24 CALLDATALOAD PUSH2 0xFFE PUSH2 0x2D3F JUMP JUMPDEST PUSH1 0x1 PUSH1 0x1 PUSH1 0xA0 SHL SUB DUP3 AND ISZERO PUSH2 0x11D3 JUMPI DUP1 ISZERO PUSH2 0x118F JUMPI PUSH1 0x32 SLOAD PUSH1 0x40 MLOAD PUSH4 0x70A08231 PUSH1 0xE0 SHL DUP2 MSTORE ADDRESS PUSH1 0x4 DUP3 ADD MSTORE SWAP1 PUSH1 0x20 SWAP1 DUP3 SWAP1 PUSH1 0x24 SWAP1 DUP3 SWAP1 PUSH1 0x1 PUSH1 0x1 PUSH1 0xA0 SHL SUB AND GAS STATICCALL DUP1 ISZERO PUSH2 0x4A0 JUMPI DUP3 SWAP1 DUP6 SWAP1 PUSH2 0x1159 JUMPI JUMPDEST PUSH2 0x105A SWAP3 POP LT ISZERO PUSH2 0x2BE5 JUMP JUMPDEST PUSH3 0x15180 TIMESTAMP DIV DUP1 DUP5 MSTORE PUSH1 0x36 PUSH1 0x20 MSTORE PUSH1 0x40 DUP5 KECCAK256 SLOAD PUSH1 0x35 SLOAD DUP2 DUP2 DUP2 LT PUSH2 0x114B JUMPI POP POP DUP5 JUMPDEST DUP4 GT PUSH2 0x1106 JUMPI DUP5 SWAP4 PUSH2 0x10B1 SWAP3 PUSH2 0x1093 DUP6 DUP1 SWAP5 PUSH2 0x2BD8 JUMP JUMPDEST SWAP1 DUP7 MSTORE PUSH1 0x36 PUSH1 0x20 MSTORE PUSH1 0x40 DUP7 KECCAK256 SSTORE PUSH1 0x32 SLOAD PUSH1 0x1 PUSH1 0x1 PUSH1 0xA0 SHL SUB AND PUSH2 0x2DF5 JUMP JUMPDEST PUSH1 0x33 SLOAD PUSH1 0x1 PUSH1 0x1 PUSH1 0xA0 SHL SUB AND SWAP1 DUP2 EXTCODESIZE ISZERO PUSH2 0x1102 JUMPI DUP3 SWAP2 PUSH1 0x24 DUP4 SWAP3 PUSH1 0x40 MLOAD SWAP5 DUP6 SWAP4 DUP5 SWAP3 PUSH4 0xE4938A4F PUSH1 0xE0 SHL DUP5 MSTORE PUSH1 0x4 DUP5 ADD MSTORE GAS CALL DUP1 ISZERO PUSH2 0xDFC JUMPI PUSH2 0x10F1 JUMPI POP RETURN JUMPDEST DUP2 PUSH2 0x10FB SWAP2 PUSH2 0x27D2 JUMP JUMPDEST PUSH2 0x1C3 JUMPI DUP1 RETURN JUMPDEST POP POP REVERT JUMPDEST PUSH1 0x40 MLOAD PUSH3 0x461BCD PUSH1 0xE5 SHL DUP2 MSTORE PUSH1 0x20 PUSH1 0x4 DUP3 ADD MSTORE PUSH1 0x1E PUSH1 0x24 DUP3 ADD MSTORE PUSH32 0x45786365656473206461696C79207769746864726177616C206C696D69740000 PUSH1 0x44 DUP3 ADD MSTORE PUSH1 0x64 SWAP1 REVERT JUMPDEST PUSH2 0x1154 SWAP2 PUSH2 0x2AE0 JUMP JUMPDEST PUSH2 0x107C JUMP JUMPDEST POP POP PUSH1 0x20 DUP2 RETURNDATASIZE PUSH1 0x20 GT PUSH2 0x1187 JUMPI JUMPDEST DUP2 PUSH2 0x1174 PUSH1 0x20 SWAP4 DUP4 PUSH2 0x27D2 JUMP JUMPDEST DUP2 ADD SUB SLT PUSH2 0x41F JUMPI DUP2 PUSH2 0x105A SWAP2 MLOAD PUSH2 0x104E JUMP JUMPDEST RETURNDATASIZE SWAP2 POP PUSH2 0x1167 JUMP JUMPDEST PUSH1 0x64 PUSH1 0x40 MLOAD PUSH3 0x461BCD PUSH1 0xE5 SHL DUP2 MSTORE PUSH1 0x20 PUSH1 0x4 DUP3 ADD MSTORE PUSH1 0x20 PUSH1 0x24 DUP3 ADD MSTORE PUSH32 0x416D6F756E74206D7573742062652067726561746572207468616E207A65726F PUSH1 0x44 DUP3 ADD MSTORE REVERT JUMPDEST PUSH1 0x40 MLOAD PUSH3 0x461BCD PUSH1 0xE5 SHL DUP2 MSTORE PUSH1 0x20 PUSH1 0x4 DUP3 ADD MSTORE PUSH1 0x19 PUSH1 0x24 DUP3 ADD MSTORE PUSH32 0x496E76616C696420726563697069656E74206164647265737300000000000000 PUSH1 0x44 DUP3 ADD MSTORE PUSH1 0x64 SWAP1 REVERT JUMPDEST POP CALLVALUE PUSH2 0x1C3 JUMPI DUP1 PUSH1 0x3 NOT CALLDATASIZE ADD SLT PUSH2 0x1C3 JUMPI PUSH1 0x0 DUP1 MLOAD PUSH1 0x20 PUSH2 0x2F43 DUP4 CODECOPY DUP2 MLOAD SWAP2 MSTORE SLOAD PUSH1 0x40 MLOAD PUSH1 0x1 PUSH1 0x1 PUSH1 0xA0 SHL SUB SWAP1 SWAP2 AND DUP2 MSTORE PUSH1 0x20 SWAP1 RETURN JUMPDEST POP CALLVALUE PUSH2 0x1C3 JUMPI DUP1 PUSH1 0x3 NOT CALLDATASIZE ADD SLT PUSH2 0x1C3 JUMPI PUSH2 0x1267 PUSH2 0x2D3F JUMP JUMPDEST PUSH2 0x126F PUSH2 0x2D75 JUMP JUMPDEST PUSH1 0x1 PUSH1 0xFF NOT PUSH1 0x0 DUP1 MLOAD PUSH1 0x20 PUSH2 0x2F83 DUP4 CODECOPY DUP2 MLOAD SWAP2 MSTORE SLOAD AND OR PUSH1 0x0 DUP1 MLOAD PUSH1 0x20 PUSH2 0x2F83 DUP4 CODECOPY DUP2 MLOAD SWAP2 MSTORE SSTORE PUSH32 0x62E78CEA01BEE320CD4E420270B5EA74000D11B0C9F74754EBDBFC544B05A258 PUSH1 0x20 PUSH1 0x40 MLOAD CALLER DUP2 MSTORE LOG1 DUP1 RETURN JUMPDEST POP CALLVALUE PUSH2 0x1C3 JUMPI PUSH1 0x20 CALLDATASIZE PUSH1 0x3 NOT ADD SLT PUSH2 0x1C3 JUMPI PUSH1 0x4 CALLDATALOAD PUSH1 0x1 PUSH1 0x1 PUSH1 0x40 SHL SUB DUP2 GT PUSH2 0xFD5 JUMPI CALLDATASIZE PUSH1 0x23 DUP3 ADD SLT ISZERO PUSH2 0xFD5 JUMPI DUP1 PUSH1 0x4 ADD CALLDATALOAD SWAP1 PUSH1 0x1 PUSH1 0x1 PUSH1 0x40 SHL SUB DUP3 GT PUSH2 0xE07 JUMPI PUSH1 0x24 DUP2 ADD SWAP1 PUSH1 0x24 CALLDATASIZE SWAP2 PUSH1 0x60 DUP6 MUL ADD ADD GT PUSH2 0xE07 JUMPI PUSH2 0x1321 PUSH2 0x2D75 JUMP JUMPDEST PUSH2 0x1329 PUSH2 0x2D9F JUMP JUMPDEST PUSH1 0x34 SLOAD PUSH1 0x40 MLOAD PUSH4 0x319A11DF PUSH1 0xE1 SHL DUP2 MSTORE PUSH1 0x1 PUSH1 0x1 PUSH1 0xA0 SHL SUB SWAP1 SWAP2 AND SWAP3 SWAP1 PUSH1 0x20 DUP2 PUSH1 0x4 DUP2 DUP8 GAS STATICCALL DUP1 ISZERO PUSH2 0xE7A JUMPI DUP6 SWAP1 PUSH2 0x1B4C JUMPI JUMPDEST PUSH2 0x1371 SWAP2 POP PUSH1 0x1 PUSH1 0x1 PUSH1 0xA0 SHL SUB AND CALLER EQ PUSH2 0x285B JUMP JUMPDEST PUSH1 0x40 MLOAD PUSH3 0x482FAB PUSH1 0xE5 SHL DUP2 MSTORE PUSH1 0x20 DUP2 PUSH1 0x4 DUP2 DUP8 GAS STATICCALL DUP1 ISZERO PUSH2 0xE7A JUMPI DUP6 SWAP1 PUSH2 0x1B11 JUMPI JUMPDEST PUSH2 0x139E SWAP2 POP ISZERO PUSH2 0x28AA JUMP JUMPDEST DUP1 ISZERO ISZERO DUP1 PUSH2 0x1B06 JUMPI JUMPDEST ISZERO PUSH2 0x1ACC JUMPI PUSH1 0x40 MLOAD PUSH4 0x8C639A85 PUSH1 0xE0 SHL DUP2 MSTORE SWAP3 DUP5 SWAP3 SWAP1 PUSH1 0x20 DUP6 PUSH1 0x4 DUP2 DUP5 GAS STATICCALL SWAP5 DUP6 ISZERO PUSH2 0x1A8A JUMPI DUP7 SWAP6 PUSH2 0x1A95 JUMPI JUMPDEST POP SWAP1 PUSH1 0x20 PUSH1 0x4 SWAP3 PUSH1 0x40 MLOAD SWAP4 DUP5 DUP1 SWAP3 PUSH4 0xC5F956AF PUSH1 0xE0 SHL DUP3 MSTORE GAS STATICCALL SWAP2 DUP3 ISZERO PUSH2 0x1A8A JUMPI DUP7 SWAP3 PUSH2 0x1A4A JUMPI JUMPDEST POP PUSH2 0x1411 PUSH1 0x1 PUSH1 0x1 PUSH1 0xA0 SHL SUB DUP4 AND ISZERO ISZERO PUSH2 0x2AA1 JUMP JUMPDEST PUSH2 0x141A DUP4 PUSH2 0x2B45 JUMP JUMPDEST PUSH2 0x1427 PUSH1 0x40 MLOAD SWAP2 DUP3 PUSH2 0x27D2 JUMP JUMPDEST DUP4 DUP2 MSTORE PUSH1 0x1F NOT PUSH2 0x1436 DUP6 PUSH2 0x2B45 JUMP JUMPDEST ADD CALLDATASIZE PUSH1 0x20 DUP4 ADD CALLDATACOPY PUSH1 0x33 SLOAD DUP8 SWAP2 SWAP1 PUSH1 0x1 PUSH1 0x1 PUSH1 0xA0 SHL SUB AND DUP3 JUMPDEST DUP7 DUP5 LT PUSH2 0x1901 JUMPI POP POP POP POP PUSH3 0x15180 TIMESTAMP DIV DUP1 DUP8 MSTORE PUSH1 0x36 PUSH1 0x20 MSTORE PUSH2 0x1493 DUP6 PUSH1 0x40 DUP10 KECCAK256 SLOAD DUP1 PUSH1 0x35 SLOAD DUP1 DUP3 LT ISZERO PUSH1 0x0 EQ PUSH2 0x18EF JUMPI POP POP PUSH2 0x148E DUP11 JUMPDEST DUP4 GT ISZERO PUSH2 0x2B03 JUMP JUMPDEST PUSH2 0x2BD8 JUMP JUMPDEST SWAP1 DUP8 MSTORE PUSH1 0x36 PUSH1 0x20 MSTORE PUSH1 0x40 DUP8 KECCAK256 SSTORE PUSH1 0x24 PUSH1 0x20 PUSH1 0x1 DUP1 PUSH1 0xA0 SHL SUB PUSH1 0x32 SLOAD AND PUSH1 0x40 MLOAD SWAP3 DUP4 DUP1 SWAP3 PUSH4 0x70A08231 PUSH1 0xE0 SHL DUP3 MSTORE ADDRESS PUSH1 0x4 DUP4 ADD MSTORE GAS STATICCALL DUP1 ISZERO PUSH2 0x18E4 JUMPI DUP6 SWAP1 DUP9 SWAP1 PUSH2 0x18AE JUMPI JUMPDEST PUSH2 0x14E6 SWAP3 POP SWAP7 SWAP3 SWAP7 LT ISZERO PUSH2 0x2BE5 JUMP JUMPDEST DUP6 SWAP5 DUP7 SWAP2 JUMPDEST DUP5 DUP4 LT PUSH2 0x160F JUMPI POP POP POP DUP4 DUP1 PUSH2 0x159F JUMPI JUMPDEST POP POP PUSH1 0x33 SLOAD DUP5 SWAP1 PUSH1 0x1 PUSH1 0x1 PUSH1 0xA0 SHL SUB AND DUP1 EXTCODESIZE ISZERO PUSH2 0xFD5 JUMPI DUP2 DUP1 SWAP2 PUSH1 0x24 PUSH1 0x40 MLOAD DUP1 SWAP5 DUP2 SWAP4 PUSH4 0xE867CECF PUSH1 0xE0 SHL DUP4 MSTORE DUP10 PUSH1 0x4 DUP5 ADD MSTORE GAS CALL DUP1 ISZERO PUSH2 0xDFC JUMPI PUSH2 0x158A JUMPI JUMPDEST POP POP PUSH2 0x1580 PUSH32 0x20EB9F3AEBB74816A1325A7477CFA6F6AB692B692CD5930DB98BD2D0343B70CA SWAP4 PUSH1 0x40 MLOAD SWAP4 DUP5 SWAP4 DUP5 PUSH1 0x40 SWAP2 SWAP5 SWAP4 SWAP3 PUSH1 0x60 DUP3 ADD SWAP6 DUP3 MSTORE PUSH1 0x20 DUP3 ADD MSTORE ADD MSTORE JUMP JUMPDEST SUB SWAP1 LOG1 PUSH1 0x1 DUP2 SSTORE DUP1 RETURN JUMPDEST DUP2 PUSH2 0x1594 SWAP2 PUSH2 0x27D2 JUMP JUMPDEST PUSH2 0x90A JUMPI DUP4 CODESIZE PUSH2 0x153C JUMP JUMPDEST PUSH1 0x32 SLOAD PUSH2 0x15B5 SWAP3 SWAP1 PUSH1 0x1 PUSH1 0x1 PUSH1 0xA0 SHL SUB AND PUSH2 0x2DF5 JUMP JUMPDEST PUSH1 0x33 SLOAD DUP5 SWAP1 PUSH1 0x1 PUSH1 0x1 PUSH1 0xA0 SHL SUB AND DUP1 EXTCODESIZE ISZERO PUSH2 0xFD5 JUMPI DUP2 DUP1 SWAP2 PUSH1 0x24 PUSH1 0x40 MLOAD DUP1 SWAP5 DUP2 SWAP4 PUSH4 0xD3158E13 PUSH1 0xE0 SHL DUP4 MSTORE DUP11 PUSH1 0x4 DUP5 ADD MSTORE GAS CALL DUP1 ISZERO PUSH2 0xDFC JUMPI PUSH2 0x15FA JUMPI JUMPDEST POP DUP4 PUSH2 0x14FC JUMP JUMPDEST DUP2 PUSH2 0x1604 SWAP2 PUSH2 0x27D2 JUMP JUMPDEST PUSH2 0x90A JUMPI DUP4 CODESIZE PUSH2 0x15F3 JUMP JUMPDEST SWAP1 SWAP2 SWAP6 PUSH2 0x1625 PUSH2 0x1620 DUP9 DUP8 DUP7 PUSH2 0x2B5C JUMP JUMPDEST PUSH2 0x2B82 JUMP JUMPDEST SWAP7 PUSH1 0x1 DUP1 PUSH1 0xA0 SHL SUB PUSH1 0x33 SLOAD AND SWAP8 DUP10 DUP2 MLOAD PUSH1 0x24 PUSH1 0x40 MLOAD DUP1 SWAP13 DUP2 SWAP4 PUSH4 0x95EA5717 PUSH1 0xE0 SHL DUP4 MSTORE PUSH1 0x4 DUP4 ADD MSTORE GAS STATICCALL SWAP9 DUP10 ISZERO PUSH2 0x18A3 JUMPI DUP11 SWAP10 PUSH2 0x187F JUMPI JUMPDEST POP DUP10 PUSH1 0x20 DUP3 ADD SWAP2 PUSH1 0x64 PUSH2 0x1671 DUP8 DUP6 MLOAD PUSH2 0x2C31 JUMP JUMPDEST DIV SWAP5 PUSH2 0x167E DUP7 DUP6 MLOAD PUSH2 0x2AE0 JUMP JUMPDEST SWAP1 PUSH2 0x1689 DUP8 DUP4 PUSH2 0x2BD8 JUMP JUMPDEST PUSH1 0x32 SLOAD PUSH1 0x40 MLOAD PUSH4 0x70A08231 PUSH1 0xE0 SHL DUP2 MSTORE ADDRESS PUSH1 0x4 DUP3 ADD MSTORE PUSH1 0x1 PUSH1 0x1 PUSH1 0xA0 SHL SUB SWAP1 SWAP2 AND SWAP6 SWAP1 PUSH1 0x20 DUP2 PUSH1 0x24 DUP2 DUP11 GAS STATICCALL SWAP2 DUP3 ISZERO PUSH2 0xBED JUMPI SWAP2 PUSH2 0x184C JUMPI JUMPDEST POP LT PUSH2 0x1808 JUMPI PUSH2 0x16E2 DUP3 DUP16 SWAP15 PUSH1 0x20 ADD SWAP6 PUSH1 0x1 DUP1 PUSH1 0xA0 SHL SUB DUP8 MLOAD AND SWAP1 PUSH2 0x2DF5 JUMP JUMPDEST PUSH1 0x33 SLOAD DUP5 MLOAD PUSH1 0x1 PUSH1 0x1 PUSH1 0xA0 SHL SUB SWAP1 DUP2 AND SWAP2 AND DUP1 EXTCODESIZE ISZERO PUSH2 0x1804 JUMPI PUSH1 0x40 MLOAD PUSH4 0x70E3D455 PUSH1 0xE1 SHL DUP2 MSTORE PUSH1 0x1 PUSH1 0x1 PUSH1 0xA0 SHL SUB SWAP3 SWAP1 SWAP3 AND PUSH1 0x4 DUP4 ADD MSTORE PUSH1 0x24 DUP3 ADD DUP5 SWAP1 MSTORE DUP15 SWAP1 DUP3 SWAP1 PUSH1 0x44 SWAP1 DUP3 SWAP1 DUP5 SWAP1 GAS CALL SWAP1 DUP2 ISZERO PUSH2 0x17F7 JUMPI DUP15 SWAP2 PUSH2 0x17DA JUMPI JUMPDEST POP POP SWAP1 DUP7 PUSH2 0x17CF PUSH2 0x176F PUSH1 0x1 SWAP10 PUSH32 0xDAEC0156F045FE9BFFCC686BD77361F536743020F757603C9F1888937CDFC521 SWAP6 PUSH2 0x2BD8 JUMP JUMPDEST SWAP15 PUSH1 0x40 DUP1 DUP8 ADD SWAP2 DUP3 MLOAD DUP2 MSTORE PUSH1 0x39 PUSH1 0x20 MSTORE KECCAK256 DUP11 PUSH1 0xFF NOT DUP3 SLOAD AND OR SWAP1 SSTORE MLOAD SWAP5 MLOAD SWAP6 DUP10 DUP1 PUSH1 0xA0 SHL SUB SWAP1 MLOAD AND SWAP7 MLOAD PUSH1 0x40 MLOAD SWAP4 DUP5 SWAP4 TIMESTAMP SWAP3 CALLER DUP7 SWAP2 SWAP3 PUSH1 0x80 SWAP4 SWAP7 SWAP6 SWAP5 SWAP2 SWAP7 PUSH1 0xA0 DUP5 ADD SWAP8 PUSH1 0x1 DUP1 PUSH1 0xA0 SHL SUB AND DUP5 MSTORE PUSH1 0x20 DUP5 ADD MSTORE PUSH1 0x40 DUP4 ADD MSTORE PUSH1 0x60 DUP3 ADD MSTORE ADD MSTORE JUMP JUMPDEST SUB SWAP1 LOG4 ADD SWAP2 SWAP1 PUSH2 0x14EB JUMP JUMPDEST DUP2 PUSH2 0x17E7 SWAP2 SWAP5 SWAP4 SWAP5 PUSH2 0x27D2 JUMP JUMPDEST PUSH2 0x17F3 JUMPI SWAP1 DUP13 CODESIZE PUSH2 0x173B JUMP JUMPDEST DUP13 DUP1 REVERT JUMPDEST DUP15 PUSH1 0x40 MLOAD SWAP1 RETURNDATASIZE SWAP1 DUP3 RETURNDATACOPY RETURNDATASIZE SWAP1 REVERT JUMPDEST DUP15 DUP1 REVERT JUMPDEST PUSH1 0x64 PUSH1 0x40 MLOAD PUSH3 0x461BCD PUSH1 0xE5 SHL DUP2 MSTORE PUSH1 0x20 PUSH1 0x4 DUP3 ADD MSTORE PUSH1 0x20 PUSH1 0x24 DUP3 ADD MSTORE PUSH32 0x496E73756666696369656E742062616C616E636520666F72207061796D656E74 PUSH1 0x44 DUP3 ADD MSTORE REVERT JUMPDEST SWAP1 POP PUSH1 0x20 RETURNDATASIZE DUP2 GT PUSH2 0x1878 JUMPI JUMPDEST PUSH2 0x1862 DUP2 DUP4 PUSH2 0x27D2 JUMP JUMPDEST PUSH1 0x20 DUP3 PUSH1 0x0 SWAP3 DUP2 ADD SUB SLT PUSH2 0x1C3 JUMPI POP MLOAD CODESIZE PUSH2 0x16C2 JUMP JUMPDEST POP RETURNDATASIZE PUSH2 0x1858 JUMP JUMPDEST PUSH2 0x189C SWAP2 SWAP10 POP RETURNDATASIZE DUP1 DUP13 DUP4 RETURNDATACOPY PUSH2 0x1894 DUP2 DUP4 PUSH2 0x27D2 JUMP JUMPDEST DUP2 ADD SWAP1 PUSH2 0x2977 JUMP JUMPDEST SWAP8 CODESIZE PUSH2 0x165D JUMP JUMPDEST PUSH1 0x40 MLOAD RETURNDATASIZE DUP13 DUP3 RETURNDATACOPY RETURNDATASIZE SWAP1 REVERT JUMPDEST POP POP PUSH1 0x20 DUP2 RETURNDATASIZE PUSH1 0x20 GT PUSH2 0x18DC JUMPI JUMPDEST DUP2 PUSH2 0x18C9 PUSH1 0x20 SWAP4 DUP4 PUSH2 0x27D2 JUMP JUMPDEST DUP2 ADD SUB SLT PUSH2 0x41F JUMPI DUP5 PUSH2 0x14E6 SWAP2 MLOAD PUSH2 0x14D7 JUMP JUMPDEST RETURNDATASIZE SWAP2 POP PUSH2 0x18BC JUMP JUMPDEST PUSH1 0x40 MLOAD RETURNDATASIZE DUP10 DUP3 RETURNDATACOPY RETURNDATASIZE SWAP1 REVERT JUMPDEST PUSH2 0x148E SWAP2 PUSH2 0x18FC SWAP2 PUSH2 0x2AE0 JUMP JUMPDEST PUSH2 0x1486 JUMP JUMPDEST PUSH2 0x1912 PUSH2 0x1620 DUP6 DUP10 DUP9 SWAP12 SWAP8 SWAP12 PUSH2 0x2B5C JUMP JUMPDEST SWAP4 PUSH1 0x40 DUP6 ADD SWAP2 DUP12 JUMPDEST DUP2 DUP2 LT PUSH2 0x19EB JUMPI POP DUP3 MLOAD PUSH2 0x192E DUP3 DUP8 PUSH2 0x2BC4 JUMP JUMPDEST MSTORE PUSH1 0x0 NOT DUP2 EQ PUSH2 0x19D7 JUMPI SWAP1 PUSH1 0x1 DUP13 SWAP4 SWAP3 ADD SWAP6 PUSH1 0x20 DUP2 ADD SWAP3 PUSH2 0x1951 DUP5 MLOAD ISZERO ISZERO PUSH2 0x293A JUMP JUMPDEST MLOAD DUP5 MSTORE PUSH1 0x39 PUSH1 0x20 MSTORE PUSH2 0x196A PUSH1 0xFF PUSH1 0x40 DUP7 KECCAK256 SLOAD AND ISZERO PUSH2 0x28EE JUMP JUMPDEST MLOAD SWAP2 PUSH1 0x40 MLOAD SWAP3 PUSH4 0x95EA5717 PUSH1 0xE0 SHL DUP5 MSTORE PUSH1 0x4 DUP5 ADD MSTORE DUP4 DUP4 PUSH1 0x24 DUP2 DUP9 GAS STATICCALL SWAP3 DUP4 ISZERO PUSH2 0x4A0 JUMPI PUSH1 0x80 PUSH2 0x19B4 SWAP5 PUSH2 0x19AD SWAP3 DUP8 PUSH1 0x1 SWAP9 SWAP3 PUSH2 0x19BC JUMPI JUMPDEST POP POP ADD MLOAD ISZERO ISZERO PUSH2 0x2A60 JUMP JUMPDEST MLOAD SWAP1 PUSH2 0x2BD8 JUMP JUMPDEST SWAP8 ADD SWAP3 PUSH2 0x144E JUMP JUMPDEST PUSH2 0x19D0 SWAP3 POP RETURNDATASIZE DUP1 SWAP2 DUP4 RETURNDATACOPY PUSH2 0x1894 DUP2 DUP4 PUSH2 0x27D2 JUMP JUMPDEST DUP16 DUP1 PUSH2 0x19A2 JUMP JUMPDEST PUSH4 0x4E487B71 PUSH1 0xE0 SHL DUP13 MSTORE PUSH1 0x11 PUSH1 0x4 MSTORE PUSH1 0x24 DUP13 REVERT JUMPDEST PUSH2 0x19F5 DUP2 DUP8 PUSH2 0x2BC4 JUMP JUMPDEST MLOAD DUP5 MLOAD EQ PUSH2 0x1A05 JUMPI PUSH1 0x1 ADD PUSH2 0x191A JUMP JUMPDEST PUSH1 0x40 MLOAD PUSH3 0x461BCD PUSH1 0xE5 SHL DUP2 MSTORE PUSH1 0x20 PUSH1 0x4 DUP3 ADD MSTORE PUSH1 0x1A PUSH1 0x24 DUP3 ADD MSTORE PUSH32 0x4475706C696361746520766F756368657220696E206261746368000000000000 PUSH1 0x44 DUP3 ADD MSTORE PUSH1 0x64 SWAP1 REVERT JUMPDEST SWAP1 SWAP2 POP PUSH1 0x20 DUP2 RETURNDATASIZE PUSH1 0x20 GT PUSH2 0x1A82 JUMPI JUMPDEST DUP2 PUSH2 0x1A66 PUSH1 0x20 SWAP4 DUP4 PUSH2 0x27D2 JUMP JUMPDEST DUP2 ADD SUB SLT PUSH2 0x1A7E JUMPI PUSH2 0x1A77 SWAP1 PUSH2 0x2847 JUMP JUMPDEST SWAP1 CODESIZE PUSH2 0x13FC JUMP JUMPDEST DUP6 DUP1 REVERT JUMPDEST RETURNDATASIZE SWAP2 POP PUSH2 0x1A59 JUMP JUMPDEST PUSH1 0x40 MLOAD RETURNDATASIZE DUP9 DUP3 RETURNDATACOPY RETURNDATASIZE SWAP1 REVERT JUMPDEST SWAP2 SWAP1 SWAP5 POP PUSH1 0x20 DUP3 RETURNDATASIZE PUSH1 0x20 GT PUSH2 0x1AC4 JUMPI JUMPDEST DUP2 PUSH2 0x1AB2 PUSH1 0x20 SWAP4 DUP4 PUSH2 0x27D2 JUMP JUMPDEST DUP2 ADD SUB SLT PUSH2 0x41F JUMPI SWAP1 MLOAD SWAP4 PUSH1 0x20 PUSH2 0x13D4 JUMP JUMPDEST RETURNDATASIZE SWAP2 POP PUSH2 0x1AA5 JUMP JUMPDEST PUSH1 0x40 MLOAD PUSH3 0x461BCD PUSH1 0xE5 SHL DUP2 MSTORE PUSH1 0x20 PUSH1 0x4 DUP3 ADD MSTORE PUSH1 0x12 PUSH1 0x24 DUP3 ADD MSTORE PUSH18 0x496E76616C69642062617463682073697A65 PUSH1 0x70 SHL PUSH1 0x44 DUP3 ADD MSTORE PUSH1 0x64 SWAP1 REVERT JUMPDEST POP PUSH1 0x32 DUP2 GT ISZERO PUSH2 0x13A7 JUMP JUMPDEST POP PUSH1 0x20 DUP2 RETURNDATASIZE PUSH1 0x20 GT PUSH2 0x1B44 JUMPI JUMPDEST DUP2 PUSH2 0x1B2B PUSH1 0x20 SWAP4 DUP4 PUSH2 0x27D2 JUMP JUMPDEST DUP2 ADD SUB SLT PUSH2 0xE6E JUMPI PUSH2 0x1B3F PUSH2 0x139E SWAP2 PUSH2 0x289D JUMP JUMPDEST PUSH2 0x1393 JUMP JUMPDEST RETURNDATASIZE SWAP2 POP PUSH2 0x1B1E JUMP JUMPDEST POP PUSH1 0x20 DUP2 RETURNDATASIZE PUSH1 0x20 GT PUSH2 0x1B7F JUMPI JUMPDEST DUP2 PUSH2 0x1B66 PUSH1 0x20 SWAP4 DUP4 PUSH2 0x27D2 JUMP JUMPDEST DUP2 ADD SUB SLT PUSH2 0xE6E JUMPI PUSH2 0x1B7A PUSH2 0x1371 SWAP2 PUSH2 0x2847 JUMP JUMPDEST PUSH2 0x135C JUMP JUMPDEST RETURNDATASIZE SWAP2 POP PUSH2 0x1B59 JUMP JUMPDEST POP CALLVALUE PUSH2 0x1C3 JUMPI DUP1 PUSH1 0x3 NOT CALLDATASIZE ADD SLT PUSH2 0x1C3 JUMPI PUSH1 0x20 PUSH1 0x35 SLOAD PUSH1 0x40 MLOAD SWAP1 DUP2 MSTORE RETURN JUMPDEST POP CALLVALUE PUSH2 0x1C3 JUMPI DUP1 PUSH1 0x3 NOT CALLDATASIZE ADD SLT PUSH2 0x1C3 JUMPI PUSH2 0x1BBE PUSH2 0x2D3F JUMP JUMPDEST PUSH1 0x0 DUP1 MLOAD PUSH1 0x20 PUSH2 0x2F43 DUP4 CODECOPY DUP2 MLOAD SWAP2 MSTORE DUP1 SLOAD PUSH1 0x1 PUSH1 0x1 PUSH1 0xA0 SHL SUB NOT DUP2 AND SWAP1 SWAP2 SSTORE DUP2 SWAP1 PUSH1 0x1 PUSH1 0x1 PUSH1 0xA0 SHL SUB AND PUSH32 0x8BE0079C531659141344CD1FD0A4F28419497F9722A3DAAFE3B4186F6B6457E0 DUP3 DUP1 LOG3 DUP1 RETURN JUMPDEST POP CALLVALUE PUSH2 0x1C3 JUMPI DUP1 PUSH1 0x3 NOT CALLDATASIZE ADD SLT PUSH2 0x1C3 JUMPI PUSH1 0x20 PUSH1 0xFF PUSH1 0x0 DUP1 MLOAD PUSH1 0x20 PUSH2 0x2F83 DUP4 CODECOPY DUP2 MLOAD SWAP2 MSTORE SLOAD AND PUSH1 0x40 MLOAD SWAP1 ISZERO ISZERO DUP2 MSTORE RETURN JUMPDEST POP CALLVALUE PUSH2 0x1C3 JUMPI DUP1 PUSH1 0x3 NOT CALLDATASIZE ADD SLT PUSH2 0x1C3 JUMPI PUSH32 0x0 PUSH1 0x1 PUSH1 0x1 PUSH1 0xA0 SHL SUB AND ADDRESS SUB PUSH2 0x1C98 JUMPI PUSH1 0x20 PUSH1 0x40 MLOAD PUSH1 0x0 DUP1 MLOAD PUSH1 0x20 PUSH2 0x2F63 DUP4 CODECOPY DUP2 MLOAD SWAP2 MSTORE DUP2 MSTORE RETURN JUMPDEST PUSH4 0x703E46DD PUSH1 0xE1 SHL DUP2 MSTORE PUSH1 0x4 SWAP1 REVERT JUMPDEST POP PUSH1 0x40 CALLDATASIZE PUSH1 0x3 NOT ADD SLT PUSH2 0x1C3 JUMPI PUSH2 0x1CBC PUSH2 0x27A6 JUMP JUMPDEST SWAP1 PUSH1 0x24 CALLDATALOAD SWAP2 PUSH1 0x1 PUSH1 0x1 PUSH1 0x40 SHL SUB DUP4 GT PUSH2 0xFD5 JUMPI CALLDATASIZE PUSH1 0x23 DUP5 ADD SLT ISZERO PUSH2 0xFD5 JUMPI DUP3 PUSH1 0x4 ADD CALLDATALOAD PUSH2 0x1CE8 DUP2 PUSH2 0x2809 JUMP JUMPDEST SWAP4 PUSH2 0x1CF6 PUSH1 0x40 MLOAD SWAP6 DUP7 PUSH2 0x27D2 JUMP JUMPDEST DUP2 DUP6 MSTORE CALLDATASIZE PUSH1 0x24 DUP4 DUP4 ADD ADD GT PUSH2 0x90A JUMPI DUP2 DUP5 SWAP3 PUSH1 0x24 PUSH1 0x20 SWAP4 ADD DUP4 DUP9 ADD CALLDATACOPY DUP6 ADD ADD MSTORE PUSH1 0x1 PUSH1 0x1 PUSH1 0xA0 SHL SUB PUSH32 0x0 AND ADDRESS DUP2 EQ SWAP1 DUP2 ISZERO PUSH2 0x1E94 JUMPI JUMPDEST POP PUSH2 0x1E85 JUMPI PUSH2 0x1D58 PUSH2 0x2D3F JUMP JUMPDEST PUSH1 0x40 MLOAD PUSH4 0x52D1902D PUSH1 0xE0 SHL DUP2 MSTORE SWAP3 PUSH1 0x1 PUSH1 0x1 PUSH1 0xA0 SHL SUB DUP3 AND SWAP2 SWAP1 PUSH1 0x20 DUP6 PUSH1 0x4 DUP2 DUP7 GAS STATICCALL DUP1 SWAP6 DUP6 SWAP7 PUSH2 0x1E51 JUMPI JUMPDEST POP PUSH2 0x1D9D JUMPI PUSH4 0x4C9C8CE3 PUSH1 0xE0 SHL DUP5 MSTORE PUSH1 0x4 DUP4 SWAP1 MSTORE PUSH1 0x24 DUP5 REVERT JUMPDEST SWAP1 SWAP2 DUP5 PUSH1 0x0 DUP1 MLOAD PUSH1 0x20 PUSH2 0x2F63 DUP4 CODECOPY DUP2 MLOAD SWAP2 MSTORE DUP2 SUB PUSH2 0x1E3F JUMPI POP DUP3 EXTCODESIZE ISZERO PUSH2 0x1E2D JUMPI PUSH1 0x0 DUP1 MLOAD PUSH1 0x20 PUSH2 0x2F63 DUP4 CODECOPY DUP2 MLOAD SWAP2 MSTORE DUP1 SLOAD PUSH1 0x1 PUSH1 0x1 PUSH1 0xA0 SHL SUB NOT AND DUP3 OR SWAP1 SSTORE PUSH32 0xBC7CD75A20EE27FD9ADEBAB32041F755214DBC6BFFA90CC0225B39DA2E5C2D3B DUP5 DUP1 LOG2 DUP1 MLOAD ISZERO PUSH2 0x1E14 JUMPI PUSH2 0x1E10 SWAP2 PUSH2 0x2EB0 JUMP JUMPDEST POP DUP1 RETURN JUMPDEST POP POP CALLVALUE PUSH2 0x1E1E JUMPI DUP1 RETURN JUMPDEST PUSH4 0xB398979F PUSH1 0xE0 SHL DUP2 MSTORE PUSH1 0x4 SWAP1 REVERT JUMPDEST PUSH4 0x4C9C8CE3 PUSH1 0xE0 SHL DUP5 MSTORE PUSH1 0x4 MSTORE PUSH1 0x24 DUP4 REVERT JUMPDEST PUSH4 0x2A875269 PUSH1 0xE2 SHL DUP6 MSTORE PUSH1 0x4 MSTORE PUSH1 0x24 DUP5 REVERT JUMPDEST SWAP1 SWAP6 POP PUSH1 0x20 DUP2 RETURNDATASIZE PUSH1 0x20 GT PUSH2 0x1E7D JUMPI JUMPDEST DUP2 PUSH2 0x1E6D PUSH1 0x20 SWAP4 DUP4 PUSH2 0x27D2 JUMP JUMPDEST DUP2 ADD SUB SLT PUSH2 0xE6E JUMPI MLOAD SWAP5 CODESIZE PUSH2 0x1D84 JUMP JUMPDEST RETURNDATASIZE SWAP2 POP PUSH2 0x1E60 JUMP JUMPDEST PUSH4 0x703E46DD PUSH1 0xE1 SHL DUP3 MSTORE PUSH1 0x4 DUP3 REVERT JUMPDEST PUSH1 0x0 DUP1 MLOAD PUSH1 0x20 PUSH2 0x2F63 DUP4 CODECOPY DUP2 MLOAD SWAP2 MSTORE SLOAD PUSH1 0x1 PUSH1 0x1 PUSH1 0xA0 SHL SUB AND EQ ISZERO SWAP1 POP CODESIZE PUSH2 0x1D4B JUMP JUMPDEST POP CALLVALUE PUSH2 0x1C3 JUMPI PUSH1 0x60 CALLDATASIZE PUSH1 0x3 NOT ADD SLT PUSH2 0x1C3 JUMPI PUSH1 0x24 CALLDATALOAD PUSH1 0x4 CALLDATALOAD PUSH1 0x44 CALLDATALOAD PUSH2 0x1EDA PUSH2 0x2D75 JUMP JUMPDEST PUSH2 0x1EE2 PUSH2 0x2D9F JUMP JUMPDEST PUSH1 0x34 SLOAD PUSH1 0x40 MLOAD PUSH4 0x319A11DF PUSH1 0xE1 SHL DUP2 MSTORE PUSH1 0x1 PUSH1 0x1 PUSH1 0xA0 SHL SUB SWAP1 SWAP2 AND SWAP1 PUSH1 0x20 DUP2 PUSH1 0x4 DUP2 DUP6 GAS STATICCALL DUP1 ISZERO PUSH2 0x1A8A JUMPI DUP7 SWAP1 PUSH2 0x2427 JUMPI JUMPDEST PUSH2 0x1F29 SWAP2 POP PUSH1 0x1 PUSH1 0x1 PUSH1 0xA0 SHL SUB AND CALLER EQ PUSH2 0x285B JUMP JUMPDEST PUSH1 0x40 MLOAD PUSH3 0x482FAB PUSH1 0xE5 SHL DUP2 MSTORE PUSH1 0x20 DUP2 PUSH1 0x4 DUP2 DUP6 GAS STATICCALL DUP1 ISZERO PUSH2 0x1A8A JUMPI DUP7 SWAP1 PUSH2 0x23EC JUMPI JUMPDEST PUSH2 0x1F56 SWAP2 POP ISZERO PUSH2 0x28AA JUMP JUMPDEST DUP2 DUP6 MSTORE PUSH1 0x39 PUSH1 0x20 MSTORE PUSH2 0x1F6F PUSH1 0xFF PUSH1 0x40 DUP8 KECCAK256 SLOAD AND ISZERO PUSH2 0x28EE JUMP JUMPDEST PUSH2 0x1F7A DUP5 ISZERO ISZERO PUSH2 0x293A JUMP JUMPDEST PUSH1 0x33 SLOAD PUSH1 0x40 MLOAD PUSH4 0x95EA5717 PUSH1 0xE0 SHL DUP2 MSTORE PUSH1 0x4 DUP2 ADD DUP6 SWAP1 MSTORE SWAP1 DUP7 SWAP1 DUP3 SWAP1 PUSH1 0x24 SWAP1 DUP3 SWAP1 PUSH1 0x1 PUSH1 0x1 PUSH1 0xA0 SHL SUB AND GAS STATICCALL SWAP1 DUP2 ISZERO PUSH2 0x1A8A JUMPI DUP7 SWAP2 PUSH2 0x23D2 JUMPI JUMPDEST POP PUSH2 0x1FC4 PUSH1 0x80 DUP3 ADD MLOAD ISZERO ISZERO PUSH2 0x2A60 JUMP JUMPDEST PUSH1 0x40 MLOAD PUSH4 0x8C639A85 PUSH1 0xE0 SHL DUP2 MSTORE SWAP2 PUSH1 0x20 DUP4 PUSH1 0x4 DUP2 DUP5 GAS STATICCALL SWAP3 DUP4 ISZERO PUSH2 0x18E4 JUMPI DUP8 SWAP4 PUSH2 0x239D JUMPI JUMPDEST POP SWAP2 PUSH1 0x20 PUSH1 0x4 SWAP4 PUSH1 0x40 MLOAD SWAP5 DUP6 DUP1 SWAP3 PUSH4 0xC5F956AF PUSH1 0xE0 SHL DUP3 MSTORE GAS STATICCALL SWAP3 DUP4 ISZERO PUSH2 0x18E4 JUMPI DUP8 SWAP4 PUSH2 0x235D JUMPI JUMPDEST POP PUSH2 0x2026 PUSH1 0x1 PUSH1 0x1 PUSH1 0xA0 SHL SUB DUP5 AND ISZERO ISZERO PUSH2 0x2AA1 JUMP JUMPDEST PUSH1 0x64 PUSH2 0x2079 PUSH3 0x15180 TIMESTAMP DIV SWAP3 DUP4 DUP11 MSTORE PUSH1 0x36 PUSH1 0x20 MSTORE PUSH1 0x40 DUP11 KECCAK256 SLOAD PUSH1 0x35 SLOAD DUP1 DUP3 LT ISZERO PUSH1 0x0 EQ PUSH2 0x234B JUMPI POP POP PUSH2 0x205C DUP11 JUMPDEST DUP11 GT ISZERO PUSH2 0x2B03 JUMP JUMPDEST DUP7 DUP11 MSTORE PUSH1 0x39 PUSH1 0x20 MSTORE PUSH1 0x40 DUP11 KECCAK256 DUP1 SLOAD PUSH1 0xFF NOT AND PUSH1 0x1 OR SWAP1 SSTORE DUP9 PUSH2 0x2C31 JUMP JUMPDEST DIV SWAP1 PUSH2 0x2085 DUP3 DUP9 PUSH2 0x2AE0 JUMP JUMPDEST SWAP3 PUSH1 0x1 DUP1 PUSH1 0xA0 SHL SUB PUSH1 0x32 SLOAD AND SWAP5 PUSH1 0x40 MLOAD PUSH4 0x70A08231 PUSH1 0xE0 SHL DUP2 MSTORE ADDRESS PUSH1 0x4 DUP3 ADD MSTORE PUSH1 0x20 DUP2 PUSH1 0x24 DUP2 DUP11 GAS STATICCALL SWAP1 DUP2 ISZERO PUSH2 0x2340 JUMPI DUP12 SWAP2 PUSH2 0x230A JUMPI JUMPDEST POP PUSH2 0x20C7 DUP6 DUP8 PUSH2 0x2BD8 JUMP JUMPDEST GT PUSH2 0x22B3 JUMPI PUSH2 0x20E6 DUP6 PUSH1 0x20 DUP7 SWAP5 ADD SWAP8 PUSH1 0x1 DUP1 PUSH1 0xA0 SHL SUB DUP10 MLOAD AND SWAP1 PUSH2 0x2DF5 JUMP JUMPDEST DUP2 ISZERO ISZERO SWAP2 DUP3 PUSH2 0x2296 JUMPI JUMPDEST POP POP PUSH1 0x33 SLOAD DUP6 MLOAD PUSH1 0x1 PUSH1 0x1 PUSH1 0xA0 SHL SUB SWAP2 DUP3 AND SWAP2 DUP12 SWAP2 AND DUP3 EXTCODESIZE ISZERO PUSH2 0xFD5 JUMPI PUSH1 0x40 MLOAD PUSH4 0x70E3D455 PUSH1 0xE1 SHL DUP2 MSTORE PUSH1 0x1 PUSH1 0x1 PUSH1 0xA0 SHL SUB SWAP2 SWAP1 SWAP2 AND PUSH1 0x4 DUP3 ADD MSTORE PUSH1 0x24 DUP2 ADD DUP8 SWAP1 MSTORE SWAP2 DUP3 SWAP1 PUSH1 0x44 SWAP1 DUP3 SWAP1 DUP5 SWAP1 GAS CALL DUP1 ISZERO PUSH2 0x18A3 JUMPI PUSH2 0x2282 JUMPI JUMPDEST POP PUSH2 0x2228 JUMPI JUMPDEST PUSH1 0x33 SLOAD DUP9 SWAP1 PUSH1 0x1 PUSH1 0x1 PUSH1 0xA0 SHL SUB AND DUP1 EXTCODESIZE ISZERO PUSH2 0xFD5 JUMPI DUP2 DUP1 SWAP2 PUSH1 0x24 DUP12 PUSH1 0x40 MLOAD SWAP5 DUP6 SWAP4 DUP5 SWAP3 PUSH4 0xE867CECF PUSH1 0xE0 SHL DUP5 MSTORE PUSH1 0x4 DUP5 ADD MSTORE GAS CALL DUP1 ISZERO PUSH2 0xDFC JUMPI PUSH2 0x220F JUMPI JUMPDEST POP SWAP4 PUSH2 0x2205 SWAP2 PUSH32 0xDAEC0156F045FE9BFFCC686BD77361F536743020F757603C9F1888937CDFC521 SWAP6 MSTORE PUSH1 0x36 PUSH1 0x20 MSTORE PUSH1 0x40 DUP10 KECCAK256 PUSH2 0x21CB DUP10 DUP3 SLOAD PUSH2 0x2BD8 JUMP JUMPDEST SWAP1 SSTORE MLOAD PUSH1 0x40 DUP1 MLOAD CALLER DUP2 MSTORE PUSH1 0x20 DUP2 ADD SWAP10 SWAP1 SWAP10 MSTORE DUP9 ADD SWAP3 SWAP1 SWAP3 MSTORE PUSH1 0x60 DUP8 ADD SWAP3 SWAP1 SWAP3 MSTORE TIMESTAMP PUSH1 0x80 DUP8 ADD MSTORE PUSH1 0x1 PUSH1 0x1 PUSH1 0xA0 SHL SUB AND SWAP5 SWAP1 DUP2 SWAP1 PUSH1 0xA0 DUP3 ADD SWAP1 JUMP JUMPDEST SUB SWAP1 LOG4 PUSH1 0x1 DUP2 SSTORE DUP1 RETURN JUMPDEST DUP2 PUSH2 0x2219 SWAP2 PUSH2 0x27D2 JUMP JUMPDEST PUSH2 0x2224 JUMPI DUP8 CODESIZE PUSH2 0x218E JUMP JUMPDEST DUP8 DUP1 REVERT JUMPDEST PUSH1 0x33 SLOAD DUP9 SWAP1 PUSH1 0x1 PUSH1 0x1 PUSH1 0xA0 SHL SUB AND DUP1 EXTCODESIZE ISZERO PUSH2 0xFD5 JUMPI DUP2 DUP1 SWAP2 PUSH1 0x24 PUSH1 0x40 MLOAD DUP1 SWAP5 DUP2 SWAP4 PUSH4 0xD3158E13 PUSH1 0xE0 SHL DUP4 MSTORE DUP10 PUSH1 0x4 DUP5 ADD MSTORE GAS CALL DUP1 ISZERO PUSH2 0xDFC JUMPI PUSH2 0x226D JUMPI JUMPDEST POP POP PUSH2 0x214F JUMP JUMPDEST DUP2 PUSH2 0x2277 SWAP2 PUSH2 0x27D2 JUMP JUMPDEST PUSH2 0x2224 JUMPI DUP8 CODESIZE PUSH2 0x2266 JUMP JUMPDEST DUP10 PUSH2 0x228F SWAP2 SWAP11 SWAP3 SWAP11 PUSH2 0x27D2 JUMP JUMPDEST SWAP8 CODESIZE PUSH2 0x2149 JUMP JUMPDEST PUSH1 0x32 SLOAD PUSH2 0x22AC SWAP3 SWAP1 PUSH1 0x1 PUSH1 0x1 PUSH1 0xA0 SHL SUB AND PUSH2 0x2DF5 JUMP JUMPDEST CODESIZE DUP4 PUSH2 0x20F0 JUMP JUMPDEST PUSH1 0x40 MLOAD PUSH3 0x461BCD PUSH1 0xE5 SHL DUP2 MSTORE PUSH1 0x20 PUSH1 0x4 DUP3 ADD MSTORE PUSH1 0x29 PUSH1 0x24 DUP3 ADD MSTORE PUSH32 0x496E73756666696369656E7420636F6E74726163742062616C616E636520666F PUSH1 0x44 DUP3 ADD MSTORE PUSH9 0x1C881C185E5B595B9D PUSH1 0xBA SHL PUSH1 0x64 DUP3 ADD MSTORE PUSH1 0x84 SWAP1 REVERT JUMPDEST SWAP1 POP PUSH1 0x20 DUP2 RETURNDATASIZE PUSH1 0x20 GT PUSH2 0x2338 JUMPI JUMPDEST DUP2 PUSH2 0x2325 PUSH1 0x20 SWAP4 DUP4 PUSH2 0x27D2 JUMP JUMPDEST DUP2 ADD SUB SLT PUSH2 0x2334 JUMPI MLOAD CODESIZE PUSH2 0x20BC JUMP JUMPDEST DUP11 DUP1 REVERT JUMPDEST RETURNDATASIZE SWAP2 POP PUSH2 0x2318 JUMP JUMPDEST PUSH1 0x40 MLOAD RETURNDATASIZE DUP14 DUP3 RETURNDATACOPY RETURNDATASIZE SWAP1 REVERT JUMPDEST PUSH2 0x205C SWAP2 PUSH2 0x2358 SWAP2 PUSH2 0x2AE0 JUMP JUMPDEST PUSH2 0x2054 JUMP JUMPDEST SWAP1 SWAP3 POP PUSH1 0x20 DUP2 RETURNDATASIZE PUSH1 0x20 GT PUSH2 0x2395 JUMPI JUMPDEST DUP2 PUSH2 0x2379 PUSH1 0x20 SWAP4 DUP4 PUSH2 0x27D2 JUMP JUMPDEST DUP2 ADD SUB SLT PUSH2 0x2391 JUMPI PUSH2 0x238A SWAP1 PUSH2 0x2847 JUMP JUMPDEST SWAP2 CODESIZE PUSH2 0x2011 JUMP JUMPDEST DUP7 DUP1 REVERT JUMPDEST RETURNDATASIZE SWAP2 POP PUSH2 0x236C JUMP JUMPDEST SWAP3 POP PUSH1 0x20 DUP4 RETURNDATASIZE PUSH1 0x20 GT PUSH2 0x23CA JUMPI JUMPDEST DUP2 PUSH2 0x23B8 PUSH1 0x20 SWAP4 DUP4 PUSH2 0x27D2 JUMP JUMPDEST DUP2 ADD SUB SLT PUSH2 0x2391 JUMPI SWAP2 MLOAD SWAP2 PUSH1 0x20 PUSH2 0x1FE9 JUMP JUMPDEST RETURNDATASIZE SWAP2 POP PUSH2 0x23AB JUMP JUMPDEST PUSH2 0x23E6 SWAP2 POP RETURNDATASIZE DUP1 DUP9 DUP4 RETURNDATACOPY PUSH2 0x1894 DUP2 DUP4 PUSH2 0x27D2 JUMP JUMPDEST CODESIZE PUSH2 0x1FB4 JUMP JUMPDEST POP PUSH1 0x20 DUP2 RETURNDATASIZE PUSH1 0x20 GT PUSH2 0x241F JUMPI JUMPDEST DUP2 PUSH2 0x2406 PUSH1 0x20 SWAP4 DUP4 PUSH2 0x27D2 JUMP JUMPDEST DUP2 ADD SUB SLT PUSH2 0x1A7E JUMPI PUSH2 0x241A PUSH2 0x1F56 SWAP2 PUSH2 0x289D JUMP JUMPDEST PUSH2 0x1F4B JUMP JUMPDEST RETURNDATASIZE SWAP2 POP PUSH2 0x23F9 JUMP JUMPDEST POP PUSH1 0x20 DUP2 RETURNDATASIZE PUSH1 0x20 GT PUSH2 0x245A JUMPI JUMPDEST DUP2 PUSH2 0x2441 PUSH1 0x20 SWAP4 DUP4 PUSH2 0x27D2 JUMP JUMPDEST DUP2 ADD SUB SLT PUSH2 0x1A7E JUMPI PUSH2 0x2455 PUSH2 0x1F29 SWAP2 PUSH2 0x2847 JUMP JUMPDEST PUSH2 0x1F14 JUMP JUMPDEST RETURNDATASIZE SWAP2 POP PUSH2 0x2434 JUMP JUMPDEST POP CALLVALUE PUSH2 0x1C3 JUMPI DUP1 PUSH1 0x3 NOT CALLDATASIZE ADD SLT PUSH2 0x1C3 JUMPI PUSH2 0x247B PUSH2 0x2D3F JUMP JUMPDEST PUSH1 0x0 DUP1 MLOAD PUSH1 0x20 PUSH2 0x2F83 DUP4 CODECOPY DUP2 MLOAD SWAP2 MSTORE SLOAD PUSH1 0xFF DUP2 AND ISZERO PUSH2 0x24D5 JUMPI PUSH1 0xFF NOT AND PUSH1 0x0 DUP1 MLOAD PUSH1 0x20 PUSH2 0x2F83 DUP4 CODECOPY DUP2 MLOAD SWAP2 MSTORE SSTORE PUSH32 0x5DB9EE0A495BF2E6FF9C91A7834C1BA4FDD244A5E8AA4E537BD38AEAE4B073AA PUSH1 0x20 PUSH1 0x40 MLOAD CALLER DUP2 MSTORE LOG1 DUP1 RETURN JUMPDEST PUSH4 0x8DFC202B PUSH1 0xE0 SHL DUP3 MSTORE PUSH1 0x4 DUP3 REVERT JUMPDEST POP CALLVALUE PUSH2 0x1C3 JUMPI DUP1 PUSH1 0x3 NOT CALLDATASIZE ADD SLT PUSH2 0x1C3 JUMPI PUSH1 0x20 PUSH1 0xFF PUSH1 0x32 SLOAD PUSH1 0xA0 SHR AND PUSH1 0x40 MLOAD SWAP1 DUP2 MSTORE RETURN JUMPDEST POP CALLVALUE PUSH2 0x1C3 JUMPI PUSH1 0x20 CALLDATASIZE PUSH1 0x3 NOT ADD SLT PUSH2 0x1C3 JUMPI PUSH1 0x40 PUSH1 0x20 SWAP2 PUSH1 0x4 CALLDATALOAD DUP2 MSTORE PUSH1 0x36 DUP4 MSTORE KECCAK256 SLOAD PUSH1 0x40 MLOAD SWAP1 DUP2 MSTORE RETURN JUMPDEST POP CALLVALUE PUSH2 0x1C3 JUMPI PUSH1 0x20 CALLDATASIZE PUSH1 0x3 NOT ADD SLT PUSH2 0x1C3 JUMPI PUSH2 0x254C PUSH2 0x27A6 JUMP JUMPDEST PUSH2 0x2554 PUSH2 0x2D3F JUMP JUMPDEST PUSH1 0x1 PUSH1 0x1 PUSH1 0xA0 SHL SUB AND DUP1 DUP3 MSTORE PUSH1 0x37 PUSH1 0x20 MSTORE PUSH1 0x40 DUP3 KECCAK256 SLOAD PUSH1 0xFF AND ISZERO PUSH2 0x261B JUMPI PUSH1 0x32 SLOAD PUSH1 0x1 PUSH1 0x1 PUSH1 0xA0 SHL SUB AND DUP2 EQ PUSH2 0x25CA JUMPI DUP1 DUP3 MSTORE PUSH1 0x37 PUSH1 0x20 MSTORE PUSH1 0x40 DUP3 KECCAK256 PUSH1 0xFF NOT DUP2 SLOAD AND SWAP1 SSTORE PUSH32 0x7FB8CC89E751C0284C2D2CC1C1E6A904C25CF93855AA4159C30CE2D0827C54FE PUSH1 0x40 DUP1 MLOAD DUP5 DUP2 MSTORE TIMESTAMP PUSH1 0x20 DUP3 ADD MSTORE LOG2 DUP1 RETURN JUMPDEST PUSH1 0x40 MLOAD PUSH3 0x461BCD PUSH1 0xE5 SHL DUP2 MSTORE PUSH1 0x20 PUSH1 0x4 DUP3 ADD MSTORE PUSH1 0x23 PUSH1 0x24 DUP3 ADD MSTORE PUSH32 0x43616E6E6F742072656D6F7665207072696D617279207061796D656E7420746F PUSH1 0x44 DUP3 ADD MSTORE PUSH3 0x35B2B7 PUSH1 0xE9 SHL PUSH1 0x64 DUP3 ADD MSTORE PUSH1 0x84 SWAP1 REVERT JUMPDEST PUSH1 0x40 MLOAD PUSH3 0x461BCD PUSH1 0xE5 SHL DUP2 MSTORE PUSH1 0x20 PUSH1 0x4 DUP3 ADD MSTORE PUSH1 0x15 PUSH1 0x24 DUP3 ADD MSTORE PUSH21 0x151BDAD95B881B9BDD081DDA1A5D195B1A5CDD1959 PUSH1 0x5A SHL PUSH1 0x44 DUP3 ADD MSTORE PUSH1 0x64 SWAP1 REVERT JUMPDEST POP CALLVALUE PUSH2 0x1C3 JUMPI DUP1 PUSH1 0x3 NOT CALLDATASIZE ADD SLT PUSH2 0x1C3 JUMPI PUSH1 0x32 SLOAD PUSH1 0x40 MLOAD PUSH1 0x1 PUSH1 0x1 PUSH1 0xA0 SHL SUB SWAP1 SWAP2 AND DUP2 MSTORE PUSH1 0x20 SWAP1 RETURN JUMPDEST POP CALLVALUE PUSH2 0x1C3 JUMPI DUP1 PUSH1 0x3 NOT CALLDATASIZE ADD SLT PUSH2 0x1C3 JUMPI PUSH1 0x33 SLOAD PUSH1 0x40 MLOAD PUSH1 0x1 PUSH1 0x1 PUSH1 0xA0 SHL SUB SWAP1 SWAP2 AND DUP2 MSTORE PUSH1 0x20 SWAP1 RETURN JUMPDEST POP CALLVALUE PUSH2 0x1C3 JUMPI PUSH1 0x20 CALLDATASIZE PUSH1 0x3 NOT ADD SLT PUSH2 0x1C3 JUMPI PUSH1 0x4 CALLDATALOAD PUSH2 0x26C7 PUSH2 0x2D3F JUMP JUMPDEST DUP1 ISZERO PUSH2 0x2754 JUMPI PUSH5 0xE8D4A51000 DUP2 GT PUSH2 0x2717 JUMPI PUSH1 0x60 DUP2 PUSH32 0xDA28CA75968339406A52357673D7E5448FC139FC6B02F5E78D654F35CF162E20 SWAP3 PUSH1 0x35 SSTORE PUSH1 0x40 MLOAD SWAP1 DUP2 MSTORE CALLER PUSH1 0x20 DUP3 ADD MSTORE TIMESTAMP PUSH1 0x40 DUP3 ADD MSTORE LOG1 DUP1 RETURN JUMPDEST PUSH1 0x40 MLOAD PUSH3 0x461BCD PUSH1 0xE5 SHL DUP2 MSTORE PUSH1 0x20 PUSH1 0x4 DUP3 ADD MSTORE PUSH1 0x15 PUSH1 0x24 DUP3 ADD MSTORE PUSH21 0x4C696D69742065786365656473206D6178696D756D PUSH1 0x58 SHL PUSH1 0x44 DUP3 ADD MSTORE PUSH1 0x64 SWAP1 REVERT JUMPDEST PUSH1 0x40 MLOAD PUSH3 0x461BCD PUSH1 0xE5 SHL DUP2 MSTORE PUSH1 0x20 PUSH1 0x4 DUP3 ADD MSTORE PUSH1 0xD PUSH1 0x24 DUP3 ADD MSTORE PUSH13 0x125B9D985B1A59081B1A5B5A5D PUSH1 0x9A SHL PUSH1 0x44 DUP3 ADD MSTORE PUSH1 0x64 SWAP1 REVERT JUMPDEST SWAP1 POP CALLVALUE PUSH2 0xFD5 JUMPI DUP2 PUSH1 0x3 NOT CALLDATASIZE ADD SLT PUSH2 0xFD5 JUMPI PUSH1 0x2 PUSH1 0x20 SWAP3 SLOAD EQ DUP2 MSTORE RETURN JUMPDEST PUSH1 0x4 CALLDATALOAD SWAP1 PUSH1 0x1 PUSH1 0x1 PUSH1 0xA0 SHL SUB DUP3 AND DUP3 SUB PUSH2 0x41F JUMPI JUMP JUMPDEST PUSH1 0x24 CALLDATALOAD SWAP1 PUSH1 0x1 PUSH1 0x1 PUSH1 0xA0 SHL SUB DUP3 AND DUP3 SUB PUSH2 0x41F JUMPI JUMP JUMPDEST SWAP1 PUSH1 0x1F DUP1 NOT SWAP2 ADD AND DUP2 ADD SWAP1 DUP2 LT PUSH1 0x1 PUSH1 0x1 PUSH1 0x40 SHL SUB DUP3 GT OR PUSH2 0x27F3 JUMPI PUSH1 0x40 MSTORE JUMP JUMPDEST PUSH4 0x4E487B71 PUSH1 0xE0 SHL PUSH1 0x0 MSTORE PUSH1 0x41 PUSH1 0x4 MSTORE PUSH1 0x24 PUSH1 0x0 REVERT JUMPDEST PUSH1 0x1 PUSH1 0x1 PUSH1 0x40 SHL SUB DUP2 GT PUSH2 0x27F3 JUMPI PUSH1 0x1F ADD PUSH1 0x1F NOT AND PUSH1 0x20 ADD SWAP1 JUMP JUMPDEST PUSH1 0x0 JUMPDEST DUP4 DUP2 LT PUSH2 0x2837 JUMPI POP POP PUSH1 0x0 SWAP2 ADD MSTORE JUMP JUMPDEST DUP2 DUP2 ADD MLOAD DUP4 DUP3 ADD MSTORE PUSH1 0x20 ADD PUSH2 0x2827 JUMP JUMPDEST MLOAD SWAP1 PUSH1 0x1 PUSH1 0x1 PUSH1 0xA0 SHL SUB DUP3 AND DUP3 SUB PUSH2 0x41F JUMPI JUMP JUMPDEST ISZERO PUSH2 0x2862 JUMPI JUMP JUMPDEST PUSH1 0x40 MLOAD PUSH3 0x461BCD PUSH1 0xE5 SHL DUP2 MSTORE PUSH1 0x20 PUSH1 0x4 DUP3 ADD MSTORE PUSH1 0x13 PUSH1 0x24 DUP3 ADD MSTORE PUSH19 0x4E6F74207061796D656E742061646472657373 PUSH1 0x68 SHL PUSH1 0x44 DUP3 ADD MSTORE PUSH1 0x64 SWAP1 REVERT JUMPDEST MLOAD SWAP1 DUP2 ISZERO ISZERO DUP3 SUB PUSH2 0x41F JUMPI JUMP JUMPDEST ISZERO PUSH2 0x28B1 JUMPI JUMP JUMPDEST PUSH1 0x40 MLOAD PUSH3 0x461BCD PUSH1 0xE5 SHL DUP2 MSTORE PUSH1 0x20 PUSH1 0x4 DUP3 ADD MSTORE PUSH1 0x15 PUSH1 0x24 DUP3 ADD MSTORE PUSH21 0x456D657267656E6379206D6F646520616374697665 PUSH1 0x58 SHL PUSH1 0x44 DUP3 ADD MSTORE PUSH1 0x64 SWAP1 REVERT JUMPDEST ISZERO PUSH2 0x28F5 JUMPI JUMP JUMPDEST PUSH1 0x40 MLOAD PUSH3 0x461BCD PUSH1 0xE5 SHL DUP2 MSTORE PUSH1 0x20 PUSH1 0x4 DUP3 ADD MSTORE PUSH1 0x19 PUSH1 0x24 DUP3 ADD MSTORE PUSH32 0x566F756368657220616C72656164792070726F63657373656400000000000000 PUSH1 0x44 DUP3 ADD MSTORE PUSH1 0x64 SWAP1 REVERT JUMPDEST ISZERO PUSH2 0x2941 JUMPI JUMP JUMPDEST PUSH1 0x40 MLOAD PUSH3 0x461BCD PUSH1 0xE5 SHL DUP2 MSTORE PUSH1 0x20 PUSH1 0x4 DUP3 ADD MSTORE PUSH1 0xE PUSH1 0x24 DUP3 ADD MSTORE PUSH14 0x125B9D985B1A5908185B5BDD5B9D PUSH1 0x92 SHL PUSH1 0x44 DUP3 ADD MSTORE PUSH1 0x64 SWAP1 REVERT JUMPDEST PUSH1 0x20 DUP2 DUP4 SUB SLT PUSH2 0x41F JUMPI DUP1 MLOAD SWAP1 PUSH1 0x1 PUSH1 0x1 PUSH1 0x40 SHL SUB DUP3 GT PUSH2 0x41F JUMPI ADD SWAP1 PUSH1 0xE0 DUP3 DUP3 SUB SLT PUSH2 0x41F JUMPI PUSH1 0x40 MLOAD SWAP2 PUSH1 0xE0 DUP4 ADD DUP4 DUP2 LT PUSH1 0x1 PUSH1 0x1 PUSH1 0x40 SHL SUB DUP3 GT OR PUSH2 0x27F3 JUMPI PUSH1 0x40 MSTORE DUP1 MLOAD DUP4 MSTORE PUSH2 0x29CB PUSH1 0x20 DUP3 ADD PUSH2 0x2847 JUMP JUMPDEST PUSH1 0x20 DUP5 ADD MSTORE PUSH1 0x40 DUP2 ADD MLOAD PUSH1 0x40 DUP5 ADD MSTORE PUSH1 0x60 DUP2 ADD MLOAD PUSH1 0x1 PUSH1 0x1 PUSH1 0x40 SHL SUB DUP2 GT PUSH2 0x41F JUMPI DUP2 ADD SWAP2 DUP1 PUSH1 0x1F DUP5 ADD SLT ISZERO PUSH2 0x41F JUMPI DUP3 MLOAD SWAP3 PUSH2 0x2A07 DUP5 PUSH2 0x2809 JUMP JUMPDEST SWAP2 PUSH2 0x2A15 PUSH1 0x40 MLOAD SWAP4 DUP5 PUSH2 0x27D2 JUMP JUMPDEST DUP5 DUP4 MSTORE PUSH1 0x20 DUP6 DUP4 ADD ADD GT PUSH2 0x41F JUMPI PUSH1 0xC0 SWAP4 PUSH2 0x2A36 SWAP2 PUSH1 0x20 DUP1 DUP6 ADD SWAP2 ADD PUSH2 0x2824 JUMP JUMPDEST PUSH1 0x60 DUP5 ADD MSTORE PUSH2 0x2A47 PUSH1 0x80 DUP3 ADD PUSH2 0x289D JUMP JUMPDEST PUSH1 0x80 DUP5 ADD MSTORE PUSH1 0xA0 DUP2 ADD MLOAD PUSH1 0xA0 DUP5 ADD MSTORE ADD MLOAD PUSH1 0xC0 DUP3 ADD MSTORE SWAP1 JUMP JUMPDEST ISZERO PUSH2 0x2A67 JUMPI JUMP JUMPDEST PUSH1 0x40 MLOAD PUSH3 0x461BCD PUSH1 0xE5 SHL DUP2 MSTORE PUSH1 0x20 PUSH1 0x4 DUP3 ADD MSTORE PUSH1 0x12 PUSH1 0x24 DUP3 ADD MSTORE PUSH18 0x4E6574776F726B206E6F7420616374697665 PUSH1 0x70 SHL PUSH1 0x44 DUP3 ADD MSTORE PUSH1 0x64 SWAP1 REVERT JUMPDEST ISZERO PUSH2 0x2AA8 JUMPI JUMP JUMPDEST PUSH1 0x40 MLOAD PUSH3 0x461BCD PUSH1 0xE5 SHL DUP2 MSTORE PUSH1 0x20 PUSH1 0x4 DUP3 ADD MSTORE PUSH1 0x10 PUSH1 0x24 DUP3 ADD MSTORE PUSH16 0x496E76616C6964207472656173757279 PUSH1 0x80 SHL PUSH1 0x44 DUP3 ADD MSTORE PUSH1 0x64 SWAP1 REVERT JUMPDEST SWAP2 SWAP1 DUP3 SUB SWAP2 DUP3 GT PUSH2 0x2AED JUMPI JUMP JUMPDEST PUSH4 0x4E487B71 PUSH1 0xE0 SHL PUSH1 0x0 MSTORE PUSH1 0x11 PUSH1 0x4 MSTORE PUSH1 0x24 PUSH1 0x0 REVERT JUMPDEST ISZERO PUSH2 0x2B0A JUMPI JUMP JUMPDEST PUSH1 0x40 MLOAD PUSH3 0x461BCD PUSH1 0xE5 SHL DUP2 MSTORE PUSH1 0x20 PUSH1 0x4 DUP3 ADD MSTORE PUSH1 0x13 PUSH1 0x24 DUP3 ADD MSTORE PUSH19 0x115E18D959591CC819185A5B1E481B1A5B5A5D PUSH1 0x6A SHL PUSH1 0x44 DUP3 ADD MSTORE PUSH1 0x64 SWAP1 REVERT JUMPDEST PUSH1 0x1 PUSH1 0x1 PUSH1 0x40 SHL SUB DUP2 GT PUSH2 0x27F3 JUMPI PUSH1 0x5 SHL PUSH1 0x20 ADD SWAP1 JUMP JUMPDEST SWAP2 SWAP1 DUP2 LT ISZERO PUSH2 0x2B6C JUMPI PUSH1 0x60 MUL ADD SWAP1 JUMP JUMPDEST PUSH4 0x4E487B71 PUSH1 0xE0 SHL PUSH1 0x0 MSTORE PUSH1 0x32 PUSH1 0x4 MSTORE PUSH1 0x24 PUSH1 0x0 REVERT JUMPDEST PUSH1 0x60 DUP2 CALLDATASIZE SUB SLT PUSH2 0x41F JUMPI PUSH1 0x40 MLOAD SWAP1 PUSH1 0x60 DUP3 ADD SWAP1 DUP3 DUP3 LT PUSH1 0x1 PUSH1 0x1 PUSH1 0x40 SHL SUB DUP4 GT OR PUSH2 0x27F3 JUMPI PUSH1 0x40 SWAP2 DUP3 MSTORE DUP1 CALLDATALOAD DUP4 MSTORE PUSH1 0x20 DUP2 ADD CALLDATALOAD PUSH1 0x20 DUP5 ADD MSTORE ADD CALLDATALOAD PUSH1 0x40 DUP3 ADD MSTORE SWAP1 JUMP JUMPDEST DUP1 MLOAD DUP3 LT ISZERO PUSH2 0x2B6C JUMPI PUSH1 0x20 SWAP2 PUSH1 0x5 SHL ADD ADD SWAP1 JUMP JUMPDEST SWAP2 SWAP1 DUP3 ADD DUP1 SWAP3 GT PUSH2 0x2AED JUMPI JUMP JUMPDEST ISZERO PUSH2 0x2BEC JUMPI JUMP JUMPDEST PUSH1 0x40 MLOAD PUSH3 0x461BCD PUSH1 0xE5 SHL DUP2 MSTORE PUSH1 0x20 PUSH1 0x4 DUP3 ADD MSTORE PUSH1 0x1D PUSH1 0x24 DUP3 ADD MSTORE PUSH32 0x496E73756666696369656E7420636F6E74726163742062616C616E6365000000 PUSH1 0x44 DUP3 ADD MSTORE PUSH1 0x64 SWAP1 REVERT JUMPDEST DUP2 DUP2 MUL SWAP3 SWAP2 DUP2 ISZERO SWAP2 DUP5 DIV EQ OR ISZERO PUSH2 0x2AED JUMPI JUMP JUMPDEST SWAP1 DUP2 PUSH1 0x20 SWAP2 SUB SLT PUSH2 0x41F JUMPI MLOAD PUSH1 0xFF DUP2 AND DUP2 SUB PUSH2 0x41F JUMPI SWAP1 JUMP JUMPDEST PUSH1 0x38 SLOAD PUSH9 0x10000000000000000 DUP2 LT ISZERO PUSH2 0x27F3 JUMPI PUSH1 0x1 DUP2 ADD PUSH1 0x38 SSTORE PUSH1 0x0 PUSH1 0x38 SLOAD DUP3 LT ISZERO PUSH2 0x9A4 JUMPI PUSH1 0x38 SWAP1 MSTORE PUSH32 0x38395C5DCEADE9603479B177B68959049485DF8AA97B39F3533039AF5F456199 ADD DUP1 SLOAD PUSH1 0x1 PUSH1 0x1 PUSH1 0xA0 SHL SUB NOT AND PUSH1 0x1 PUSH1 0x1 PUSH1 0xA0 SHL SUB SWAP1 SWAP3 AND SWAP2 SWAP1 SWAP2 OR SWAP1 SSTORE JUMP JUMPDEST PUSH1 0x1 PUSH1 0x1 PUSH1 0xA0 SHL SUB AND DUP1 ISZERO PUSH2 0x2D29 JUMPI PUSH1 0x0 DUP1 MLOAD PUSH1 0x20 PUSH2 0x2F43 DUP4 CODECOPY DUP2 MLOAD SWAP2 MSTORE DUP1 SLOAD PUSH1 0x1 PUSH1 0x1 PUSH1 0xA0 SHL SUB NOT DUP2 AND DUP4 OR SWAP1 SWAP2 SSTORE PUSH1 0x1 PUSH1 0x1 PUSH1 0xA0 SHL SUB AND PUSH32 0x8BE0079C531659141344CD1FD0A4F28419497F9722A3DAAFE3B4186F6B6457E0 PUSH1 0x0 DUP1 LOG3 JUMP JUMPDEST PUSH4 0x1E4FBDF7 PUSH1 0xE0 SHL PUSH1 0x0 MSTORE PUSH1 0x0 PUSH1 0x4 MSTORE PUSH1 0x24 PUSH1 0x0 REVERT JUMPDEST PUSH1 0x0 DUP1 MLOAD PUSH1 0x20 PUSH2 0x2F43 DUP4 CODECOPY DUP2 MLOAD SWAP2 MSTORE SLOAD PUSH1 0x1 PUSH1 0x1 PUSH1 0xA0 SHL SUB AND CALLER SUB PUSH2 0x2D60 JUMPI JUMP JUMPDEST PUSH4 0x118CDAA7 PUSH1 0xE0 SHL PUSH1 0x0 MSTORE CALLER PUSH1 0x4 MSTORE PUSH1 0x24 PUSH1 0x0 REVERT JUMPDEST PUSH1 0xFF PUSH1 0x0 DUP1 MLOAD PUSH1 0x20 PUSH2 0x2F83 DUP4 CODECOPY DUP2 MLOAD SWAP2 MSTORE SLOAD AND PUSH2 0x2D8E JUMPI JUMP JUMPDEST PUSH4 0xD93C0665 PUSH1 0xE0 SHL PUSH1 0x0 MSTORE PUSH1 0x4 PUSH1 0x0 REVERT JUMPDEST PUSH1 0x2 PUSH1 0x0 SLOAD EQ PUSH2 0x2DB0 JUMPI PUSH1 0x2 PUSH1 0x0 SSTORE JUMP JUMPDEST PUSH1 0x40 MLOAD PUSH3 0x461BCD PUSH1 0xE5 SHL DUP2 MSTORE PUSH1 0x20 PUSH1 0x4 DUP3 ADD MSTORE PUSH1 0x1F PUSH1 0x24 DUP3 ADD MSTORE PUSH32 0x5265656E7472616E637947756172643A207265656E7472616E742063616C6C00 PUSH1 0x44 DUP3 ADD MSTORE PUSH1 0x64 SWAP1 REVERT JUMPDEST PUSH1 0x40 MLOAD PUSH4 0xA9059CBB PUSH1 0xE0 SHL PUSH1 0x0 SWAP1 DUP2 MSTORE PUSH1 0x1 PUSH1 0x1 PUSH1 0xA0 SHL SUB SWAP1 SWAP4 AND PUSH1 0x4 MSTORE PUSH1 0x24 SWAP4 SWAP1 SWAP4 MSTORE SWAP2 SWAP1 PUSH1 0x20 SWAP1 PUSH1 0x44 DUP2 DUP1 DUP7 GAS CALL SWAP1 PUSH1 0x1 PUSH1 0x0 MLOAD EQ DUP3 AND ISZERO PUSH2 0x2E60 JUMPI JUMPDEST PUSH1 0x40 MSTORE ISZERO PUSH2 0x2E3F JUMPI POP JUMP JUMPDEST PUSH4 0x5274AFE7 PUSH1 0xE0 SHL PUSH1 0x0 SWAP1 DUP2 MSTORE PUSH1 0x1 PUSH1 0x1 PUSH1 0xA0 SHL SUB SWAP2 SWAP1 SWAP2 AND PUSH1 0x4 MSTORE PUSH1 0x24 SWAP1 REVERT JUMPDEST SWAP1 PUSH1 0x1 DUP2 ISZERO AND PUSH2 0x2E78 JUMPI DUP3 EXTCODESIZE ISZERO ISZERO RETURNDATASIZE ISZERO AND AND SWAP1 PUSH2 0x2E34 JUMP JUMPDEST POP RETURNDATASIZE PUSH1 0x0 DUP3 RETURNDATACOPY RETURNDATASIZE SWAP1 REVERT JUMPDEST PUSH1 0xFF PUSH1 0x0 DUP1 MLOAD PUSH1 0x20 PUSH2 0x2FA3 DUP4 CODECOPY DUP2 MLOAD SWAP2 MSTORE SLOAD PUSH1 0x40 SHR AND ISZERO PUSH2 0x2E9F JUMPI JUMP JUMPDEST PUSH4 0x1AFCD79F PUSH1 0xE3 SHL PUSH1 0x0 MSTORE PUSH1 0x4 PUSH1 0x0 REVERT JUMPDEST SWAP1 PUSH1 0x0 DUP1 SWAP2 PUSH1 0x20 DUP2 MLOAD SWAP2 ADD DUP5 GAS DELEGATECALL DUP1 DUP1 PUSH2 0x2F2F JUMPI JUMPDEST ISZERO PUSH2 0x2EE6 JUMPI POP POP PUSH1 0x40 MLOAD RETURNDATASIZE DUP2 MSTORE RETURNDATASIZE PUSH1 0x0 PUSH1 0x20 DUP4 ADD RETURNDATACOPY PUSH1 0x20 RETURNDATASIZE DUP3 ADD ADD PUSH1 0x40 MSTORE SWAP1 JUMP JUMPDEST ISZERO PUSH2 0x2F0C JUMPI PUSH4 0x9996B315 PUSH1 0xE0 SHL PUSH1 0x0 SWAP1 DUP2 MSTORE PUSH1 0x1 PUSH1 0x1 PUSH1 0xA0 SHL SUB SWAP2 SWAP1 SWAP2 AND PUSH1 0x4 MSTORE PUSH1 0x24 SWAP1 REVERT JUMPDEST RETURNDATASIZE ISZERO PUSH2 0x2F1E JUMPI PUSH1 0x40 MLOAD RETURNDATASIZE PUSH1 0x0 DUP3 RETURNDATACOPY RETURNDATASIZE SWAP1 REVERT JUMPDEST PUSH4 0xD6BDA275 PUSH1 0xE0 SHL PUSH1 0x0 MSTORE PUSH1 0x4 PUSH1 0x0 REVERT JUMPDEST POP RETURNDATASIZE ISZERO ISZERO DUP1 PUSH2 0x2EC5 JUMPI POP DUP2 EXTCODESIZE ISZERO ISZERO PUSH2 0x2EC5 JUMP INVALID SWAP1 AND 0xD0 SWAP14 PUSH19 0xD40FDAE2FD8CEAC6B6234C7706214FD39C1CD1 0xE6 MULMOD LOG0 MSTORE DUP13 NOT SWAP4 STOP CALLDATASIZE ADDMOD SWAP5 LOG1 EXTCODESIZE LOG1 LOG3 0x21 MOD PUSH8 0xC828492DB98DCA3E KECCAK256 PUSH23 0xCC3735A920A3CA505D382BBCCD5ED15C6E187E77E9AEE8 DUP2 DUP5 0xC2 0x1F 0x4F 0x21 DUP3 0xAB PC 0x27 0xCB EXTCODESIZE PUSH31 0x7FBEDCD63F03300F0C57E16840DF040F15088DC2F81FE391C3923BEC73E23 0xA9 PUSH7 0x2EFC9C229C6A00 LOG2 PUSH5 0x6970667358 0x22 SLT KECCAK256 0x2E PUSH23 0x71C41FFC27314AC2431240B827CCE39A4ABA036551BCC9 PUSH11 0xB6424AA2099D64736F6C63 NUMBER STOP ADDMOD BYTE STOP CALLER "},"methodIdentifiers":{"UPGRADE_INTERFACE_VERSION()":"ad3cb1cc","addTokenToWhitelist(address)":"d84c1b38","adminContract()":"c05c5e94","contractTokenBalance()":"9e9aed62","dailyWithdrawalLimit()":"7620843a","dailyWithdrawals(uint256)":"33770245","getRemainingDailyLimit()":"a15f39e8","getTodayWithdrawals()":"c4d276bc","getWhitelistedTokens()":"e26f7900","initialize(address,address,address)":"c0c53b8b","isReentrancyGuardActive()":"03d50d66","isTokenWhitelisted(address)":"b5af090f","isVoucherProcessed(bytes32)":"0604bfa4","owner()":"8da5cb5b","pause()":"8456cb59","paused()":"5c975abb","processBatchPayments((uint256,uint256,bytes32)[])":"7ddd23e1","processPayment(uint256,uint256,bytes32)":"4342482d","processedVouchers(bytes32)":"b9a24544","proxiableUUID()":"52d1902d","registerHostVouchersAndPayFee(bytes32[],uint8)":"9e7b7218","removeTokenFromWhitelist(address)":"306275be","renounceOwnership()":"715018a6","rescueERC20(address,address,uint256)":"b2118a8d","setDailyWithdrawalLimit(uint256)":"05483a15","storageContract()":"11ce0267","tokenDecimals()":"3b97e856","transferOwnership(address)":"f2fde38b","unpause()":"3f4ba83a","upgradeToAndCall(address,bytes)":"4f1ef286","usdt()":"2f48ab7d","whitelistedTokenList(uint256)":"bddff749","whitelistedTokens(address)":"daf9c210","withdrawToken(address,uint256)":"9e281a98"}},"storageLayout":{"storage":[{"astId":8460,"contract":"contracts/ZaaNetPaymentV1.sol:ZaaNetPaymentV1","label":"_status","offset":0,"slot":"0","type":"t_uint256"},{"astId":8529,"contract":"contracts/ZaaNetPaymentV1.sol:ZaaNetPaymentV1","label":"__gap","offset":0,"slot":"1","type":"t_array(t_uint256)49_storage"},{"astId":5640,"contract":"contracts/ZaaNetPaymentV1.sol:ZaaNetPaymentV1","label":"usdt","offset":0,"slot":"50","type":"t_contract(IERC20)1997"},{"astId":5642,"contract":"contracts/ZaaNetPaymentV1.sol:ZaaNetPaymentV1","label":"tokenDecimals","offset":20,"slot":"50","type":"t_uint8"},{"astId":5645,"contract":"contracts/ZaaNetPaymentV1.sol:ZaaNetPaymentV1","label":"storageContract","offset":0,"slot":"51","type":"t_contract(IZaaNetStorage)8446"},{"astId":5648,"contract":"contracts/ZaaNetPaymentV1.sol:ZaaNetPaymentV1","label":"adminContract","offset":0,"slot":"52","type":"t_contract(IZaaNetAdmin)8077"},{"astId":5650,"contract":"contracts/ZaaNetPaymentV1.sol:ZaaNetPaymentV1","label":"dailyWithdrawalLimit","offset":0,"slot":"53","type":"t_uint256"},{"astId":5654,"contract":"contracts/ZaaNetPaymentV1.sol:ZaaNetPaymentV1","label":"dailyWithdrawals","offset":0,"slot":"54","type":"t_mapping(t_uint256,t_uint256)"},{"astId":5658,"contract":"contracts/ZaaNetPaymentV1.sol:ZaaNetPaymentV1","label":"whitelistedTokens","offset":0,"slot":"55","type":"t_mapping(t_address,t_bool)"},{"astId":5661,"contract":"contracts/ZaaNetPaymentV1.sol:ZaaNetPaymentV1","label":"whitelistedTokenList","offset":0,"slot":"56","type":"t_array(t_address)dyn_storage"},{"astId":5665,"contract":"contracts/ZaaNetPaymentV1.sol:ZaaNetPaymentV1","label":"processedVouchers","offset":0,"slot":"57","type":"t_mapping(t_bytes32,t_bool)"},{"astId":7036,"contract":"contracts/ZaaNetPaymentV1.sol:ZaaNetPaymentV1","label":"__gap","offset":0,"slot":"58","type":"t_array(t_uint256)50_storage"}],"types":{"t_address":{"encoding":"inplace","label":"address","numberOfBytes":"20"},"t_array(t_address)dyn_storage":{"base":"t_address","encoding":"dynamic_array","label":"address[]","numberOfBytes":"32"},"t_array(t_uint256)49_storage":{"base":"t_uint256","encoding":"inplace","label":"uint256[49]","numberOfBytes":"1568"},"t_array(t_uint256)50_storage":{"base":"t_uint256","encoding":"inplace","label":"uint256[50]","numberOfBytes":"1600"},"t_bool":{"encoding":"inplace","label":"bool","numberOfBytes":"1"},"t_bytes32":{"encoding":"inplace","label":"bytes32","numberOfBytes":"32"},"t_contract(IERC20)1997":{"encoding":"inplace","label":"contract IERC20","numberOfBytes":"20"},"t_contract(IZaaNetAdmin)8077":{"encoding":"inplace","label":"contract IZaaNetAdmin","numberOfBytes":"20"},"t_contract(IZaaNetStorage)8446":{"encoding":"inplace","label":"contract IZaaNetStorage","numberOfBytes":"20"},"t_mapping(t_address,t_bool)":{"encoding":"mapping","key":"t_address","label":"mapping(address => bool)","numberOfBytes":"32","value":"t_bool"},"t_mapping(t_bytes32,t_bool)":{"encoding":"mapping","key":"t_bytes32","label":"mapping(bytes32 => bool)","numberOfBytes":"32","value":"t_bool"},"t_mapping(t_uint256,t_uint256)":{"encoding":"mapping","key":"t_uint256","label":"mapping(uint256 => uint256)","numberOfBytes":"32","value":"t_uint256"},"t_uint256":{"encoding":"inplace","label":"uint256","numberOfBytes":"32"},"t_uint8":{"encoding":"inplace","label":"uint8","numberOfBytes":"1"}}}}}}