{"abi":[{"type":"constructor","inputs":[],"stateMutability":"nonpayable"},{"type":"function","name":"MAX_BATCH_SIZE","inputs":[],"outputs":[{"name":"","type":"uint256","internalType":"uint256"}],"stateMutability":"view"},{"type":"function","name":"MAX_MONGO_DATA_LENGTH","inputs":[],"outputs":[{"name":"","type":"uint256","internalType":"uint256"}],"stateMutability":"view"},{"type":"function","name":"MAX_NETWORKS_PER_HOST","inputs":[],"outputs":[{"name":"","type":"uint256","internalType":"uint256"}],"stateMutability":"view"},{"type":"function","name":"MAX_PRICE_PER_SESSION","inputs":[],"outputs":[{"name":"","type":"uint256","internalType":"uint256"}],"stateMutability":"view"},{"type":"function","name":"MIN_PRICE_PER_SESSION","inputs":[],"outputs":[{"name":"","type":"uint256","internalType":"uint256"}],"stateMutability":"view"},{"type":"function","name":"REGISTRATION_COOLDOWN","inputs":[],"outputs":[{"name":"","type":"uint256","internalType":"uint256"}],"stateMutability":"view"},{"type":"function","name":"UPGRADE_INTERFACE_VERSION","inputs":[],"outputs":[{"name":"","type":"string","internalType":"string"}],"stateMutability":"view"},{"type":"function","name":"adminContract","inputs":[],"outputs":[{"name":"","type":"address","internalType":"contract IZaaNetAdmin"}],"stateMutability":"view"},{"type":"function","name":"deactivateNetwork","inputs":[{"name":"_networkId","type":"uint256","internalType":"uint256"}],"outputs":[],"stateMutability":"nonpayable"},{"type":"function","name":"getActiveHostNetworkCount","inputs":[{"name":"hostAddress","type":"address","internalType":"address"}],"outputs":[{"name":"count","type":"uint256","internalType":"uint256"}],"stateMutability":"view"},{"type":"function","name":"getActiveHostNetworks","inputs":[{"name":"hostAddress","type":"address","internalType":"address"},{"name":"offset","type":"uint256","internalType":"uint256"},{"name":"limit","type":"uint256","internalType":"uint256"}],"outputs":[{"name":"","type":"tuple[]","internalType":"struct ZaaNetStorageV1.Network[]","components":[{"name":"id","type":"uint256","internalType":"uint256"},{"name":"hostAddress","type":"address","internalType":"address"},{"name":"pricePerSession","type":"uint256","internalType":"uint256"},{"name":"mongoDataId","type":"string","internalType":"string"},{"name":"isActive","type":"bool","internalType":"bool"},{"name":"createdAt","type":"uint256","internalType":"uint256"},{"name":"updatedAt","type":"uint256","internalType":"uint256"}]}],"stateMutability":"view"},{"type":"function","name":"getAllActiveNetworks","inputs":[],"outputs":[{"name":"","type":"tuple[]","internalType":"struct ZaaNetStorageV1.Network[]","components":[{"name":"id","type":"uint256","internalType":"uint256"},{"name":"hostAddress","type":"address","internalType":"address"},{"name":"pricePerSession","type":"uint256","internalType":"uint256"},{"name":"mongoDataId","type":"string","internalType":"string"},{"name":"isActive","type":"bool","internalType":"bool"},{"name":"createdAt","type":"uint256","internalType":"uint256"},{"name":"updatedAt","type":"uint256","internalType":"uint256"}]}],"stateMutability":"view"},{"type":"function","name":"getContractStats","inputs":[],"outputs":[{"name":"totalNetworks","type":"uint256","internalType":"uint256"}],"stateMutability":"view"},{"type":"function","name":"getCurrentHostingFee","inputs":[],"outputs":[{"name":"","type":"uint256","internalType":"uint256"}],"stateMutability":"view"},{"type":"function","name":"getHostNetworks","inputs":[{"name":"hostAddress","type":"address","internalType":"address"}],"outputs":[{"name":"","type":"uint256[]","internalType":"uint256[]"}],"stateMutability":"view"},{"type":"function","name":"getHostStats","inputs":[{"name":"hostAddress","type":"address","internalType":"address"}],"outputs":[{"name":"totalNetworks","type":"uint256","internalType":"uint256"},{"name":"activeNetworks","type":"uint256","internalType":"uint256"},{"name":"totalEarnings","type":"uint256","internalType":"uint256"}],"stateMutability":"view"},{"type":"function","name":"getHostedNetworkById","inputs":[{"name":"_networkId","type":"uint256","internalType":"uint256"}],"outputs":[{"name":"","type":"tuple","internalType":"struct ZaaNetStorageV1.Network","components":[{"name":"id","type":"uint256","internalType":"uint256"},{"name":"hostAddress","type":"address","internalType":"address"},{"name":"pricePerSession","type":"uint256","internalType":"uint256"},{"name":"mongoDataId","type":"string","internalType":"string"},{"name":"isActive","type":"bool","internalType":"bool"},{"name":"createdAt","type":"uint256","internalType":"uint256"},{"name":"updatedAt","type":"uint256","internalType":"uint256"}]}],"stateMutability":"view"},{"type":"function","name":"getNetworksPaginated","inputs":[{"name":"offset","type":"uint256","internalType":"uint256"},{"name":"limit","type":"uint256","internalType":"uint256"}],"outputs":[{"name":"networks","type":"tuple[]","internalType":"struct ZaaNetStorageV1.Network[]","components":[{"name":"id","type":"uint256","internalType":"uint256"},{"name":"hostAddress","type":"address","internalType":"address"},{"name":"pricePerSession","type":"uint256","internalType":"uint256"},{"name":"mongoDataId","type":"string","internalType":"string"},{"name":"isActive","type":"bool","internalType":"bool"},{"name":"createdAt","type":"uint256","internalType":"uint256"},{"name":"updatedAt","type":"uint256","internalType":"uint256"}]},{"name":"totalCount","type":"uint256","internalType":"uint256"}],"stateMutability":"view"},{"type":"function","name":"getTreasuryAddress","inputs":[],"outputs":[{"name":"","type":"address","internalType":"address"}],"stateMutability":"view"},{"type":"function","name":"initialize","inputs":[{"name":"_storageContract","type":"address","internalType":"address"},{"name":"_adminContract","type":"address","internalType":"address"},{"name":"_usdt","type":"address","internalType":"address"}],"outputs":[],"stateMutability":"nonpayable"},{"type":"function","name":"isHost","inputs":[{"name":"","type":"address","internalType":"address"}],"outputs":[{"name":"","type":"bool","internalType":"bool"}],"stateMutability":"view"},{"type":"function","name":"isReentrancyGuardActive","inputs":[],"outputs":[{"name":"","type":"bool","internalType":"bool"}],"stateMutability":"view"},{"type":"function","name":"isRegisteredHost","inputs":[{"name":"hostAddress","type":"address","internalType":"address"}],"outputs":[{"name":"","type":"bool","internalType":"bool"}],"stateMutability":"view"},{"type":"function","name":"lastRegistrationTime","inputs":[{"name":"","type":"address","internalType":"address"}],"outputs":[{"name":"","type":"uint256","internalType":"uint256"}],"stateMutability":"view"},{"type":"function","name":"networkToHost","inputs":[{"name":"","type":"uint256","internalType":"uint256"}],"outputs":[{"name":"","type":"address","internalType":"address"}],"stateMutability":"view"},{"type":"function","name":"owner","inputs":[],"outputs":[{"name":"","type":"address","internalType":"address"}],"stateMutability":"view"},{"type":"function","name":"pause","inputs":[],"outputs":[],"stateMutability":"nonpayable"},{"type":"function","name":"paused","inputs":[],"outputs":[{"name":"","type":"bool","internalType":"bool"}],"stateMutability":"view"},{"type":"function","name":"proxiableUUID","inputs":[],"outputs":[{"name":"","type":"bytes32","internalType":"bytes32"}],"stateMutability":"view"},{"type":"function","name":"registerNetwork","inputs":[{"name":"_pricePerSession","type":"uint256","internalType":"uint256"},{"name":"_mongoDataId","type":"string","internalType":"string"},{"name":"_isActive","type":"bool","internalType":"bool"}],"outputs":[],"stateMutability":"nonpayable"},{"type":"function","name":"renounceOwnership","inputs":[],"outputs":[],"stateMutability":"nonpayable"},{"type":"function","name":"setAdminContract","inputs":[{"name":"_newAdminContract","type":"address","internalType":"address"}],"outputs":[],"stateMutability":"nonpayable"},{"type":"function","name":"setUsdtContract","inputs":[{"name":"_newUsdt","type":"address","internalType":"address"}],"outputs":[],"stateMutability":"nonpayable"},{"type":"function","name":"storageContract","inputs":[],"outputs":[{"name":"","type":"address","internalType":"contract ZaaNetStorageV1"}],"stateMutability":"view"},{"type":"function","name":"transferOwnership","inputs":[{"name":"newOwner","type":"address","internalType":"address"}],"outputs":[],"stateMutability":"nonpayable"},{"type":"function","name":"unpause","inputs":[],"outputs":[],"stateMutability":"nonpayable"},{"type":"function","name":"updateNetwork","inputs":[{"name":"_networkId","type":"uint256","internalType":"uint256"},{"name":"_pricePerSession","type":"uint256","internalType":"uint256"},{"name":"_isActive","type":"bool","internalType":"bool"}],"outputs":[],"stateMutability":"nonpayable"},{"type":"function","name":"upgradeToAndCall","inputs":[{"name":"newImplementation","type":"address","internalType":"address"},{"name":"data","type":"bytes","internalType":"bytes"}],"outputs":[],"stateMutability":"payable"},{"type":"function","name":"usdt","inputs":[],"outputs":[{"name":"","type":"address","internalType":"contract IERC20"}],"stateMutability":"view"},{"type":"event","name":"HostAdded","inputs":[{"name":"host","type":"address","indexed":true,"internalType":"address"}],"anonymous":false},{"type":"event","name":"HostingFeePaid","inputs":[{"name":"host","type":"address","indexed":true,"internalType":"address"},{"name":"amount","type":"uint256","indexed":false,"internalType":"uint256"},{"name":"timestamp","type":"uint256","indexed":false,"internalType":"uint256"}],"anonymous":false},{"type":"event","name":"Initialized","inputs":[{"name":"version","type":"uint64","indexed":false,"internalType":"uint64"}],"anonymous":false},{"type":"event","name":"NetworkPriceUpdated","inputs":[{"name":"networkId","type":"uint256","indexed":true,"internalType":"uint256"},{"name":"oldPrice","type":"uint256","indexed":false,"internalType":"uint256"},{"name":"newPrice","type":"uint256","indexed":false,"internalType":"uint256"}],"anonymous":false},{"type":"event","name":"NetworkRegistered","inputs":[{"name":"networkId","type":"uint256","indexed":true,"internalType":"uint256"},{"name":"hostAddress","type":"address","indexed":true,"internalType":"address"},{"name":"mongoDataId","type":"string","indexed":false,"internalType":"string"},{"name":"pricePerSession","type":"uint256","indexed":false,"internalType":"uint256"},{"name":"isActive","type":"bool","indexed":false,"internalType":"bool"},{"name":"hostingFeePaid","type":"uint256","indexed":false,"internalType":"uint256"},{"name":"timestamp","type":"uint256","indexed":false,"internalType":"uint256"}],"anonymous":false},{"type":"event","name":"NetworkStatusChanged","inputs":[{"name":"networkId","type":"uint256","indexed":true,"internalType":"uint256"},{"name":"oldStatus","type":"bool","indexed":false,"internalType":"bool"},{"name":"newStatus","type":"bool","indexed":false,"internalType":"bool"}],"anonymous":false},{"type":"event","name":"NetworkUpdated","inputs":[{"name":"networkId","type":"uint256","indexed":true,"internalType":"uint256"},{"name":"hostAddress","type":"address","indexed":true,"internalType":"address"},{"name":"pricePerSession","type":"uint256","indexed":false,"internalType":"uint256"},{"name":"mongoDataId","type":"string","indexed":false,"internalType":"string"},{"name":"isActive","type":"bool","indexed":false,"internalType":"bool"}],"anonymous":false},{"type":"event","name":"OwnershipTransferred","inputs":[{"name":"previousOwner","type":"address","indexed":true,"internalType":"address"},{"name":"newOwner","type":"address","indexed":true,"internalType":"address"}],"anonymous":false},{"type":"event","name":"Paused","inputs":[{"name":"account","type":"address","indexed":false,"internalType":"address"}],"anonymous":false},{"type":"event","name":"Unpaused","inputs":[{"name":"account","type":"address","indexed":false,"internalType":"address"}],"anonymous":false},{"type":"event","name":"Upgraded","inputs":[{"name":"implementation","type":"address","indexed":true,"internalType":"address"}],"anonymous":false},{"type":"error","name":"AddressEmptyCode","inputs":[{"name":"target","type":"address","internalType":"address"}]},{"type":"error","name":"ERC1967InvalidImplementation","inputs":[{"name":"implementation","type":"address","internalType":"address"}]},{"type":"error","name":"ERC1967NonPayable","inputs":[]},{"type":"error","name":"EnforcedPause","inputs":[]},{"type":"error","name":"ExpectedPause","inputs":[]},{"type":"error","name":"FailedCall","inputs":[]},{"type":"error","name":"InvalidInitialization","inputs":[]},{"type":"error","name":"NotInitializing","inputs":[]},{"type":"error","name":"OwnableInvalidOwner","inputs":[{"name":"owner","type":"address","internalType":"address"}]},{"type":"error","name":"OwnableUnauthorizedAccount","inputs":[{"name":"account","type":"address","internalType":"address"}]},{"type":"error","name":"SafeERC20FailedOperation","inputs":[{"name":"token","type":"address","internalType":"address"}]},{"type":"error","name":"UUPSUnauthorizedCallContext","inputs":[]},{"type":"error","name":"UUPSUnsupportedProxiableUUID","inputs":[{"name":"slot","type":"bytes32","internalType":"bytes32"}]}],"bytecode":{"object":"0x60a0604052306080523480156012575f5ffd5b506080516130f36100395f395f818161233d0152818161236601526124a501526130f35ff3fe608060405260043610610228575f3560e01c80638456cb5911610129578063cd83fb9a116100a8578063e67d86f11161006d578063e67d86f114610688578063eb2931b71461069c578063f2fde38b146106ca578063f8c68f32146106e9578063fa9c81a414610708575f5ffd5b8063cd83fb9a14610609578063cfdbf25414610635578063d4f38d0414610649578063dfe6b5d614610660578063e002460414610674575f5ffd5b80639c499eac116100ee5780639c499eac1461055b578063ad3cb1cc1461057a578063b0ff6383146105b7578063c05c5e94146105cb578063c0c53b8b146105ea575f5ffd5b80638456cb59146104a1578063867f1a09146104b557806389ea28d9146104ec5780638da5cb5b14610500578063900e41b11461053c575f5ffd5b80634f1ef286116101b5578063715018a61161017a578063715018a6146103fc578063764ac7341461041057806379f0dc571461044a5780637f6e8cbf1461047657806383195f8c14610253575f5ffd5b80634f1ef2861461037457806352d1902d14610387578063576338a51461039b5780635c975abb146103ba57806363a812f9146103dd575f5ffd5b80631b63fe67116101fb5780631b63fe67146102cd5780632f48ab7d146102ee5780633f4ba83a1461030d57806343355214146103215780634b9791e814610355575f5ffd5b806303d50d661461022c57806309115e971461025357806311ce02671461027557806316cb6eff146102ac575b5f5ffd5b348015610237575f5ffd5b505f546002145b60405190151581526020015b60405180910390f35b34801561025e575f5ffd5b50610267606481565b60405190815260200161024a565b348015610280575f5ffd5b50603254610294906001600160a01b031681565b6040516001600160a01b03909116815260200161024a565b3480156102b7575f5ffd5b506102c0610735565b60405161024a91906129f0565b3480156102d8575f5ffd5b506102ec6102e7366004612a16565b6108d4565b005b3480156102f9575f5ffd5b50603454610294906001600160a01b031681565b348015610318575f5ffd5b506102ec610998565b34801561032c575f5ffd5b5061029461033b366004612a4c565b60376020525f90815260409020546001600160a01b031681565b348015610360575f5ffd5b506102ec61036f366004612a4c565b6109aa565b6102ec610382366004612b44565b610b85565b348015610392575f5ffd5b50610267610ba4565b3480156103a6575f5ffd5b506102ec6103b5366004612ba3565b610bbf565b3480156103c5575f5ffd5b505f51602061309e5f395f51905f525460ff1661023e565b3480156103e8575f5ffd5b506102ec6103f7366004612ba3565b610c37565b348015610407575f5ffd5b506102ec610cb0565b34801561041b575f5ffd5b5061042f61042a366004612ba3565b610cc1565b6040805193845260208401929092529082015260600161024a565b348015610455575f5ffd5b50610469610464366004612ba3565b610e74565b60405161024a9190612bbe565b348015610481575f5ffd5b50610267610490366004612ba3565b60386020525f908152604090205481565b3480156104ac575f5ffd5b506102ec610edd565b3480156104c0575f5ffd5b5061023e6104cf366004612ba3565b6001600160a01b03165f9081526035602052604090205460ff1690565b3480156104f7575f5ffd5b50610267610eed565b34801561050b575f5ffd5b507f9016d09d72d40fdae2fd8ceac6b6234c7706214fd39c1cd1e609a0528c199300546001600160a01b0316610294565b348015610547575f5ffd5b506102ec610556366004612c00565b610f5d565b348015610566575f5ffd5b50610267610575366004612ba3565b611751565b348015610585575f5ffd5b506105aa604051806040016040528060058152602001640352e302e360dc1b81525081565b60405161024a9190612c5e565b3480156105c2575f5ffd5b50610267603c81565b3480156105d6575f5ffd5b50603354610294906001600160a01b031681565b3480156105f5575f5ffd5b506102ec610604366004612c70565b611879565b348015610614575f5ffd5b50610628610623366004612a4c565b611ac1565b60405161024a9190612cad565b348015610640575f5ffd5b50610267603281565b348015610654575f5ffd5b506102676302faf08081565b34801561066b575f5ffd5b50610267611b3c565b34801561067f575f5ffd5b50610294611b83565b348015610693575f5ffd5b5061026760c881565b3480156106a7575f5ffd5b5061023e6106b6366004612ba3565b60356020525f908152604090205460ff1681565b3480156106d5575f5ffd5b506102ec6106e4366004612ba3565b611bee565b3480156106f4575f5ffd5b506102c0610703366004612cbf565b611c28565b348015610713575f5ffd5b50610727610722366004612cf1565b611eb2565b60405161024a929190612d11565b603254604051633ea7206960e21b81525f600482018190526064602483015260609290916001600160a01b039091169063fa9c81a4906044015f60405180830381865afa158015610788573d5f5f3e3d5ffd5b505050506040513d5f823e601f3d908101601f191682016040526107af9190810190612e2a565b5090505f805b82518110156107f7578281815181106107d0576107d0612efd565b602002602001015160800151156107ef57816107eb81612f25565b9250505b6001016107b5565b505f816001600160401b0381111561081157610811612a77565b60405190808252806020026020018201604052801561084a57816020015b6108376128c0565b81526020019060019003908161082f5790505b5090505f805b84518110156108ca5784818151811061086b5761086b612efd565b602002602001015160800151156108c25784818151811061088e5761088e612efd565b60200260200101518383815181106108a8576108a8612efd565b602002602001018190525081806108be90612f25565b9250505b600101610850565b5090949350505050565b6108dc611f36565b6108e4611f66565b60335f9054906101000a90046001600160a01b03166001600160a01b0316630905f5606040518163ffffffff1660e01b8152600401602060405180830381865afa158015610934573d5f5f3e3d5ffd5b505050506040513d601f19601f820116820180604052508101906109589190612f3d565b1561097e5760405162461bcd60e51b815260040161097590612f58565b60405180910390fd5b61098a83838333611fbd565b61099360015f55565b505050565b6109a0612278565b6109a86122d3565b565b6109b2611f36565b6109ba611f66565b60335f9054906101000a90046001600160a01b03166001600160a01b0316630905f5606040518163ffffffff1660e01b8152600401602060405180830381865afa158015610a0a573d5f5f3e3d5ffd5b505050506040513d601f19601f82011682018060405250810190610a2e9190612f3d565b15610a4b5760405162461bcd60e51b815260040161097590612f58565b6032546040516395ea571760e01b8152600481018390525f916001600160a01b0316906395ea5717906024015f60405180830381865afa158015610a91573d5f5f3e3d5ffd5b505050506040513d5f823e601f3d908101601f19168201604052610ab89190810190612f87565b60208101519091506001600160a01b03163314610b175760405162461bcd60e51b815260206004820152601860248201527f4f6e6c7920686f73742063616e206465616374697661746500000000000000006044820152606401610975565b8060800151610b685760405162461bcd60e51b815260206004820152601860248201527f4e6574776f726b20616c726561647920696e61637469766500000000000000006044820152606401610975565b610b788282604001515f33611fbd565b50610b8260015f55565b50565b610b8d612332565b610b96826123d6565b610ba082826123de565b5050565b5f610bad61249a565b505f51602061307e5f395f51905f5290565b610bc7612278565b6001600160a01b038116610c155760405162461bcd60e51b8152602060048201526015602482015274125b9d985b1a59081554d1150818dbdb9d1c9858dd605a1b6044820152606401610975565b603480546001600160a01b0319166001600160a01b0392909216919091179055565b610c3f612278565b6001600160a01b038116610c8e5760405162461bcd60e51b8152602060048201526016602482015275125b9d985b1a590818591b5a5b8818dbdb9d1c9858dd60521b6044820152606401610975565b603380546001600160a01b0319166001600160a01b0392909216919091179055565b610cb8612278565b6109a85f6124e3565b6001600160a01b038181165f81815260366020526040808220546032549151636d65573f60e01b8152600481019490945293919283929190911690636d65573f90602401602060405180830381865afa158015610d20573d5f5f3e3d5ffd5b505050506040513d601f19601f82011682018060405250810190610d449190612fc0565b6001600160a01b0385165f90815260366020908152604080832080548251818502810185019093528083529495509293909291830182828015610da457602002820191905f5260205f20905b815481526020019060010190808311610d90575b509394505f93505050505b8151811015610e6b5760325482515f916001600160a01b0316906395ea571790859085908110610de157610de1612efd565b60200260200101516040518263ffffffff1660e01b8152600401610e0791815260200190565b5f60405180830381865afa158015610e21573d5f5f3e3d5ffd5b505050506040513d5f823e601f3d908101601f19168201604052610e489190810190612f87565b9050806080015115610e625784610e5e81612f25565b9550505b50600101610daf565b50509193909250565b6001600160a01b0381165f90815260366020908152604091829020805483518184028101840190945280845260609392830182828015610ed157602002820191905f5260205f20905b815481526020019060010190808311610ebd575b50505050509050919050565b610ee5612278565b6109a8612553565b603354604080516375f3fed560e11b815290515f926001600160a01b03169163ebe7fdaa9160048083019260209291908290030181865afa158015610f34573d5f5f3e3d5ffd5b505050506040513d601f19601f82011682018060405250810190610f589190612fc0565b905090565b610f65611f36565b610f6d611f66565b60335f9054906101000a90046001600160a01b03166001600160a01b0316630905f5606040518163ffffffff1660e01b8152600401602060405180830381865afa158015610fbd573d5f5f3e3d5ffd5b505050506040513d601f19601f82011682018060405250810190610fe19190612f3d565b15610ffe5760405162461bcd60e51b815260040161097590612f58565b335f9081526038602052604090205461101990603c90612fd7565b4210156110685760405162461bcd60e51b815260206004820152601c60248201527f526567697374726174696f6e20636f6f6c646f776e20616374697665000000006044820152606401610975565b6064831015801561107d57506302faf0808311155b6110c95760405162461bcd60e51b815260206004820152601a60248201527f5072696365206f7574206f6620616c6c6f7765642072616e67650000000000006044820152606401610975565b5f82511180156110db575060c8825111155b6111275760405162461bcd60e51b815260206004820152601a60248201527f496e76616c6964204d6f6e676f446174614944206c656e6774680000000000006044820152606401610975565b603254604051631e2de79b60e11b81523360048201526001600160a01b0390911690633c5bcf3690602401602060405180830381865afa15801561116d573d5f5f3e3d5ffd5b505050506040513d601f19601f820116820180604052508101906111919190612f3d565b156111ed5760405162461bcd60e51b815260206004820152602660248201527f486f7374206861732072656163686564206d6178696d756d206e6574776f726b604482015265081b1a5b5a5d60d21b6064820152608401610975565b603354604080516375f3fed560e11b815290515f926001600160a01b03169163ebe7fdaa9160048083019260209291908290030181865afa158015611234573d5f5f3e3d5ffd5b505050506040513d601f19601f820116820180604052508101906112589190612fc0565b90505f60325f9054906101000a90046001600160a01b03166001600160a01b0316635290ffc66040518163ffffffff1660e01b81526004016020604051808303815f875af11580156112ac573d5f5f3e3d5ffd5b505050506040513d601f19601f820116820180604052508101906112d09190612fc0565b6032546040805160e0810182528381523360208201528082018990526060810188905286151560808201524260a0820181905260c08201529051631430350760e21b81529293506001600160a01b03909116916350c0d41c9161133891859190600401612fea565b5f604051808303815f87803b15801561134f575f5ffd5b505af1158015611361573d5f5f3e3d5ffd5b5050335f8181526036602090815260408083208054600181018255908452828420018790558683526037825280832080546001600160a01b031916851790559282526038815282822042905560359052205460ff1691506113fe905057335f81815260356020526040808220805460ff19166001179055517f8ff9310abede1de3c5d3fdbb7cf09c40bc8258ca75c0f949ad92f964deac98b39190a25b81156116fc576033546040805163c5f956af60e01b815290515f926001600160a01b03169163c5f956af9160048083019260209291908290030181865afa15801561144b573d5f5f3e3d5ffd5b505050506040513d601f19601f8201168201806040525081019061146f9190613002565b90506001600160a01b0381166114c75760405162461bcd60e51b815260206004820152601760248201527f5472656173757279206e6f7420636f6e666967757265640000000000000000006044820152606401610975565b6034546040516370a0823160e01b815233600482015284916001600160a01b0316906370a0823190602401602060405180830381865afa15801561150d573d5f5f3e3d5ffd5b505050506040513d601f19601f820116820180604052508101906115319190612fc0565b10156115915760405162461bcd60e51b815260206004820152602960248201527f496e73756666696369656e7420555344542062616c616e636520666f7220686f6044820152687374696e672066656560b81b6064820152608401610975565b603454604051636eb1769f60e11b815233600482015230602482015284916001600160a01b03169063dd62ed3e90604401602060405180830381865afa1580156115dd573d5f5f3e3d5ffd5b505050506040513d601f19601f820116820180604052508101906116019190612fc0565b101561164f5760405162461bcd60e51b815260206004820152601860248201527f486f7374696e6720666565206e6f7420617070726f76656400000000000000006044820152606401610975565b603454611667906001600160a01b031633838661259b565b603254604051632a3ee16b60e21b8152600481018590526001600160a01b039091169063a8fb85ac906024015f604051808303815f87803b1580156116aa575f5ffd5b505af11580156116bc573d5f5f3e3d5ffd5b5050604080518681524260208201523393507fac5b35db873b0c878683cbeac0fc736acd48ea6480742bafd3ba483dd715882492500160405180910390a2505b336001600160a01b0316817fd93f4aea01982a4687b0d757a8314f57b6a77742cf98d21bc9bdb24ef543a4dc868887874260405161173e95949392919061301d565b60405180910390a3505061099360015f55565b6001600160a01b0381165f908152603660209081526040808320805482518185028101850190935280835284938301828280156117ab57602002820191905f5260205f20905b815481526020019060010190808311611797575b509394505f93505050505b81518110156118725760325482515f916001600160a01b0316906395ea5717908590859081106117e8576117e8612efd565b60200260200101516040518263ffffffff1660e01b815260040161180e91815260200190565b5f60405180830381865afa158015611828573d5f5f3e3d5ffd5b505050506040513d5f823e601f3d908101601f1916820160405261184f9190810190612f87565b9050806080015115611869578361186581612f25565b9450505b506001016117b6565b5050919050565b5f6118826125d7565b805490915060ff600160401b82041615906001600160401b03165f811580156118a85750825b90505f826001600160401b031660011480156118c35750303b155b9050811580156118d1575080155b156118ef5760405163f92ee8a960e01b815260040160405180910390fd5b845467ffffffffffffffff19166001178555831561191957845460ff60401b1916600160401b1785555b611922336125ff565b61192a612610565b611932612618565b6001600160a01b0388166119885760405162461bcd60e51b815260206004820181905260248201527f496e76616c69642073746f7261676520636f6e747261637420616464726573736044820152606401610975565b6001600160a01b0387166119de5760405162461bcd60e51b815260206004820152601e60248201527f496e76616c69642061646d696e20636f6e7472616374206164647265737300006044820152606401610975565b6001600160a01b038616611a345760405162461bcd60e51b815260206004820152601d60248201527f496e76616c6964205553445420636f6e747261637420616464726573730000006044820152606401610975565b603280546001600160a01b03808b166001600160a01b031992831617909255603380548a841690831617905560348054928916929091169190911790558315611ab757845460ff60401b19168555604051600181527fc7f505b2f371ae2175ee4913f4499e1f2633a7b5936321eed1cdaeb6115181d29060200160405180910390a15b5050505050505050565b611ac96128c0565b6032546040516395ea571760e01b8152600481018490526001600160a01b03909116906395ea5717906024015f60405180830381865afa158015611b0f573d5f5f3e3d5ffd5b505050506040513d5f823e601f3d908101601f19168201604052611b369190810190612f87565b92915050565b6032546040805163217c682d60e01b815290515f926001600160a01b03169163217c682d9160048083019260209291908290030181865afa158015610f34573d5f5f3e3d5ffd5b6033546040805163c5f956af60e01b815290515f926001600160a01b03169163c5f956af9160048083019260209291908290030181865afa158015611bca573d5f5f3e3d5ffd5b505050506040513d601f19601f82011682018060405250810190610f589190613002565b611bf6612278565b6001600160a01b038116611c1f57604051631e4fbdf760e01b81525f6004820152602401610975565b610b82816124e3565b6001600160a01b0383165f908152603660209081526040808320805482518185028101850190935280835260609493830182828015611c8457602002820191905f5260205f20905b815481526020019060010190808311611c70575b505050505090506032831115611c9957603292505b5f80611ca58587612fd7565b90508251811115611cb4575081515b855b81811015611d715760325484515f916001600160a01b0316906395ea571790879085908110611ce757611ce7612efd565b60200260200101516040518263ffffffff1660e01b8152600401611d0d91815260200190565b5f60405180830381865afa158015611d27573d5f5f3e3d5ffd5b505050506040513d5f823e601f3d908101601f19168201604052611d4e9190810190612f87565b9050806080015115611d685783611d6481612f25565b9450505b50600101611cb6565b505f826001600160401b03811115611d8b57611d8b612a77565b604051908082528060200260200182016040528015611dc457816020015b611db16128c0565b815260200190600190039081611da95790505b5090505f875b83811015611ea45760325486515f916001600160a01b0316906395ea571790899085908110611dfb57611dfb612efd565b60200260200101516040518263ffffffff1660e01b8152600401611e2191815260200190565b5f60405180830381865afa158015611e3b573d5f5f3e3d5ffd5b505050506040513d5f823e601f3d908101601f19168201604052611e629190810190612f87565b9050806080015115611e9b5780848481518110611e8157611e81612efd565b60200260200101819052508280611e9790612f25565b9350505b50600101611dca565b509098975050505050505050565b603254604051633ea7206960e21b815260048101849052602481018390526060915f916001600160a01b039091169063fa9c81a4906044015f60405180830381865afa158015611f04573d5f5f3e3d5ffd5b505050506040513d5f823e601f3d908101601f19168201604052611f2b9190810190612e2a565b915091509250929050565b5f51602061309e5f395f51905f525460ff16156109a85760405163d93c066560e01b815260040160405180910390fd5b60025f5403611fb75760405162461bcd60e51b815260206004820152601f60248201527f5265656e7472616e637947756172643a207265656e7472616e742063616c6c006044820152606401610975565b60025f55565b6032546040516395ea571760e01b8152600481018690525f916001600160a01b0316906395ea5717906024015f60405180830381865afa158015612003573d5f5f3e3d5ffd5b505050506040513d5f823e601f3d908101601f1916820160405261202a9190810190612f87565b9050816001600160a01b031681602001516001600160a01b0316146120885760405162461bcd60e51b81526020600482015260146024820152734f6e6c7920686f73742063616e2075706461746560601b6044820152606401610975565b6064841015801561209d57506302faf0808411155b6120e95760405162461bcd60e51b815260206004820152601a60248201527f5072696365206f7574206f6620616c6c6f7765642072616e67650000000000006044820152606401610975565b604080820151608080840151603254845160e0810186528a81526001600160a01b0388811660208301528187018b9052606080890151908301528915159482019490945260a080880151908201524260c08201529451631430350760e21b8152939491939216916350c0d41c91612165918b9190600401612fea565b5f604051808303815f87803b15801561217c575f5ffd5b505af115801561218e573d5f5f3e3d5ffd5b505050508582146121d557604080518381526020810188905288917f07d20e42fbc3910f3e2536c15bfb3d2deec361f7b0534c071570af6608429f01910160405180910390a25b8415158115151461221f57604080518215158152861515602082015288917fb061566845b6680f66461fbe29235493f3aa355419d464d868114a32e0e7ae7b910160405180910390a25b836001600160a01b0316877f54505b9e522263d538acc1f6de9658c2ae4fd39b8771f562481c2d375d1c1f2d8886606001518960405161226193929190613053565b60405180910390a350505050505050565b60015f55565b336122aa7f9016d09d72d40fdae2fd8ceac6b6234c7706214fd39c1cd1e609a0528c199300546001600160a01b031690565b6001600160a01b0316146109a85760405163118cdaa760e01b8152336004820152602401610975565b6122db612628565b5f51602061309e5f395f51905f52805460ff191681557f5db9ee0a495bf2e6ff9c91a7834c1ba4fdd244a5e8aa4e537bd38aeae4b073aa335b6040516001600160a01b03909116815260200160405180910390a150565b306001600160a01b037f00000000000000000000000000000000000000000000000000000000000000001614806123b857507f00000000000000000000000000000000000000000000000000000000000000006001600160a01b03166123ac5f51602061307e5f395f51905f52546001600160a01b031690565b6001600160a01b031614155b156109a85760405163703e46dd60e11b815260040160405180910390fd5b610b82612278565b816001600160a01b03166352d1902d6040518163ffffffff1660e01b8152600401602060405180830381865afa925050508015612438575060408051601f3d908101601f1916820190925261243591810190612fc0565b60015b61246057604051634c9c8ce360e01b81526001600160a01b0383166004820152602401610975565b5f51602061307e5f395f51905f52811461249057604051632a87526960e21b815260048101829052602401610975565b6109938383612657565b306001600160a01b037f000000000000000000000000000000000000000000000000000000000000000016146109a85760405163703e46dd60e11b815260040160405180910390fd5b7f9016d09d72d40fdae2fd8ceac6b6234c7706214fd39c1cd1e609a0528c19930080546001600160a01b031981166001600160a01b03848116918217845560405192169182907f8be0079c531659141344cd1fd0a4f28419497f9722a3daafe3b4186f6b6457e0905f90a3505050565b61255b611f36565b5f51602061309e5f395f51905f52805460ff191660011781557f62e78cea01bee320cd4e420270b5ea74000d11b0c9f74754ebdbfc544b05a25833612314565b6125a98484848460016126ac565b6125d157604051635274afe760e01b81526001600160a01b0385166004820152602401610975565b50505050565b5f807ff0c57e16840df040f15088dc2f81fe391c3923bec73e23a9662efc9c229c6a00611b36565b612607612719565b610b828161273e565b6109a8612719565b612620612719565b6109a8612746565b5f51602061309e5f395f51905f525460ff166109a857604051638dfc202b60e01b815260040160405180910390fd5b6126608261274e565b6040516001600160a01b038316907fbc7cd75a20ee27fd9adebab32041f755214dbc6bffa90cc0225b39da2e5c2d3b905f90a28051156126a45761099382826127b1565b610ba0612851565b6040516323b872dd60e01b5f8181526001600160a01b038781166004528616602452604485905291602083606481808c5af1925060015f511483166127085783831516156126fc573d5f823e3d81fd5b5f883b113d1516831692505b604052505f60605295945050505050565b612721612870565b6109a857604051631afcd79f60e31b815260040160405180910390fd5b611bf6612719565b612272612719565b806001600160a01b03163b5f0361278357604051634c9c8ce360e01b81526001600160a01b0382166004820152602401610975565b5f51602061307e5f395f51905f5280546001600160a01b0319166001600160a01b0392909216919091179055565b60605f6127be8484612889565b90508080156127df57505f3d11806127df57505f846001600160a01b03163b115b156127f4576127ec61289c565b915050611b36565b801561281e57604051639996b31560e01b81526001600160a01b0385166004820152602401610975565b3d156128315761282c6128b5565b61284a565b60405163d6bda27560e01b815260040160405180910390fd5b5092915050565b34156109a85760405163b398979f60e01b815260040160405180910390fd5b5f6128796125d7565b54600160401b900460ff16919050565b5f5f5f835160208501865af49392505050565b6040513d81523d5f602083013e3d602001810160405290565b6040513d5f823e3d81fd5b6040518060e001604052805f81526020015f6001600160a01b031681526020015f8152602001606081526020015f151581526020015f81526020015f81525090565b5f81518084528060208401602086015e5f602082860101526020601f19601f83011685010191505092915050565b8051825260018060a01b036020820151166020830152604081015160408301525f606082015160e0606085015261296a60e0850182612902565b905060808301511515608085015260a083015160a085015260c083015160c08501528091505092915050565b5f82825180855260208501945060208160051b830101602085015f5b838110156129e457601f198584030188526129ce838351612930565b60209889019890935091909101906001016129b2565b50909695505050505050565b602081525f612a026020830184612996565b9392505050565b8015158114610b82575f5ffd5b5f5f5f60608486031215612a28575f5ffd5b83359250602084013591506040840135612a4181612a09565b809150509250925092565b5f60208284031215612a5c575f5ffd5b5035919050565b6001600160a01b0381168114610b82575f5ffd5b634e487b7160e01b5f52604160045260245ffd5b60405160e081016001600160401b0381118282101715612aad57612aad612a77565b60405290565b604051601f8201601f191681016001600160401b0381118282101715612adb57612adb612a77565b604052919050565b5f6001600160401b03821115612afb57612afb612a77565b50601f01601f191660200190565b5f612b1b612b1684612ae3565b612ab3565b9050828152838383011115612b2e575f5ffd5b828260208301375f602084830101529392505050565b5f5f60408385031215612b55575f5ffd5b8235612b6081612a63565b915060208301356001600160401b03811115612b7a575f5ffd5b8301601f81018513612b8a575f5ffd5b612b9985823560208401612b09565b9150509250929050565b5f60208284031215612bb3575f5ffd5b8135612a0281612a63565b602080825282518282018190525f918401906040840190835b81811015612bf5578351835260209384019390920191600101612bd7565b509095945050505050565b5f5f5f60608486031215612c12575f5ffd5b8335925060208401356001600160401b03811115612c2e575f5ffd5b8401601f81018613612c3e575f5ffd5b612c4d86823560208401612b09565b9250506040840135612a4181612a09565b602081525f612a026020830184612902565b5f5f5f60608486031215612c82575f5ffd5b8335612c8d81612a63565b92506020840135612c9d81612a63565b91506040840135612a4181612a63565b602081525f612a026020830184612930565b5f5f5f60608486031215612cd1575f5ffd5b8335612cdc81612a63565b95602085013595506040909401359392505050565b5f5f60408385031215612d02575f5ffd5b50508035926020909101359150565b604081525f612d236040830185612996565b90508260208301529392505050565b8051612d3d81612a63565b919050565b5f82601f830112612d51575f5ffd5b8151612d5f612b1682612ae3565b818152846020838601011115612d73575f5ffd5b8160208501602083015e5f918101602001919091529392505050565b8051612d3d81612a09565b5f60e08284031215612daa575f5ffd5b612db2612a8b565b825181529050612dc460208301612d32565b60208201526040828101519082015260608201516001600160401b03811115612deb575f5ffd5b612df784828501612d42565b606083015250612e0960808301612d8f565b608082015260a0828101519082015260c09182015191810191909152919050565b5f5f60408385031215612e3b575f5ffd5b82516001600160401b03811115612e50575f5ffd5b8301601f81018513612e60575f5ffd5b80516001600160401b03811115612e7957612e79612a77565b8060051b612e8960208201612ab3565b91825260208184018101929081019088841115612ea4575f5ffd5b6020850192505b83831015612ee95782516001600160401b03811115612ec8575f5ffd5b612ed78a602083890101612d9a565b83525060209283019290910190612eab565b602097909701519698969750505050505050565b634e487b7160e01b5f52603260045260245ffd5b634e487b7160e01b5f52601160045260245ffd5b5f60018201612f3657612f36612f11565b5060010190565b5f60208284031215612f4d575f5ffd5b8151612a0281612a09565b602080825260159082015274456d657267656e6379206d6f64652061637469766560581b604082015260600190565b5f60208284031215612f97575f5ffd5b81516001600160401b03811115612fac575f5ffd5b612fb884828501612d9a565b949350505050565b5f60208284031215612fd0575f5ffd5b5051919050565b80820180821115611b3657611b36612f11565b828152604060208201525f612fb86040830184612930565b5f60208284031215613012575f5ffd5b8151612a0281612a63565b60a081525f61302f60a0830188612902565b60208301969096525092151560408401526060830191909152608090910152919050565b838152606060208201525f61306b6060830185612902565b9050821515604083015294935050505056fe360894a13ba1a3210667c828492db98dca3e2076cc3735a920a3ca505d382bbccd5ed15c6e187e77e9aee88184c21f4f2182ab5827cb3b7e07fbedcd63f03300a2646970667358221220cbe2fdaa76dff8a11744fc7aceb719d914d2cf843afb9ae072e4e5a5bb40b5e164736f6c63430008210033","linkReferences":{}},"methodIdentifiers":{"MAX_BATCH_SIZE()":"cfdbf254","MAX_MONGO_DATA_LENGTH()":"e67d86f1","MAX_NETWORKS_PER_HOST()":"83195f8c","MAX_PRICE_PER_SESSION()":"d4f38d04","MIN_PRICE_PER_SESSION()":"09115e97","REGISTRATION_COOLDOWN()":"b0ff6383","UPGRADE_INTERFACE_VERSION()":"ad3cb1cc","adminContract()":"c05c5e94","deactivateNetwork(uint256)":"4b9791e8","getActiveHostNetworkCount(address)":"9c499eac","getActiveHostNetworks(address,uint256,uint256)":"f8c68f32","getAllActiveNetworks()":"16cb6eff","getContractStats()":"dfe6b5d6","getCurrentHostingFee()":"89ea28d9","getHostNetworks(address)":"79f0dc57","getHostStats(address)":"764ac734","getHostedNetworkById(uint256)":"cd83fb9a","getNetworksPaginated(uint256,uint256)":"fa9c81a4","getTreasuryAddress()":"e0024604","initialize(address,address,address)":"c0c53b8b","isHost(address)":"eb2931b7","isReentrancyGuardActive()":"03d50d66","isRegisteredHost(address)":"867f1a09","lastRegistrationTime(address)":"7f6e8cbf","networkToHost(uint256)":"43355214","owner()":"8da5cb5b","pause()":"8456cb59","paused()":"5c975abb","proxiableUUID()":"52d1902d","registerNetwork(uint256,string,bool)":"900e41b1","renounceOwnership()":"715018a6","setAdminContract(address)":"63a812f9","setUsdtContract(address)":"576338a5","storageContract()":"11ce0267","transferOwnership(address)":"f2fde38b","unpause()":"3f4ba83a","updateNetwork(uint256,uint256,bool)":"1b63fe67","upgradeToAndCall(address,bytes)":"4f1ef286","usdt()":"2f48ab7d"},"id":2}