{"abi":[{"type":"constructor","inputs":[],"stateMutability":"nonpayable"},{"type":"function","name":"MAX_NETWORKS_PER_HOST","inputs":[],"outputs":[{"name":"","type":"uint256","internalType":"uint256"}],"stateMutability":"view"},{"type":"function","name":"UPGRADE_INTERFACE_VERSION","inputs":[],"outputs":[{"name":"","type":"string","internalType":"string"}],"stateMutability":"view"},{"type":"function","name":"allowedCallers","inputs":[{"name":"","type":"address","internalType":"address"}],"outputs":[{"name":"","type":"bool","internalType":"bool"}],"stateMutability":"view"},{"type":"function","name":"emergencyDeactivateNetwork","inputs":[{"name":"networkId","type":"uint256","internalType":"uint256"}],"outputs":[],"stateMutability":"nonpayable"},{"type":"function","name":"getHostEarnings","inputs":[{"name":"hostAddress","type":"address","internalType":"address"}],"outputs":[{"name":"","type":"uint256","internalType":"uint256"}],"stateMutability":"view"},{"type":"function","name":"getHostNetworkCount","inputs":[{"name":"hostAddress","type":"address","internalType":"address"}],"outputs":[{"name":"","type":"uint256","internalType":"uint256"}],"stateMutability":"view"},{"type":"function","name":"getHostNetworks","inputs":[{"name":"hostAddress","type":"address","internalType":"address"}],"outputs":[{"name":"","type":"uint256[]","internalType":"uint256[]"}],"stateMutability":"view"},{"type":"function","name":"getNetwork","inputs":[{"name":"id","type":"uint256","internalType":"uint256"}],"outputs":[{"name":"","type":"tuple","internalType":"struct ZaaNetStorageV1.Network","components":[{"name":"id","type":"uint256","internalType":"uint256"},{"name":"hostAddress","type":"address","internalType":"address"},{"name":"pricePerSession","type":"uint256","internalType":"uint256"},{"name":"mongoDataId","type":"string","internalType":"string"},{"name":"isActive","type":"bool","internalType":"bool"},{"name":"createdAt","type":"uint256","internalType":"uint256"},{"name":"updatedAt","type":"uint256","internalType":"uint256"}]}],"stateMutability":"view"},{"type":"function","name":"getNetworksPaginated","inputs":[{"name":"offset","type":"uint256","internalType":"uint256"},{"name":"limit","type":"uint256","internalType":"uint256"}],"outputs":[{"name":"","type":"tuple[]","internalType":"struct ZaaNetStorageV1.Network[]","components":[{"name":"id","type":"uint256","internalType":"uint256"},{"name":"hostAddress","type":"address","internalType":"address"},{"name":"pricePerSession","type":"uint256","internalType":"uint256"},{"name":"mongoDataId","type":"string","internalType":"string"},{"name":"isActive","type":"bool","internalType":"bool"},{"name":"createdAt","type":"uint256","internalType":"uint256"},{"name":"updatedAt","type":"uint256","internalType":"uint256"}]},{"name":"total","type":"uint256","internalType":"uint256"}],"stateMutability":"view"},{"type":"function","name":"hasReachedNetworkLimit","inputs":[{"name":"hostAddress","type":"address","internalType":"address"}],"outputs":[{"name":"","type":"bool","internalType":"bool"}],"stateMutability":"view"},{"type":"function","name":"hostEarnings","inputs":[{"name":"","type":"address","internalType":"address"}],"outputs":[{"name":"","type":"uint256","internalType":"uint256"}],"stateMutability":"view"},{"type":"function","name":"hostNetworkCount","inputs":[{"name":"","type":"address","internalType":"address"}],"outputs":[{"name":"","type":"uint256","internalType":"uint256"}],"stateMutability":"view"},{"type":"function","name":"hostNetworkIds","inputs":[{"name":"","type":"address","internalType":"address"},{"name":"","type":"uint256","internalType":"uint256"}],"outputs":[{"name":"","type":"uint256","internalType":"uint256"}],"stateMutability":"view"},{"type":"function","name":"increaseClientVoucherFeeEarnings","inputs":[{"name":"amount","type":"uint256","internalType":"uint256"}],"outputs":[],"stateMutability":"nonpayable"},{"type":"function","name":"increaseHostEarnings","inputs":[{"name":"hostAddress","type":"address","internalType":"address"},{"name":"amount","type":"uint256","internalType":"uint256"}],"outputs":[],"stateMutability":"nonpayable"},{"type":"function","name":"increaseHostVoucherFeeEarnings","inputs":[{"name":"amount","type":"uint256","internalType":"uint256"}],"outputs":[],"stateMutability":"nonpayable"},{"type":"function","name":"incrementNetworkId","inputs":[],"outputs":[{"name":"","type":"uint256","internalType":"uint256"}],"stateMutability":"nonpayable"},{"type":"function","name":"initialize","inputs":[],"outputs":[],"stateMutability":"nonpayable"},{"type":"function","name":"isReentrancyGuardActive","inputs":[],"outputs":[{"name":"","type":"bool","internalType":"bool"}],"stateMutability":"view"},{"type":"function","name":"networkExists","inputs":[{"name":"","type":"uint256","internalType":"uint256"}],"outputs":[{"name":"","type":"bool","internalType":"bool"}],"stateMutability":"view"},{"type":"function","name":"networkIdCounter","inputs":[],"outputs":[{"name":"","type":"uint256","internalType":"uint256"}],"stateMutability":"view"},{"type":"function","name":"networks","inputs":[{"name":"","type":"uint256","internalType":"uint256"}],"outputs":[{"name":"id","type":"uint256","internalType":"uint256"},{"name":"hostAddress","type":"address","internalType":"address"},{"name":"pricePerSession","type":"uint256","internalType":"uint256"},{"name":"mongoDataId","type":"string","internalType":"string"},{"name":"isActive","type":"bool","internalType":"bool"},{"name":"createdAt","type":"uint256","internalType":"uint256"},{"name":"updatedAt","type":"uint256","internalType":"uint256"}],"stateMutability":"view"},{"type":"function","name":"owner","inputs":[],"outputs":[{"name":"","type":"address","internalType":"address"}],"stateMutability":"view"},{"type":"function","name":"pause","inputs":[],"outputs":[],"stateMutability":"nonpayable"},{"type":"function","name":"paused","inputs":[],"outputs":[{"name":"","type":"bool","internalType":"bool"}],"stateMutability":"view"},{"type":"function","name":"proxiableUUID","inputs":[],"outputs":[{"name":"","type":"bytes32","internalType":"bytes32"}],"stateMutability":"view"},{"type":"function","name":"renounceOwnership","inputs":[],"outputs":[],"stateMutability":"nonpayable"},{"type":"function","name":"setAllowedCaller","inputs":[{"name":"_caller","type":"address","internalType":"address"},{"name":"status","type":"bool","internalType":"bool"}],"outputs":[],"stateMutability":"nonpayable"},{"type":"function","name":"setAllowedCallers","inputs":[{"name":"_callers","type":"address[]","internalType":"address[]"},{"name":"status","type":"bool","internalType":"bool"}],"outputs":[],"stateMutability":"nonpayable"},{"type":"function","name":"setNetwork","inputs":[{"name":"id","type":"uint256","internalType":"uint256"},{"name":"net","type":"tuple","internalType":"struct ZaaNetStorageV1.Network","components":[{"name":"id","type":"uint256","internalType":"uint256"},{"name":"hostAddress","type":"address","internalType":"address"},{"name":"pricePerSession","type":"uint256","internalType":"uint256"},{"name":"mongoDataId","type":"string","internalType":"string"},{"name":"isActive","type":"bool","internalType":"bool"},{"name":"createdAt","type":"uint256","internalType":"uint256"},{"name":"updatedAt","type":"uint256","internalType":"uint256"}]}],"outputs":[],"stateMutability":"nonpayable"},{"type":"function","name":"totalClientVoucherFeeAmount","inputs":[],"outputs":[{"name":"","type":"uint256","internalType":"uint256"}],"stateMutability":"view"},{"type":"function","name":"totalHostVoucherFeeAmount","inputs":[],"outputs":[{"name":"","type":"uint256","internalType":"uint256"}],"stateMutability":"view"},{"type":"function","name":"totalHostingFeeAmount","inputs":[],"outputs":[{"name":"","type":"uint256","internalType":"uint256"}],"stateMutability":"view"},{"type":"function","name":"totalSessionPaymentsAmount","inputs":[],"outputs":[{"name":"","type":"uint256","internalType":"uint256"}],"stateMutability":"view"},{"type":"function","name":"totalWithdrawalsAmount","inputs":[],"outputs":[{"name":"","type":"uint256","internalType":"uint256"}],"stateMutability":"view"},{"type":"function","name":"transferOwnership","inputs":[{"name":"newOwner","type":"address","internalType":"address"}],"outputs":[],"stateMutability":"nonpayable"},{"type":"function","name":"unpause","inputs":[],"outputs":[],"stateMutability":"nonpayable"},{"type":"function","name":"updateTotalHostingFeeAmount","inputs":[{"name":"amount","type":"uint256","internalType":"uint256"}],"outputs":[],"stateMutability":"nonpayable"},{"type":"function","name":"updateTotalSessionPaymentsAmount","inputs":[{"name":"amount","type":"uint256","internalType":"uint256"}],"outputs":[],"stateMutability":"nonpayable"},{"type":"function","name":"updateZaanetWithdrawalsAmount","inputs":[{"name":"amount","type":"uint256","internalType":"uint256"}],"outputs":[],"stateMutability":"nonpayable"},{"type":"function","name":"upgradeToAndCall","inputs":[{"name":"newImplementation","type":"address","internalType":"address"},{"name":"data","type":"bytes","internalType":"bytes"}],"outputs":[],"stateMutability":"payable"},{"type":"event","name":"AllowedCallerUpdated","inputs":[{"name":"caller","type":"address","indexed":true,"internalType":"address"},{"name":"status","type":"bool","indexed":false,"internalType":"bool"}],"anonymous":false},{"type":"event","name":"ClientVoucherFeeEarningsUpdated","inputs":[{"name":"totalEarned","type":"uint256","indexed":false,"internalType":"uint256"}],"anonymous":false},{"type":"event","name":"HostEarningsUpdated","inputs":[{"name":"hostAddress","type":"address","indexed":true,"internalType":"address"},{"name":"totalEarned","type":"uint256","indexed":false,"internalType":"uint256"}],"anonymous":false},{"type":"event","name":"HostVoucherFeeEarningsUpdated","inputs":[{"name":"totalEarned","type":"uint256","indexed":false,"internalType":"uint256"}],"anonymous":false},{"type":"event","name":"Initialized","inputs":[{"name":"version","type":"uint64","indexed":false,"internalType":"uint64"}],"anonymous":false},{"type":"event","name":"NetworkStored","inputs":[{"name":"id","type":"uint256","indexed":true,"internalType":"uint256"},{"name":"hostAddress","type":"address","indexed":true,"internalType":"address"},{"name":"pricePerSession","type":"uint256","indexed":false,"internalType":"uint256"}],"anonymous":false},{"type":"event","name":"NetworkUpdated","inputs":[{"name":"id","type":"uint256","indexed":true,"internalType":"uint256"},{"name":"hostAddress","type":"address","indexed":true,"internalType":"address"}],"anonymous":false},{"type":"event","name":"OwnershipTransferred","inputs":[{"name":"previousOwner","type":"address","indexed":true,"internalType":"address"},{"name":"newOwner","type":"address","indexed":true,"internalType":"address"}],"anonymous":false},{"type":"event","name":"Paused","inputs":[{"name":"account","type":"address","indexed":false,"internalType":"address"}],"anonymous":false},{"type":"event","name":"SessionStored","inputs":[{"name":"sessionId","type":"uint256","indexed":true,"internalType":"uint256"},{"name":"paymentAddress","type":"address","indexed":true,"internalType":"address"},{"name":"amount","type":"uint256","indexed":false,"internalType":"uint256"}],"anonymous":false},{"type":"event","name":"Unpaused","inputs":[{"name":"account","type":"address","indexed":false,"internalType":"address"}],"anonymous":false},{"type":"event","name":"Upgraded","inputs":[{"name":"implementation","type":"address","indexed":true,"internalType":"address"}],"anonymous":false},{"type":"error","name":"AddressEmptyCode","inputs":[{"name":"target","type":"address","internalType":"address"}]},{"type":"error","name":"ERC1967InvalidImplementation","inputs":[{"name":"implementation","type":"address","internalType":"address"}]},{"type":"error","name":"ERC1967NonPayable","inputs":[]},{"type":"error","name":"EnforcedPause","inputs":[]},{"type":"error","name":"ExpectedPause","inputs":[]},{"type":"error","name":"FailedCall","inputs":[]},{"type":"error","name":"InvalidInitialization","inputs":[]},{"type":"error","name":"NotInitializing","inputs":[]},{"type":"error","name":"OwnableInvalidOwner","inputs":[{"name":"owner","type":"address","internalType":"address"}]},{"type":"error","name":"OwnableUnauthorizedAccount","inputs":[{"name":"account","type":"address","internalType":"address"}]},{"type":"error","name":"UUPSUnauthorizedCallContext","inputs":[]},{"type":"error","name":"UUPSUnsupportedProxiableUUID","inputs":[{"name":"slot","type":"bytes32","internalType":"bytes32"}]}],"bytecode":{"object":"0x60a0604052306080523480156012575f5ffd5b50608051612afd6100395f395f8181611e9401528181611ebd01526120010152612afd5ff3fe60806040526004361061023e575f3560e01c80637bae8f5e11610134578063d1a08e07116100b3578063e4938a4f11610078578063e4938a4f146106c3578063e867cecf146106e2578063ec13f2a114610701578063f2b887d31461072f578063f2fde38b14610744578063fa9c81a414610763575f5ffd5b8063d1a08e071461063c578063d3158e1314610651578063d473d18b14610670578063d8b0e71614610685578063e1c7a8aa146106a4575f5ffd5b80638da5cb5b116100f95780638da5cb5b1461057357806395ea57171461059f578063a8fb85ac146105cb578063ad2c30b1146105ea578063ad3cb1cc146105ff575f5ffd5b80637bae8f5e146104e65780638129fc1c1461050557806383195f8c146105195780638456cb591461052d5780638bb0a17c14610541575f5ffd5b806352d1902d116101c05780636d65573f116101855780636d65573f14610425578063715018a61461045957806373f9a5d71461046d57806379f0dc571461048c5780637b334154146104b8575f5ffd5b806352d1902d1461037f5780635a25831a146103935780635a2f406f146103c75780635c975abb146103e65780636cfe372e146103fa575f5ffd5b80633c5bcf36116102065780633c5bcf36146102ed5780633f4ba83a146103255780634f1ef2861461033957806350c0d41c1461034c5780635290ffc61461036b575f5ffd5b806303d50d66146102425780631bc970fe14610269578063217c682d1461028a57806329c718b5146102ad5780633c193cc6146102d8575b5f5ffd5b34801561024d575f5ffd5b505f546002145b60405190151581526020015b60405180910390f35b348015610274575f5ffd5b506102886102833660046123e6565b610790565b005b348015610295575f5ffd5b5061029f60335481565b604051908152602001610260565b3480156102b8575f5ffd5b5061029f6102c7366004612418565b603b6020525f908152604090205481565b3480156102e3575f5ffd5b5061029f60385481565b3480156102f8575f5ffd5b50610254610307366004612418565b6001600160a01b03165f908152603760205260409020546064111590565b348015610330575f5ffd5b5061028861088f565b61028861034736600461244c565b6108a1565b348015610357575f5ffd5b50610288610366366004612510565b6108c0565b348015610376575f5ffd5b5061029f610dad565b34801561038a575f5ffd5b5061029f610e3b565b34801561039e575f5ffd5b5061029f6103ad366004612418565b6001600160a01b03165f9081526037602052604090205490565b3480156103d2575f5ffd5b506102886103e13660046123e6565b610e56565b3480156103f1575f5ffd5b50610254610f71565b348015610405575f5ffd5b5061029f610414366004612418565b60376020525f908152604090205481565b348015610430575f5ffd5b5061029f61043f366004612418565b6001600160a01b03165f908152603b602052604090205490565b348015610464575f5ffd5b50610288610f99565b348015610478575f5ffd5b50610288610487366004612569565b610faa565b348015610497575f5ffd5b506104ab6104a6366004612418565b6111b2565b60405161026091906125e8565b3480156104c3575f5ffd5b506102546104d2366004612418565b60326020525f908152604090205460ff1681565b3480156104f1575f5ffd5b5061029f61050036600461262a565b61121b565b348015610510575f5ffd5b50610288611246565b348015610524575f5ffd5b5061029f606481565b348015610538575f5ffd5b5061028861134e565b34801561054c575f5ffd5b5061056061055b3660046123e6565b61135e565b6040516102609796959493929190612680565b34801561057e575f5ffd5b50610587611430565b6040516001600160a01b039091168152602001610260565b3480156105aa575f5ffd5b506105be6105b93660046123e6565b61145e565b6040516102609190612731565b3480156105d6575f5ffd5b506102886105e53660046123e6565b6115bc565b3480156105f5575f5ffd5b5061029f60355481565b34801561060a575f5ffd5b5061062f604051806040016040528060058152602001640352e302e360dc1b81525081565b6040516102609190612743565b348015610647575f5ffd5b5061029f60345481565b34801561065c575f5ffd5b5061028861066b3660046123e6565b611676565b34801561067b575f5ffd5b5061029f60365481565b348015610690575f5ffd5b5061028861069f366004612755565b61175c565b3480156106af575f5ffd5b506102886106be36600461262a565b611811565b3480156106ce575f5ffd5b506102886106dd3660046123e6565b61197c565b3480156106ed575f5ffd5b506102886106fc3660046123e6565b611a2a565b34801561070c575f5ffd5b5061025461071b3660046123e6565b603d6020525f908152604090205460ff1681565b34801561073a575f5ffd5b5061029f60395481565b34801561074f575f5ffd5b5061028861075e366004612418565b611ad8565b34801561076e575f5ffd5b5061078261077d366004612786565b611b12565b6040516102609291906127a6565b335f9081526032602052604090205460ff16806107c557506107b0611430565b6001600160a01b0316336001600160a01b0316145b6107ea5760405162461bcd60e51b81526004016107e190612811565b60405180910390fd5b6107f2610f71565b1561080f5760405162461bcd60e51b81526004016107e190612839565b610817611d88565b5f81116108365760405162461bcd60e51b81526004016107e190612861565b8060395f82825461084791906128ac565b90915550506039546040519081527f183b8a54434f6b5b6e53ebd9db6e6ecec8b065c630a527f61c52b9770fb6248c906020015b60405180910390a161088c60015f55565b50565b610897611de5565b61089f611e17565b565b6108a9611e89565b6108b282611f2d565b6108bc8282611f35565b5050565b335f9081526032602052604090205460ff16806108f557506108e0611430565b6001600160a01b0316336001600160a01b0316145b6109115760405162461bcd60e51b81526004016107e190612811565b610919610f71565b156109365760405162461bcd60e51b81526004016107e190612839565b61093e611d88565b5f82116109825760405162461bcd60e51b8152602060048201526012602482015271125b9d985b1a59081b995d1ddbdc9ac8125160721b60448201526064016107e1565b803582146109ca5760405162461bcd60e51b8152602060048201526015602482015274135a5cdb585d18da1959081b995d1ddbdc9ac81251605a1b60448201526064016107e1565b5f6109db6040830160208401612418565b6001600160a01b031603610a285760405162461bcd60e51b8152602060048201526014602482015273496e76616c696420686f7374206164647265737360601b60448201526064016107e1565b6302faf08081604001351115610a785760405162461bcd60e51b815260206004820152601560248201527450726963652065786365656473206d6178696d756d60581b60448201526064016107e1565b5f610a8660608301836128bf565b905011610acc5760405162461bcd60e51b8152602060048201526014602482015273135bdb99dbd1185d185251081c995c5d5a5c995960621b60448201526064016107e1565b5f828152603d602052604090205460ff161580610b5e57610af36040830160208401612418565b5f848152603a60205260409020600101546001600160a01b03908116911614610b5e5760405162461bcd60e51b815260206004820152601760248201527f486f7374206368616e6765206e6f7420616c6c6f77656400000000000000000060448201526064016107e1565b6040518060e00160405280848152602001836020016020810190610b829190612418565b6001600160a01b03168152604080850135602083015201610ba660608501856128bf565b8080601f0160208091040260200160405190810160405280939291908181526020018383808284375f92019190915250505090825250602001610bef60a0850160808601612902565b1515815260200182610c11575f858152603a6020526040902060050154610c13565b425b8152426020918201525f858152603a825260409081902083518155918301516001830180546001600160a01b0319166001600160a01b03909216919091179055820151600282015560608201516003820190610c6f90826129a9565b50608082015160048201805460ff191691151591909117905560a0820151600582015560c0909101516006909101558015610d5c575f838152603d60209081526040808320805460ff19166001179055603c9291610cd1918601908601612418565b6001600160a01b0316815260208082019290925260409081015f90812080546001810182559082529083902001859055610d1091908401908401612418565b6001600160a01b0316837f3a3ee326dd9451112d67d1babdaf697562d06e41e2571ddd356b4e9be0de478e8460400135604051610d4f91815260200190565b60405180910390a3610da3565b610d6c6040830160208401612418565b6001600160a01b0316837f14796949d4d1a6824063ec05e354db666bde3356a8cf646c6075272b5353185c60405160405180910390a35b506108bc60015f55565b335f9081526032602052604081205460ff1680610de25750610dcd611430565b6001600160a01b0316336001600160a01b0316145b610dfe5760405162461bcd60e51b81526004016107e190612811565b610e06610f71565b15610e235760405162461bcd60e51b81526004016107e190612839565b60335f8154610e3190612a64565b9182905550905090565b5f610e44611ff6565b505f516020612aa85f395f51905f5290565b335f9081526032602052604090205460ff1680610e8b5750610e76611430565b6001600160a01b0316336001600160a01b0316145b610ea75760405162461bcd60e51b81526004016107e190612811565b5f818152603d602052604090205460ff16610efd5760405162461bcd60e51b815260206004820152601660248201527513995d1ddbdc9ac8191bd95cc81b9bdd08195e1a5cdd60521b60448201526064016107e1565b5f818152603a602052604090206004015460ff161561088c575f818152603a602052604080822060048101805460ff191690554260068201556001015490516001600160a01b039091169183917f14796949d4d1a6824063ec05e354db666bde3356a8cf646c6075272b5353185c9190a350565b7fcd5ed15c6e187e77e9aee88184c21f4f2182ab5827cb3b7e07fbedcd63f033005460ff1690565b610fa1611de5565b61089f5f61203f565b610fb2611de5565b6064821115610ff65760405162461bcd60e51b815260206004820152601060248201526f546f6f206d616e792063616c6c65727360801b60448201526064016107e1565b5f5b828110156111ac575f84848381811061101357611013612a7c565b90506020020160208101906110289190612418565b6001600160a01b0316036110775760405162461bcd60e51b8152602060048201526016602482015275496e76616c69642063616c6c6572206164647265737360501b60448201526064016107e1565b3084848381811061108a5761108a612a7c565b905060200201602081019061109f9190612418565b6001600160a01b0316036110e75760405162461bcd60e51b815260206004820152600f60248201526e21b0b73737ba1030b2321039b2b63360891b60448201526064016107e1565b8160325f8686858181106110fd576110fd612a7c565b90506020020160208101906111129190612418565b6001600160a01b0316815260208101919091526040015f20805460ff191691151591909117905583838281811061114b5761114b612a7c565b90506020020160208101906111609190612418565b6001600160a01b03167fd6fc3082ae3a144ca59421d96180398241c1dd021d45d5a24fb5bf96c9f8212f8360405161119c911515815260200190565b60405180910390a2600101610ff8565b50505050565b6001600160a01b0381165f908152603c602090815260409182902080548351818402810184019094528084526060939283018282801561120f57602002820191905f5260205f20905b8154815260200190600101908083116111fb575b50505050509050919050565b603c602052815f5260405f208181548110611234575f80fd5b905f5260205f20015f91509150505481565b5f61124f6120af565b805490915060ff600160401b820416159067ffffffffffffffff165f811580156112765750825b90505f8267ffffffffffffffff1660011480156112925750303b155b9050811580156112a0575080155b156112be5760405163f92ee8a960e01b815260040160405180910390fd5b845467ffffffffffffffff1916600117855583156112e857845460ff60401b1916600160401b1785555b6112f1336120d9565b6112f96120ea565b6113016120f2565b831561134757845460ff60401b19168555604051600181527fc7f505b2f371ae2175ee4913f4499e1f2633a7b5936321eed1cdaeb6115181d29060200160405180910390a15b5050505050565b611356611de5565b61089f612102565b603a6020525f9081526040902080546001820154600283015460038401805493946001600160a01b03909316939192916113979061291b565b80601f01602080910402602001604051908101604052809291908181526020018280546113c39061291b565b801561140e5780601f106113e55761010080835404028352916020019161140e565b820191905f5260205f20905b8154815290600101906020018083116113f157829003601f168201915b5050505060048301546005840154600690940154929360ff9091169290915087565b7f9016d09d72d40fdae2fd8ceac6b6234c7706214fd39c1cd1e609a0528c199300546001600160a01b031690565b6114666123a4565b5f828152603d602052604090205460ff166114bc5760405162461bcd60e51b815260206004820152601660248201527513995d1ddbdc9ac8191bd95cc81b9bdd08195e1a5cdd60521b60448201526064016107e1565b5f828152603a6020908152604091829020825160e0810184528154815260018201546001600160a01b0316928101929092526002810154928201929092526003820180549192916060840191906115129061291b565b80601f016020809104026020016040519081016040528092919081815260200182805461153e9061291b565b80156115895780601f1061156057610100808354040283529160200191611589565b820191905f5260205f20905b81548152906001019060200180831161156c57829003601f168201915b5050509183525050600482015460ff16151560208201526005820154604082015260069091015460609091015292915050565b335f9081526032602052604090205460ff16806115f157506115dc611430565b6001600160a01b0316336001600160a01b0316145b61160d5760405162461bcd60e51b81526004016107e190612811565b611615610f71565b156116325760405162461bcd60e51b81526004016107e190612839565b61163a611d88565b5f81116116595760405162461bcd60e51b81526004016107e190612861565b8060365f82825461166a91906128ac565b909155505060015f5550565b335f9081526032602052604090205460ff16806116ab5750611696611430565b6001600160a01b0316336001600160a01b0316145b6116c75760405162461bcd60e51b81526004016107e190612811565b6116cf610f71565b156116ec5760405162461bcd60e51b81526004016107e190612839565b6116f4611d88565b5f81116117135760405162461bcd60e51b81526004016107e190612861565b8060385f82825461172491906128ac565b90915550506038546040519081527f1d11f8b15a90a85b46868efd6382dd5207f4ab305c5180d209b6250b028aada89060200161087b565b611764611de5565b6001600160a01b0382166117b35760405162461bcd60e51b8152602060048201526016602482015275496e76616c69642063616c6c6572206164647265737360501b60448201526064016107e1565b6001600160a01b0382165f81815260326020908152604091829020805460ff191685151590811790915591519182527fd6fc3082ae3a144ca59421d96180398241c1dd021d45d5a24fb5bf96c9f8212f910160405180910390a25050565b335f9081526032602052604090205460ff16806118465750611831611430565b6001600160a01b0316336001600160a01b0316145b6118625760405162461bcd60e51b81526004016107e190612811565b61186a610f71565b156118875760405162461bcd60e51b81526004016107e190612839565b61188f611d88565b6001600160a01b0382166118dc5760405162461bcd60e51b8152602060048201526014602482015273496e76616c696420686f7374206164647265737360601b60448201526064016107e1565b5f81116118fb5760405162461bcd60e51b81526004016107e190612861565b6001600160a01b0382165f908152603b6020526040812080548392906119229084906128ac565b90915550506001600160a01b0382165f818152603b60209081526040918290205491519182527f61a8b1a557e4d03803db90d13ff76db2c25fba3ed24882cecda8c8423b9b2be0910160405180910390a26108bc60015f55565b335f9081526032602052604090205460ff16806119b1575061199c611430565b6001600160a01b0316336001600160a01b0316145b6119cd5760405162461bcd60e51b81526004016107e190612811565b6119d5610f71565b156119f25760405162461bcd60e51b81526004016107e190612839565b6119fa611d88565b5f8111611a195760405162461bcd60e51b81526004016107e190612861565b8060355f82825461166a91906128ac565b335f9081526032602052604090205460ff1680611a5f5750611a4a611430565b6001600160a01b0316336001600160a01b0316145b611a7b5760405162461bcd60e51b81526004016107e190612811565b611a83610f71565b15611aa05760405162461bcd60e51b81526004016107e190612839565b611aa8611d88565b5f8111611ac75760405162461bcd60e51b81526004016107e190612861565b8060345f82825461166a91906128ac565b611ae0611de5565b6001600160a01b038116611b0957604051631e4fbdf760e01b81525f60048201526024016107e1565b61088c8161203f565b603354606090801580611b255750808410155b15611b6257604080515f8082526020820190925290611b5a565b611b476123a4565b815260200190600190039081611b3f5790505b509150611d81565b5f611b6d84866128ac565b905081811115611b7a5750805b5f855b82811015611bc157603d5f611b938360016128ac565b815260208101919091526040015f205460ff1615611bb95781611bb581612a64565b9250505b600101611b7d565b505f8167ffffffffffffffff811115611bdc57611bdc612438565b604051908082528060200260200182016040528015611c1557816020015b611c026123a4565b815260200190600190039081611bfa5790505b5090505f875b84811015611d79575f611c2f8260016128ac565b5f818152603d602052604090205490915060ff1615611d70575f818152603a6020908152604091829020825160e0810184528154815260018201546001600160a01b031692810192909252600281015492820192909252600382018054919291606084019190611c9e9061291b565b80601f0160208091040260200160405190810160405280929190818152602001828054611cca9061291b565b8015611d155780601f10611cec57610100808354040283529160200191611d15565b820191905f5260205f20905b815481529060010190602001808311611cf857829003601f168201915b5050509183525050600482015460ff1615156020820152600582015460408201526006909101546060909101528451859085908110611d5657611d56612a7c565b60200260200101819052508280611d6c90612a64565b9350505b50600101611c1b565b509094505050505b9250929050565b60025f5403611dd95760405162461bcd60e51b815260206004820152601f60248201527f5265656e7472616e637947756172643a207265656e7472616e742063616c6c0060448201526064016107e1565b60025f55565b60015f55565b33611dee611430565b6001600160a01b03161461089f5760405163118cdaa760e01b81523360048201526024016107e1565b611e1f61215d565b7fcd5ed15c6e187e77e9aee88184c21f4f2182ab5827cb3b7e07fbedcd63f03300805460ff191681557f5db9ee0a495bf2e6ff9c91a7834c1ba4fdd244a5e8aa4e537bd38aeae4b073aa335b6040516001600160a01b03909116815260200160405180910390a150565b306001600160a01b037f0000000000000000000000000000000000000000000000000000000000000000161480611f0f57507f00000000000000000000000000000000000000000000000000000000000000006001600160a01b0316611f035f516020612aa85f395f51905f52546001600160a01b031690565b6001600160a01b031614155b1561089f5760405163703e46dd60e11b815260040160405180910390fd5b61088c611de5565b816001600160a01b03166352d1902d6040518163ffffffff1660e01b8152600401602060405180830381865afa925050508015611f8f575060408051601f3d908101601f19168201909252611f8c91810190612a90565b60015b611fb757604051634c9c8ce360e01b81526001600160a01b03831660048201526024016107e1565b5f516020612aa85f395f51905f528114611fe757604051632a87526960e21b8152600481018290526024016107e1565b611ff18383612182565b505050565b306001600160a01b037f0000000000000000000000000000000000000000000000000000000000000000161461089f5760405163703e46dd60e11b815260040160405180910390fd5b7f9016d09d72d40fdae2fd8ceac6b6234c7706214fd39c1cd1e609a0528c19930080546001600160a01b031981166001600160a01b03848116918217845560405192169182907f8be0079c531659141344cd1fd0a4f28419497f9722a3daafe3b4186f6b6457e0905f90a3505050565b5f807ff0c57e16840df040f15088dc2f81fe391c3923bec73e23a9662efc9c229c6a005b92915050565b6120e16121d7565b61088c816121fc565b61089f6121d7565b6120fa6121d7565b61089f612204565b61210a61220c565b7fcd5ed15c6e187e77e9aee88184c21f4f2182ab5827cb3b7e07fbedcd63f03300805460ff191660011781557f62e78cea01bee320cd4e420270b5ea74000d11b0c9f74754ebdbfc544b05a25833611e6b565b612165610f71565b61089f57604051638dfc202b60e01b815260040160405180910390fd5b61218b82612232565b6040516001600160a01b038316907fbc7cd75a20ee27fd9adebab32041f755214dbc6bffa90cc0225b39da2e5c2d3b905f90a28051156121cf57611ff18282612295565b6108bc612335565b6121df612354565b61089f57604051631afcd79f60e31b815260040160405180910390fd5b611ae06121d7565b611ddf6121d7565b612214610f71565b1561089f5760405163d93c066560e01b815260040160405180910390fd5b806001600160a01b03163b5f0361226757604051634c9c8ce360e01b81526001600160a01b03821660048201526024016107e1565b5f516020612aa85f395f51905f5280546001600160a01b0319166001600160a01b0392909216919091179055565b60605f6122a2848461236d565b90508080156122c357505f3d11806122c357505f846001600160a01b03163b115b156122d8576122d0612380565b9150506120d3565b801561230257604051639996b31560e01b81526001600160a01b03851660048201526024016107e1565b3d1561231557612310612399565b61232e565b60405163d6bda27560e01b815260040160405180910390fd5b5092915050565b341561089f5760405163b398979f60e01b815260040160405180910390fd5b5f61235d6120af565b54600160401b900460ff16919050565b5f5f5f835160208501865af49392505050565b6040513d81523d5f602083013e3d602001810160405290565b6040513d5f823e3d81fd5b6040518060e001604052805f81526020015f6001600160a01b031681526020015f8152602001606081526020015f151581526020015f81526020015f81525090565b5f602082840312156123f6575f5ffd5b5035919050565b80356001600160a01b0381168114612413575f5ffd5b919050565b5f60208284031215612428575f5ffd5b612431826123fd565b9392505050565b634e487b7160e01b5f52604160045260245ffd5b5f5f6040838503121561245d575f5ffd5b612466836123fd565b9150602083013567ffffffffffffffff811115612481575f5ffd5b8301601f81018513612491575f5ffd5b803567ffffffffffffffff8111156124ab576124ab612438565b604051601f8201601f19908116603f0116810167ffffffffffffffff811182821017156124da576124da612438565b6040528181528282016020018710156124f1575f5ffd5b816020840160208301375f602083830101528093505050509250929050565b5f5f60408385031215612521575f5ffd5b82359150602083013567ffffffffffffffff81111561253e575f5ffd5b830160e0818603121561254f575f5ffd5b809150509250929050565b80358015158114612413575f5ffd5b5f5f5f6040848603121561257b575f5ffd5b833567ffffffffffffffff811115612591575f5ffd5b8401601f810186136125a1575f5ffd5b803567ffffffffffffffff8111156125b7575f5ffd5b8660208260051b84010111156125cb575f5ffd5b6020918201945092506125df90850161255a565b90509250925092565b602080825282518282018190525f918401906040840190835b8181101561261f578351835260209384019390920191600101612601565b509095945050505050565b5f5f6040838503121561263b575f5ffd5b612644836123fd565b946020939093013593505050565b5f81518084528060208401602086015e5f602082860101526020601f19601f83011685010191505092915050565b87815260018060a01b038716602082015285604082015260e060608201525f6126ac60e0830187612652565b94151560808301525060a081019290925260c090910152949350505050565b8051825260018060a01b036020820151166020830152604081015160408301525f606082015160e0606085015261270560e0850182612652565b905060808301511515608085015260a083015160a085015260c083015160c08501528091505092915050565b602081525f61243160208301846126cb565b602081525f6124316020830184612652565b5f5f60408385031215612766575f5ffd5b61276f836123fd565b915061277d6020840161255a565b90509250929050565b5f5f60408385031215612797575f5ffd5b50508035926020909101359150565b5f604082016040835280855180835260608501915060608160051b8601019250602087015f5b828110156127fd57605f198786030184526127e88583516126cb565b945060209384019391909101906001016127cc565b505050506020929092019290925292915050565b6020808252600e908201526d139bdd08185d5d1a1bdc9a5e995960921b604082015260600190565b6020808252600e908201526d14dd1bdc9859d9481c185d5cd95960921b604082015260600190565b6020808252601d908201527f416d6f756e74206d7573742062652067726561746572207468616e2030000000604082015260600190565b634e487b7160e01b5f52601160045260245ffd5b808201808211156120d3576120d3612898565b5f5f8335601e198436030181126128d4575f5ffd5b83018035915067ffffffffffffffff8211156128ee575f5ffd5b602001915036819003821315611d81575f5ffd5b5f60208284031215612912575f5ffd5b6124318261255a565b600181811c9082168061292f57607f821691505b60208210810361294d57634e487b7160e01b5f52602260045260245ffd5b50919050565b601f821115611ff15782821115611ff157805f5260205f20601f840160051c602085101561297e57505f5b90810190601f840160051c035f5b818110156129a1575f8382015560010161298c565b505050505050565b815167ffffffffffffffff8111156129c3576129c3612438565b6129d7816129d1845461291b565b84612953565b6020601f821160018114612a09575f83156129f25750848201515b5f19600385901b1c1916600184901b178455611347565b5f84815260208120601f198516915b82811015612a385787850151825560209485019460019092019101612a18565b5084821015612a5557868401515f19600387901b60f8161c191681555b50505050600190811b01905550565b5f60018201612a7557612a75612898565b5060010190565b634e487b7160e01b5f52603260045260245ffd5b5f60208284031215612aa0575f5ffd5b505191905056fe360894a13ba1a3210667c828492db98dca3e2076cc3735a920a3ca505d382bbca2646970667358221220011510122a68784600348916bcf3e529c32d6b964381de45aff94fe5009c281964736f6c63430008210033","linkReferences":{}},"methodIdentifiers":{"MAX_NETWORKS_PER_HOST()":"83195f8c","UPGRADE_INTERFACE_VERSION()":"ad3cb1cc","allowedCallers(address)":"7b334154","emergencyDeactivateNetwork(uint256)":"5a2f406f","getHostEarnings(address)":"6d65573f","getHostNetworkCount(address)":"5a25831a","getHostNetworks(address)":"79f0dc57","getNetwork(uint256)":"95ea5717","getNetworksPaginated(uint256,uint256)":"fa9c81a4","hasReachedNetworkLimit(address)":"3c5bcf36","hostEarnings(address)":"29c718b5","hostNetworkCount(address)":"6cfe372e","hostNetworkIds(address,uint256)":"7bae8f5e","increaseClientVoucherFeeEarnings(uint256)":"d3158e13","increaseHostEarnings(address,uint256)":"e1c7a8aa","increaseHostVoucherFeeEarnings(uint256)":"1bc970fe","incrementNetworkId()":"5290ffc6","initialize()":"8129fc1c","isReentrancyGuardActive()":"03d50d66","networkExists(uint256)":"ec13f2a1","networkIdCounter()":"217c682d","networks(uint256)":"8bb0a17c","owner()":"8da5cb5b","pause()":"8456cb59","paused()":"5c975abb","proxiableUUID()":"52d1902d","renounceOwnership()":"715018a6","setAllowedCaller(address,bool)":"d8b0e716","setAllowedCallers(address[],bool)":"73f9a5d7","setNetwork(uint256,(uint256,address,uint256,string,bool,uint256,uint256))":"50c0d41c","totalClientVoucherFeeAmount()":"3c193cc6","totalHostVoucherFeeAmount()":"f2b887d3","totalHostingFeeAmount()":"d473d18b","totalSessionPaymentsAmount()":"d1a08e07","totalWithdrawalsAmount()":"ad2c30b1","transferOwnership(address)":"f2fde38b","unpause()":"3f4ba83a","updateTotalHostingFeeAmount(uint256)":"a8fb85ac","updateTotalSessionPaymentsAmount(uint256)":"e867cecf","updateZaanetWithdrawalsAmount(uint256)":"e4938a4f","upgradeToAndCall(address,bytes)":"4f1ef286"},"id":4}