{
  "_format": "hh-sol-artifact-1",
  "contractName": "ZaaNetPayment",
  "sourceName": "contracts/ZaaNetPayment.sol",
  "abi": [
    {
      "inputs": [
        {
          "internalType": "address",
          "name": "_usdt",
          "type": "address"
        },
        {
          "internalType": "address",
          "name": "_storageContract",
          "type": "address"
        },
        {
          "internalType": "address",
          "name": "_adminContract",
          "type": "address"
        },
        {
          "internalType": "address",
          "name": "_networkContract",
          "type": "address"
        }
      ],
      "stateMutability": "nonpayable",
      "type": "constructor"
    },
    {
      "inputs": [],
      "name": "EnforcedPause",
      "type": "error"
    },
    {
      "inputs": [],
      "name": "ExpectedPause",
      "type": "error"
    },
    {
      "inputs": [
        {
          "internalType": "address",
          "name": "owner",
          "type": "address"
        }
      ],
      "name": "OwnableInvalidOwner",
      "type": "error"
    },
    {
      "inputs": [
        {
          "internalType": "address",
          "name": "account",
          "type": "address"
        }
      ],
      "name": "OwnableUnauthorizedAccount",
      "type": "error"
    },
    {
      "inputs": [],
      "name": "ReentrancyGuardReentrantCall",
      "type": "error"
    },
    {
      "inputs": [
        {
          "internalType": "address",
          "name": "token",
          "type": "address"
        }
      ],
      "name": "SafeERC20FailedOperation",
      "type": "error"
    },
    {
      "anonymous": false,
      "inputs": [
        {
          "indexed": false,
          "internalType": "uint256",
          "name": "batchSize",
          "type": "uint256"
        },
        {
          "indexed": false,
          "internalType": "uint256",
          "name": "totalAmount",
          "type": "uint256"
        },
        {
          "indexed": false,
          "internalType": "uint256",
          "name": "totalPlatformFee",
          "type": "uint256"
        }
      ],
      "name": "BatchPaymentProcessed",
      "type": "event"
    },
    {
      "anonymous": false,
      "inputs": [
        {
          "indexed": true,
          "internalType": "address",
          "name": "treasury",
          "type": "address"
        },
        {
          "indexed": false,
          "internalType": "uint256",
          "name": "attemptedAmount",
          "type": "uint256"
        },
        {
          "indexed": false,
          "internalType": "uint256",
          "name": "dailyLimit",
          "type": "uint256"
        },
        {
          "indexed": false,
          "internalType": "uint256",
          "name": "alreadyWithdrawn",
          "type": "uint256"
        }
      ],
      "name": "DailyLimitExceeded",
      "type": "event"
    },
    {
      "anonymous": false,
      "inputs": [
        {
          "indexed": true,
          "internalType": "address",
          "name": "host",
          "type": "address"
        },
        {
          "indexed": true,
          "internalType": "uint8",
          "name": "tier",
          "type": "uint8"
        },
        {
          "indexed": false,
          "internalType": "uint256",
          "name": "voucherCount",
          "type": "uint256"
        },
        {
          "indexed": false,
          "internalType": "uint256",
          "name": "totalFee",
          "type": "uint256"
        },
        {
          "indexed": false,
          "internalType": "uint256",
          "name": "timestamp",
          "type": "uint256"
        }
      ],
      "name": "HostVouchersRegistered",
      "type": "event"
    },
    {
      "anonymous": false,
      "inputs": [
        {
          "indexed": true,
          "internalType": "address",
          "name": "previousOwner",
          "type": "address"
        },
        {
          "indexed": true,
          "internalType": "address",
          "name": "newOwner",
          "type": "address"
        }
      ],
      "name": "OwnershipTransferred",
      "type": "event"
    },
    {
      "anonymous": false,
      "inputs": [
        {
          "indexed": false,
          "internalType": "address",
          "name": "account",
          "type": "address"
        }
      ],
      "name": "Paused",
      "type": "event"
    },
    {
      "anonymous": false,
      "inputs": [
        {
          "indexed": true,
          "internalType": "bytes32",
          "name": "voucherId",
          "type": "bytes32"
        },
        {
          "indexed": true,
          "internalType": "uint256",
          "name": "contractId",
          "type": "uint256"
        },
        {
          "indexed": true,
          "internalType": "address",
          "name": "host",
          "type": "address"
        },
        {
          "indexed": false,
          "internalType": "address",
          "name": "payer",
          "type": "address"
        },
        {
          "indexed": false,
          "internalType": "uint256",
          "name": "grossAmount",
          "type": "uint256"
        },
        {
          "indexed": false,
          "internalType": "uint256",
          "name": "platformFee",
          "type": "uint256"
        },
        {
          "indexed": false,
          "internalType": "uint256",
          "name": "hostAmount",
          "type": "uint256"
        },
        {
          "indexed": false,
          "internalType": "uint256",
          "name": "timestamp",
          "type": "uint256"
        }
      ],
      "name": "PaymentProcessed",
      "type": "event"
    },
    {
      "anonymous": false,
      "inputs": [
        {
          "indexed": false,
          "internalType": "address",
          "name": "account",
          "type": "address"
        }
      ],
      "name": "Unpaused",
      "type": "event"
    },
    {
      "inputs": [],
      "name": "MAX_FEERATE_PERCENT",
      "outputs": [
        {
          "internalType": "uint256",
          "name": "",
          "type": "uint256"
        }
      ],
      "stateMutability": "view",
      "type": "function"
    },
    {
      "inputs": [],
      "name": "MAX_INDIVIDUAL_PAYMENT",
      "outputs": [
        {
          "internalType": "uint256",
          "name": "",
          "type": "uint256"
        }
      ],
      "stateMutability": "view",
      "type": "function"
    },
    {
      "inputs": [],
      "name": "adminContract",
      "outputs": [
        {
          "internalType": "contract IZaaNetAdmin",
          "name": "",
          "type": "address"
        }
      ],
      "stateMutability": "view",
      "type": "function"
    },
    {
      "inputs": [],
      "name": "contractTokenBalance",
      "outputs": [
        {
          "internalType": "uint256",
          "name": "",
          "type": "uint256"
        }
      ],
      "stateMutability": "view",
      "type": "function"
    },
    {
      "inputs": [],
      "name": "dailyWithdrawalLimit",
      "outputs": [
        {
          "internalType": "uint256",
          "name": "",
          "type": "uint256"
        }
      ],
      "stateMutability": "view",
      "type": "function"
    },
    {
      "inputs": [
        {
          "internalType": "uint256",
          "name": "",
          "type": "uint256"
        }
      ],
      "name": "dailyWithdrawals",
      "outputs": [
        {
          "internalType": "uint256",
          "name": "",
          "type": "uint256"
        }
      ],
      "stateMutability": "view",
      "type": "function"
    },
    {
      "inputs": [],
      "name": "getRemainingDailyLimit",
      "outputs": [
        {
          "internalType": "uint256",
          "name": "",
          "type": "uint256"
        }
      ],
      "stateMutability": "view",
      "type": "function"
    },
    {
      "inputs": [],
      "name": "getTodayWithdrawals",
      "outputs": [
        {
          "internalType": "uint256",
          "name": "",
          "type": "uint256"
        }
      ],
      "stateMutability": "view",
      "type": "function"
    },
    {
      "inputs": [
        {
          "internalType": "bytes32",
          "name": "_voucherId",
          "type": "bytes32"
        }
      ],
      "name": "isVoucherProcessed",
      "outputs": [
        {
          "internalType": "bool",
          "name": "",
          "type": "bool"
        }
      ],
      "stateMutability": "view",
      "type": "function"
    },
    {
      "inputs": [],
      "name": "networkContract",
      "outputs": [
        {
          "internalType": "contract IZaaNetNetwork",
          "name": "",
          "type": "address"
        }
      ],
      "stateMutability": "view",
      "type": "function"
    },
    {
      "inputs": [],
      "name": "owner",
      "outputs": [
        {
          "internalType": "address",
          "name": "",
          "type": "address"
        }
      ],
      "stateMutability": "view",
      "type": "function"
    },
    {
      "inputs": [],
      "name": "pause",
      "outputs": [],
      "stateMutability": "nonpayable",
      "type": "function"
    },
    {
      "inputs": [],
      "name": "paused",
      "outputs": [
        {
          "internalType": "bool",
          "name": "",
          "type": "bool"
        }
      ],
      "stateMutability": "view",
      "type": "function"
    },
    {
      "inputs": [
        {
          "components": [
            {
              "internalType": "uint256",
              "name": "contractId",
              "type": "uint256"
            },
            {
              "internalType": "uint256",
              "name": "grossAmount",
              "type": "uint256"
            },
            {
              "internalType": "bytes32",
              "name": "voucherId",
              "type": "bytes32"
            }
          ],
          "internalType": "struct ZaaNetPayment.BatchPayment[]",
          "name": "payments",
          "type": "tuple[]"
        }
      ],
      "name": "processBatchPayments",
      "outputs": [],
      "stateMutability": "nonpayable",
      "type": "function"
    },
    {
      "inputs": [
        {
          "internalType": "uint256",
          "name": "_contractId",
          "type": "uint256"
        },
        {
          "internalType": "uint256",
          "name": "_grossAmount",
          "type": "uint256"
        },
        {
          "internalType": "bytes32",
          "name": "_voucherId",
          "type": "bytes32"
        }
      ],
      "name": "processPayment",
      "outputs": [],
      "stateMutability": "nonpayable",
      "type": "function"
    },
    {
      "inputs": [
        {
          "internalType": "bytes32",
          "name": "",
          "type": "bytes32"
        }
      ],
      "name": "processedVouchers",
      "outputs": [
        {
          "internalType": "bool",
          "name": "",
          "type": "bool"
        }
      ],
      "stateMutability": "view",
      "type": "function"
    },
    {
      "inputs": [
        {
          "internalType": "bytes32[]",
          "name": "voucherIds",
          "type": "bytes32[]"
        },
        {
          "internalType": "uint8",
          "name": "tier",
          "type": "uint8"
        }
      ],
      "name": "registerHostVouchersAndPayFee",
      "outputs": [],
      "stateMutability": "nonpayable",
      "type": "function"
    },
    {
      "inputs": [],
      "name": "renounceOwnership",
      "outputs": [],
      "stateMutability": "nonpayable",
      "type": "function"
    },
    {
      "inputs": [
        {
          "internalType": "address",
          "name": "_erc20",
          "type": "address"
        },
        {
          "internalType": "address",
          "name": "_to",
          "type": "address"
        },
        {
          "internalType": "uint256",
          "name": "_amount",
          "type": "uint256"
        }
      ],
      "name": "rescueERC20",
      "outputs": [],
      "stateMutability": "nonpayable",
      "type": "function"
    },
    {
      "inputs": [
        {
          "internalType": "uint256",
          "name": "_newLimit",
          "type": "uint256"
        }
      ],
      "name": "setDailyWithdrawalLimit",
      "outputs": [],
      "stateMutability": "nonpayable",
      "type": "function"
    },
    {
      "inputs": [],
      "name": "storageContract",
      "outputs": [
        {
          "internalType": "contract IZaaNetStorage",
          "name": "",
          "type": "address"
        }
      ],
      "stateMutability": "view",
      "type": "function"
    },
    {
      "inputs": [],
      "name": "tokenDecimals",
      "outputs": [
        {
          "internalType": "uint8",
          "name": "",
          "type": "uint8"
        }
      ],
      "stateMutability": "view",
      "type": "function"
    },
    {
      "inputs": [
        {
          "internalType": "address",
          "name": "newOwner",
          "type": "address"
        }
      ],
      "name": "transferOwnership",
      "outputs": [],
      "stateMutability": "nonpayable",
      "type": "function"
    },
    {
      "inputs": [],
      "name": "unpause",
      "outputs": [],
      "stateMutability": "nonpayable",
      "type": "function"
    },
    {
      "inputs": [],
      "name": "usdt",
      "outputs": [
        {
          "internalType": "contract IERC20",
          "name": "",
          "type": "address"
        }
      ],
      "stateMutability": "view",
      "type": "function"
    },
    {
      "inputs": [
        {
          "internalType": "address",
          "name": "_to",
          "type": "address"
        },
        {
          "internalType": "uint256",
          "name": "_amount",
          "type": "uint256"
        }
      ],
      "name": "withdrawToken",
      "outputs": [],
      "stateMutability": "nonpayable",
      "type": "function"
    }
  ],
  "bytecode": "0x60808060405234610311576080816124c1803803809161001f8285610316565b833981010312610311576100328161034f565b9061003f6020820161034f565b9061005860606100516040840161034f565b920161034f565b9133156102fb5760008054336001600160a01b0319821681178355604051969290916001600160a01b0316907f8be0079c531659141344cd1fd0a4f28419497f9722a3daafe3b4186f6b6457e09080a3600180556402540be4006006556001600160a01b03169384156102cc57506001600160a01b0316908115610298576001600160a01b0316918215610266576001600160a01b031692831561023257600280546001600160a01b03198116831790915560405163313ce56760e01b8152909190602081600481855afa908115610226576000916101e2575b506001600160a81b03199092161760a091821b60ff60a01b16176002819055600519911c60ff160161019d5760018060a01b0319600354161760035560018060a01b0319600454161760045560018060a01b0319600554161760055560405161215d90816103648239f35b60405162461bcd60e51b815260206004820152601860248201527f546f6b656e20646563696d616c73206d757374206265203600000000000000006044820152606490fd5b6020813d60201161021e575b816101fb60209383610316565b8101031261021a57519060ff82168203610217575060ff610132565b80fd5b5080fd5b3d91506101ee565b6040513d6000823e3d90fd5b60405162461bcd60e51b815260206004820152600c60248201526b6e6574776f726b207a65726f60a01b6044820152606490fd5b60405162461bcd60e51b815260206004820152600a60248201526961646d696e207a65726f60b01b6044820152606490fd5b60405162461bcd60e51b815260206004820152600c60248201526b73746f72616765207a65726f60a01b6044820152606490fd5b62461bcd60e51b815260206004820152600a602482015269746f6b656e207a65726f60b01b6044820152606490fd5b631e4fbdf760e01b600052600060045260246000fd5b600080fd5b601f909101601f19168101906001600160401b0382119082101761033957604052565b634e487b7160e01b600052604160045260246000fd5b51906001600160a01b03821682036103115756fe6080604052600436101561001257600080fd5b6000803560e01c806305483a1514611a765780630604bfa41461024157806311ce026714611a4d5780632f48ab7d14611a2457806333770245146119fa5780633b97e856146119d65780633f4ba83a146119685780634342482d146113415780634cf4caa5146113225780635b3c0528146113065780635c975abb146112e1578063715018a6146112875780637620843a146112695780637ddd23e114610a235780638456cb59146109c25780638da5cb5b1461099b5780639e281a98146107735780639e7b7218146104075780639e9aed621461036d578063a15f39e81461034a578063b2118a8d14610270578063b9a2454414610241578063c05c5e9414610218578063c4d276bc146101ec578063f2fde38b146101665763f842c2131461013b57600080fd5b346101635780600319360112610163576005546040516001600160a01b039091168152602090f35b80fd5b503461016357602036600319011261016357610180611ad4565b610188612017565b6001600160a01b031680156101d85781546001600160a01b03198116821783556001600160a01b03167f8be0079c531659141344cd1fd0a4f28419497f9722a3daafe3b4186f6b6457e08380a380f35b631e4fbdf760e01b82526004829052602482fd5b503461016357806003193601126101635760406020916201518042048152600783522054604051908152f35b50346101635780600319360112610163576004546040516001600160a01b039091168152602090f35b50346101635760203660031901126101635760ff60406020926004358152600884522054166040519015158152f35b50346101635760603660031901126101635761028a611ad4565b602435906001600160a01b038216808303610346576102a7612017565b15610317576002546001600160a01b03918216911681146102d2576102cf9160443591612082565b80f35b60405162461bcd60e51b815260206004820152601b60248201527f43616e6e6f7420726573637565207061796d656e7420746f6b656e00000000006044820152606490fd5b60405162461bcd60e51b81526020600482015260076024820152667a65726f20746f60c81b6044820152606490fd5b8380fd5b50346101635780600319360112610163576020610365611fe4565b604051908152f35b50346101635780600319360112610163576002546040516370a0823160e01b81523060048201529190602090839060249082906001600160a01b03165afa9081156103fb57906103c3575b602090604051908152f35b506020813d6020116103f3575b816103dd60209383611aea565b810103126103ee57602090516103b8565b600080fd5b3d91506103d0565b604051903d90823e3d90fd5b50346101635760403660031901126101635760043567ffffffffffffffff811161060a573660238201121561060a5780600401359067ffffffffffffffff821161076f57602436918360051b01011161060a576024359060ff821680920361076f57610471612040565b610479612060565b801561073c5760028211610708576004805460405163b110bb5b60e01b81529182018490526001600160a01b03169190602081602481865afa90811561064d5785916106d6575b50801561069157816104d191611fc4565b9182156106585760206004916040519283809263c5f956af60e01b82525afa801561064d57859061060e575b61055a91506001600160a01b0316610516811515611ead565b6002546040516323b872dd60e01b60208201523360248201526044810192909252606480830186905282526001600160a01b0316610555608483611aea565b6120c0565b60035484906001600160a01b0316803b1561060a57818091602460405180948193630de4b87f60e11b83528960048401525af180156105ff576105ea575b50506105e07fa249fcbab6d1e1af4f18545c0073c1775a962c44cbb61ce270d72f7952438f5a9160405191829133954291846040919493926060820195825260208201520152565b0390a36001805580f35b816105f491611aea565b610346578338610598565b6040513d84823e3d90fd5b5080fd5b506020813d602011610645575b8161062860209383611aea565b810103126106415761063c61055a91611b22565b6104fd565b8480fd5b3d915061061b565b6040513d87823e3d90fd5b60405162461bcd60e51b8152602060048201526011602482015270546f74616c20666565206973207a65726f60781b6044820152606490fd5b60405162461bcd60e51b815260206004820152601860248201527f486f737420766f756368657220666565206e6f742073657400000000000000006044820152606490fd5b90506020813d602011610700575b816106f160209383611aea565b810103126103ee5751386104c0565b3d91506106e4565b60405162461bcd60e51b815260206004820152600c60248201526b24b73b30b634b2103a34b2b960a11b6044820152606490fd5b60405162461bcd60e51b815260206004820152600b60248201526a4e6f20766f75636865727360a81b6044820152606490fd5b8280fd5b50346101635760403660031901126101635761078d611ad4565b602435610798612017565b6001600160a01b03821615610956578015610912576002546040516370a0823160e01b815230600482015290602090829060249082906001600160a01b03165afa801561090757829085906108d1575b6107f492501015611f78565b6107fc611fe4565b811161088c576108378184936201518042048552600760205260408520610824838254611eec565b90556002546001600160a01b0316612082565b6003546001600160a01b031690813b1561088857829160248392604051948593849263e4938a4f60e01b845260048401525af180156105ff576108775750f35b8161088191611aea565b6101635780f35b5050fd5b60405162461bcd60e51b815260206004820152601e60248201527f45786365656473206461696c79207769746864726177616c206c696d697400006044820152606490fd5b50506020813d6020116108ff575b816108ec60209383611aea565b810103126103ee57816107f491516107e8565b3d91506108df565b6040513d86823e3d90fd5b606460405162461bcd60e51b815260206004820152602060248201527f416d6f756e74206d7573742062652067726561746572207468616e207a65726f6044820152fd5b60405162461bcd60e51b815260206004820152601960248201527f496e76616c696420726563697069656e742061646472657373000000000000006044820152606490fd5b5034610163578060031936011261016357546040516001600160a01b039091168152602090f35b50346101635780600319360112610163576109db612017565b6109e3612040565b805460ff60a01b1916600160a01b1781556040513381527f62e78cea01bee320cd4e420270b5ea74000d11b0c9f74754ebdbfc544b05a25890602090a180f35b50346101635760203660031901126101635760043567ffffffffffffffff811161060a573660238201121561060a5780600401359067ffffffffffffffff821161076f576024810190602436916060850201011161076f57610a83612040565b610a8b612060565b60018060a01b03600454169160405163319a11df60e11b8152602081600481875afa801561064d57859061122e575b610acf91506001600160a01b03163314611b36565b60405162482fab60e51b8152602081600481875afa801561064d5785906111f3575b610afc915015611b85565b801515806111e8575b156111ae57604051638c639a8560e01b815292849290602085600481845afa94851561116c578695611177575b50906020600492610b466014881115611e72565b60405163c5f956af60e01b815293849182905afa91821561116c57869261112c575b50610b7d6001600160a01b0383161515611ead565b60035460055487916001600160a01b0391821691165b858310610f6a57505050610bb0610ba8611fe4565b851115611bc9565b6201518042048652600760205260408620610bcc858254611eec565b90556002546040516370a0823160e01b815230600482015290602090829060249082906001600160a01b03165afa8015610f5f5785908890610f29575b8893925090610c19911015611f78565b8195825b858110610d4257505050508380610cd2575b505060035484906001600160a01b0316803b1561060a5781809160246040518094819363e867cecf60e01b83528960048401525af180156105ff57610cbd575b5050610cb37f20eb9f3aebb74816a1325a7477cfa6f6ab692b692cd5930db98bd2d0343b70ca93604051938493846040919493926060820195825260208201520152565b0390a16001805580f35b81610cc791611aea565b610346578338610c6f565b600254610ce892906001600160a01b0316612082565b60035484906001600160a01b0316803b1561060a5781809160246040518094819363d3158e1360e01b83528a60048401525af180156105ff57610d2d575b5083610c2f565b81610d3791611aea565b610346578338610d26565b610d59610d54828886979b9596611f0f565b611f35565b60018060a01b03600354168982516024604051809481936395ea571760e01b835260048301525afa908115610f1e578a91610efc575b5060208201916064610da2878551611fc4565b0494610daf868551611fd7565b90610dd482602060018060a01b036002541696019560018060a01b0387511690612082565b60035484516001600160a01b039081169116803b15610ef8576040516370e3d45560e11b81526001600160a01b03929092166004830152602482018490528e908290604490829084905af1908115610eeb578e91610ece575b50509086610ec1610e616001997fdaec0156f045fe9bffcc686bd77361f536743020f757603c9f1888937cdfc52195611eec565b9e604080870191825181526008602052208a60ff1982541617905551945195898060a01b039051169651604051938493429233869192608093969594919660a084019760018060a01b031684526020840152604083015260608201520152565b0390a40190879291610c1d565b81610edb91949394611aea565b610ee757908c38610e2d565b8c80fd5b8e604051903d90823e3d90fd5b8e80fd5b610f1891503d808c833e610f108183611aea565b810190611c94565b38610d8f565b6040513d8c823e3d90fd5b50506020813d602011610f57575b81610f4460209383611aea565b810103126103ee5784610c199151610c09565b3d9150610f37565b6040513d89823e3d90fd5b909195610f7b610d54888887611f0f565b60408101908a5b8981106110c957506020810191610fa4835180151590816110ba575b50611c57565b518b526008602052610fbd60ff60408d20541615611c0b565b51604051906395ea571760e01b825260048201528a81602481875afa9081156110af578b91611095575b50610ff760808201511515611da8565b81516040516309115e9760e01b8152906020826004818a5afa91821561108a578d92611054575b506001949261103661104b9593611044931015611de9565b604083519101511115611e26565b5190611eec565b96019190610b93565b90915060203d8111611083575b61106b8183611aea565b6020826000928101031261016357505190600161101e565b503d611061565b6040513d8f823e3d90fd5b6110a991503d808d833e610f108183611aea565b38610fe7565b6040513d8d823e3d90fd5b6302faf0809150111538610f9e565b60406110d6828b8a611f0f565b01358351146110e757600101610f82565b60405162461bcd60e51b815260206004820152601a60248201527f4475706c696361746520766f756368657220696e2062617463680000000000006044820152606490fd5b9091506020813d602011611164575b8161114860209383611aea565b810103126111605761115990611b22565b9038610b68565b8580fd5b3d915061113b565b6040513d88823e3d90fd5b919094506020823d6020116111a6575b8161119460209383611aea565b810103126103ee579051936020610b32565b3d9150611187565b60405162461bcd60e51b8152602060048201526012602482015271496e76616c69642062617463682073697a6560701b6044820152606490fd5b506032811115610b05565b506020813d602011611226575b8161120d60209383611aea565b8101031261064157611221610afc91611b78565b610af1565b3d9150611200565b506020813d602011611261575b8161124860209383611aea565b810103126106415761125c610acf91611b22565b610aba565b3d915061123b565b50346101635780600319360112610163576020600654604051908152f35b50346101635780600319360112610163576112a0612017565b80546001600160a01b03198116825581906001600160a01b03167f8be0079c531659141344cd1fd0a4f28419497f9722a3daafe3b4186f6b6457e08280a380f35b503461016357806003193601126101635760ff6020915460a01c166040519015158152f35b5034610163578060031936011261016357602060405160148152f35b503461016357806003193601126101635760206040516302faf0808152f35b503461016357606036600319011261016357602435604435600435611364612040565b61136c612060565b60018060a01b03600454169160405163319a11df60e11b8152602081600481875afa801561116c57869061192d575b6113b091506001600160a01b03163314611b36565b60405162482fab60e51b815292602084600481845afa93841561116c5786946118ed575b506113e160249415611b85565b6113f46113ec611fe4565b861115611bc9565b818652600860205261140d60ff60408820541615611c0b565b841515806118df575b61141f90611c57565b6003546040516395ea571760e01b81526004810185905294879186919082906001600160a01b03165afa93841561116c5786946118c3575b5061146760808501511515611da8565b6005546040516309115e9760e01b815290602090829060049082906001600160a01b03165afa8015610f5f57879061188f575b6114a79150861015611de9565b6114b76040850151861015611e26565b604051638c639a8560e01b815290602082600481845afa918215610f5f57879261185a575b509060206004926114f06014841115611e72565b60405163c5f956af60e01b815293849182905afa918215610f5f578792611818575b5060649061154b9061152e6001600160a01b0385161515611ead565b848952600860205260408920805460ff1916600117905587611fc4565b046115568187611fd7565b9460018060a01b0360025416926040516370a0823160e01b8152306004820152602081602481885afa908115610f1e578a916117e2575b506115988489611eec565b1161178b576115b78760208594019560018060a01b0387511690612082565b811515918261176e575b505060035483516001600160a01b03918216918a9116823b1561060a576040516370e3d45560e11b81526001600160a01b0391909116600482015260248101899052918290604490829084905af180156117635761174f575b506116f5575b60035487906001600160a01b0316803b1561060a5781809160246040518094819363e867cecf60e01b83528d60048401525af180156105ff576116dc575b5050905160408051338152602081018890529081019290925260608201949094524260808201526001600160a01b03909316927fdaec0156f045fe9bffcc686bd77361f536743020f757603c9f1888937cdfc5219060a090a4620151804204825260076020526116d360408320918254611eec565b90556001805580f35b816116e691611aea565b6116f157863861165e565b8680fd5b60035487906001600160a01b0316803b1561060a5781809160246040518094819363d3158e1360e01b83528860048401525af180156105ff5761173a575b5050611620565b8161174491611aea565b6116f1578638611733565b8861175c91999299611aea565b963861161a565b6040513d8b823e3d90fd5b60025461178492906001600160a01b0316612082565b38826115c1565b60405162461bcd60e51b815260206004820152602960248201527f496e73756666696369656e7420636f6e74726163742062616c616e636520666f6044820152681c881c185e5b595b9d60ba1b6064820152608490fd5b90506020813d602011611810575b816117fd60209383611aea565b8101031261180c57513861158d565b8980fd5b3d91506117f0565b9091506020813d602011611852575b8161183460209383611aea565b810103126116f15761154b61184a606492611b22565b929150611512565b3d9150611827565b91506020823d602011611887575b8161187560209383611aea565b810103126116f15790519060206114dc565b3d9150611868565b506020813d6020116118bb575b816118a960209383611aea565b810103126116f1576114a7905161149a565b3d915061189c565b6118d89194503d8088833e610f108183611aea565b9238611457565b506302faf080851115611416565b93506020843d602011611925575b8161190860209383611aea565b81010312611160576113e161191e602495611b78565b94506113d4565b3d91506118fb565b506020813d602011611960575b8161194760209383611aea565b810103126111605761195b6113b091611b22565b61139b565b3d915061193a565b5034610163578060031936011261016357611981612017565b805460ff8160a01c16156119c75760ff60a01b191681556040513381527f5db9ee0a495bf2e6ff9c91a7834c1ba4fdd244a5e8aa4e537bd38aeae4b073aa90602090a180f35b638dfc202b60e01b8252600482fd5b5034610163578060031936011261016357602060ff60025460a01c16604051908152f35b50346101635760203660031901126101635760406020916004358152600783522054604051908152f35b50346101635780600319360112610163576002546040516001600160a01b039091168152602090f35b50346101635780600319360112610163576003546040516001600160a01b039091168152602090f35b503461016357602036600319011261016357600435611a93612017565b8015611a9f5760065580f35b60405162461bcd60e51b815260206004820152600d60248201526c125b9d985b1a59081b1a5b5a5d609a1b6044820152606490fd5b600435906001600160a01b03821682036103ee57565b90601f8019910116810190811067ffffffffffffffff821117611b0c57604052565b634e487b7160e01b600052604160045260246000fd5b51906001600160a01b03821682036103ee57565b15611b3d57565b60405162461bcd60e51b81526020600482015260136024820152724e6f74207061796d656e74206164647265737360681b6044820152606490fd5b519081151582036103ee57565b15611b8c57565b60405162461bcd60e51b8152602060048201526015602482015274456d657267656e6379206d6f64652061637469766560581b6044820152606490fd5b15611bd057565b60405162461bcd60e51b8152602060048201526013602482015272115e18d959591cc819185a5b1e481b1a5b5a5d606a1b6044820152606490fd5b15611c1257565b60405162461bcd60e51b815260206004820152601960248201527f566f756368657220616c72656164792070726f636573736564000000000000006044820152606490fd5b15611c5e57565b60405162461bcd60e51b815260206004820152600e60248201526d125b9d985b1a5908185b5bdd5b9d60921b6044820152606490fd5b6020818303126103ee5780519067ffffffffffffffff82116103ee570160e0818303126103ee576040519160e0830183811067ffffffffffffffff821117611b0c5760405281518352611ce960208301611b22565b602084015260408201516040840152606082015167ffffffffffffffff81116103ee57820181601f820112156103ee5780519067ffffffffffffffff8211611b0c5760405192611d43601f8401601f191660200185611aea565b828452602083830101116103ee5760005b828110611d93575050600090820160200152606083015260c090611d7a60808201611b78565b608084015260a081015160a0840152015160c082015290565b80602080928401015182828701015201611d54565b15611daf57565b60405162461bcd60e51b81526020600482015260126024820152714e6574776f726b206e6f742061637469766560701b6044820152606490fd5b15611df057565b60405162461bcd60e51b815260206004820152600e60248201526d416d6f756e7420746f6f206c6f7760901b6044820152606490fd5b15611e2d57565b60405162461bcd60e51b815260206004820152601a60248201527f416d6f756e742062656c6f77206e6574776f726b2070726963650000000000006044820152606490fd5b15611e7957565b60405162461bcd60e51b815260206004820152600c60248201526b08ccaca40e8dede40d0d2ced60a31b6044820152606490fd5b15611eb457565b60405162461bcd60e51b815260206004820152601060248201526f496e76616c696420747265617375727960801b6044820152606490fd5b91908201809211611ef957565b634e487b7160e01b600052601160045260246000fd5b9190811015611f1f576060020190565b634e487b7160e01b600052603260045260246000fd5b6060813603126103ee5760405190606082019082821067ffffffffffffffff831117611b0c57604091825280358352602081013560208401520135604082015290565b15611f7f57565b60405162461bcd60e51b815260206004820152601d60248201527f496e73756666696369656e7420636f6e74726163742062616c616e63650000006044820152606490fd5b81810292918115918404141715611ef957565b91908203918211611ef957565b6201518042046000908152600760205260409020546006549081811061200b575050600090565b61201491611fd7565b90565b6000546001600160a01b0316330361202b57565b63118cdaa760e01b6000523360045260246000fd5b60ff60005460a01c1661204f57565b63d93c066560e01b60005260046000fd5b600260015414612071576002600155565b633ee5aeb560e01b60005260046000fd5b60405163a9059cbb60e01b60208201526001600160a01b039290921660248301526044808301939093529181526120be91610555606483611aea565b565b906000602091828151910182855af11561211b576000513d61211257506001600160a01b0381163b155b6120f15750565b635274afe760e01b60009081526001600160a01b0391909116600452602490fd5b600114156120ea565b6040513d6000823e3d90fdfea2646970667358221220ad56fbb91b93ac149be334f13cdae02b71a2c191f7f3848d9c73adee1d9b912564736f6c634300081c0033",
  "linkReferences": {},
  "deployedLinkReferences": {}
}