{
  "_format": "hh-sol-artifact-1",
  "contractName": "ZaaNetStorage",
  "sourceName": "contracts/ZaaNetStorage.sol",
  "abi": [
    {
      "inputs": [],
      "stateMutability": "nonpayable",
      "type": "constructor"
    },
    {
      "inputs": [],
      "name": "EnforcedPause",
      "type": "error"
    },
    {
      "inputs": [],
      "name": "ExpectedPause",
      "type": "error"
    },
    {
      "inputs": [
        {
          "internalType": "address",
          "name": "owner",
          "type": "address"
        }
      ],
      "name": "OwnableInvalidOwner",
      "type": "error"
    },
    {
      "inputs": [
        {
          "internalType": "address",
          "name": "account",
          "type": "address"
        }
      ],
      "name": "OwnableUnauthorizedAccount",
      "type": "error"
    },
    {
      "inputs": [],
      "name": "ReentrancyGuardReentrantCall",
      "type": "error"
    },
    {
      "anonymous": false,
      "inputs": [
        {
          "indexed": true,
          "internalType": "address",
          "name": "caller",
          "type": "address"
        },
        {
          "indexed": false,
          "internalType": "bool",
          "name": "status",
          "type": "bool"
        }
      ],
      "name": "AllowedCallerUpdated",
      "type": "event"
    },
    {
      "anonymous": false,
      "inputs": [
        {
          "indexed": false,
          "internalType": "uint256",
          "name": "totalEarned",
          "type": "uint256"
        }
      ],
      "name": "ClientVoucherFeeEarningsUpdated",
      "type": "event"
    },
    {
      "anonymous": false,
      "inputs": [
        {
          "indexed": true,
          "internalType": "address",
          "name": "hostAddress",
          "type": "address"
        },
        {
          "indexed": false,
          "internalType": "uint256",
          "name": "totalEarned",
          "type": "uint256"
        }
      ],
      "name": "HostEarningsUpdated",
      "type": "event"
    },
    {
      "anonymous": false,
      "inputs": [
        {
          "indexed": false,
          "internalType": "uint256",
          "name": "totalEarned",
          "type": "uint256"
        }
      ],
      "name": "HostVoucherFeeEarningsUpdated",
      "type": "event"
    },
    {
      "anonymous": false,
      "inputs": [
        {
          "indexed": true,
          "internalType": "uint256",
          "name": "id",
          "type": "uint256"
        },
        {
          "indexed": true,
          "internalType": "address",
          "name": "hostAddress",
          "type": "address"
        },
        {
          "indexed": false,
          "internalType": "uint256",
          "name": "pricePerSession",
          "type": "uint256"
        }
      ],
      "name": "NetworkStored",
      "type": "event"
    },
    {
      "anonymous": false,
      "inputs": [
        {
          "indexed": true,
          "internalType": "uint256",
          "name": "id",
          "type": "uint256"
        },
        {
          "indexed": true,
          "internalType": "address",
          "name": "hostAddress",
          "type": "address"
        }
      ],
      "name": "NetworkUpdated",
      "type": "event"
    },
    {
      "anonymous": false,
      "inputs": [
        {
          "indexed": true,
          "internalType": "address",
          "name": "previousOwner",
          "type": "address"
        },
        {
          "indexed": true,
          "internalType": "address",
          "name": "newOwner",
          "type": "address"
        }
      ],
      "name": "OwnershipTransferred",
      "type": "event"
    },
    {
      "anonymous": false,
      "inputs": [
        {
          "indexed": false,
          "internalType": "address",
          "name": "account",
          "type": "address"
        }
      ],
      "name": "Paused",
      "type": "event"
    },
    {
      "anonymous": false,
      "inputs": [
        {
          "indexed": true,
          "internalType": "uint256",
          "name": "sessionId",
          "type": "uint256"
        },
        {
          "indexed": true,
          "internalType": "address",
          "name": "paymentAddress",
          "type": "address"
        },
        {
          "indexed": false,
          "internalType": "uint256",
          "name": "amount",
          "type": "uint256"
        }
      ],
      "name": "SessionStored",
      "type": "event"
    },
    {
      "anonymous": false,
      "inputs": [
        {
          "indexed": false,
          "internalType": "address",
          "name": "account",
          "type": "address"
        }
      ],
      "name": "Unpaused",
      "type": "event"
    },
    {
      "inputs": [
        {
          "internalType": "address",
          "name": "",
          "type": "address"
        }
      ],
      "name": "allowedCallers",
      "outputs": [
        {
          "internalType": "bool",
          "name": "",
          "type": "bool"
        }
      ],
      "stateMutability": "view",
      "type": "function"
    },
    {
      "inputs": [],
      "name": "clientVoucherFeeEarnings",
      "outputs": [
        {
          "internalType": "uint256",
          "name": "",
          "type": "uint256"
        }
      ],
      "stateMutability": "view",
      "type": "function"
    },
    {
      "inputs": [
        {
          "internalType": "uint256",
          "name": "networkId",
          "type": "uint256"
        }
      ],
      "name": "emergencyDeactivateNetwork",
      "outputs": [],
      "stateMutability": "nonpayable",
      "type": "function"
    },
    {
      "inputs": [
        {
          "internalType": "address",
          "name": "hostAddress",
          "type": "address"
        }
      ],
      "name": "getHostEarnings",
      "outputs": [
        {
          "internalType": "uint256",
          "name": "",
          "type": "uint256"
        }
      ],
      "stateMutability": "view",
      "type": "function"
    },
    {
      "inputs": [
        {
          "internalType": "address",
          "name": "hostAddress",
          "type": "address"
        }
      ],
      "name": "getHostNetworks",
      "outputs": [
        {
          "internalType": "uint256[]",
          "name": "",
          "type": "uint256[]"
        }
      ],
      "stateMutability": "view",
      "type": "function"
    },
    {
      "inputs": [
        {
          "internalType": "uint256",
          "name": "id",
          "type": "uint256"
        }
      ],
      "name": "getNetwork",
      "outputs": [
        {
          "components": [
            {
              "internalType": "uint256",
              "name": "id",
              "type": "uint256"
            },
            {
              "internalType": "address",
              "name": "hostAddress",
              "type": "address"
            },
            {
              "internalType": "uint256",
              "name": "pricePerSession",
              "type": "uint256"
            },
            {
              "internalType": "string",
              "name": "mongoDataId",
              "type": "string"
            },
            {
              "internalType": "bool",
              "name": "isActive",
              "type": "bool"
            },
            {
              "internalType": "uint256",
              "name": "createdAt",
              "type": "uint256"
            },
            {
              "internalType": "uint256",
              "name": "updatedAt",
              "type": "uint256"
            }
          ],
          "internalType": "struct ZaaNetStorage.Network",
          "name": "",
          "type": "tuple"
        }
      ],
      "stateMutability": "view",
      "type": "function"
    },
    {
      "inputs": [
        {
          "internalType": "uint256",
          "name": "offset",
          "type": "uint256"
        },
        {
          "internalType": "uint256",
          "name": "limit",
          "type": "uint256"
        }
      ],
      "name": "getNetworksPaginated",
      "outputs": [
        {
          "components": [
            {
              "internalType": "uint256",
              "name": "id",
              "type": "uint256"
            },
            {
              "internalType": "address",
              "name": "hostAddress",
              "type": "address"
            },
            {
              "internalType": "uint256",
              "name": "pricePerSession",
              "type": "uint256"
            },
            {
              "internalType": "string",
              "name": "mongoDataId",
              "type": "string"
            },
            {
              "internalType": "bool",
              "name": "isActive",
              "type": "bool"
            },
            {
              "internalType": "uint256",
              "name": "createdAt",
              "type": "uint256"
            },
            {
              "internalType": "uint256",
              "name": "updatedAt",
              "type": "uint256"
            }
          ],
          "internalType": "struct ZaaNetStorage.Network[]",
          "name": "",
          "type": "tuple[]"
        },
        {
          "internalType": "uint256",
          "name": "total",
          "type": "uint256"
        }
      ],
      "stateMutability": "view",
      "type": "function"
    },
    {
      "inputs": [
        {
          "internalType": "address",
          "name": "",
          "type": "address"
        }
      ],
      "name": "hostEarnings",
      "outputs": [
        {
          "internalType": "uint256",
          "name": "",
          "type": "uint256"
        }
      ],
      "stateMutability": "view",
      "type": "function"
    },
    {
      "inputs": [
        {
          "internalType": "address",
          "name": "",
          "type": "address"
        },
        {
          "internalType": "uint256",
          "name": "",
          "type": "uint256"
        }
      ],
      "name": "hostNetworkIds",
      "outputs": [
        {
          "internalType": "uint256",
          "name": "",
          "type": "uint256"
        }
      ],
      "stateMutability": "view",
      "type": "function"
    },
    {
      "inputs": [],
      "name": "hostVoucherFeeEarnings",
      "outputs": [
        {
          "internalType": "uint256",
          "name": "",
          "type": "uint256"
        }
      ],
      "stateMutability": "view",
      "type": "function"
    },
    {
      "inputs": [
        {
          "internalType": "uint256",
          "name": "amount",
          "type": "uint256"
        }
      ],
      "name": "increaseClientVoucherFeeEarnings",
      "outputs": [],
      "stateMutability": "nonpayable",
      "type": "function"
    },
    {
      "inputs": [
        {
          "internalType": "address",
          "name": "hostAddress",
          "type": "address"
        },
        {
          "internalType": "uint256",
          "name": "amount",
          "type": "uint256"
        }
      ],
      "name": "increaseHostEarnings",
      "outputs": [],
      "stateMutability": "nonpayable",
      "type": "function"
    },
    {
      "inputs": [
        {
          "internalType": "uint256",
          "name": "amount",
          "type": "uint256"
        }
      ],
      "name": "increaseHostVoucherFeeEarnings",
      "outputs": [],
      "stateMutability": "nonpayable",
      "type": "function"
    },
    {
      "inputs": [],
      "name": "incrementNetworkId",
      "outputs": [
        {
          "internalType": "uint256",
          "name": "",
          "type": "uint256"
        }
      ],
      "stateMutability": "nonpayable",
      "type": "function"
    },
    {
      "inputs": [
        {
          "internalType": "uint256",
          "name": "",
          "type": "uint256"
        }
      ],
      "name": "networkExists",
      "outputs": [
        {
          "internalType": "bool",
          "name": "",
          "type": "bool"
        }
      ],
      "stateMutability": "view",
      "type": "function"
    },
    {
      "inputs": [],
      "name": "networkIdCounter",
      "outputs": [
        {
          "internalType": "uint256",
          "name": "",
          "type": "uint256"
        }
      ],
      "stateMutability": "view",
      "type": "function"
    },
    {
      "inputs": [
        {
          "internalType": "uint256",
          "name": "",
          "type": "uint256"
        }
      ],
      "name": "networks",
      "outputs": [
        {
          "internalType": "uint256",
          "name": "id",
          "type": "uint256"
        },
        {
          "internalType": "address",
          "name": "hostAddress",
          "type": "address"
        },
        {
          "internalType": "uint256",
          "name": "pricePerSession",
          "type": "uint256"
        },
        {
          "internalType": "string",
          "name": "mongoDataId",
          "type": "string"
        },
        {
          "internalType": "bool",
          "name": "isActive",
          "type": "bool"
        },
        {
          "internalType": "uint256",
          "name": "createdAt",
          "type": "uint256"
        },
        {
          "internalType": "uint256",
          "name": "updatedAt",
          "type": "uint256"
        }
      ],
      "stateMutability": "view",
      "type": "function"
    },
    {
      "inputs": [],
      "name": "owner",
      "outputs": [
        {
          "internalType": "address",
          "name": "",
          "type": "address"
        }
      ],
      "stateMutability": "view",
      "type": "function"
    },
    {
      "inputs": [],
      "name": "pause",
      "outputs": [],
      "stateMutability": "nonpayable",
      "type": "function"
    },
    {
      "inputs": [],
      "name": "paused",
      "outputs": [
        {
          "internalType": "bool",
          "name": "",
          "type": "bool"
        }
      ],
      "stateMutability": "view",
      "type": "function"
    },
    {
      "inputs": [],
      "name": "renounceOwnership",
      "outputs": [],
      "stateMutability": "nonpayable",
      "type": "function"
    },
    {
      "inputs": [
        {
          "internalType": "address",
          "name": "_caller",
          "type": "address"
        },
        {
          "internalType": "bool",
          "name": "status",
          "type": "bool"
        }
      ],
      "name": "setAllowedCaller",
      "outputs": [],
      "stateMutability": "nonpayable",
      "type": "function"
    },
    {
      "inputs": [
        {
          "internalType": "address[]",
          "name": "_callers",
          "type": "address[]"
        },
        {
          "internalType": "bool",
          "name": "status",
          "type": "bool"
        }
      ],
      "name": "setAllowedCallers",
      "outputs": [],
      "stateMutability": "nonpayable",
      "type": "function"
    },
    {
      "inputs": [
        {
          "internalType": "uint256",
          "name": "id",
          "type": "uint256"
        },
        {
          "components": [
            {
              "internalType": "uint256",
              "name": "id",
              "type": "uint256"
            },
            {
              "internalType": "address",
              "name": "hostAddress",
              "type": "address"
            },
            {
              "internalType": "uint256",
              "name": "pricePerSession",
              "type": "uint256"
            },
            {
              "internalType": "string",
              "name": "mongoDataId",
              "type": "string"
            },
            {
              "internalType": "bool",
              "name": "isActive",
              "type": "bool"
            },
            {
              "internalType": "uint256",
              "name": "createdAt",
              "type": "uint256"
            },
            {
              "internalType": "uint256",
              "name": "updatedAt",
              "type": "uint256"
            }
          ],
          "internalType": "struct ZaaNetStorage.Network",
          "name": "net",
          "type": "tuple"
        }
      ],
      "name": "setNetwork",
      "outputs": [],
      "stateMutability": "nonpayable",
      "type": "function"
    },
    {
      "inputs": [],
      "name": "totalSessionPaymentsAmount",
      "outputs": [
        {
          "internalType": "uint256",
          "name": "",
          "type": "uint256"
        }
      ],
      "stateMutability": "view",
      "type": "function"
    },
    {
      "inputs": [
        {
          "internalType": "address",
          "name": "newOwner",
          "type": "address"
        }
      ],
      "name": "transferOwnership",
      "outputs": [],
      "stateMutability": "nonpayable",
      "type": "function"
    },
    {
      "inputs": [],
      "name": "unpause",
      "outputs": [],
      "stateMutability": "nonpayable",
      "type": "function"
    },
    {
      "inputs": [
        {
          "internalType": "uint256",
          "name": "amount",
          "type": "uint256"
        }
      ],
      "name": "updateTotalSessionPaymentsAmount",
      "outputs": [],
      "stateMutability": "nonpayable",
      "type": "function"
    },
    {
      "inputs": [
        {
          "internalType": "uint256",
          "name": "amount",
          "type": "uint256"
        }
      ],
      "name": "updateZaanetHostingFeeEarnings",
      "outputs": [],
      "stateMutability": "nonpayable",
      "type": "function"
    },
    {
      "inputs": [
        {
          "internalType": "uint256",
          "name": "amount",
          "type": "uint256"
        }
      ],
      "name": "updateZaanetWithdrawalsAmount",
      "outputs": [],
      "stateMutability": "nonpayable",
      "type": "function"
    },
    {
      "inputs": [],
      "name": "zaanetHostingFeeEarnings",
      "outputs": [
        {
          "internalType": "uint256",
          "name": "",
          "type": "uint256"
        }
      ],
      "stateMutability": "view",
      "type": "function"
    },
    {
      "inputs": [],
      "name": "zaanetWithdrawalsAmount",
      "outputs": [
        {
          "internalType": "uint256",
          "name": "",
          "type": "uint256"
        }
      ],
      "stateMutability": "view",
      "type": "function"
    }
  ],
  "bytecode": "0x608080604052346092573315607c5760008054336001600160a01b0319821681178355916001600160a01b03909116907f8be0079c531659141344cd1fd0a4f28419497f9722a3daafe3b4186f6b6457e09080a36001805560006004556000600555600060065560006007556000600855611b2d90816100988239f35b631e4fbdf760e01b600052600060045260246000fd5b600080fdfe6080604052600436101561001257600080fd5b60003560e01c80631bc970fe1461139d578063217c682d1461137f57806329c164691461136157806329c718b514610b8057806335b99b04146113435780633f4ba83a146112d257806350c0d41c14610d0b5780635290ffc614610c995780635a2f406f14610be05780635c975abb14610bba5780636d65573f14610b80578063715018a614610b2757806373f9a5d714610a0c57806379f0dc57146109525780637b334154146109135780637bae8f5e146108ba5780638456cb591461084457806387d5cfc8146108265780638bb0a17c146107935780638da5cb5b1461076a57806395ea5717146106aa578063c140e32a1461068c578063d1a08e071461066e578063d3158e13146105c1578063d8b0e71614610532578063e1c7a8aa1461044b578063e4938a4f146103c8578063e867cecf14610345578063ec13f2a114610314578063f2fde38b1461028b578063fa9c81a4146102045763fdd85e3d1461017c57600080fd5b346101ff5760203660031901126101ff576101e260043533600052600260205260ff6040600020541680156101eb575b6101b590611656565b6101c760ff60005460a01c1615611693565b6101cf611aac565b6101da8115156116d0565b60065461171c565b60065560018055005b506000546001600160a01b031633146101ac565b600080fd5b346101ff5760403660031901126101ff576102236024356004356118d5565b9060405190604082016040835281518091526060830190602060608260051b8601019301916000905b828210610260578580868960208301520390f35b9091929360208061027d600193605f198a820301865288516115fa565b96019201920190929161024c565b346101ff5760203660031901126101ff576102a461144a565b6102ac611ace565b6001600160a01b031680156102fe57600080546001600160a01b03198116831782556001600160a01b0316907f8be0079c531659141344cd1fd0a4f28419497f9722a3daafe3b4186f6b6457e09080a3005b631e4fbdf760e01b600052600060045260246000fd5b346101ff5760203660031901126101ff57600435600052600c602052602060ff604060002054166040519015158152f35b346101ff5760203660031901126101ff576103ab60043533600052600260205260ff6040600020541680156103b4575b61037e90611656565b61039060ff60005460a01c1615611693565b610398611aac565b6103a38115156116d0565b60045461171c565b60045560018055005b506000546001600160a01b03163314610375565b346101ff5760203660031901126101ff5761042e60043533600052600260205260ff604060002054168015610437575b61040190611656565b61041360ff60005460a01c1615611693565b61041b611aac565b6104268115156116d0565b60055461171c565b60055560018055005b506000546001600160a01b031633146103f8565b346101ff5760403660031901126101ff5761046461144a565b6024359033600052600260205260ff60406000205416801561051e575b61048a90611656565b61049c60ff60005460a01c1615611693565b6104a4611aac565b6001600160a01b0316906104b9821515611753565b6104c48115156116d0565b81600052600a6020526104dd604060002091825461171c565b905580600052600a6020527f61a8b1a557e4d03803db90d13ff76db2c25fba3ed24882cecda8c8423b9b2be06020604060002054604051908152a260018055005b506000546001600160a01b03163314610481565b346101ff5760403660031901126101ff5761054b61144a565b7fd6fc3082ae3a144ca59421d96180398241c1dd021d45d5a24fb5bf96c9f8212f6020610576611460565b9261057f611ace565b6001600160a01b03169261059484151561182d565b83600052600282526105b68160406000209060ff801983541691151516179055565b6040519015158152a2005b346101ff5760203660031901126101ff577f1d11f8b15a90a85b46868efd6382dd5207f4ab305c5180d209b6250b028aada86020610649600435336000526002835260ff60406000205416801561065a575b61061c90611656565b61062e60ff60005460a01c1615611693565b610636611aac565b6106418115156116d0565b60075461171c565b80600755604051908152a160018055005b506000546001600160a01b03163314610613565b346101ff5760003660031901126101ff576020600454604051908152f35b346101ff5760003660031901126101ff576020600854604051908152f35b346101ff5760203660031901126101ff576004356106c6611872565b5080600052600c6020526106e160ff604060002054166117d8565b60005260096020526107666040600020600660405191610700836114d7565b8054835260018101546001600160a01b031660208401526002810154604084015261072d60038201611515565b606084015260ff60048201541615156080840152600581015460a0840152015460c08201526040519182916020835260208301906115fa565b0390f35b346101ff5760003660031901126101ff576000546040516001600160a01b039091168152602090f35b346101ff5760203660031901126101ff5760043560005260096020526040600020805460018060a01b036001830154169160028101546107d560038301611515565b9161081060ff60048301541693600660058401549301549360405197889788526020880152604087015260e0606087015260e08601906115b9565b921515608085015260a084015260c08301520390f35b346101ff5760003660031901126101ff576020600754604051908152f35b346101ff5760003660031901126101ff5761085d611ace565b60005460ff8160a01c166108a95760ff60a01b1916600160a01b176000556040513381527f62e78cea01bee320cd4e420270b5ea74000d11b0c9f74754ebdbfc544b05a25890602090a1005b63d93c066560e01b60005260046000fd5b346101ff5760403660031901126101ff576108d361144a565b6001600160a01b03166000908152600b60205260409020805460243591908210156101ff576020916109049161146f565b90549060031b1c604051908152f35b346101ff5760203660031901126101ff576001600160a01b0361093461144a565b166000526002602052602060ff604060002054166040519015158152f35b346101ff5760203660031901126101ff576001600160a01b0361097361144a565b16600052600b60205260406000206040518060208354918281520190819360005260206000209060005b8181106109f657505050816109b39103826114f3565b6040519182916020830190602084525180915260408301919060005b8181106109dd575050500390f35b82518452859450602093840193909201916001016109cf565b825484526020909301926001928301920161099d565b346101ff5760403660031901126101ff5760043567ffffffffffffffff81116101ff57366023820112156101ff57806004013567ffffffffffffffff81116101ff576024820191602436918360051b0101116101ff57610a6a611460565b610a72611ace565b8015159060005b838110610a8257005b600190610aab6001600160a01b03610aa3610a9e84898b61181d565b61173f565b16151561182d565b818060a01b03610abf610a9e83888a61181d565b166000526002602052610ae28360406000209060ff801983541691151516179055565b818060a01b03610af6610a9e83888a61181d565b167fd6fc3082ae3a144ca59421d96180398241c1dd021d45d5a24fb5bf96c9f8212f6020604051878152a201610a79565b346101ff5760003660031901126101ff57610b40611ace565b600080546001600160a01b0319811682556001600160a01b03167f8be0079c531659141344cd1fd0a4f28419497f9722a3daafe3b4186f6b6457e08280a3005b346101ff5760203660031901126101ff576001600160a01b03610ba161144a565b16600052600a6020526020604060002054604051908152f35b346101ff5760003660031901126101ff57602060ff60005460a01c166040519015158152f35b346101ff5760203660031901126101ff5760043533600052600260205260ff604060002054168015610c85575b610c1690611656565b80600052600c602052610c3060ff604060002054166117d8565b600081815260096020526040812060048101805460ff19169055426006820155600101546001600160a01b031691907f14796949d4d1a6824063ec05e354db666bde3356a8cf646c6075272b5353185c9080a3005b506000546001600160a01b03163314610c0d565b346101ff5760003660031901126101ff5733600052600260205260ff604060002054168015610cf7575b610ccc90611656565b610cde60ff60005460a01c1615611693565b6020610ceb6003546117c9565b80600355604051908152f35b506000546001600160a01b03163314610cc3565b346101ff5760403660031901126101ff5760243560043567ffffffffffffffff82116101ff57816004019160e060031982360301126101ff5733600052600260205260ff6040600020541680156112be575b610d6690611656565b610d7860ff60005460a01c1615611693565b610d80611aac565b81156112845781833503611247576024810190610daf6001600160a01b03610da78461173f565b161515611753565b6044810135938415611202576064820190610dca8282611796565b9050156111c65784600052600c60205260ff6040600020541615928315611154575b610e01608493610dfb8761173f565b93611796565b93909101358015158091036101ff57841561113c5742915b60405194610e26866114d7565b8886526001600160a01b0390941660208601908152604086018a8152909467ffffffffffffffff81116110225760405192610e6b601f8301601f1916602001856114f3565b81845236828201116101ff57816000926020928387013784010152606086019182526080860192835260a086019384524260c0870190815260008a81526009602052604090209651875594516001870180546001600160a01b0319166001600160a01b0392909216919091179055516002860155518051600386019167ffffffffffffffff821161102257610f00835461149d565b601f81116110f4575b50602090601f8311600114611084579180610f5a9492600698979694600092611079575b50508160011b916000199060031b1c19161790555b511515600486019060ff801983541691151516179055565b5160058401555191015515611038576000828152600c60205260409020805460ff191660011790556001600160a01b03610f938261173f565b16600052600b6020526040600020908154906801000000000000000082101561102257610fe9827f3a3ee326dd9451112d67d1babdaf697562d06e41e2571ddd356b4e9be0de478e94600160209501815561146f565b815460001960039290921b91821b19169086901b1790556001600160a01b03906110129061173f565b1693604051908152a35b60018055005b634e487b7160e01b600052604160045260246000fd5b9091506001600160a01b039061104d9061173f565b16907f14796949d4d1a6824063ec05e354db666bde3356a8cf646c6075272b5353185c600080a361101c565b015190508d80610f2d565b90601f1983169184600052816000209260005b8181106110dc575092600192859260069a999896610f5a9896106110c3575b505050811b019055610f42565b015160001960f88460031b161c191690558d80806110b6565b92936020600181928786015181550195019301611097565b836000526020600020601f840160051c81019160208510611132575b601f0160051c01905b8181106111265750610f09565b60008155600101611119565b9091508190611110565b86600052600960205260056040600020015491610e19565b6000868152600960205260409020600101546001600160a01b039081169061117b8761173f565b1614610dec5760405162461bcd60e51b815260206004820152601760248201527f486f7374206368616e6765206e6f7420616c6c6f7765640000000000000000006044820152606490fd5b60405162461bcd60e51b8152602060048201526014602482015273135bdb99dbd1185d185251081c995c5d5a5c995960621b6044820152606490fd5b60405162461bcd60e51b815260206004820152601c60248201527f5072696365206d7573742062652067726561746572207468616e2030000000006044820152606490fd5b60405162461bcd60e51b8152602060048201526015602482015274135a5cdb585d18da1959081b995d1ddbdc9ac81251605a1b6044820152606490fd5b60405162461bcd60e51b8152602060048201526012602482015271125b9d985b1a59081b995d1ddbdc9ac8125160721b6044820152606490fd5b506000546001600160a01b03163314610d5d565b346101ff5760003660031901126101ff576112eb611ace565b60005460ff8160a01c16156113325760ff60a01b19166000556040513381527f5db9ee0a495bf2e6ff9c91a7834c1ba4fdd244a5e8aa4e537bd38aeae4b073aa90602090a1005b638dfc202b60e01b60005260046000fd5b346101ff5760003660031901126101ff576020600554604051908152f35b346101ff5760003660031901126101ff576020600654604051908152f35b346101ff5760003660031901126101ff576020600354604051908152f35b346101ff5760203660031901126101ff577f183b8a54434f6b5b6e53ebd9db6e6ecec8b065c630a527f61c52b9770fb6248c6020611425600435336000526002835260ff604060002054168015611436575b6113f890611656565b61140a60ff60005460a01c1615611693565b611412611aac565b61141d8115156116d0565b60085461171c565b80600855604051908152a160018055005b506000546001600160a01b031633146113ef565b600435906001600160a01b03821682036101ff57565b6024359081151582036101ff57565b80548210156114875760005260206000200190600090565b634e487b7160e01b600052603260045260246000fd5b90600182811c921680156114cd575b60208310146114b757565b634e487b7160e01b600052602260045260246000fd5b91607f16916114ac565b60e0810190811067ffffffffffffffff82111761102257604052565b90601f8019910116810190811067ffffffffffffffff82111761102257604052565b90604051918260008254926115298461149d565b80845293600181169081156115975750600114611550575b5061154e925003836114f3565b565b90506000929192526020600020906000915b81831061157b57505090602061154e9282010138611541565b6020919350806001915483858901015201910190918492611562565b90506020925061154e94915060ff191682840152151560051b82010138611541565b919082519283825260005b8481106115e5575050826000602080949584010152601f8019910116010190565b806020809284010151828286010152016115c4565b908151815260018060a01b0360208301511660208201526040820151604082015260c080611637606085015160e0606086015260e08501906115b9565b9360808101511515608085015260a081015160a0850152015191015290565b1561165d57565b60405162461bcd60e51b815260206004820152600e60248201526d139bdd08185d5d1a1bdc9a5e995960921b6044820152606490fd5b1561169a57565b60405162461bcd60e51b815260206004820152600e60248201526d14dd1bdc9859d9481c185d5cd95960921b6044820152606490fd5b156116d757565b60405162461bcd60e51b815260206004820152601d60248201527f416d6f756e74206d7573742062652067726561746572207468616e20300000006044820152606490fd5b9190820180921161172957565b634e487b7160e01b600052601160045260246000fd5b356001600160a01b03811681036101ff5790565b1561175a57565b60405162461bcd60e51b8152602060048201526014602482015273496e76616c696420686f7374206164647265737360601b6044820152606490fd5b903590601e19813603018212156101ff570180359067ffffffffffffffff82116101ff576020019181360383136101ff57565b60001981146117295760010190565b156117df57565b60405162461bcd60e51b815260206004820152601660248201527513995d1ddbdc9ac8191bd95cc81b9bdd08195e1a5cdd60521b6044820152606490fd5b91908110156114875760051b0190565b1561183457565b60405162461bcd60e51b8152602060048201526016602482015275496e76616c69642063616c6c6572206164647265737360501b6044820152606490fd5b6040519061187f826114d7565b600060c0838281528260208201528260408201526060808201528260808201528260a08201520152565b67ffffffffffffffff81116110225760051b60200190565b80518210156114875760209160051b010190565b600354929183158015611aa2575b611a66576118f1908261171c565b838111611a5f575b600091805b828110611a22575061190f836118a9565b9261191d60405194856114f3565b80845261192c601f19916118a9565b0160005b818110611a0b5750506000905b82811061194b575050509190565b600181018082116117295780600052600c60205260ff60406000205416611976575b5060010161193d565b60019192611a04916000526009602052604060002060066040519161199a836114d7565b80548352858060a01b0386820154166020840152600281015460408401526119c460038201611515565b606084015260ff60048201541615156080840152600581015460a0840152015460c08201526119f382886118c1565b526119fe81876118c1565b506117c9565b919061196d565b602090611a16611872565b82828801015201611930565b6001810180821161172957600052600c60205260ff60406000205416611a4b575b6001016118fe565b92611a576001916117c9565b939050611a43565b50826118f9565b50506040516000611a786020836114f3565b81526000805b818110611a8b5750509190565b602090611a96611872565b82828601015201611a7e565b50838210156118e3565b600260015414611abd576002600155565b633ee5aeb560e01b60005260046000fd5b6000546001600160a01b03163303611ae257565b63118cdaa760e01b6000523360045260246000fdfea2646970667358221220c39203a8e971f5470ffe12395dd22f6be4de54559a62b595a4b3a2b4a81c7d9a64736f6c634300081c0033",
  "linkReferences": {},
  "deployedLinkReferences": {}
}