{"abi":[{"type":"constructor","inputs":[],"stateMutability":"nonpayable"},{"type":"function","name":"EMERGENCY_COOLDOWN","inputs":[],"outputs":[{"name":"","type":"uint256","internalType":"uint256"}],"stateMutability":"view"},{"type":"function","name":"MAX_HOSTING_FEE","inputs":[],"outputs":[{"name":"","type":"uint256","internalType":"uint256"}],"stateMutability":"view"},{"type":"function","name":"MAX_HOST_VOUCHER_FEE","inputs":[],"outputs":[{"name":"","type":"uint256","internalType":"uint256"}],"stateMutability":"view"},{"type":"function","name":"MAX_PLATFORM_FEE","inputs":[],"outputs":[{"name":"","type":"uint256","internalType":"uint256"}],"stateMutability":"view"},{"type":"function","name":"UPGRADE_INTERFACE_VERSION","inputs":[],"outputs":[{"name":"","type":"string","internalType":"string"}],"stateMutability":"view"},{"type":"function","name":"admin","inputs":[],"outputs":[{"name":"","type":"address","internalType":"address"}],"stateMutability":"view"},{"type":"function","name":"calculatePlatformFee","inputs":[{"name":"amount","type":"uint256","internalType":"uint256"}],"outputs":[{"name":"","type":"uint256","internalType":"uint256"}],"stateMutability":"view"},{"type":"function","name":"emergencyDeactivateNetwork","inputs":[{"name":"networkId","type":"uint256","internalType":"uint256"}],"outputs":[],"stateMutability":"nonpayable"},{"type":"function","name":"emergencyMode","inputs":[],"outputs":[{"name":"","type":"bool","internalType":"bool"}],"stateMutability":"view"},{"type":"function","name":"emergencyOperators","inputs":[{"name":"","type":"address","internalType":"address"}],"outputs":[{"name":"","type":"bool","internalType":"bool"}],"stateMutability":"view"},{"type":"function","name":"emergencySetHostingFee","inputs":[{"name":"_newFee","type":"uint256","internalType":"uint256"}],"outputs":[],"stateMutability":"nonpayable"},{"type":"function","name":"emergencySetPlatformFee","inputs":[{"name":"_newFeePercent","type":"uint256","internalType":"uint256"}],"outputs":[],"stateMutability":"nonpayable"},{"type":"function","name":"feeHistory","inputs":[{"name":"","type":"uint256","internalType":"uint256"}],"outputs":[{"name":"oldFee","type":"uint256","internalType":"uint256"},{"name":"newFee","type":"uint256","internalType":"uint256"},{"name":"timestamp","type":"uint256","internalType":"uint256"},{"name":"changedBy","type":"address","internalType":"address"}],"stateMutability":"view"},{"type":"function","name":"getAdminStats","inputs":[],"outputs":[{"name":"totalFeeChanges","type":"uint256","internalType":"uint256"},{"name":"totalTreasuryChanges","type":"uint256","internalType":"uint256"},{"name":"totalHostingFeeChanges","type":"uint256","internalType":"uint256"},{"name":"isEmergencyMode","type":"bool","internalType":"bool"},{"name":"currentPlatformFee","type":"uint256","internalType":"uint256"},{"name":"currentHostingFee","type":"uint256","internalType":"uint256"},{"name":"currentTreasury","type":"address","internalType":"address"}],"stateMutability":"view"},{"type":"function","name":"getCurrentFees","inputs":[],"outputs":[{"name":"platformFeePercentage","type":"uint256","internalType":"uint256"},{"name":"hostingFeeAmount","type":"uint256","internalType":"uint256"},{"name":"currentTreasury","type":"address","internalType":"address"}],"stateMutability":"view"},{"type":"function","name":"getFeeHistory","inputs":[],"outputs":[{"name":"","type":"tuple[]","internalType":"struct ZaaNetAdminV1.FeeChange[]","components":[{"name":"oldFee","type":"uint256","internalType":"uint256"},{"name":"newFee","type":"uint256","internalType":"uint256"},{"name":"timestamp","type":"uint256","internalType":"uint256"},{"name":"changedBy","type":"address","internalType":"address"}]}],"stateMutability":"view"},{"type":"function","name":"getHostVoucherFeeTier","inputs":[{"name":"tier","type":"uint8","internalType":"uint8"}],"outputs":[{"name":"","type":"uint256","internalType":"uint256"}],"stateMutability":"view"},{"type":"function","name":"getHostingFeeHistory","inputs":[],"outputs":[{"name":"","type":"tuple[]","internalType":"struct ZaaNetAdminV1.HostingFeeChange[]","components":[{"name":"oldFee","type":"uint256","internalType":"uint256"},{"name":"newFee","type":"uint256","internalType":"uint256"},{"name":"timestamp","type":"uint256","internalType":"uint256"},{"name":"changedBy","type":"address","internalType":"address"}]}],"stateMutability":"view"},{"type":"function","name":"getLatestFeeChange","inputs":[],"outputs":[{"name":"","type":"tuple","internalType":"struct ZaaNetAdminV1.FeeChange","components":[{"name":"oldFee","type":"uint256","internalType":"uint256"},{"name":"newFee","type":"uint256","internalType":"uint256"},{"name":"timestamp","type":"uint256","internalType":"uint256"},{"name":"changedBy","type":"address","internalType":"address"}]}],"stateMutability":"view"},{"type":"function","name":"getLatestHostingFeeChange","inputs":[],"outputs":[{"name":"","type":"tuple","internalType":"struct ZaaNetAdminV1.HostingFeeChange","components":[{"name":"oldFee","type":"uint256","internalType":"uint256"},{"name":"newFee","type":"uint256","internalType":"uint256"},{"name":"timestamp","type":"uint256","internalType":"uint256"},{"name":"changedBy","type":"address","internalType":"address"}]}],"stateMutability":"view"},{"type":"function","name":"getLatestTreasuryChange","inputs":[],"outputs":[{"name":"","type":"tuple","internalType":"struct ZaaNetAdminV1.TreasuryChange","components":[{"name":"oldTreasury","type":"address","internalType":"address"},{"name":"newTreasury","type":"address","internalType":"address"},{"name":"timestamp","type":"uint256","internalType":"uint256"},{"name":"changedBy","type":"address","internalType":"address"}]}],"stateMutability":"view"},{"type":"function","name":"getPlatformFeeBasisPoints","inputs":[],"outputs":[{"name":"","type":"uint256","internalType":"uint256"}],"stateMutability":"view"},{"type":"function","name":"getTreasuryHistory","inputs":[],"outputs":[{"name":"","type":"tuple[]","internalType":"struct ZaaNetAdminV1.TreasuryChange[]","components":[{"name":"oldTreasury","type":"address","internalType":"address"},{"name":"newTreasury","type":"address","internalType":"address"},{"name":"timestamp","type":"uint256","internalType":"uint256"},{"name":"changedBy","type":"address","internalType":"address"}]}],"stateMutability":"view"},{"type":"function","name":"hostVoucherFeeDays","inputs":[],"outputs":[{"name":"","type":"uint256","internalType":"uint256"}],"stateMutability":"view"},{"type":"function","name":"hostVoucherFeeHours","inputs":[],"outputs":[{"name":"","type":"uint256","internalType":"uint256"}],"stateMutability":"view"},{"type":"function","name":"hostVoucherFeeMonths","inputs":[],"outputs":[{"name":"","type":"uint256","internalType":"uint256"}],"stateMutability":"view"},{"type":"function","name":"hostingFee","inputs":[],"outputs":[{"name":"","type":"uint256","internalType":"uint256"}],"stateMutability":"view"},{"type":"function","name":"hostingFeeHistory","inputs":[{"name":"","type":"uint256","internalType":"uint256"}],"outputs":[{"name":"oldFee","type":"uint256","internalType":"uint256"},{"name":"newFee","type":"uint256","internalType":"uint256"},{"name":"timestamp","type":"uint256","internalType":"uint256"},{"name":"changedBy","type":"address","internalType":"address"}],"stateMutability":"view"},{"type":"function","name":"initialize","inputs":[{"name":"_storageContract","type":"address","internalType":"address"},{"name":"_treasuryAddress","type":"address","internalType":"address"},{"name":"_paymentAddress","type":"address","internalType":"address"},{"name":"_platformFeePercent","type":"uint256","internalType":"uint256"},{"name":"_hostingFee","type":"uint256","internalType":"uint256"}],"outputs":[],"stateMutability":"nonpayable"},{"type":"function","name":"isEmergencyOperator","inputs":[{"name":"operator","type":"address","internalType":"address"}],"outputs":[{"name":"","type":"bool","internalType":"bool"}],"stateMutability":"view"},{"type":"function","name":"isReentrancyGuardActive","inputs":[],"outputs":[{"name":"","type":"bool","internalType":"bool"}],"stateMutability":"view"},{"type":"function","name":"lastEmergencyToggleBy","inputs":[{"name":"","type":"address","internalType":"address"}],"outputs":[{"name":"","type":"uint256","internalType":"uint256"}],"stateMutability":"view"},{"type":"function","name":"lastEmergencyToggleTime","inputs":[],"outputs":[{"name":"","type":"uint256","internalType":"uint256"}],"stateMutability":"view"},{"type":"function","name":"owner","inputs":[],"outputs":[{"name":"","type":"address","internalType":"address"}],"stateMutability":"view"},{"type":"function","name":"pause","inputs":[],"outputs":[],"stateMutability":"nonpayable"},{"type":"function","name":"paused","inputs":[],"outputs":[{"name":"","type":"bool","internalType":"bool"}],"stateMutability":"view"},{"type":"function","name":"payment","inputs":[],"outputs":[{"name":"","type":"address","internalType":"address"}],"stateMutability":"view"},{"type":"function","name":"paymentAddress","inputs":[],"outputs":[{"name":"","type":"address","internalType":"address"}],"stateMutability":"view"},{"type":"function","name":"platformFeePercent","inputs":[],"outputs":[{"name":"","type":"uint256","internalType":"uint256"}],"stateMutability":"view"},{"type":"function","name":"proxiableUUID","inputs":[],"outputs":[{"name":"","type":"bytes32","internalType":"bytes32"}],"stateMutability":"view"},{"type":"function","name":"renounceOwnership","inputs":[],"outputs":[],"stateMutability":"nonpayable"},{"type":"function","name":"setEmergencyOperator","inputs":[{"name":"operator","type":"address","internalType":"address"},{"name":"status","type":"bool","internalType":"bool"}],"outputs":[],"stateMutability":"nonpayable"},{"type":"function","name":"setHostVoucherFeeDays","inputs":[{"name":"_fee","type":"uint256","internalType":"uint256"}],"outputs":[],"stateMutability":"nonpayable"},{"type":"function","name":"setHostVoucherFeeHours","inputs":[{"name":"_fee","type":"uint256","internalType":"uint256"}],"outputs":[],"stateMutability":"nonpayable"},{"type":"function","name":"setHostVoucherFeeMonths","inputs":[{"name":"_fee","type":"uint256","internalType":"uint256"}],"outputs":[],"stateMutability":"nonpayable"},{"type":"function","name":"setHostingFee","inputs":[{"name":"_newFee","type":"uint256","internalType":"uint256"}],"outputs":[],"stateMutability":"nonpayable"},{"type":"function","name":"setPaymentAddress","inputs":[{"name":"_newPaymentAddress","type":"address","internalType":"address"}],"outputs":[],"stateMutability":"nonpayable"},{"type":"function","name":"setPlatformFee","inputs":[{"name":"_newFeePercent","type":"uint256","internalType":"uint256"}],"outputs":[],"stateMutability":"nonpayable"},{"type":"function","name":"setTreasuryAddress","inputs":[{"name":"_newTreasuryAddress","type":"address","internalType":"address"}],"outputs":[],"stateMutability":"nonpayable"},{"type":"function","name":"storageContract","inputs":[],"outputs":[{"name":"","type":"address","internalType":"contract ZaaNetStorageV1"}],"stateMutability":"view"},{"type":"function","name":"toggleEmergencyMode","inputs":[],"outputs":[],"stateMutability":"nonpayable"},{"type":"function","name":"transferOwnership","inputs":[{"name":"newOwner","type":"address","internalType":"address"}],"outputs":[],"stateMutability":"nonpayable"},{"type":"function","name":"treasury","inputs":[],"outputs":[{"name":"","type":"address","internalType":"address"}],"stateMutability":"view"},{"type":"function","name":"treasuryAddress","inputs":[],"outputs":[{"name":"","type":"address","internalType":"address"}],"stateMutability":"view"},{"type":"function","name":"treasuryHistory","inputs":[{"name":"","type":"uint256","internalType":"uint256"}],"outputs":[{"name":"oldTreasury","type":"address","internalType":"address"},{"name":"newTreasury","type":"address","internalType":"address"},{"name":"timestamp","type":"uint256","internalType":"uint256"},{"name":"changedBy","type":"address","internalType":"address"}],"stateMutability":"view"},{"type":"function","name":"unpause","inputs":[],"outputs":[],"stateMutability":"nonpayable"},{"type":"function","name":"upgradeToAndCall","inputs":[{"name":"newImplementation","type":"address","internalType":"address"},{"name":"data","type":"bytes","internalType":"bytes"}],"outputs":[],"stateMutability":"payable"},{"type":"event","name":"AdminPaused","inputs":[{"name":"triggeredBy","type":"address","indexed":true,"internalType":"address"}],"anonymous":false},{"type":"event","name":"AdminUnpaused","inputs":[{"name":"triggeredBy","type":"address","indexed":true,"internalType":"address"}],"anonymous":false},{"type":"event","name":"ContractsInitialized","inputs":[{"name":"storageContract","type":"address","indexed":true,"internalType":"address"},{"name":"timestamp","type":"uint256","indexed":false,"internalType":"uint256"}],"anonymous":false},{"type":"event","name":"EmergencyModeToggled","inputs":[{"name":"enabled","type":"bool","indexed":false,"internalType":"bool"},{"name":"triggeredBy","type":"address","indexed":true,"internalType":"address"}],"anonymous":false},{"type":"event","name":"EmergencyOperatorUpdated","inputs":[{"name":"operator","type":"address","indexed":true,"internalType":"address"},{"name":"status","type":"bool","indexed":false,"internalType":"bool"},{"name":"updatedBy","type":"address","indexed":true,"internalType":"address"}],"anonymous":false},{"type":"event","name":"HostVoucherFeeTierUpdated","inputs":[{"name":"tier","type":"uint8","indexed":true,"internalType":"uint8"},{"name":"newFee","type":"uint256","indexed":true,"internalType":"uint256"},{"name":"changedBy","type":"address","indexed":true,"internalType":"address"}],"anonymous":false},{"type":"event","name":"HostingFeeUpdated","inputs":[{"name":"oldFee","type":"uint256","indexed":true,"internalType":"uint256"},{"name":"newFee","type":"uint256","indexed":true,"internalType":"uint256"},{"name":"changedBy","type":"address","indexed":true,"internalType":"address"}],"anonymous":false},{"type":"event","name":"Initialized","inputs":[{"name":"version","type":"uint64","indexed":false,"internalType":"uint64"}],"anonymous":false},{"type":"event","name":"OwnershipTransferred","inputs":[{"name":"previousOwner","type":"address","indexed":true,"internalType":"address"},{"name":"newOwner","type":"address","indexed":true,"internalType":"address"}],"anonymous":false},{"type":"event","name":"Paused","inputs":[{"name":"account","type":"address","indexed":false,"internalType":"address"}],"anonymous":false},{"type":"event","name":"PaymentAddressUpdated","inputs":[{"name":"oldAddress","type":"address","indexed":true,"internalType":"address"},{"name":"newAddress","type":"address","indexed":true,"internalType":"address"},{"name":"changedBy","type":"address","indexed":true,"internalType":"address"}],"anonymous":false},{"type":"event","name":"PlatformFeeUpdated","inputs":[{"name":"oldFee","type":"uint256","indexed":true,"internalType":"uint256"},{"name":"newFee","type":"uint256","indexed":true,"internalType":"uint256"},{"name":"changedBy","type":"address","indexed":true,"internalType":"address"}],"anonymous":false},{"type":"event","name":"TreasuryUpdated","inputs":[{"name":"oldTreasury","type":"address","indexed":true,"internalType":"address"},{"name":"newTreasury","type":"address","indexed":true,"internalType":"address"},{"name":"changedBy","type":"address","indexed":true,"internalType":"address"}],"anonymous":false},{"type":"event","name":"Unpaused","inputs":[{"name":"account","type":"address","indexed":false,"internalType":"address"}],"anonymous":false},{"type":"event","name":"Upgraded","inputs":[{"name":"implementation","type":"address","indexed":true,"internalType":"address"}],"anonymous":false},{"type":"error","name":"AddressEmptyCode","inputs":[{"name":"target","type":"address","internalType":"address"}]},{"type":"error","name":"ERC1967InvalidImplementation","inputs":[{"name":"implementation","type":"address","internalType":"address"}]},{"type":"error","name":"ERC1967NonPayable","inputs":[]},{"type":"error","name":"EnforcedPause","inputs":[]},{"type":"error","name":"ExpectedPause","inputs":[]},{"type":"error","name":"FailedCall","inputs":[]},{"type":"error","name":"InvalidInitialization","inputs":[]},{"type":"error","name":"NotInitializing","inputs":[]},{"type":"error","name":"OwnableInvalidOwner","inputs":[{"name":"owner","type":"address","internalType":"address"}]},{"type":"error","name":"OwnableUnauthorizedAccount","inputs":[{"name":"account","type":"address","internalType":"address"}]},{"type":"error","name":"UUPSUnauthorizedCallContext","inputs":[]},{"type":"error","name":"UUPSUnsupportedProxiableUUID","inputs":[{"name":"slot","type":"bytes32","internalType":"bytes32"}]}],"bytecode":{"object":"0x60a0604052306080523480156012575f5ffd5b50608051612df06100395f395f81816123dd01528181612406015261254a0152612df05ff3fe608060405260043610610366575f3560e01c8063715018a6116101c8578063b4f1094d116100fd578063e0797a371161009d578063edfbf4f11161006d578063edfbf4f114610a2c578063f2fde38b14610a4b578063f851a44014610a6a578063fe13eea914610a7e575f5ffd5b8063e0797a37146109ce578063e4fc760d146109e3578063e53377eb146109f8578063ebe7fdaa14610a17575f5ffd5b8063c116d936116100d8578063c116d9361461091a578063c5f956af1461097a578063d2643f1d14610999578063d4ab4b40146109ad575f5ffd5b8063b4f1094d146108e6578063bb8f0b651461046e578063bbeecdf0146108fb575f5ffd5b80638c639a8511610168578063a380b86b11610143578063a380b86b1461081d578063a6b63eb81461086b578063ad3cb1cc1461088a578063b110bb5b146108c7575f5ffd5b80638c639a85146107bd5780638da5cb5b146107d2578063a10eb354146107e6575f5ffd5b80637a9b93c6116101a35780637a9b93c61461076157806381ca0b2a146107755780638456cb591461078a5780638acbac3c1461079e575f5ffd5b8063715018a6146106f557806371908a03146107095780637a1b27c914610742575f5ffd5b806346c9bcca1161029e5780635707ed451161023e5780635e1e1004116102195780635e1e10041461067b57806361d027b31461069a578063633423be146106b75780636605bfda146106d6575f5ffd5b80635707ed45146106275780635a2f406f146106485780635c975abb14610667575f5ffd5b80634c17b530116102795780634c17b530146105cb5780634f1ef286146105df5780635071f27b146105f257806352d1902d14610613575f5ffd5b806346c9bcca1461056a5780634863687e14610589578063492adaa8146105aa575f5ffd5b806311ce0267116103095780633998a681116102e45780633998a681146104fa5780633f4ba83a1461050e57806342f6487a1461052257806345ad9cb71461053f575f5ffd5b806311ce02671461048557806312e8e2c3146104bc57806318b4f23b146104db575f5ffd5b806309705de81161034457806309705de8146103cb5780630cbab4f7146103f95780630d35a167146104265780630f4213681461046e575f5ffd5b806302e888991461036a57806303d50d661461038b5780630905f560146103b2575b5f5ffd5b348015610375575f5ffd5b5061038961038436600461290c565b610a93565b005b348015610396575f5ffd5b505f546002145b60405190151581526020015b60405180910390f35b3480156103bd575f5ffd5b50603a5461039d9060ff1681565b3480156103d6575f5ffd5b5061039d6103e5366004612945565b603b6020525f908152604090205460ff1681565b348015610404575f5ffd5b50610418610413366004612965565b610b57565b6040519081526020016103a9565b348015610431575f5ffd5b50610445610440366004612965565b610b78565b604080519485526020850193909352918301526001600160a01b031660608201526080016103a9565b348015610479575f5ffd5b506104186305f5e10081565b348015610490575f5ffd5b506032546104a4906001600160a01b031681565b6040516001600160a01b0390911681526020016103a9565b3480156104c7575f5ffd5b506103896104d6366004612965565b610bb9565b3480156104e6575f5ffd5b506103896104f5366004612965565b610d6a565b348015610505575f5ffd5b50610418601481565b348015610519575f5ffd5b50610389610ddc565b34801561052d575f5ffd5b506034546001600160a01b03166104a4565b34801561054a575f5ffd5b50610418610559366004612945565b603d6020525f908152604090205481565b348015610575575f5ffd5b50610389610584366004612965565b610e18565b348015610594575f5ffd5b5061059d610e9d565b6040516103a9919061297c565b3480156105b5575f5ffd5b506105be610f85565b6040516103a991906129b6565b3480156105d6575f5ffd5b50610389611014565b6103896105ed366004612a43565b611148565b3480156105fd575f5ffd5b50610606611167565b6040516103a99190612b33565b34801561061e575f5ffd5b50610418611254565b348015610632575f5ffd5b5061063b61126f565b6040516103a99190612b41565b348015610653575f5ffd5b50610389610662366004612965565b6112ee565b348015610672575f5ffd5b5061039d6113f3565b348015610686575f5ffd5b50610389610695366004612945565b611424565b3480156106a5575f5ffd5b506033546001600160a01b03166104a4565b3480156106c2575f5ffd5b506034546104a4906001600160a01b031681565b3480156106e1575f5ffd5b506103896106f0366004612945565b611555565b348015610700575f5ffd5b50610389611773565b348015610714575f5ffd5b506035546036546033546040805193845260208401929092526001600160a01b0316908201526060016103a9565b34801561074d575f5ffd5b5061038961075c366004612965565b611786565b34801561076c575f5ffd5b5061041861180c565b348015610780575f5ffd5b5061041860385481565b348015610795575f5ffd5b5061038961181c565b3480156107a9575f5ffd5b506103896107b8366004612965565b611858565b3480156107c8575f5ffd5b5061041860355481565b3480156107dd575f5ffd5b506104a46118de565b3480156107f1575f5ffd5b5061039d610800366004612945565b6001600160a01b03165f908152603b602052604090205460ff1690565b348015610828575f5ffd5b5061083c610837366004612965565b61190c565b604080516001600160a01b039586168152938516602085015283019190915290911660608201526080016103a9565b348015610876575f5ffd5b50610389610885366004612b83565b611952565b348015610895575f5ffd5b506108ba604051806040016040528060058152602001640352e302e360dc1b81525081565b6040516103a99190612bd4565b3480156108d2575f5ffd5b506104186108e1366004612c09565b611f3c565b3480156108f1575f5ffd5b50610418610e1081565b348015610906575f5ffd5b50610389610915366004612965565b611fac565b348015610925575f5ffd5b50603e54603f5460408054603a54603554603654603354855197885260208801969096529386019290925260ff1615156060850152608084015260a08301526001600160a01b031660c082015260e0016103a9565b348015610985575f5ffd5b506033546104a4906001600160a01b031681565b3480156109a4575f5ffd5b50610606612142565b3480156109b8575f5ffd5b506109c16121d1565b6040516103a99190612c29565b3480156109d9575f5ffd5b50610418603c5481565b3480156109ee575f5ffd5b5061041860395481565b348015610a03575f5ffd5b50610445610a12366004612965565b612249565b348015610a22575f5ffd5b5061041860365481565b348015610a37575f5ffd5b50610389610a46366004612965565b612258565b348015610a56575f5ffd5b50610389610a65366004612945565b6122e8565b348015610a75575f5ffd5b506104a4612325565b348015610a89575f5ffd5b5061041860375481565b610a9b61232e565b6001600160a01b038216610af65760405162461bcd60e51b815260206004820152601860248201527f496e76616c6964206f70657261746f722061646472657373000000000000000060448201526064015b60405180910390fd5b6001600160a01b0382165f818152603b6020908152604091829020805460ff191685151590811790915591519182523392917f1d05944b75552398d6505993a2bc80206d8219c4454def4cfd2e97793edbbfce910160405180910390a35050565b5f606460355483610b689190612c7f565b610b729190612c96565b92915050565b603e8181548110610b87575f80fd5b5f918252602090912060049091020180546001820154600283015460039093015491935091906001600160a01b031684565b610bc161232e565b603a5460ff1615610be45760405162461bcd60e51b8152600401610aed90612cb5565b6014811115610c055760405162461bcd60e51b8152600401610aed90612cec565b6035548103610c465760405162461bcd60e51b815260206004820152600d60248201526c119959481d5b98da185b99d959609a1b6044820152606401610aed565b60358054908290556040805160808101825282815260208101848152428284019081523360608401818152603e80546001810182555f91825295517f8d800d6614d35eed73733ee453164a3b48076eb3138f466adeeb9dec7bb31f7060049097029687015593517f8d800d6614d35eed73733ee453164a3b48076eb3138f466adeeb9dec7bb31f7186015591517f8d800d6614d35eed73733ee453164a3b48076eb3138f466adeeb9dec7bb31f7285015590517f8d800d6614d35eed73733ee453164a3b48076eb3138f466adeeb9dec7bb31f7390930180546001600160a01b0319166001600160a01b039094169390931790925591519091849184917f9e74d2175d1604ca094d3c60971771fb54aa1a0adbadcedcb69c48cfbd4feb9991a45050565b335f908152603b602052604090205460ff1680610d9f5750610d8a6118de565b6001600160a01b0316336001600160a01b0316145b610dbb5760405162461bcd60e51b8152600401610aed90612d19565b6014811115610c465760405162461bcd60e51b8152600401610aed90612cec565b610de461232e565b610dec612360565b60405133907fcc2b689b01792ccc45f7d02099e9ef3ffd7058e45803395690c61efdd0f0c634905f90a2565b610e2061232e565b603a5460ff1615610e435760405162461bcd60e51b8152600401610aed90612cb5565b6305f5e100811115610e675760405162461bcd60e51b8152600401610aed90612cec565b6037819055604051339082905f907f42fec45309092a5a49b15477c9418e2f24b1b84e1aafcca8a86a39515c4653b3908290a450565b604080516080810182525f808252602082018190529181018290526060810191909152603f54610f0f5760405162461bcd60e51b815260206004820152601c60248201527f4e6f207472656173757279206368616e676573207265636f72646564000000006044820152606401610aed565b603f8054610f1f90600190612d49565b81548110610f2f57610f2f612d5c565b5f91825260209182902060408051608081018252600490930290910180546001600160a01b0390811684526001820154811694840194909452600281015491830191909152600301549091166060820152919050565b6060603f805480602002602001604051908101604052809291908181526020015f905b8282101561100b575f848152602090819020604080516080810182526004860290920180546001600160a01b0390811684526001808301548216858701526002830154938501939093526003909101541660608301529083529092019101610fa8565b50505050905090565b335f908152603b602052604090205460ff168061104957506110346118de565b6001600160a01b0316336001600160a01b0316145b6110655760405162461bcd60e51b8152600401610aed90612d19565b335f908152603d6020526040812054908190036110815750603c545b61108d610e1082612d70565b4210156110dc5760405162461bcd60e51b815260206004820152601c60248201527f456d657267656e637920746f67676c65206f6e20636f6f6c646f776e000000006044820152606401610aed565b603a805460ff19811660ff9182161517825542603c819055335f818152603d60205260409081902092909255925490517fc35ed978e97c366b3a5f9375508bcfbca850fca66bf334b9477118918e6eaa409261113d92161515815260200190565b60405180910390a250565b6111506123d2565b61115982612476565b611163828261247e565b5050565b61119760405180608001604052805f81526020015f81526020015f81526020015f6001600160a01b031681525090565b603e546111e65760405162461bcd60e51b815260206004820152601760248201527f4e6f20666565206368616e676573207265636f726465640000000000000000006044820152606401610aed565b603e80546111f690600190612d49565b8154811061120657611206612d5c565b5f918252602091829020604080516080810182526004909302909101805483526001810154938301939093526002830154908201526003909101546001600160a01b03166060820152919050565b5f61125d61253f565b505f516020612d9b5f395f51905f5290565b6060603e805480602002602001604051908101604052809291908181526020015f905b8282101561100b575f84815260209081902060408051608081018252600486029092018054835260018082015484860152600282015492840192909252600301546001600160a01b031660608301529083529092019101611292565b335f908152603b602052604090205460ff1680611323575061130e6118de565b6001600160a01b0316336001600160a01b0316145b61133f5760405162461bcd60e51b8152600401610aed90612d19565b6032546001600160a01b03166113975760405162461bcd60e51b815260206004820152601760248201527f53746f72616765206e6f7420696e697469616c697a65640000000000000000006044820152606401610aed565b603254604051635a2f406f60e01b8152600481018390526001600160a01b0390911690635a2f406f906024015f604051808303815f87803b1580156113da575f5ffd5b505af11580156113ec573d5f5f3e3d5ffd5b5050505050565b5f61141f7fcd5ed15c6e187e77e9aee88184c21f4f2182ab5827cb3b7e07fbedcd63f033005460ff1690565b905090565b61142c61232e565b603a5460ff161561144f5760405162461bcd60e51b8152600401610aed90612cb5565b6001600160a01b0381166114a55760405162461bcd60e51b815260206004820152601760248201527f496e76616c6964207061796d656e7420616464726573730000000000000000006044820152606401610aed565b6034546001600160a01b03908116908216036115035760405162461bcd60e51b815260206004820152601960248201527f5061796d656e74206164647265737320756e6368616e676564000000000000006044820152606401610aed565b603480546001600160a01b038381166001600160a01b031983168117909355604051911691339183907f505a1580fada0bb544f7bc659efb59f7285cf0e93091ea00b7bba4d09f80222d905f90a45050565b61155d61232e565b603a5460ff16156115805760405162461bcd60e51b8152600401610aed90612cb5565b6001600160a01b0381166115d65760405162461bcd60e51b815260206004820152601860248201527f496e76616c6964207472656173757279206164647265737300000000000000006044820152606401610aed565b6033546001600160a01b03908116908216036116295760405162461bcd60e51b8152602060048201526012602482015271151c99585cdd5c9e481d5b98da185b99d95960721b6044820152606401610aed565b603380546001600160a01b03198082166001600160a01b038581169182179094556040805160808101825293851680855260208501838152428684019081523360608801818152603f80546001810182555f91825299517fc03004e3ce0784bf68186394306849f9b7b1200073105cd9aeb554a1802b58fd6004909b029a8b0180548b16918d1691909117905593517fc03004e3ce0784bf68186394306849f9b7b1200073105cd9aeb554a1802b58fe8a0180548a16918c1691909117905591517fc03004e3ce0784bf68186394306849f9b7b1200073105cd9aeb554a1802b58ff89015590517fc03004e3ce0784bf68186394306849f9b7b1200073105cd9aeb554a1802b59009097018054909616969097169590951790935551919392909184917f23c12d5579081c5f1077c04a6b1c114d0f3de239e81a436836d30ecb099ffa1391a45050565b61177b61232e565b6117845f612588565b565b61178e61232e565b603a5460ff16156117b15760405162461bcd60e51b8152600401610aed90612cb5565b6305f5e1008111156117d55760405162461bcd60e51b8152600401610aed90612cec565b6039819055604051339082906002907f42fec45309092a5a49b15477c9418e2f24b1b84e1aafcca8a86a39515c4653b3905f90a450565b5f603554606461141f9190612c7f565b61182461232e565b61182c6125f8565b60405133907ff9c91e483ce8bc4cc31645e7cc0f01a3371813e76469a71104841507f0140290905f90a2565b61186061232e565b603a5460ff16156118835760405162461bcd60e51b8152600401610aed90612cb5565b6305f5e1008111156118a75760405162461bcd60e51b8152600401610aed90612cec565b6038819055604051339082906001907f42fec45309092a5a49b15477c9418e2f24b1b84e1aafcca8a86a39515c4653b3905f90a450565b7f9016d09d72d40fdae2fd8ceac6b6234c7706214fd39c1cd1e609a0528c199300546001600160a01b031690565b603f818154811061191b575f80fd5b5f91825260209091206004909102018054600182015460028301546003909301546001600160a01b03928316945090821692911684565b5f61195b612653565b805490915060ff600160401b820416159067ffffffffffffffff165f811580156119825750825b90505f8267ffffffffffffffff16600114801561199e5750303b155b9050811580156119ac575080155b156119ca5760405163f92ee8a960e01b815260040160405180910390fd5b845467ffffffffffffffff1916600117855583156119f457845460ff60401b1916600160401b1785555b6119fd3361267b565b611a0561268c565b611a0d612694565b603a805460ff191690555f603c556001600160a01b038916611a715760405162461bcd60e51b815260206004820152601f60248201527f54726561737572792063616e6e6f74206265207a65726f2061646472657373006044820152606401610aed565b6014871115611ac25760405162461bcd60e51b815260206004820152601c60248201527f506c6174666f726d206665652065786365656473206d6178696d756d000000006044820152606401610aed565b6001600160a01b038816611b275760405162461bcd60e51b815260206004820152602660248201527f5061796d656e7420616464726573732063616e6e6f74206265207a65726f206160448201526564647265737360d01b6064820152608401610aed565b6305f5e100861115611b7b5760405162461bcd60e51b815260206004820152601b60248201527f486f7374696e67206665652065786365656473206d6178696d756d00000000006044820152606401610aed565b6001600160a01b038a1615611bdc57603280546001600160a01b0319166001600160a01b038c169081179091556040514281527f7f7d6e7886dca58922d0593a44928fb5066cd0e04369c371d72eb96e61368fa89060200160405180910390a25b8860335f6101000a8154816001600160a01b0302191690836001600160a01b031602179055508760345f6101000a8154816001600160a01b0302191690836001600160a01b031602179055508660358190555085603681905550603e60405180608001604052805f8152602001898152602001428152602001336001600160a01b0316815250908060018154018082558091505060019003905f5260205f2090600402015f909190919091505f820151815f015560208201518160010155604082015181600201556060820151816003015f6101000a8154816001600160a01b0302191690836001600160a01b031602179055505050603f60405180608001604052805f6001600160a01b031681526020018b6001600160a01b03168152602001428152602001336001600160a01b0316815250908060018154018082558091505060019003905f5260205f2090600402015f909190919091505f820151815f015f6101000a8154816001600160a01b0302191690836001600160a01b031602179055506020820151816001015f6101000a8154816001600160a01b0302191690836001600160a01b03160217905550604082015181600201556060820151816003015f6101000a8154816001600160a01b0302191690836001600160a01b0316021790555050506040805180608001604052805f8152602001888152602001428152602001336001600160a01b0316815250908060018154018082558091505060019003905f5260205f2090600402015f909190919091505f820151815f015560208201518160010155604082015181600201556060820151816003015f6101000a8154816001600160a01b0302191690836001600160a01b0316021790555050506001603b5f336001600160a01b03166001600160a01b031681526020019081526020015f205f6101000a81548160ff021916908315150217905550336001600160a01b0316336001600160a01b03167f1d05944b75552398d6505993a2bc80206d8219c4454def4cfd2e97793edbbfce6001604051611ee2911515815260200190565b60405180910390a38315611f3057845460ff60401b19168555604051600181527fc7f505b2f371ae2175ee4913f4499e1f2633a7b5936321eed1cdaeb6115181d29060200160405180910390a15b50505050505050505050565b5f8160ff165f03611f4f57505060375490565b8160ff16600103611f6257505060385490565b8160ff16600203611f7557505060395490565b60405162461bcd60e51b815260206004820152600c60248201526b24b73b30b634b2103a34b2b960a11b6044820152606401610aed565b335f908152603b602052604090205460ff1680611fe15750611fcc6118de565b6001600160a01b0316336001600160a01b0316145b611ffd5760405162461bcd60e51b8152600401610aed90612d19565b6305f5e1008111156120215760405162461bcd60e51b8152600401610aed90612cec565b6036805490829055604080516080810182528281526020810184815242828401908152336060840181815285546001810187555f87815295517f352feee0eea125f11f791c1b77524172e9bc20f1b719b6cef0fc24f64db8e15e60049092029182015593517f352feee0eea125f11f791c1b77524172e9bc20f1b719b6cef0fc24f64db8e15f85015591517f352feee0eea125f11f791c1b77524172e9bc20f1b719b6cef0fc24f64db8e16084015590517f352feee0eea125f11f791c1b77524172e9bc20f1b719b6cef0fc24f64db8e16190920180546001600160a01b0319166001600160a01b03909316929092179091559151849184917feb710718efc8ce303613ea1c9fb97a21bd1154a827cdb5ed5607eadd10e8cf969190a45050565b61217260405180608001604052805f81526020015f81526020015f81526020015f6001600160a01b031681525090565b6040546121c15760405162461bcd60e51b815260206004820152601f60248201527f4e6f20686f7374696e6720666565206368616e676573207265636f72646564006044820152606401610aed565b604080546111f690600190612d49565b60408054815160208083028201810184528282526060939192905f908401821561100b575f84815260209081902060408051608081018252600486029092018054835260018082015484860152600282015492840192909252600301546001600160a01b031660608301529083529092019101611292565b60408181548110610b87575f80fd5b61226061232e565b603a5460ff16156122835760405162461bcd60e51b8152600401610aed90612cb5565b6305f5e1008111156122a75760405162461bcd60e51b8152600401610aed90612cec565b60365481036120215760405162461bcd60e51b815260206004820152600d60248201526c119959481d5b98da185b99d959609a1b6044820152606401610aed565b6122f061232e565b6001600160a01b03811661231957604051631e4fbdf760e01b81525f6004820152602401610aed565b61232281612588565b50565b5f61141f6118de565b336123376118de565b6001600160a01b0316146117845760405163118cdaa760e01b8152336004820152602401610aed565b6123686126a4565b7fcd5ed15c6e187e77e9aee88184c21f4f2182ab5827cb3b7e07fbedcd63f03300805460ff191681557f5db9ee0a495bf2e6ff9c91a7834c1ba4fdd244a5e8aa4e537bd38aeae4b073aa335b6040516001600160a01b03909116815260200160405180910390a150565b306001600160a01b037f000000000000000000000000000000000000000000000000000000000000000016148061245857507f00000000000000000000000000000000000000000000000000000000000000006001600160a01b031661244c5f516020612d9b5f395f51905f52546001600160a01b031690565b6001600160a01b031614155b156117845760405163703e46dd60e11b815260040160405180910390fd5b61232261232e565b816001600160a01b03166352d1902d6040518163ffffffff1660e01b8152600401602060405180830381865afa9250505080156124d8575060408051601f3d908101601f191682019092526124d591810190612d83565b60015b61250057604051634c9c8ce360e01b81526001600160a01b0383166004820152602401610aed565b5f516020612d9b5f395f51905f52811461253057604051632a87526960e21b815260048101829052602401610aed565b61253a83836126c9565b505050565b306001600160a01b037f000000000000000000000000000000000000000000000000000000000000000016146117845760405163703e46dd60e11b815260040160405180910390fd5b7f9016d09d72d40fdae2fd8ceac6b6234c7706214fd39c1cd1e609a0528c19930080546001600160a01b031981166001600160a01b03848116918217845560405192169182907f8be0079c531659141344cd1fd0a4f28419497f9722a3daafe3b4186f6b6457e0905f90a3505050565b61260061271e565b7fcd5ed15c6e187e77e9aee88184c21f4f2182ab5827cb3b7e07fbedcd63f03300805460ff191660011781557f62e78cea01bee320cd4e420270b5ea74000d11b0c9f74754ebdbfc544b05a258336123b4565b5f807ff0c57e16840df040f15088dc2f81fe391c3923bec73e23a9662efc9c229c6a00610b72565b612683612744565b61232281612769565b611784612744565b61269c612744565b611784612771565b6126ac6113f3565b61178457604051638dfc202b60e01b815260040160405180910390fd5b6126d28261277f565b6040516001600160a01b038316907fbc7cd75a20ee27fd9adebab32041f755214dbc6bffa90cc0225b39da2e5c2d3b905f90a28051156127165761253a82826127e2565b611163612882565b6127266113f3565b156117845760405163d93c066560e01b815260040160405180910390fd5b61274c6128a1565b61178457604051631afcd79f60e31b815260040160405180910390fd5b6122f0612744565b612779612744565b60015f55565b806001600160a01b03163b5f036127b457604051634c9c8ce360e01b81526001600160a01b0382166004820152602401610aed565b5f516020612d9b5f395f51905f5280546001600160a01b0319166001600160a01b0392909216919091179055565b60605f6127ef84846128ba565b905080801561281057505f3d118061281057505f846001600160a01b03163b115b156128255761281d6128cd565b915050610b72565b801561284f57604051639996b31560e01b81526001600160a01b0385166004820152602401610aed565b3d156128625761285d6128e6565b61287b565b60405163d6bda27560e01b815260040160405180910390fd5b5092915050565b34156117845760405163b398979f60e01b815260040160405180910390fd5b5f6128aa612653565b54600160401b900460ff16919050565b5f5f5f835160208501865af49392505050565b6040513d81523d5f602083013e3d602001810160405290565b6040513d5f823e3d81fd5b80356001600160a01b0381168114612907575f5ffd5b919050565b5f5f6040838503121561291d575f5ffd5b612926836128f1565b91506020830135801515811461293a575f5ffd5b809150509250929050565b5f60208284031215612955575f5ffd5b61295e826128f1565b9392505050565b5f60208284031215612975575f5ffd5b5035919050565b60808101610b72828480516001600160a01b0390811683526020808301518216908401526040808301519084015260609182015116910152565b602080825282518282018190525f918401906040840190835b81811015612a2457612a0e83855180516001600160a01b0390811683526020808301518216908401526040808301519084015260609182015116910152565b60209390930192608092909201916001016129cf565b509095945050505050565b634e487b7160e01b5f52604160045260245ffd5b5f5f60408385031215612a54575f5ffd5b612a5d836128f1565b9150602083013567ffffffffffffffff811115612a78575f5ffd5b8301601f81018513612a88575f5ffd5b803567ffffffffffffffff811115612aa257612aa2612a2f565b604051601f8201601f19908116603f0116810167ffffffffffffffff81118282101715612ad157612ad1612a2f565b604052818152828201602001871015612ae8575f5ffd5b816020840160208301375f602083830101528093505050509250929050565b8051825260208082015190830152604080820151908301526060908101516001600160a01b0316910152565b60808101610b728284612b07565b602080825282518282018190525f918401906040840190835b81811015612a2457612b6d838551612b07565b6020939093019260809290920191600101612b5a565b5f5f5f5f5f60a08688031215612b97575f5ffd5b612ba0866128f1565b9450612bae602087016128f1565b9350612bbc604087016128f1565b94979396509394606081013594506080013592915050565b602081525f82518060208401528060208501604085015e5f604082850101526040601f19601f83011684010191505092915050565b5f60208284031215612c19575f5ffd5b813560ff8116811461295e575f5ffd5b602080825282518282018190525f918401906040840190835b81811015612a2457612c55838551612b07565b6020939093019260809290920191600101612c42565b634e487b7160e01b5f52601160045260245ffd5b8082028115828204841417610b7257610b72612c6b565b5f82612cb057634e487b7160e01b5f52601260045260245ffd5b500490565b60208082526018908201527f53797374656d20696e20656d657267656e6379206d6f64650000000000000000604082015260600190565b6020808252601390820152724665652065786365656473206d6178696d756d60681b604082015260600190565b6020808252601690820152752737ba1032b6b2b933b2b731bc9037b832b930ba37b960511b604082015260600190565b81810381811115610b7257610b72612c6b565b634e487b7160e01b5f52603260045260245ffd5b80820180821115610b7257610b72612c6b565b5f60208284031215612d93575f5ffd5b505191905056fe360894a13ba1a3210667c828492db98dca3e2076cc3735a920a3ca505d382bbca264697066735822122075d1d6c3389f24da263b26d30006d923f6163b2432276ea72ffce9e719eac22c64736f6c63430008210033","linkReferences":{}},"methodIdentifiers":{"EMERGENCY_COOLDOWN()":"b4f1094d","MAX_HOSTING_FEE()":"bb8f0b65","MAX_HOST_VOUCHER_FEE()":"0f421368","MAX_PLATFORM_FEE()":"3998a681","UPGRADE_INTERFACE_VERSION()":"ad3cb1cc","admin()":"f851a440","calculatePlatformFee(uint256)":"0cbab4f7","emergencyDeactivateNetwork(uint256)":"5a2f406f","emergencyMode()":"0905f560","emergencyOperators(address)":"09705de8","emergencySetHostingFee(uint256)":"bbeecdf0","emergencySetPlatformFee(uint256)":"18b4f23b","feeHistory(uint256)":"0d35a167","getAdminStats()":"c116d936","getCurrentFees()":"71908a03","getFeeHistory()":"5707ed45","getHostVoucherFeeTier(uint8)":"b110bb5b","getHostingFeeHistory()":"d4ab4b40","getLatestFeeChange()":"5071f27b","getLatestHostingFeeChange()":"d2643f1d","getLatestTreasuryChange()":"4863687e","getPlatformFeeBasisPoints()":"7a9b93c6","getTreasuryHistory()":"492adaa8","hostVoucherFeeDays()":"81ca0b2a","hostVoucherFeeHours()":"fe13eea9","hostVoucherFeeMonths()":"e4fc760d","hostingFee()":"ebe7fdaa","hostingFeeHistory(uint256)":"e53377eb","initialize(address,address,address,uint256,uint256)":"a6b63eb8","isEmergencyOperator(address)":"a10eb354","isReentrancyGuardActive()":"03d50d66","lastEmergencyToggleBy(address)":"45ad9cb7","lastEmergencyToggleTime()":"e0797a37","owner()":"8da5cb5b","pause()":"8456cb59","paused()":"5c975abb","payment()":"42f6487a","paymentAddress()":"633423be","platformFeePercent()":"8c639a85","proxiableUUID()":"52d1902d","renounceOwnership()":"715018a6","setEmergencyOperator(address,bool)":"02e88899","setHostVoucherFeeDays(uint256)":"8acbac3c","setHostVoucherFeeHours(uint256)":"46c9bcca","setHostVoucherFeeMonths(uint256)":"7a1b27c9","setHostingFee(uint256)":"edfbf4f1","setPaymentAddress(address)":"5e1e1004","setPlatformFee(uint256)":"12e8e2c3","setTreasuryAddress(address)":"6605bfda","storageContract()":"11ce0267","toggleEmergencyMode()":"4c17b530","transferOwnership(address)":"f2fde38b","treasury()":"61d027b3","treasuryAddress()":"c5f956af","treasuryHistory(uint256)":"a380b86b","unpause()":"3f4ba83a","upgradeToAndCall(address,bytes)":"4f1ef286"},"id":1}