{
  "_format": "hh-sol-artifact-1",
  "contractName": "ZaaNetPaymentV1",
  "sourceName": "contracts/ZaaNetPaymentV1.sol",
  "abi": [
    {
      "inputs": [],
      "stateMutability": "nonpayable",
      "type": "constructor"
    },
    {
      "inputs": [
        {
          "internalType": "address",
          "name": "target",
          "type": "address"
        }
      ],
      "name": "AddressEmptyCode",
      "type": "error"
    },
    {
      "inputs": [
        {
          "internalType": "address",
          "name": "implementation",
          "type": "address"
        }
      ],
      "name": "ERC1967InvalidImplementation",
      "type": "error"
    },
    {
      "inputs": [],
      "name": "ERC1967NonPayable",
      "type": "error"
    },
    {
      "inputs": [],
      "name": "EnforcedPause",
      "type": "error"
    },
    {
      "inputs": [],
      "name": "ExpectedPause",
      "type": "error"
    },
    {
      "inputs": [],
      "name": "FailedCall",
      "type": "error"
    },
    {
      "inputs": [],
      "name": "InvalidInitialization",
      "type": "error"
    },
    {
      "inputs": [],
      "name": "NotInitializing",
      "type": "error"
    },
    {
      "inputs": [
        {
          "internalType": "address",
          "name": "owner",
          "type": "address"
        }
      ],
      "name": "OwnableInvalidOwner",
      "type": "error"
    },
    {
      "inputs": [
        {
          "internalType": "address",
          "name": "account",
          "type": "address"
        }
      ],
      "name": "OwnableUnauthorizedAccount",
      "type": "error"
    },
    {
      "inputs": [
        {
          "internalType": "address",
          "name": "token",
          "type": "address"
        }
      ],
      "name": "SafeERC20FailedOperation",
      "type": "error"
    },
    {
      "inputs": [],
      "name": "UUPSUnauthorizedCallContext",
      "type": "error"
    },
    {
      "inputs": [
        {
          "internalType": "bytes32",
          "name": "slot",
          "type": "bytes32"
        }
      ],
      "name": "UUPSUnsupportedProxiableUUID",
      "type": "error"
    },
    {
      "anonymous": false,
      "inputs": [
        {
          "indexed": false,
          "internalType": "uint256",
          "name": "batchSize",
          "type": "uint256"
        },
        {
          "indexed": false,
          "internalType": "uint256",
          "name": "totalAmount",
          "type": "uint256"
        },
        {
          "indexed": false,
          "internalType": "uint256",
          "name": "totalPlatformFee",
          "type": "uint256"
        }
      ],
      "name": "BatchPaymentProcessed",
      "type": "event"
    },
    {
      "anonymous": false,
      "inputs": [
        {
          "indexed": true,
          "internalType": "address",
          "name": "treasury",
          "type": "address"
        },
        {
          "indexed": false,
          "internalType": "uint256",
          "name": "attemptedAmount",
          "type": "uint256"
        },
        {
          "indexed": false,
          "internalType": "uint256",
          "name": "dailyLimit",
          "type": "uint256"
        },
        {
          "indexed": false,
          "internalType": "uint256",
          "name": "alreadyWithdrawn",
          "type": "uint256"
        }
      ],
      "name": "DailyLimitExceeded",
      "type": "event"
    },
    {
      "anonymous": false,
      "inputs": [
        {
          "indexed": false,
          "internalType": "uint256",
          "name": "newLimit",
          "type": "uint256"
        },
        {
          "indexed": false,
          "internalType": "address",
          "name": "updatedBy",
          "type": "address"
        },
        {
          "indexed": false,
          "internalType": "uint256",
          "name": "timestamp",
          "type": "uint256"
        }
      ],
      "name": "DailyLimitUpdated",
      "type": "event"
    },
    {
      "anonymous": false,
      "inputs": [
        {
          "indexed": true,
          "internalType": "address",
          "name": "host",
          "type": "address"
        },
        {
          "indexed": true,
          "internalType": "uint8",
          "name": "tier",
          "type": "uint8"
        },
        {
          "indexed": false,
          "internalType": "uint256",
          "name": "voucherCount",
          "type": "uint256"
        },
        {
          "indexed": false,
          "internalType": "uint256",
          "name": "totalFee",
          "type": "uint256"
        },
        {
          "indexed": false,
          "internalType": "uint256",
          "name": "timestamp",
          "type": "uint256"
        }
      ],
      "name": "HostVouchersRegistered",
      "type": "event"
    },
    {
      "anonymous": false,
      "inputs": [
        {
          "indexed": false,
          "internalType": "uint64",
          "name": "version",
          "type": "uint64"
        }
      ],
      "name": "Initialized",
      "type": "event"
    },
    {
      "anonymous": false,
      "inputs": [
        {
          "indexed": true,
          "internalType": "address",
          "name": "previousOwner",
          "type": "address"
        },
        {
          "indexed": true,
          "internalType": "address",
          "name": "newOwner",
          "type": "address"
        }
      ],
      "name": "OwnershipTransferred",
      "type": "event"
    },
    {
      "anonymous": false,
      "inputs": [
        {
          "indexed": false,
          "internalType": "address",
          "name": "account",
          "type": "address"
        }
      ],
      "name": "Paused",
      "type": "event"
    },
    {
      "anonymous": false,
      "inputs": [
        {
          "indexed": true,
          "internalType": "bytes32",
          "name": "voucherId",
          "type": "bytes32"
        },
        {
          "indexed": true,
          "internalType": "uint256",
          "name": "contractId",
          "type": "uint256"
        },
        {
          "indexed": true,
          "internalType": "address",
          "name": "host",
          "type": "address"
        },
        {
          "indexed": false,
          "internalType": "address",
          "name": "payer",
          "type": "address"
        },
        {
          "indexed": false,
          "internalType": "uint256",
          "name": "grossAmount",
          "type": "uint256"
        },
        {
          "indexed": false,
          "internalType": "uint256",
          "name": "platformFee",
          "type": "uint256"
        },
        {
          "indexed": false,
          "internalType": "uint256",
          "name": "hostAmount",
          "type": "uint256"
        },
        {
          "indexed": false,
          "internalType": "uint256",
          "name": "timestamp",
          "type": "uint256"
        }
      ],
      "name": "PaymentProcessed",
      "type": "event"
    },
    {
      "anonymous": false,
      "inputs": [
        {
          "indexed": true,
          "internalType": "address",
          "name": "token",
          "type": "address"
        },
        {
          "indexed": false,
          "internalType": "bool",
          "name": "status",
          "type": "bool"
        },
        {
          "indexed": false,
          "internalType": "uint256",
          "name": "timestamp",
          "type": "uint256"
        }
      ],
      "name": "TokenWhitelistUpdated",
      "type": "event"
    },
    {
      "anonymous": false,
      "inputs": [
        {
          "indexed": false,
          "internalType": "address",
          "name": "account",
          "type": "address"
        }
      ],
      "name": "Unpaused",
      "type": "event"
    },
    {
      "anonymous": false,
      "inputs": [
        {
          "indexed": true,
          "internalType": "address",
          "name": "implementation",
          "type": "address"
        }
      ],
      "name": "Upgraded",
      "type": "event"
    },
    {
      "inputs": [],
      "name": "UPGRADE_INTERFACE_VERSION",
      "outputs": [
        {
          "internalType": "string",
          "name": "",
          "type": "string"
        }
      ],
      "stateMutability": "view",
      "type": "function"
    },
    {
      "inputs": [
        {
          "internalType": "address",
          "name": "_token",
          "type": "address"
        }
      ],
      "name": "addTokenToWhitelist",
      "outputs": [],
      "stateMutability": "nonpayable",
      "type": "function"
    },
    {
      "inputs": [],
      "name": "adminContract",
      "outputs": [
        {
          "internalType": "contract IZaaNetAdmin",
          "name": "",
          "type": "address"
        }
      ],
      "stateMutability": "view",
      "type": "function"
    },
    {
      "inputs": [],
      "name": "contractTokenBalance",
      "outputs": [
        {
          "internalType": "uint256",
          "name": "",
          "type": "uint256"
        }
      ],
      "stateMutability": "view",
      "type": "function"
    },
    {
      "inputs": [],
      "name": "dailyWithdrawalLimit",
      "outputs": [
        {
          "internalType": "uint256",
          "name": "",
          "type": "uint256"
        }
      ],
      "stateMutability": "view",
      "type": "function"
    },
    {
      "inputs": [
        {
          "internalType": "uint256",
          "name": "",
          "type": "uint256"
        }
      ],
      "name": "dailyWithdrawals",
      "outputs": [
        {
          "internalType": "uint256",
          "name": "",
          "type": "uint256"
        }
      ],
      "stateMutability": "view",
      "type": "function"
    },
    {
      "inputs": [],
      "name": "getRemainingDailyLimit",
      "outputs": [
        {
          "internalType": "uint256",
          "name": "",
          "type": "uint256"
        }
      ],
      "stateMutability": "view",
      "type": "function"
    },
    {
      "inputs": [],
      "name": "getTodayWithdrawals",
      "outputs": [
        {
          "internalType": "uint256",
          "name": "",
          "type": "uint256"
        }
      ],
      "stateMutability": "view",
      "type": "function"
    },
    {
      "inputs": [],
      "name": "getWhitelistedTokens",
      "outputs": [
        {
          "internalType": "address[]",
          "name": "",
          "type": "address[]"
        }
      ],
      "stateMutability": "view",
      "type": "function"
    },
    {
      "inputs": [
        {
          "internalType": "address",
          "name": "_usdt",
          "type": "address"
        },
        {
          "internalType": "address",
          "name": "_storageContract",
          "type": "address"
        },
        {
          "internalType": "address",
          "name": "_adminContract",
          "type": "address"
        }
      ],
      "name": "initialize",
      "outputs": [],
      "stateMutability": "nonpayable",
      "type": "function"
    },
    {
      "inputs": [],
      "name": "isReentrancyGuardActive",
      "outputs": [
        {
          "internalType": "bool",
          "name": "",
          "type": "bool"
        }
      ],
      "stateMutability": "view",
      "type": "function"
    },
    {
      "inputs": [
        {
          "internalType": "address",
          "name": "_token",
          "type": "address"
        }
      ],
      "name": "isTokenWhitelisted",
      "outputs": [
        {
          "internalType": "bool",
          "name": "",
          "type": "bool"
        }
      ],
      "stateMutability": "view",
      "type": "function"
    },
    {
      "inputs": [
        {
          "internalType": "bytes32",
          "name": "_voucherId",
          "type": "bytes32"
        }
      ],
      "name": "isVoucherProcessed",
      "outputs": [
        {
          "internalType": "bool",
          "name": "",
          "type": "bool"
        }
      ],
      "stateMutability": "view",
      "type": "function"
    },
    {
      "inputs": [],
      "name": "owner",
      "outputs": [
        {
          "internalType": "address",
          "name": "",
          "type": "address"
        }
      ],
      "stateMutability": "view",
      "type": "function"
    },
    {
      "inputs": [],
      "name": "pause",
      "outputs": [],
      "stateMutability": "nonpayable",
      "type": "function"
    },
    {
      "inputs": [],
      "name": "paused",
      "outputs": [
        {
          "internalType": "bool",
          "name": "",
          "type": "bool"
        }
      ],
      "stateMutability": "view",
      "type": "function"
    },
    {
      "inputs": [
        {
          "components": [
            {
              "internalType": "uint256",
              "name": "contractId",
              "type": "uint256"
            },
            {
              "internalType": "uint256",
              "name": "grossAmount",
              "type": "uint256"
            },
            {
              "internalType": "bytes32",
              "name": "voucherId",
              "type": "bytes32"
            }
          ],
          "internalType": "struct ZaaNetPaymentV1.BatchPayment[]",
          "name": "payments",
          "type": "tuple[]"
        }
      ],
      "name": "processBatchPayments",
      "outputs": [],
      "stateMutability": "nonpayable",
      "type": "function"
    },
    {
      "inputs": [
        {
          "internalType": "uint256",
          "name": "_contractId",
          "type": "uint256"
        },
        {
          "internalType": "uint256",
          "name": "_grossAmount",
          "type": "uint256"
        },
        {
          "internalType": "bytes32",
          "name": "_voucherId",
          "type": "bytes32"
        }
      ],
      "name": "processPayment",
      "outputs": [],
      "stateMutability": "nonpayable",
      "type": "function"
    },
    {
      "inputs": [
        {
          "internalType": "bytes32",
          "name": "",
          "type": "bytes32"
        }
      ],
      "name": "processedVouchers",
      "outputs": [
        {
          "internalType": "bool",
          "name": "",
          "type": "bool"
        }
      ],
      "stateMutability": "view",
      "type": "function"
    },
    {
      "inputs": [],
      "name": "proxiableUUID",
      "outputs": [
        {
          "internalType": "bytes32",
          "name": "",
          "type": "bytes32"
        }
      ],
      "stateMutability": "view",
      "type": "function"
    },
    {
      "inputs": [
        {
          "internalType": "bytes32[]",
          "name": "voucherIds",
          "type": "bytes32[]"
        },
        {
          "internalType": "uint8",
          "name": "tier",
          "type": "uint8"
        }
      ],
      "name": "registerHostVouchersAndPayFee",
      "outputs": [],
      "stateMutability": "nonpayable",
      "type": "function"
    },
    {
      "inputs": [
        {
          "internalType": "address",
          "name": "_token",
          "type": "address"
        }
      ],
      "name": "removeTokenFromWhitelist",
      "outputs": [],
      "stateMutability": "nonpayable",
      "type": "function"
    },
    {
      "inputs": [],
      "name": "renounceOwnership",
      "outputs": [],
      "stateMutability": "nonpayable",
      "type": "function"
    },
    {
      "inputs": [
        {
          "internalType": "address",
          "name": "_erc20",
          "type": "address"
        },
        {
          "internalType": "address",
          "name": "_to",
          "type": "address"
        },
        {
          "internalType": "uint256",
          "name": "_amount",
          "type": "uint256"
        }
      ],
      "name": "rescueERC20",
      "outputs": [],
      "stateMutability": "nonpayable",
      "type": "function"
    },
    {
      "inputs": [
        {
          "internalType": "uint256",
          "name": "_newLimit",
          "type": "uint256"
        }
      ],
      "name": "setDailyWithdrawalLimit",
      "outputs": [],
      "stateMutability": "nonpayable",
      "type": "function"
    },
    {
      "inputs": [],
      "name": "storageContract",
      "outputs": [
        {
          "internalType": "contract IZaaNetStorage",
          "name": "",
          "type": "address"
        }
      ],
      "stateMutability": "view",
      "type": "function"
    },
    {
      "inputs": [],
      "name": "tokenDecimals",
      "outputs": [
        {
          "internalType": "uint8",
          "name": "",
          "type": "uint8"
        }
      ],
      "stateMutability": "view",
      "type": "function"
    },
    {
      "inputs": [
        {
          "internalType": "address",
          "name": "newOwner",
          "type": "address"
        }
      ],
      "name": "transferOwnership",
      "outputs": [],
      "stateMutability": "nonpayable",
      "type": "function"
    },
    {
      "inputs": [],
      "name": "unpause",
      "outputs": [],
      "stateMutability": "nonpayable",
      "type": "function"
    },
    {
      "inputs": [
        {
          "internalType": "address",
          "name": "newImplementation",
          "type": "address"
        },
        {
          "internalType": "bytes",
          "name": "data",
          "type": "bytes"
        }
      ],
      "name": "upgradeToAndCall",
      "outputs": [],
      "stateMutability": "payable",
      "type": "function"
    },
    {
      "inputs": [],
      "name": "usdt",
      "outputs": [
        {
          "internalType": "contract IERC20",
          "name": "",
          "type": "address"
        }
      ],
      "stateMutability": "view",
      "type": "function"
    },
    {
      "inputs": [
        {
          "internalType": "uint256",
          "name": "",
          "type": "uint256"
        }
      ],
      "name": "whitelistedTokenList",
      "outputs": [
        {
          "internalType": "address",
          "name": "",
          "type": "address"
        }
      ],
      "stateMutability": "view",
      "type": "function"
    },
    {
      "inputs": [
        {
          "internalType": "address",
          "name": "",
          "type": "address"
        }
      ],
      "name": "whitelistedTokens",
      "outputs": [
        {
          "internalType": "bool",
          "name": "",
          "type": "bool"
        }
      ],
      "stateMutability": "view",
      "type": "function"
    },
    {
      "inputs": [
        {
          "internalType": "address",
          "name": "_to",
          "type": "address"
        },
        {
          "internalType": "uint256",
          "name": "_amount",
          "type": "uint256"
        }
      ],
      "name": "withdrawToken",
      "outputs": [],
      "stateMutability": "nonpayable",
      "type": "function"
    }
  ],
  "bytecode": "0x60a0806040523460295730608052612ff8908161002f8239608051818181611c520152611d200152f35b600080fdfe608080604052600436101561001357600080fd5b600090813560e01c90816303d50d66146127895750806305483a15146126aa5780630604bfa4146109b857806311ce0267146126815780632f48ab7d14612658578063306275be1461253257806333770245146125085780633b97e856146124e45780633f4ba83a146124625780634342482d14611eb75780634f1ef28614611ca757806352d1902d14611c3f5780635c975abb14611c0f578063715018a614611ba55780637620843a14611b875780637ddd23e1146112c35780638456cb591461124e5780638da5cb5b146112185780639e281a9814610fd95780639e7b721814610bf95780639e9aed6214610b64578063a15f39e814610b17578063ad3cb1cc14610ab8578063b2118a8d146109e7578063b5af090f1461028e578063b9a24544146109b8578063bddff74914610937578063c05c5e941461090e578063c0c53b8b14610559578063c4d276bc1461052d578063d84c1b38146102cd578063daf9c2101461028e578063e26f7900146101c65763f2fde38b1461019757600080fd5b346101c35760203660031901126101c3576101c06101b36127a6565b6101bb612d3f565b612cc9565b80f35b80fd5b50346101c357806003193601126101c35760405180602060385491828152018091603885527f38395c5dceade9603479b177b68959049485df8aa97b39f3533039af5f45619990855b81811061026f57505050826102259103836127d2565b604051928392602084019060208552518091526040840192915b81811061024d575050500390f35b82516001600160a01b031684528594506020938401939092019160010161023f565b82546001600160a01b031684526020909301926001928301920161020f565b50346101c35760203660031901126101c35760209060ff906040906001600160a01b036102b96127a6565b168152603784522054166040519015158152f35b50346101c35760203660031901126101c3576102e76127a6565b6102ef612d3f565b6001600160a01b0381169081156104f057818352603760205260ff6040842054166104ab5760405163313ce56760e01b8152602081600481865afa9081156104a05760069160ff918691610471575b50160361042c576040516318160ddd60e01b8152602081600481865afa90816103f8575b506103a55760405162461bcd60e51b8152602060048201526016602482015275125b9d985b1a59081d1bdad95b8818dbdb9d1c9858dd60521b6044820152606490fd5b818352603760205260408320805460ff191660011790556103c590612c5d565b7f7fb8cc89e751c0284c2d2cc1c1e6a904c25cf93855aa4159c30ce2d0827c54fe6040805160018152426020820152a280f35b6020813d602011610424575b81610411602093836127d2565b8101031261041f5751610362565b600080fd5b3d9150610404565b60405162461bcd60e51b815260206004820152601a60248201527f546f6b656e206d7573742068617665203620646563696d616c730000000000006044820152606490fd5b610493915060203d602011610499575b61048b81836127d2565b810190612c44565b3861033e565b503d610481565b6040513d86823e3d90fd5b60405162461bcd60e51b815260206004820152601960248201527f546f6b656e20616c72656164792077686974656c6973746564000000000000006044820152606490fd5b60405162461bcd60e51b8152602060048201526015602482015274496e76616c696420746f6b656e206164647265737360581b6044820152606490fd5b50346101c357806003193601126101c35760406020916201518042048152603683522054604051908152f35b50346101c35760603660031901126101c3576105736127a6565b61057b6127bc565b906044356001600160a01b038116919082900361090a57600080516020612fa3833981519152549260ff8460401c1615936001600160401b03811680159081610902575b60011490816108f8575b1590816108ef575b506108e05767ffffffffffffffff198116600117600080516020612fa383398151915255846108b3575b50610604612e82565b61060c612e82565b61061533612cc9565b61061d612e82565b610625612e82565b61062d612e82565b600185556402540be4006035556001600160a01b038216908115610881576001600160a01b031691821561084d57831561081b57603280546001600160a01b03198116841790915560405163313ce56760e01b815290602082600481875afa908115610810578460ff926006948b916107f1575b508360a01b9060a01b16916affffffffffffffffffffff60a81b1617178060325560a01c16036107ac57818652603760205260408620805460ff191660011790556106eb90612c5d565b7f7fb8cc89e751c0284c2d2cc1c1e6a904c25cf93855aa4159c30ce2d0827c54fe6040805160018152426020820152a26bffffffffffffffffffffffff60a01b60335416176033556bffffffffffffffffffffffff60a01b60345416176034556107525780f35b68ff000000000000000019600080516020612fa38339815191525416600080516020612fa3833981519152557fc7f505b2f371ae2175ee4913f4499e1f2633a7b5936321eed1cdaeb6115181d2602060405160018152a180f35b60405162461bcd60e51b815260206004820152601860248201527f546f6b656e20646563696d616c73206d757374206265203600000000000000006044820152606490fd5b61080a915060203d6020116104995761048b81836127d2565b386106a1565b6040513d8a823e3d90fd5b60405162461bcd60e51b815260206004820152600a60248201526961646d696e207a65726f60b01b6044820152606490fd5b60405162461bcd60e51b815260206004820152600c60248201526b73746f72616765207a65726f60a01b6044820152606490fd5b60405162461bcd60e51b815260206004820152600a602482015269746f6b656e207a65726f60b01b6044820152606490fd5b68ffffffffffffffffff19166801000000000000000117600080516020612fa383398151915255386105fb565b63f92ee8a960e01b8652600486fd5b905015386105d1565b303b1591506105c9565b8691506105bf565b8380fd5b50346101c357806003193601126101c3576034546040516001600160a01b039091168152602090f35b50346101c35760203660031901126101c357600435906038548210156101c3576038548210156109a457603881527f38395c5dceade9603479b177b68959049485df8aa97b39f3533039af5f4561999091015460405160039290921b1c6001600160a01b03168152602090f35b634e487b7160e01b81526032600452602490fd5b50346101c35760203660031901126101c35760ff60406020926004358152603984522054166040519015158152f35b50346101c35760603660031901126101c357610a016127a6565b610a096127bc565b90610a12612d3f565b6001600160a01b03821615610a89576032546001600160a01b0391821691168114610a44576101c09160443591612df5565b60405162461bcd60e51b815260206004820152601b60248201527f43616e6e6f7420726573637565207061796d656e7420746f6b656e00000000006044820152606490fd5b60405162461bcd60e51b81526020600482015260076024820152667a65726f20746f60c81b6044820152606490fd5b50346101c357806003193601126101c35750610b0960408051610adb82826127d2565b6005815260208101640352e302e360dc1b815282519384926020845251809281602086015285850190612824565b601f01601f19168101030190f35b50346101c357806003193601126101c357602090620151804204815260368252604081205460355480821015600014610b555750505b604051908152f35b610b5f9250612ae0565b610b4d565b50346101c357806003193601126101c3576032546040516370a0823160e01b81523060048201529190602090839060249082906001600160a01b03165afa908115610bed5790610bba575b602090604051908152f35b506020813d602011610be5575b81610bd4602093836127d2565b8101031261041f5760209051610baf565b3d9150610bc7565b604051903d90823e3d90fd5b50346101c35760403660031901126101c3576004356001600160401b038111610fd55736602382011215610fd5578060040135906001600160401b038211610e0757602436918360051b010111610fd5576024359060ff8216809203610e0757610c61612d75565b610c69612d9f565b8015610fa2576103e88111610f695760028211610f355760345460405163b110bb5b60e01b8152600481018490526001600160a01b039091169190602081602481865afa908115610e7a578591610f03575b508015610ebe5781610ccc91612c31565b918215610e855760206004916040519283809263c5f956af60e01b82525afa908115610e7a578591610e3c575b506001600160a01b0316610d0e811515612aa1565b6032546040516323b872dd60e01b87523360045260249290925260448490526001600160a01b031660208660648180855af16001875114811615610e1d575b826040528660605215610e0b57506033548591906001600160a01b0316803b15610e075781602481858094630de4b87f60e11b83528960048401525af18015610dfc57610de7575b5050610ddd7fa249fcbab6d1e1af4f18545c0073c1775a962c44cbb61ce270d72f7952438f5a9160405191829133954291846040919493926060820195825260208201520152565b0390a36001815580f35b81610df1916127d2565b61090a578338610d95565b6040513d84823e3d90fd5b8280fd5b635274afe760e01b8652600452602485fd5b6001811516610e3357813b15153d151616610d4d565b823d88823e3d90fd5b90506020813d602011610e72575b81610e57602093836127d2565b81010312610e6e57610e6890612847565b38610cf9565b8480fd5b3d9150610e4a565b6040513d87823e3d90fd5b60405162461bcd60e51b8152602060048201526011602482015270546f74616c20666565206973207a65726f60781b6044820152606490fd5b60405162461bcd60e51b815260206004820152601860248201527f486f737420766f756368657220666565206e6f742073657400000000000000006044820152606490fd5b90506020813d602011610f2d575b81610f1e602093836127d2565b8101031261041f575138610cbb565b3d9150610f11565b60405162461bcd60e51b815260206004820152600c60248201526b24b73b30b634b2103a34b2b960a11b6044820152606490fd5b60405162461bcd60e51b8152602060048201526011602482015270546f6f206d616e7920766f75636865727360781b6044820152606490fd5b60405162461bcd60e51b815260206004820152600b60248201526a4e6f20766f75636865727360a81b6044820152606490fd5b5080fd5b50346101c35760403660031901126101c357610ff36127a6565b602435610ffe612d3f565b6001600160a01b038216156111d357801561118f576032546040516370a0823160e01b815230600482015290602090829060249082906001600160a01b03165afa80156104a05782908590611159575b61105a92501015612be5565b620151804204808452603660205260408420546035548181811061114b575050845b83116111065784936110b192611093858094612bd8565b908652603660205260408620556032546001600160a01b0316612df5565b6033546001600160a01b031690813b1561110257829160248392604051948593849263e4938a4f60e01b845260048401525af18015610dfc576110f15750f35b816110fb916127d2565b6101c35780f35b5050fd5b60405162461bcd60e51b815260206004820152601e60248201527f45786365656473206461696c79207769746864726177616c206c696d697400006044820152606490fd5b61115491612ae0565b61107c565b50506020813d602011611187575b81611174602093836127d2565b8101031261041f578161105a915161104e565b3d9150611167565b606460405162461bcd60e51b815260206004820152602060248201527f416d6f756e74206d7573742062652067726561746572207468616e207a65726f6044820152fd5b60405162461bcd60e51b815260206004820152601960248201527f496e76616c696420726563697069656e742061646472657373000000000000006044820152606490fd5b50346101c357806003193601126101c357600080516020612f43833981519152546040516001600160a01b039091168152602090f35b50346101c357806003193601126101c357611267612d3f565b61126f612d75565b600160ff19600080516020612f83833981519152541617600080516020612f83833981519152557f62e78cea01bee320cd4e420270b5ea74000d11b0c9f74754ebdbfc544b05a2586020604051338152a180f35b50346101c35760203660031901126101c3576004356001600160401b038111610fd55736602382011215610fd5578060040135906001600160401b038211610e075760248101906024369160608502010111610e0757611321612d75565b611329612d9f565b60345460405163319a11df60e11b81526001600160a01b039091169290602081600481875afa8015610e7a578590611b4c575b61137191506001600160a01b0316331461285b565b60405162482fab60e51b8152602081600481875afa8015610e7a578590611b11575b61139e9150156128aa565b80151580611b06575b15611acc57604051638c639a8560e01b815292849290602085600481845afa948515611a8a578695611a95575b509060206004926040519384809263c5f956af60e01b82525afa918215611a8a578692611a4a575b506114116001600160a01b0383161515612aa1565b61141a83612b45565b61142760405191826127d2565b838152601f1961143685612b45565b013660208301376033548791906001600160a01b0316825b8684106119015750505050620151804204808752603660205261149385604089205480603554808210156000146118ef57505061148e8a5b831115612b03565b612bd8565b908752603660205260408720556024602060018060a01b0360325416604051928380926370a0823160e01b82523060048301525afa80156118e457859088906118ae575b6114e692509692961015612be5565b859486915b84831061160f57505050838061159f575b505060335484906001600160a01b0316803b15610fd55781809160246040518094819363e867cecf60e01b83528960048401525af18015610dfc5761158a575b50506115807f20eb9f3aebb74816a1325a7477cfa6f6ab692b692cd5930db98bd2d0343b70ca93604051938493846040919493926060820195825260208201520152565b0390a16001815580f35b81611594916127d2565b61090a57833861153c565b6032546115b592906001600160a01b0316612df5565b60335484906001600160a01b0316803b15610fd55781809160246040518094819363d3158e1360e01b83528a60048401525af18015610dfc576115fa575b50836114fc565b81611604916127d2565b61090a5783386115f3565b909195611625611620888786612b5c565b612b82565b9660018060a01b0360335416978981516024604051809c81936395ea571760e01b835260048301525afa9889156118a3578a9961187f575b508960208201916064611671878551612c31565b049461167e868551612ae0565b906116898783612bd8565b6032546040516370a0823160e01b81523060048201526001600160a01b0390911695906020816024818a5afa918215610bed579161184c575b5010611808576116e2828f9e6020019560018060a01b0387511690612df5565b60335484516001600160a01b039081169116803b15611804576040516370e3d45560e11b81526001600160a01b03929092166004830152602482018490528e908290604490829084905af19081156117f7578e916117da575b505090866117cf61176f6001997fdaec0156f045fe9bffcc686bd77361f536743020f757603c9f1888937cdfc52195612bd8565b9e604080870191825181526039602052208a60ff1982541617905551945195898060a01b039051169651604051938493429233869192608093969594919660a084019760018060a01b031684526020840152604083015260608201520152565b0390a40191906114eb565b816117e7919493946127d2565b6117f357908c3861173b565b8c80fd5b8e604051903d90823e3d90fd5b8e80fd5b606460405162461bcd60e51b815260206004820152602060248201527f496e73756666696369656e742062616c616e636520666f72207061796d656e746044820152fd5b905060203d8111611878575b61186281836127d2565b602082600092810103126101c3575051386116c2565b503d611858565b61189c9199503d808c833e61189481836127d2565b810190612977565b973861165d565b6040513d8c823e3d90fd5b50506020813d6020116118dc575b816118c9602093836127d2565b8101031261041f57846114e691516114d7565b3d91506118bc565b6040513d89823e3d90fd5b61148e916118fc91612ae0565b611486565b6119126116208589889b979b612b5c565b9360408501918b5b8181106119eb5750825161192e8287612bc4565b5260001981146119d7579060018c9392019560208101926119518451151561293a565b518452603960205261196a60ff604086205416156128ee565b5191604051926395ea571760e01b845260048401528383602481885afa9283156104a05760806119b4946119ad9287600198926119bc575b505001511515612a60565b5190612bd8565b97019261144e565b6119d092503d8091833e61189481836127d2565b8f806119a2565b634e487b7160e01b8c52601160045260248cfd5b6119f58187612bc4565b51845114611a055760010161191a565b60405162461bcd60e51b815260206004820152601a60248201527f4475706c696361746520766f756368657220696e2062617463680000000000006044820152606490fd5b9091506020813d602011611a82575b81611a66602093836127d2565b81010312611a7e57611a7790612847565b90386113fc565b8580fd5b3d9150611a59565b6040513d88823e3d90fd5b919094506020823d602011611ac4575b81611ab2602093836127d2565b8101031261041f5790519360206113d4565b3d9150611aa5565b60405162461bcd60e51b8152602060048201526012602482015271496e76616c69642062617463682073697a6560701b6044820152606490fd5b5060328111156113a7565b506020813d602011611b44575b81611b2b602093836127d2565b81010312610e6e57611b3f61139e9161289d565b611393565b3d9150611b1e565b506020813d602011611b7f575b81611b66602093836127d2565b81010312610e6e57611b7a61137191612847565b61135c565b3d9150611b59565b50346101c357806003193601126101c3576020603554604051908152f35b50346101c357806003193601126101c357611bbe612d3f565b600080516020612f4383398151915280546001600160a01b0319811690915581906001600160a01b03167f8be0079c531659141344cd1fd0a4f28419497f9722a3daafe3b4186f6b6457e08280a380f35b50346101c357806003193601126101c357602060ff600080516020612f8383398151915254166040519015158152f35b50346101c357806003193601126101c3577f00000000000000000000000000000000000000000000000000000000000000006001600160a01b03163003611c98576020604051600080516020612f638339815191528152f35b63703e46dd60e11b8152600490fd5b5060403660031901126101c357611cbc6127a6565b90602435916001600160401b038311610fd55736602384011215610fd5578260040135611ce881612809565b93611cf660405195866127d2565b818552366024838301011161090a5781849260246020930183880137850101526001600160a01b037f000000000000000000000000000000000000000000000000000000000000000016308114908115611e94575b50611e8557611d58612d3f565b6040516352d1902d60e01b8152926001600160a01b0382169190602085600481865afa80958596611e51575b50611d9d57634c9c8ce360e01b84526004839052602484fd5b909184600080516020612f638339815191528103611e3f5750823b15611e2d57600080516020612f6383398151915280546001600160a01b031916821790557fbc7cd75a20ee27fd9adebab32041f755214dbc6bffa90cc0225b39da2e5c2d3b8480a2805115611e1457611e1091612eb0565b5080f35b505034611e1e5780f35b63b398979f60e01b8152600490fd5b634c9c8ce360e01b8452600452602483fd5b632a87526960e21b8552600452602484fd5b9095506020813d602011611e7d575b81611e6d602093836127d2565b81010312610e6e57519438611d84565b3d9150611e60565b63703e46dd60e11b8252600482fd5b600080516020612f63833981519152546001600160a01b03161415905038611d4b565b50346101c35760603660031901126101c357602435600435604435611eda612d75565b611ee2612d9f565b60345460405163319a11df60e11b81526001600160a01b0390911690602081600481855afa8015611a8a578690612427575b611f2991506001600160a01b0316331461285b565b60405162482fab60e51b8152602081600481855afa8015611a8a5786906123ec575b611f569150156128aa565b8185526039602052611f6f60ff604087205416156128ee565b611f7a84151561293a565b6033546040516395ea571760e01b815260048101859052908690829060249082906001600160a01b03165afa908115611a8a5786916123d2575b50611fc460808201511515612a60565b604051638c639a8560e01b815291602083600481845afa9283156118e457879361239d575b509160206004936040519485809263c5f956af60e01b82525afa9283156118e457879361235d575b506120266001600160a01b0384161515612aa1565b606461207962015180420492838a52603660205260408a20546035548082101560001461234b57505061205c8a5b8a1115612b03565b868a52603960205260408a20805460ff1916600117905588612c31565b04906120858288612ae0565b9260018060a01b0360325416946040516370a0823160e01b81523060048201526020816024818a5afa908115612340578b9161230a575b506120c78587612bd8565b116122b3576120e68560208694019760018060a01b0389511690612df5565b8115159182612296575b505060335485516001600160a01b03918216918b9116823b15610fd5576040516370e3d45560e11b81526001600160a01b0391909116600482015260248101879052918290604490829084905af180156118a357612282575b50612228575b60335488906001600160a01b0316803b15610fd55781809160248b604051948593849263e867cecf60e01b845260048401525af18015610dfc5761220f575b5093612205917fdaec0156f045fe9bffcc686bd77361f536743020f757603c9f1888937cdfc52195526036602052604089206121cb898254612bd8565b90555160408051338152602081019990995288019290925260608701929092524260808701526001600160a01b03169490819060a0820190565b0390a46001815580f35b81612219916127d2565b61222457873861218e565b8780fd5b60335488906001600160a01b0316803b15610fd55781809160246040518094819363d3158e1360e01b83528960048401525af18015610dfc5761226d575b505061214f565b81612277916127d2565b612224578738612266565b8961228f919a929a6127d2565b9738612149565b6032546122ac92906001600160a01b0316612df5565b38836120f0565b60405162461bcd60e51b815260206004820152602960248201527f496e73756666696369656e7420636f6e74726163742062616c616e636520666f6044820152681c881c185e5b595b9d60ba1b6064820152608490fd5b90506020813d602011612338575b81612325602093836127d2565b810103126123345751386120bc565b8a80fd5b3d9150612318565b6040513d8d823e3d90fd5b61205c9161235891612ae0565b612054565b9092506020813d602011612395575b81612379602093836127d2565b810103126123915761238a90612847565b9138612011565b8680fd5b3d915061236c565b92506020833d6020116123ca575b816123b8602093836127d2565b81010312612391579151916020611fe9565b3d91506123ab565b6123e691503d8088833e61189481836127d2565b38611fb4565b506020813d60201161241f575b81612406602093836127d2565b81010312611a7e5761241a611f569161289d565b611f4b565b3d91506123f9565b506020813d60201161245a575b81612441602093836127d2565b81010312611a7e57612455611f2991612847565b611f14565b3d9150612434565b50346101c357806003193601126101c35761247b612d3f565b600080516020612f838339815191525460ff8116156124d55760ff1916600080516020612f83833981519152557f5db9ee0a495bf2e6ff9c91a7834c1ba4fdd244a5e8aa4e537bd38aeae4b073aa6020604051338152a180f35b638dfc202b60e01b8252600482fd5b50346101c357806003193601126101c357602060ff60325460a01c16604051908152f35b50346101c35760203660031901126101c35760406020916004358152603683522054604051908152f35b50346101c35760203660031901126101c35761254c6127a6565b612554612d3f565b6001600160a01b03168082526037602052604082205460ff161561261b576032546001600160a01b031681146125ca5780825260376020526040822060ff1981541690557f7fb8cc89e751c0284c2d2cc1c1e6a904c25cf93855aa4159c30ce2d0827c54fe60408051848152426020820152a280f35b60405162461bcd60e51b815260206004820152602360248201527f43616e6e6f742072656d6f7665207072696d617279207061796d656e7420746f60448201526235b2b760e91b6064820152608490fd5b60405162461bcd60e51b8152602060048201526015602482015274151bdad95b881b9bdd081dda1a5d195b1a5cdd1959605a1b6044820152606490fd5b50346101c357806003193601126101c3576032546040516001600160a01b039091168152602090f35b50346101c357806003193601126101c3576033546040516001600160a01b039091168152602090f35b50346101c35760203660031901126101c3576004356126c7612d3f565b80156127545764e8d4a510008111612717576060817fda28ca75968339406a52357673d7e5448fc139fc6b02f5e78d654f35cf162e2092603555604051908152336020820152426040820152a180f35b60405162461bcd60e51b81526020600482015260156024820152744c696d69742065786365656473206d6178696d756d60581b6044820152606490fd5b60405162461bcd60e51b815260206004820152600d60248201526c125b9d985b1a59081b1a5b5a5d609a1b6044820152606490fd5b905034610fd55781600319360112610fd557600260209254148152f35b600435906001600160a01b038216820361041f57565b602435906001600160a01b038216820361041f57565b90601f801991011681019081106001600160401b038211176127f357604052565b634e487b7160e01b600052604160045260246000fd5b6001600160401b0381116127f357601f01601f191660200190565b60005b8381106128375750506000910152565b8181015183820152602001612827565b51906001600160a01b038216820361041f57565b1561286257565b60405162461bcd60e51b81526020600482015260136024820152724e6f74207061796d656e74206164647265737360681b6044820152606490fd5b5190811515820361041f57565b156128b157565b60405162461bcd60e51b8152602060048201526015602482015274456d657267656e6379206d6f64652061637469766560581b6044820152606490fd5b156128f557565b60405162461bcd60e51b815260206004820152601960248201527f566f756368657220616c72656164792070726f636573736564000000000000006044820152606490fd5b1561294157565b60405162461bcd60e51b815260206004820152600e60248201526d125b9d985b1a5908185b5bdd5b9d60921b6044820152606490fd5b60208183031261041f578051906001600160401b03821161041f57019060e08282031261041f576040519160e083018381106001600160401b038211176127f357604052805183526129cb60208201612847565b60208401526040810151604084015260608101516001600160401b03811161041f5781019180601f8401121561041f57825192612a0784612809565b91612a1560405193846127d2565b8483526020858301011161041f5760c093612a369160208085019101612824565b6060840152612a476080820161289d565b608084015260a081015160a0840152015160c082015290565b15612a6757565b60405162461bcd60e51b81526020600482015260126024820152714e6574776f726b206e6f742061637469766560701b6044820152606490fd5b15612aa857565b60405162461bcd60e51b815260206004820152601060248201526f496e76616c696420747265617375727960801b6044820152606490fd5b91908203918211612aed57565b634e487b7160e01b600052601160045260246000fd5b15612b0a57565b60405162461bcd60e51b8152602060048201526013602482015272115e18d959591cc819185a5b1e481b1a5b5a5d606a1b6044820152606490fd5b6001600160401b0381116127f35760051b60200190565b9190811015612b6c576060020190565b634e487b7160e01b600052603260045260246000fd5b60608136031261041f576040519060608201908282106001600160401b038311176127f357604091825280358352602081013560208401520135604082015290565b8051821015612b6c5760209160051b010190565b91908201809211612aed57565b15612bec57565b60405162461bcd60e51b815260206004820152601d60248201527f496e73756666696369656e7420636f6e74726163742062616c616e63650000006044820152606490fd5b81810292918115918404141715612aed57565b9081602091031261041f575160ff8116810361041f5790565b603854680100000000000000008110156127f3576001810160385560006038548210156109a457603890527f38395c5dceade9603479b177b68959049485df8aa97b39f3533039af5f4561990180546001600160a01b0319166001600160a01b03909216919091179055565b6001600160a01b03168015612d2957600080516020612f4383398151915280546001600160a01b0319811683179091556001600160a01b03167f8be0079c531659141344cd1fd0a4f28419497f9722a3daafe3b4186f6b6457e0600080a3565b631e4fbdf760e01b600052600060045260246000fd5b600080516020612f43833981519152546001600160a01b03163303612d6057565b63118cdaa760e01b6000523360045260246000fd5b60ff600080516020612f838339815191525416612d8e57565b63d93c066560e01b60005260046000fd5b600260005414612db0576002600055565b60405162461bcd60e51b815260206004820152601f60248201527f5265656e7472616e637947756172643a207265656e7472616e742063616c6c006044820152606490fd5b60405163a9059cbb60e01b60009081526001600160a01b03909316600452602493909352919060209060448180865af190600160005114821615612e60575b60405215612e3f5750565b635274afe760e01b60009081526001600160a01b0391909116600452602490fd5b906001811516612e7857823b15153d15161690612e34565b503d6000823e3d90fd5b60ff600080516020612fa38339815191525460401c1615612e9f57565b631afcd79f60e31b60005260046000fd5b9060008091602081519101845af48080612f2f575b15612ee65750506040513d81523d6000602083013e60203d82010160405290565b15612f0c57639996b31560e01b60009081526001600160a01b0391909116600452602490fd5b3d15612f1e576040513d6000823e3d90fd5b63d6bda27560e01b60005260046000fd5b503d151580612ec55750813b1515612ec556fe9016d09d72d40fdae2fd8ceac6b6234c7706214fd39c1cd1e609a0528c199300360894a13ba1a3210667c828492db98dca3e2076cc3735a920a3ca505d382bbccd5ed15c6e187e77e9aee88184c21f4f2182ab5827cb3b7e07fbedcd63f03300f0c57e16840df040f15088dc2f81fe391c3923bec73e23a9662efc9c229c6a00a26469706673582212202e7671c41ffc27314ac2431240b827cce39a4aba036551bcc96ab6424aa2099d64736f6c634300081a0033",
  "linkReferences": {},
  "deployedLinkReferences": {}
}